{
  "_format": "hh-sol-artifact-1",
  "contractName": "ZKProofVerifier",
  "sourceName": "contracts/ZKProofVerifier.sol",
  "abi": [
    {
      "inputs": [],
      "stateMutability": "nonpayable",
      "type": "constructor"
    },
    {
      "inputs": [],
      "name": "InvalidProofData",
      "type": "error"
    },
    {
      "inputs": [],
      "name": "InvalidProofType",
      "type": "error"
    },
    {
      "inputs": [],
      "name": "InvalidVerificationKey",
      "type": "error"
    },
    {
      "inputs": [
        {
          "internalType": "address",
          "name": "owner",
          "type": "address"
        }
      ],
      "name": "OwnableInvalidOwner",
      "type": "error"
    },
    {
      "inputs": [
        {
          "internalType": "address",
          "name": "account",
          "type": "address"
        }
      ],
      "name": "OwnableUnauthorizedAccount",
      "type": "error"
    },
    {
      "inputs": [],
      "name": "ProofAlreadyVerified",
      "type": "error"
    },
    {
      "inputs": [],
      "name": "ReentrancyGuardReentrantCall",
      "type": "error"
    },
    {
      "anonymous": false,
      "inputs": [
        {
          "indexed": true,
          "internalType": "address",
          "name": "previousOwner",
          "type": "address"
        },
        {
          "indexed": true,
          "internalType": "address",
          "name": "newOwner",
          "type": "address"
        }
      ],
      "name": "OwnershipTransferred",
      "type": "event"
    },
    {
      "anonymous": false,
      "inputs": [
        {
          "indexed": true,
          "internalType": "bytes32",
          "name": "proofHash",
          "type": "bytes32"
        },
        {
          "indexed": false,
          "internalType": "string",
          "name": "proofType",
          "type": "string"
        },
        {
          "indexed": false,
          "internalType": "bool",
          "name": "isValid",
          "type": "bool"
        },
        {
          "indexed": true,
          "internalType": "address",
          "name": "verifier",
          "type": "address"
        }
      ],
      "name": "ProofVerified",
      "type": "event"
    },
    {
      "anonymous": false,
      "inputs": [
        {
          "indexed": true,
          "internalType": "string",
          "name": "proofType",
          "type": "string"
        },
        {
          "indexed": false,
          "internalType": "bytes32",
          "name": "keyHash",
          "type": "bytes32"
        }
      ],
      "name": "VerificationKeyUpdated",
      "type": "event"
    },
    {
      "inputs": [
        {
          "internalType": "string[]",
          "name": "proofTypes",
          "type": "string[]"
        },
        {
          "internalType": "bytes[]",
          "name": "proofDataArray",
          "type": "bytes[]"
        },
        {
          "internalType": "bytes[]",
          "name": "publicInputsArray",
          "type": "bytes[]"
        }
      ],
      "name": "batchVerifyProofs",
      "outputs": [
        {
          "internalType": "bool[]",
          "name": "results",
          "type": "bool[]"
        }
      ],
      "stateMutability": "nonpayable",
      "type": "function"
    },
    {
      "inputs": [
        {
          "internalType": "string",
          "name": "proofType",
          "type": "string"
        }
      ],
      "name": "disableVerificationKey",
      "outputs": [],
      "stateMutability": "nonpayable",
      "type": "function"
    },
    {
      "inputs": [
        {
          "internalType": "string",
          "name": "proofType",
          "type": "string"
        }
      ],
      "name": "enableVerificationKey",
      "outputs": [],
      "stateMutability": "nonpayable",
      "type": "function"
    },
    {
      "inputs": [],
      "name": "getSupportedProofTypes",
      "outputs": [
        {
          "internalType": "string[]",
          "name": "",
          "type": "string[]"
        }
      ],
      "stateMutability": "view",
      "type": "function"
    },
    {
      "inputs": [
        {
          "internalType": "string",
          "name": "proofType",
          "type": "string"
        }
      ],
      "name": "getVerificationKey",
      "outputs": [
        {
          "internalType": "bytes32",
          "name": "keyHash",
          "type": "bytes32"
        },
        {
          "internalType": "bytes",
          "name": "vkData",
          "type": "bytes"
        },
        {
          "internalType": "bool",
          "name": "isActive",
          "type": "bool"
        },
        {
          "internalType": "uint256",
          "name": "createdAt",
          "type": "uint256"
        }
      ],
      "stateMutability": "view",
      "type": "function"
    },
    {
      "inputs": [
        {
          "internalType": "bytes32",
          "name": "proofHash",
          "type": "bytes32"
        }
      ],
      "name": "getVerificationResult",
      "outputs": [
        {
          "internalType": "bool",
          "name": "isValid",
          "type": "bool"
        },
        {
          "internalType": "bytes32",
          "name": "publicInputsHash",
          "type": "bytes32"
        },
        {
          "internalType": "uint256",
          "name": "verifiedAt",
          "type": "uint256"
        },
        {
          "internalType": "address",
          "name": "verifier",
          "type": "address"
        }
      ],
      "stateMutability": "view",
      "type": "function"
    },
    {
      "inputs": [],
      "name": "getVerificationStats",
      "outputs": [
        {
          "internalType": "uint256",
          "name": "total",
          "type": "uint256"
        },
        {
          "internalType": "uint256",
          "name": "successful",
          "type": "uint256"
        },
        {
          "internalType": "uint256",
          "name": "successRate",
          "type": "uint256"
        }
      ],
      "stateMutability": "view",
      "type": "function"
    },
    {
      "inputs": [],
      "name": "owner",
      "outputs": [
        {
          "internalType": "address",
          "name": "",
          "type": "address"
        }
      ],
      "stateMutability": "view",
      "type": "function"
    },
    {
      "inputs": [],
      "name": "renounceOwnership",
      "outputs": [],
      "stateMutability": "nonpayable",
      "type": "function"
    },
    {
      "inputs": [
        {
          "internalType": "string",
          "name": "proofType",
          "type": "string"
        },
        {
          "internalType": "bytes",
          "name": "vkData",
          "type": "bytes"
        }
      ],
      "name": "setVerificationKey",
      "outputs": [],
      "stateMutability": "nonpayable",
      "type": "function"
    },
    {
      "inputs": [],
      "name": "successfulVerifications",
      "outputs": [
        {
          "internalType": "uint256",
          "name": "",
          "type": "uint256"
        }
      ],
      "stateMutability": "view",
      "type": "function"
    },
    {
      "inputs": [
        {
          "internalType": "uint256",
          "name": "",
          "type": "uint256"
        }
      ],
      "name": "supportedProofTypes",
      "outputs": [
        {
          "internalType": "string",
          "name": "",
          "type": "string"
        }
      ],
      "stateMutability": "view",
      "type": "function"
    },
    {
      "inputs": [],
      "name": "totalVerifications",
      "outputs": [
        {
          "internalType": "uint256",
          "name": "",
          "type": "uint256"
        }
      ],
      "stateMutability": "view",
      "type": "function"
    },
    {
      "inputs": [
        {
          "internalType": "address",
          "name": "newOwner",
          "type": "address"
        }
      ],
      "name": "transferOwnership",
      "outputs": [],
      "stateMutability": "nonpayable",
      "type": "function"
    },
    {
      "inputs": [
        {
          "internalType": "string",
          "name": "",
          "type": "string"
        }
      ],
      "name": "verificationKeys",
      "outputs": [
        {
          "internalType": "bytes32",
          "name": "keyHash",
          "type": "bytes32"
        },
        {
          "internalType": "bytes",
          "name": "vkData",
          "type": "bytes"
        },
        {
          "internalType": "bool",
          "name": "isActive",
          "type": "bool"
        },
        {
          "internalType": "uint256",
          "name": "createdAt",
          "type": "uint256"
        }
      ],
      "stateMutability": "view",
      "type": "function"
    },
    {
      "inputs": [
        {
          "internalType": "bytes32",
          "name": "",
          "type": "bytes32"
        }
      ],
      "name": "verificationResults",
      "outputs": [
        {
          "internalType": "bool",
          "name": "isValid",
          "type": "bool"
        },
        {
          "internalType": "bytes32",
          "name": "proofHash",
          "type": "bytes32"
        },
        {
          "internalType": "bytes32",
          "name": "publicInputsHash",
          "type": "bytes32"
        },
        {
          "internalType": "uint256",
          "name": "verifiedAt",
          "type": "uint256"
        },
        {
          "internalType": "address",
          "name": "verifier",
          "type": "address"
        }
      ],
      "stateMutability": "view",
      "type": "function"
    },
    {
      "inputs": [
        {
          "internalType": "string",
          "name": "proofType",
          "type": "string"
        },
        {
          "internalType": "bytes",
          "name": "proofData",
          "type": "bytes"
        },
        {
          "internalType": "bytes",
          "name": "publicInputs",
          "type": "bytes"
        }
      ],
      "name": "verifyProof",
      "outputs": [
        {
          "internalType": "bool",
          "name": "isValid",
          "type": "bool"
        }
      ],
      "stateMutability": "nonpayable",
      "type": "function"
    }
  ],
  "bytecode": "0x6080806040523461007e5733156100685760008054336001600160a01b03198216811783556040519290916001600160a01b0316907f8be0079c531659141344cd1fd0a4f28419497f9722a3daafe3b4186f6b6457e09080a3600180556113d090816100848239f35b631e4fbdf760e01b815260006004820152602490fd5b600080fdfe6080604052600436101561001257600080fd5b60003560e01c80623c791514610cc257806302cf829914610c3f57806321bf291b146108c657806336beb6971461086a57806341c7ce2e146107ff5780636131f7a1146105b557806361a9d75c1461053d5780636271a849146104b0578063715018a614610457578063742353691461035f5780637e5d70a0146102fa5780638da5cb5b146102d1578063ac90c140146102b3578063ae864daa14610295578063ba191715146101f3578063efcf6a8d1461016b5763f2fde38b146100d657600080fd5b34610166576020366003190112610166576004356001600160a01b038181169182900361016657610105611333565b811561014d57600054826bffffffffffffffffffffffff60a01b821617600055167f8be0079c531659141344cd1fd0a4f28419497f9722a3daafe3b4186f6b6457e0600080a3005b604051631e4fbdf760e01b815260006004820152602490fd5b600080fd5b346101665760003660031901126101665760055460065481159190826101e7576064810292818404606414821517156101d1576101bb578160609304905b60405192835260208301526040820152f35b634e487b7160e01b600052601260045260246000fd5b634e487b7160e01b600052601160045260246000fd5b606092506000906101a9565b34610166576020366003190112610166576004356001600160401b038111610166573660238201121561016657602061023961024c923690602481600401359101610f5b565b8160405193828580945193849201610d7a565b81016002815203019020805461029160405192610277846102708160018501610e5e565b0385610ef4565b600360ff6002830154169101549060405194859485610dc2565b0390f35b34610166576000366003190112610166576020600654604051908152f35b34610166576000366003190112610166576020600554604051908152f35b34610166576000366003190112610166576000546040516001600160a01b039091168152602090f35b3461016657602036600319011261016657600435600052600360205260a0604060002060ff8154169060018101549060028101546003820154916004600180881b03910154169260405194151585526020850152604084015260608301526080820152f35b346101665760003660031901126101665760045461037c81611217565b9061038a6040519283610ef4565b808252602090818301908160046000527f8a35acfbc15ff81a39ae7d344fd709f28e8600b4aa8c65c6b64bfe7fe36bd19b6000915b8383106104265750505050604051918083019381845251809452604083019360408160051b85010192916000955b8287106103fa5785850386f35b909192938280610416600193603f198a82030186528851610d9d565b96019201960195929190926103ed565b60018681926040999899516104468161043f8189610e5e565b0382610ef4565b8152019201920191909594956103bf565b3461016657600036600319011261016657610470611333565b600080546001600160a01b0319811682556001600160a01b03167f8be0079c531659141344cd1fd0a4f28419497f9722a3daafe3b4186f6b6457e08280a3005b34610166576020366003190112610166576004356001600160401b038111610166576104e0903690600401610d4d565b6104e8611333565b600360405182848237602081848101600281520301902001541561052b57602060029282604051938492833781018481520301902001805460ff19166001179055005b6040516369ed70ab60e01b8152600490fd5b34610166576020366003190112610166576004356001600160401b0381116101665761056d903690600401610d4d565b610575611333565b600360405182848237602081848101600281520301902001541561052b57602060029282604051938492833781018481520301902001805460ff19169055005b34610166576060366003190112610166576001600160401b03600435818111610166576105e6903690600401610f2b565b91602435818111610166576105ff903690600401610f2b565b909160443590811161016657610619903690600401610f2b565b9061062261126f565b828614806107f6575b156107b95761063986611217565b956106476040519788610ef4565b80875261065381611217565b601f190136602089013760005b8181106106ae57876001808055604051906020820160208352835180915260206040840194019060005b8181106106975784860385f35b82511515865260209586019590920191830161068a565b8060206106bf61070193858b61122e565b6107256106cd858b8d61122e565b906107136106dc888d8d61122e565b9290936040519a8b988998623c791560e01b8a52606060048b015260648a0191610fb0565b87810360031901602489015291610fb0565b84810360031901604486015291610fb0565b03816000305af19182156107ad57600092610770575b50885181101561075a57600191151560208260051b8b01015201610660565b634e487b7160e01b600052603260045260246000fd5b9091506020813d6020116107a5575b8161078c60209383610ef4565b810103126101665751801515810361016657908961073b565b3d915061077f565b6040513d6000823e3d90fd5b60405162461bcd60e51b8152602060048201526015602482015274082e4e4c2f240d8cadccee8d040dad2e6dac2e8c6d605b1b6044820152606490fd5b5081831461062b565b34610166576020366003190112610166576004356004548110156101665761082690610ded565b6108545761043f6108406102919260405192838092610e5e565b604051918291602083526020830190610d9d565b634e487b7160e01b600052600060045260246000fd5b346101665760203660031901126101665760043560005260036020526080604060002060ff81541690600281015490600381015490600460018060a01b0391015416916040519315158452602084015260408301526060820152f35b34610166576040366003190112610166576001600160401b03600435818111610166576108f7903690600401610d4d565b91602492833582811161016657610912903690600401610d4d565b939061091c611333565b610927368683610f5b565b9384516020809601209560036040518686823787818881016002815203019020015415610b26575b60405192608084019184831084841117610b1157610974926040528885523691610f5b565b85830190815260408301906001926001835260608501934285526040518888823789818a81016002815203019020955186556001860192519a8b51928311610afd57506109cb826109c58554610e24565b856111c1565b8890601f8311600114610a6d575091610a27826003969593610a42957fcafed62afbadcc638be1ffac505173ebb732f97a1c80b63445343bf06335682c9d9e600092610a62575b50508160011b916000199060031b1c19161790565b90555b511515600285019060ff801983541691151516179055565b5191015581604051928392833781016000815203902092604051908152a2005b015190508e80610a12565b9a601f198316846000528a6000209c6000905b828210610ae6575050927fcafed62afbadcc638be1ffac505173ebb732f97a1c80b63445343bf06335682c9b9c610a4295936001938360039a999710610ace575b505050811b019055610a2a565b0151600019838a1b60f8161c191690558d8080610ac1565b848401518f559d8e019d938c0193908c0190610a80565b634e487b7160e01b60009081526041600452fd5b89634e487b7160e01b60005260416004526000fd5b60045468010000000000000000811015610c2a57610b4c60019160018101600455610ded565b919091610c1557838711610b11578690610b6a826109c58554610e24565b600090601f8311600114610bad57509080610b9b92600091610ba2575b508160011b916000199060031b1c19161790565b905561094f565b90508701358c610b87565b91601f198116846000528a600020936000905b8c838310610bfa5750505010610be0575b5050600186811b01905561094f565b860135600019600389901b60f8161c191690558980610bd1565b8b860135875595810195948501948c94509190910190610bc0565b89634e487b7160e01b60005260006004526000fd5b88634e487b7160e01b60005260416004526000fd5b34610166576020366003190112610166576004356001600160401b038111610166576020610c736001923690600401610d4d565b91908260405193849283378101600281520301902061029181549160ff600282015416610cb6600383015492610caf6040518098819301610e5e565b0386610ef4565b60405194859485610dc2565b34610166576060366003190112610166576001600160401b0360043581811161016657610cf3903690600401610d4d565b60249291923582811161016657610d0e903690600401610d4d565b60449491943593841161016657602094610d2f610d3f953690600401610d4d565b949093610d3a61126f565b610fd1565b600180556040519015158152f35b9181601f84011215610166578235916001600160401b038311610166576020838186019501011161016657565b60005b838110610d8d5750506000910152565b8181015183820152602001610d7d565b90602091610db681518092818552858086019101610d7a565b601f01601f1916010190565b90606092610de191969594968352608060208401526080830190610d9d565b94151560408201520152565b60045481101561075a5760046000527f8a35acfbc15ff81a39ae7d344fd709f28e8600b4aa8c65c6b64bfe7fe36bd19b0190600090565b90600182811c92168015610e54575b6020831014610e3e57565b634e487b7160e01b600052602260045260246000fd5b91607f1691610e33565b805460009392610e6d82610e24565b91828252602093600191600181169081600014610ed55750600114610e94575b5050505050565b90939495506000929192528360002092846000945b838610610ec157505050500101903880808080610e8d565b805485870183015294019385908201610ea9565b60ff19168685015250505090151560051b010191503880808080610e8d565b90601f801991011681019081106001600160401b03821117610f1557604052565b634e487b7160e01b600052604160045260246000fd5b9181601f84011215610166578235916001600160401b038311610166576020808501948460051b01011161016657565b9291926001600160401b038211610f155760405191610f84601f8201601f191660200184610ef4565b829481845281830111610166578281602093846000960137010152565b60001981146101d15760010190565b908060209392818452848401376000828201840152601f01601f1916010190565b91909160409283519581838837600387838101600281526020998a910301902001541580156111a1575b61119057845193868886019182378685019461103189828c828a0199818860009c8d815237018983820152038084520182610ef4565b5190209586855260038852858520600381015461117f57509061105989611061938587611292565b983691610f5b565b86815191012084519060a082018281106001600160401b0382111761116b576004879695938a61114b96948b947fe863c4b0bb96b27c64e2f78877ed08b1fc220f2afdb7d52d3ad4bd887d7f360b9b528d1515988984526110f58b8486019288845281870194855260036060880196428852608089019a338c528352522094511515859060ff801983541691151516179055565b516001840155516002830155516003820155019060018060a01b039051166bffffffffffffffffffffffff60a01b82541617905588611135600554610fa1565b600555611158575b845194808652850191610fb0565b948201528033940390a390565b611163600654610fa1565b60065561113d565b634e487b7160e01b86526041600452602486fd5b5460ff169998505050505050505050565b84516369ed70ab60e01b8152600490fd5b5060ff600286518486823789818681018481520301902001541615610ffb565b90601f81116111cf57505050565b6000916000526020600020906020601f850160051c8301941061120d575b601f0160051c01915b82811061120257505050565b8181556001016111f6565b90925082906111ed565b6001600160401b038111610f155760051b60200190565b919081101561075a5760051b81013590601e19813603018212156101665701908135916001600160401b038311610166576020018236038113610166579190565b600260015414611280576002600155565b604051633ee5aeb560e01b8152600490fd5b61129d913691610f5b565b602081519101206040519060408201918083106001600160401b03841117610f155760207f65636473615f7369676e61747572655f766572696669636174696f6e00000000917f36d477060e2f5e503baad5323a99c1e35063633f7f8802a528b29b0456ff315e94604052601c8152015214611326571515908161131f575090565b9050151590565b906113309161135f565b90565b6000546001600160a01b0316330361134757565b60405163118cdaa760e01b8152336004820152602490fd5b9081158015611392575b61138b576060116113855760401161138057600190565b600090565b50600090565b5050600090565b50801561136956fea264697066735822122058392b1a76c11b5d3355a3306d20de6cecc195960b4a9a5ba73c58db50677a7764736f6c63430008160033",
  "linkReferences": {},
  "deployedLinkReferences": {}
}