{"contracts/ZKHealthPassRegistry.sol":{"ZKHealthPassRegistry":{"abi":[{"inputs":[],"stateMutability":"nonpayable","type":"constructor"},{"inputs":[],"name":"AccessControlBadConfirmation","type":"error"},{"inputs":[{"internalType":"address","name":"account","type":"address"},{"internalType":"bytes32","name":"neededRole","type":"bytes32"}],"name":"AccessControlUnauthorizedAccount","type":"error"},{"inputs":[{"internalType":"address","name":"target","type":"address"}],"name":"AddressEmptyCode","type":"error"},{"inputs":[],"name":"AuthorityAlreadyExists","type":"error"},{"inputs":[{"internalType":"address","name":"implementation","type":"address"}],"name":"ERC1967InvalidImplementation","type":"error"},{"inputs":[],"name":"ERC1967NonPayable","type":"error"},{"inputs":[],"name":"EnforcedPause","type":"error"},{"inputs":[],"name":"ExpectedPause","type":"error"},{"inputs":[],"name":"FailedCall","type":"error"},{"inputs":[],"name":"InvalidAuthority","type":"error"},{"inputs":[],"name":"InvalidInitialization","type":"error"},{"inputs":[],"name":"InvalidProof","type":"error"},{"inputs":[],"name":"NotInitializing","type":"error"},{"inputs":[],"name":"ProofAlreadyExists","type":"error"},{"inputs":[],"name":"ProofExpired","type":"error"},{"inputs":[],"name":"ReentrancyGuardReentrantCall","type":"error"},{"inputs":[],"name":"UUPSUnauthorizedCallContext","type":"error"},{"inputs":[{"internalType":"bytes32","name":"slot","type":"bytes32"}],"name":"UUPSUnsupportedProxiableUUID","type":"error"},{"inputs":[],"name":"UnauthorizedAccess","type":"error"},{"anonymous":false,"inputs":[{"indexed":true,"internalType":"address","name":"authority","type":"address"},{"indexed":false,"internalType":"string","name":"name","type":"string"},{"indexed":false,"internalType":"string","name":"authorityType","type":"string"}],"name":"HealthAuthorityRegistered","type":"event"},{"anonymous":false,"inputs":[{"indexed":true,"internalType":"address","name":"authority","type":"address"},{"indexed":false,"internalType":"bool","name":"isActive","type":"bool"}],"name":"HealthAuthorityUpdated","type":"event"},{"anonymous":false,"inputs":[{"indexed":true,"internalType":"bytes32","name":"recordHash","type":"bytes32"},{"indexed":true,"internalType":"address","name":"authority","type":"address"}],"name":"HealthRecordRevoked","type":"event"},{"anonymous":false,"inputs":[{"indexed":false,"internalType":"uint64","name":"version","type":"uint64"}],"name":"Initialized","type":"event"},{"anonymous":false,"inputs":[{"indexed":false,"internalType":"address","name":"account","type":"address"}],"name":"Paused","type":"event"},{"anonymous":false,"inputs":[{"indexed":true,"internalType":"bytes32","name":"role","type":"bytes32"},{"indexed":true,"internalType":"bytes32","name":"previousAdminRole","type":"bytes32"},{"indexed":true,"internalType":"bytes32","name":"newAdminRole","type":"bytes32"}],"name":"RoleAdminChanged","type":"event"},{"anonymous":false,"inputs":[{"indexed":true,"internalType":"bytes32","name":"role","type":"bytes32"},{"indexed":true,"internalType":"address","name":"account","type":"address"},{"indexed":true,"internalType":"address","name":"sender","type":"address"}],"name":"RoleGranted","type":"event"},{"anonymous":false,"inputs":[{"indexed":true,"internalType":"bytes32","name":"role","type":"bytes32"},{"indexed":true,"internalType":"address","name":"account","type":"address"},{"indexed":true,"internalType":"address","name":"sender","type":"address"}],"name":"RoleRevoked","type":"event"},{"anonymous":false,"inputs":[{"indexed":false,"internalType":"address","name":"account","type":"address"}],"name":"Unpaused","type":"event"},{"anonymous":false,"inputs":[{"indexed":true,"internalType":"address","name":"implementation","type":"address"}],"name":"Upgraded","type":"event"},{"anonymous":false,"inputs":[{"indexed":true,"internalType":"bytes32","name":"proofHash","type":"bytes32"},{"indexed":true,"internalType":"address","name":"revoker","type":"address"}],"name":"ZKProofRevoked","type":"event"},{"anonymous":false,"inputs":[{"indexed":true,"internalType":"bytes32","name":"proofHash","type":"bytes32"},{"indexed":true,"internalType":"bytes32","name":"healthRecordHash","type":"bytes32"},{"indexed":true,"internalType":"address","name":"authority","type":"address"},{"indexed":false,"internalType":"uint256","name":"expiresAt","type":"uint256"}],"name":"ZKProofSubmitted","type":"event"},{"anonymous":false,"inputs":[{"indexed":true,"internalType":"bytes32","name":"proofHash","type":"bytes32"},{"indexed":true,"internalType":"address","name":"verifier","type":"address"},{"indexed":false,"internalType":"bool","name":"isValid","type":"bool"},{"indexed":false,"internalType":"string","name":"context","type":"string"}],"name":"ZKProofVerified","type":"event"},{"inputs":[],"name":"ADMIN_ROLE","outputs":[{"internalType":"bytes32","name":"","type":"bytes32"}],"stateMutability":"view","type":"function"},{"inputs":[],"name":"AUTHORITY_MANAGER_ROLE","outputs":[{"internalType":"bytes32","name":"","type":"bytes32"}],"stateMutability":"view","type":"function"},{"inputs":[],"name":"DEFAULT_ADMIN_ROLE","outputs":[{"internalType":"bytes32","name":"","type":"bytes32"}],"stateMutability":"view","type":"function"},{"inputs":[],"name":"UPGRADE_INTERFACE_VERSION","outputs":[{"internalType":"string","name":"","type":"string"}],"stateMutability":"view","type":"function"},{"inputs":[],"name":"VERIFIER_ROLE","outputs":[{"internalType":"bytes32","name":"","type":"bytes32"}],"stateMutability":"view","type":"function"},{"inputs":[{"internalType":"uint256","name":"","type":"uint256"}],"name":"authorityAddresses","outputs":[{"internalType":"address","name":"","type":"address"}],"stateMutability":"view","type":"function"},{"inputs":[],"name":"getAllAuthorities","outputs":[{"internalType":"address[]","name":"","type":"address[]"}],"stateMutability":"view","type":"function"},{"inputs":[],"name":"getAllProofHashes","outputs":[{"internalType":"bytes32[]","name":"","type":"bytes32[]"}],"stateMutability":"view","type":"function"},{"inputs":[{"internalType":"address","name":"authorityAddress","type":"address"}],"name":"getHealthAuthority","outputs":[{"internalType":"string","name":"name","type":"string"},{"internalType":"string","name":"authorityType","type":"string"},{"internalType":"bytes","name":"publicKey","type":"bytes"},{"internalType":"string","name":"certificate","type":"string"},{"internalType":"bool","name":"isActive","type":"bool"},{"internalType":"uint256","name":"registeredAt","type":"uint256"},{"internalType":"uint256","name":"totalRecordsIssued","type":"uint256"}],"stateMutability":"view","type":"function"},{"inputs":[{"internalType":"bytes32","name":"role","type":"bytes32"}],"name":"getRoleAdmin","outputs":[{"internalType":"bytes32","name":"","type":"bytes32"}],"stateMutability":"view","type":"function"},{"inputs":[],"name":"getSystemStats","outputs":[{"internalType":"uint256","name":"_totalAuthorities","type":"uint256"},{"internalType":"uint256","name":"_totalProofs","type":"uint256"},{"internalType":"uint256","name":"_totalVerifications","type":"uint256"}],"stateMutability":"view","type":"function"},{"inputs":[{"internalType":"bytes32","name":"proofHash","type":"bytes32"}],"name":"getVerificationHistory","outputs":[{"components":[{"internalType":"bytes32","name":"proofHash","type":"bytes32"},{"internalType":"address","name":"verifier","type":"address"},{"internalType":"bool","name":"isValid","type":"bool"},{"internalType":"uint256","name":"timestamp","type":"uint256"},{"internalType":"string","name":"context","type":"string"}],"internalType":"struct ZKHealthPassRegistry.VerificationEvent[]","name":"","type":"tuple[]"}],"stateMutability":"view","type":"function"},{"inputs":[{"internalType":"bytes32","name":"proofHash","type":"bytes32"}],"name":"getZKProof","outputs":[{"internalType":"bytes32","name":"healthRecordHash","type":"bytes32"},{"internalType":"address","name":"authority","type":"address"},{"internalType":"uint256","name":"generatedAt","type":"uint256"},{"internalType":"uint256","name":"expiresAt","type":"uint256"},{"internalType":"bool","name":"isRevoked","type":"bool"},{"internalType":"uint256","name":"verificationCount","type":"uint256"}],"stateMutability":"view","type":"function"},{"inputs":[{"internalType":"bytes32","name":"role","type":"bytes32"},{"internalType":"address","name":"account","type":"address"}],"name":"grantRole","outputs":[],"stateMutability":"nonpayable","type":"function"},{"inputs":[{"internalType":"bytes32","name":"role","type":"bytes32"},{"internalType":"address","name":"account","type":"address"}],"name":"hasRole","outputs":[{"internalType":"bool","name":"","type":"bool"}],"stateMutability":"view","type":"function"},{"inputs":[{"internalType":"address","name":"","type":"address"}],"name":"healthAuthorities","outputs":[{"internalType":"string","name":"name","type":"string"},{"internalType":"string","name":"authorityType","type":"string"},{"internalType":"bytes","name":"publicKey","type":"bytes"},{"internalType":"string","name":"certificate","type":"string"},{"internalType":"bool","name":"isActive","type":"bool"},{"internalType":"uint256","name":"registeredAt","type":"uint256"},{"internalType":"uint256","name":"totalRecordsIssued","type":"uint256"}],"stateMutability":"view","type":"function"},{"inputs":[{"internalType":"address","name":"admin","type":"address"}],"name":"initialize","outputs":[],"stateMutability":"nonpayable","type":"function"},{"inputs":[{"internalType":"address","name":"authority","type":"address"},{"internalType":"bytes32","name":"recordHash","type":"bytes32"}],"name":"isHealthRecordRevoked","outputs":[{"internalType":"bool","name":"","type":"bool"}],"stateMutability":"view","type":"function"},{"inputs":[],"name":"pause","outputs":[],"stateMutability":"nonpayable","type":"function"},{"inputs":[],"name":"paused","outputs":[{"internalType":"bool","name":"","type":"bool"}],"stateMutability":"view","type":"function"},{"inputs":[{"internalType":"uint256","name":"","type":"uint256"}],"name":"proofHashes","outputs":[{"internalType":"bytes32","name":"","type":"bytes32"}],"stateMutability":"view","type":"function"},{"inputs":[],"name":"proxiableUUID","outputs":[{"internalType":"bytes32","name":"","type":"bytes32"}],"stateMutability":"view","type":"function"},{"inputs":[{"internalType":"address","name":"authorityAddress","type":"address"},{"internalType":"string","name":"name","type":"string"},{"internalType":"string","name":"authorityType","type":"string"},{"internalType":"bytes","name":"publicKey","type":"bytes"},{"internalType":"string","name":"certificate","type":"string"}],"name":"registerHealthAuthority","outputs":[],"stateMutability":"nonpayable","type":"function"},{"inputs":[{"internalType":"bytes32","name":"role","type":"bytes32"},{"internalType":"address","name":"callerConfirmation","type":"address"}],"name":"renounceRole","outputs":[],"stateMutability":"nonpayable","type":"function"},{"inputs":[{"internalType":"bytes32","name":"recordHash","type":"bytes32"}],"name":"revokeHealthRecord","outputs":[],"stateMutability":"nonpayable","type":"function"},{"inputs":[{"internalType":"bytes32","name":"role","type":"bytes32"},{"internalType":"address","name":"account","type":"address"}],"name":"revokeRole","outputs":[],"stateMutability":"nonpayable","type":"function"},{"inputs":[{"internalType":"bytes32","name":"proofHash","type":"bytes32"}],"name":"revokeZKProof","outputs":[],"stateMutability":"nonpayable","type":"function"},{"inputs":[{"internalType":"bytes32","name":"proofHash","type":"bytes32"},{"internalType":"bytes32","name":"healthRecordHash","type":"bytes32"},{"internalType":"address","name":"authority","type":"address"},{"internalType":"uint256","name":"expiresAt","type":"uint256"},{"internalType":"bytes","name":"proofData","type":"bytes"}],"name":"submitZKProof","outputs":[],"stateMutability":"nonpayable","type":"function"},{"inputs":[{"internalType":"bytes4","name":"interfaceId","type":"bytes4"}],"name":"supportsInterface","outputs":[{"internalType":"bool","name":"","type":"bool"}],"stateMutability":"view","type":"function"},{"inputs":[],"name":"totalAuthorities","outputs":[{"internalType":"uint256","name":"","type":"uint256"}],"stateMutability":"view","type":"function"},{"inputs":[],"name":"totalProofs","outputs":[{"internalType":"uint256","name":"","type":"uint256"}],"stateMutability":"view","type":"function"},{"inputs":[],"name":"totalVerifications","outputs":[{"internalType":"uint256","name":"","type":"uint256"}],"stateMutability":"view","type":"function"},{"inputs":[],"name":"unpause","outputs":[],"stateMutability":"nonpayable","type":"function"},{"inputs":[{"internalType":"address","name":"authorityAddress","type":"address"},{"internalType":"bool","name":"isActive","type":"bool"}],"name":"updateHealthAuthorityStatus","outputs":[],"stateMutability":"nonpayable","type":"function"},{"inputs":[{"internalType":"address","name":"newImplementation","type":"address"},{"internalType":"bytes","name":"data","type":"bytes"}],"name":"upgradeToAndCall","outputs":[],"stateMutability":"payable","type":"function"},{"inputs":[{"internalType":"bytes32","name":"","type":"bytes32"},{"internalType":"uint256","name":"","type":"uint256"}],"name":"verificationHistory","outputs":[{"internalType":"bytes32","name":"proofHash","type":"bytes32"},{"internalType":"address","name":"verifier","type":"address"},{"internalType":"bool","name":"isValid","type":"bool"},{"internalType":"uint256","name":"timestamp","type":"uint256"},{"internalType":"string","name":"context","type":"string"}],"stateMutability":"view","type":"function"},{"inputs":[{"internalType":"bytes32","name":"proofHash","type":"bytes32"},{"internalType":"string","name":"context","type":"string"}],"name":"verifyZKProof","outputs":[{"internalType":"bool","name":"isValid","type":"bool"}],"stateMutability":"nonpayable","type":"function"},{"inputs":[{"internalType":"bytes32","name":"","type":"bytes32"}],"name":"zkProofs","outputs":[{"internalType":"bytes32","name":"proofHash","type":"bytes32"},{"internalType":"bytes32","name":"healthRecordHash","type":"bytes32"},{"internalType":"address","name":"authority","type":"address"},{"internalType":"uint256","name":"generatedAt","type":"uint256"},{"internalType":"uint256","name":"expiresAt","type":"uint256"},{"internalType":"bool","name":"isRevoked","type":"bool"},{"internalType":"uint256","name":"verificationCount","type":"uint256"}],"stateMutability":"view","type":"function"}],"evm":{"bytecode":{"linkReferences":{},"object":"60a080604052346100cc57306080527ff0c57e16840df040f15088dc2f81fe391c3923bec73e23a9662efc9c229c6a009081549060ff8260401c166100bd57506001600160401b036002600160401b031982821601610078575b6040516126a290816100d2823960805181818161106d01526111260152f35b6001600160401b031990911681179091556040519081527fc7f505b2f371ae2175ee4913f4499e1f2633a7b5936321eed1cdaeb6115181d290602090a1388080610059565b63f92ee8a960e01b8152600490fd5b600080fdfe608080604052600436101561001357600080fd5b60003560e01c90816301ffc9a714611ce35750806308408bc514611c2457806308b01dc414611b965780631427e44114611b78578063167073ee1461168557806322cf6193146115db578063248a9ca31461159f5780632ded3568146115815780632f2ff15d1461153557806333d1ae08146114fa57806336568abe146114b357806339cc49df146114325780633cae193b1461137c5780633f4ba83a146113055780634f1ef286146110d757806352d1902d1461105a5780635c975abb1461102a57806375b238fc146110015780638456cb5914610f9a5780638607761f14610f4a57806391d1485414610ef0578063a1d8258114610ca1578063a217fddf14610c85578063a86e971514610c4e578063ac90c14014610c30578063ad3cb1cc14610bd8578063b69dab6814610b96578063c1695caa14610b1c578063c4d66de81461099b578063c73b33dc146108bf578063d1ce59a714610890578063d51b456b1461081d578063d547741f146107cf578063d6c7c50314610678578063e1fe74fd146105f3578063e7705db6146105b8578063eb2f774e1461028e5763fedf2c56146101c157600080fd5b3461028957600036600319011261028957604051806003548083526020809301809160036000527fc2575a0e9e593c00f959f8c92f12db2869c3395a3b0502d05e2516446f71f85b9060005b8682821061026c57868661022382880383611dbd565b604051928392818401908285525180915260408401929160005b82811061024c57505050500390f35b83516001600160a01b03168552869550938101939281019260010161023d565b83546001600160a01b03168552909301926001928301920161020d565b600080fd5b34610289576040366003190112610289576004356001600160401b03602435818111610289576102c2903690600401611eef565b90926102cc612158565b80600052600193602094808652604060002060038101541560001461050d57506000945b836000526002875260406000209160405161030a81611da2565b8581528881019733895260408201901515988982526060830190428252610332368b8a612017565b96608085019788528054600160401b8110156104e157610356918782018155611d36565b9390936104f7576003945184558584019160018060a01b0390511682549160ff60a01b9051151560a01b16916affffffffffffffffffffff60a81b161717905551600282015501925180519283116104e1576103bc836103b68654611d68565b866120bc565b8891601f84116001146104565750827f7cd17665c199faadf7a359d20cbf1d54e48ebb214e3d7138d90db00753177214959361044095936104149360009261044b575b50508160011b916000199060031b1c19161790565b90555b610422600754612112565b60075560405191829187835260408984015233966040840191612137565b0390a3604051908152f35b015190508b806103ff565b9291601f19831691856000528a6000209260005b8c8282106104cd575050917f7cd17665c199faadf7a359d20cbf1d54e48ebb214e3d7138d90db007531772149795939185610440989694106104b4575b505050811b019055610417565b015160001960f88460031b161c191690558a80806104a7565b83850151865594870194938401930161046a565b634e487b7160e01b600052604160045260246000fd5b634e487b7160e01b600052600060045260246000fd5b600581015460ff161561052357506000946102f0565b600481015480151590816105ae575b501561054157506000946102f0565b60028101546001600160a01b0316600090815280885260409020600481015460ff166105715750506000946102f0565b6007908383015460005201875260ff6040600020541660001461059757506000946102f0565b9460068296016105a78154612112565b90556102f0565b9050421188610532565b346102895760003660031901126102895760206040517f0ce23c3e399818cfee81a7ab0880f714e53d7672b08df0fa62f2843416e1ea098152f35b34610289576020366003190112610289576001600160a01b03610614611ec3565b166000526000602052604060002060ff600482015416610674600583015460068401549061064185611dde565b9361064e60018701611dde565b95610667600361066060028401611f1c565b9201611dde565b9060405197889788611f9c565b0390f35b3461028957602080600319360112610289576004356000526002808252604060002080546001600160401b0381116104e15760405193926106bf600583901b850186611dbd565b81855260009283528383208486019391845b84841061076e57604080518881528951818a01819052600092600582901b83018101918a918c9085015b8287106107085785850386f35b90919293828061075e600193603f198a820301865288519060a09082518152868060a01b038584015116858201526040830151151560408201526060808401519082015281608080940151938201520190611e83565b96019201960195929190926106fb565b60048760019260409a999a5161078381611da2565b8654815260ff85880154868060a01b0381168584015260a01c16151560408201528587015460608201526107b960038801611dde565b60808201528152019301930192919695966106d1565b346102895760403660031901126102895761081b6004356107ee611ed9565b908060005260008051602061260d833981519152602052610816600160406000200154612247565b6124c5565b005b3461028957602036600319011261028957600435600052600160205260c0604060002060018101549060018060a01b03600282015416906003810154600482015490600660ff600585015416930154936040519586526020860152604085015260608401521515608083015260a0820152f35b346102895760003660031901126102895760606005546006546007549060405192835260208301526040820152f35b346102895760208060031936011261028957600435906108dd612158565b336000526000815260ff60046040600020015416158061095d575b61094b57336000526000815260076040600020019082600052526040600020600160ff1982541617905533907f2d39aa90c1f9517e47e1db941b3804234d9c8338b1f5562a95f33a967adcb1c7600080a3005b604051631a27eac360e11b8152600490fd5b5060008051602061264d83398151915260005260008051602061260d8339815191528152604060002033600052815260ff60406000205416156108f8565b34610289576020366003190112610289576109b4611ec3565b7ff0c57e16840df040f15088dc2f81fe391c3923bec73e23a9662efc9c229c6a0090815460ff8160401c1615916001600160401b03821680159081610b14575b6001149081610b0a575b159081610b01575b50610aef5767ffffffffffffffff1982166001178455610a8c9183610ad0575b50610a2f612548565b610a37612548565b610a3f612548565b610a47612548565b60017f9b779b17422d0df92223018b32b4d1fa46e071723d6817e2486d003becc55f0055610a73612548565b610a7c8161227a565b50610a8681612308565b506123a6565b50610a9357005b68ff00000000000000001981541690557fc7f505b2f371ae2175ee4913f4499e1f2633a7b5936321eed1cdaeb6115181d2602060405160018152a1005b68ffffffffffffffffff19166801000000000000000117845584610a26565b60405163f92ee8a960e01b8152600490fd5b90501585610a06565b303b1591506109fe565b8491506109f4565b3461028957602036600319011261028957600435600052600160205260e0604060002080549060018101549060018060a01b036002820154166003820154600483015491600660ff600586015416940154946040519687526020870152604086015260608501526080840152151560a083015260c0820152f35b346102895760203660031901126102895760043560035481101561028957610bbf60209161204e565b905460405160039290921b1c6001600160a01b03168152f35b346102895760003660031901126102895760405160408101908082106001600160401b038311176104e1576106749160405260058152640352e302e360dc1b6020820152604051918291602083526020830190611e83565b34610289576000366003190112610289576020600754604051908152f35b346102895760203660031901126102895760043560045481101561028957610c77602091612085565b90546040519160031b1c8152f35b3461028957600036600319011261028957602060405160008152f35b346102895760a0366003190112610289576004356001600160a01b03604435818116906024359082900361028957606435936001600160401b0360843581811161028957610cf3903690600401611eef565b5050610cfd612158565b7f9b779b17422d0df92223018b32b4d1fa46e071723d6817e2486d003becc55f00946002865414610ede57600286558260005260209160018352600360406000200154610ecc57856000526000835260ff6004604060002001541615610eba5783158015610eb2575b610ea0576040519160e08301918211838310176104e157600691604052848352610e1084840191878352604085018981526060860142815260808701918d835260a08801936000855260c0890196600088528b60005260018b52604060002099518a555160018a0155600289019151166bffffffffffffffffffffffff60a01b825416179055516003870155516004860155511515600585019060ff801983541691151516179055565b5191015560045490600160401b8210156104e157600196610e5783897fdb0c35dda8d526cc468605fb51d281f009b6d4d17b6e73a5632c407b07b987b99501600455612085565b81549060031b9086821b91600019901b1916179055610e77600654612112565b60065585600052600082526006604060002001610e948154612112565b9055604051908152a455005b6040516309bde33960e01b8152600490fd5b508415610d66565b604051636f6a1b8760e11b8152600490fd5b60405163b8cdb9bd60e01b8152600490fd5b604051633ee5aeb560e01b8152600490fd5b3461028957604036600319011261028957610f09611ed9565b60043560005260008051602061260d83398151915260205260406000209060018060a01b0316600052602052602060ff604060002054166040519015158152f35b34610289576040366003190112610289576001600160a01b03610f6b611ec3565b1660005260006020526007604060002001602435600052602052602060ff604060002054166040519015158152f35b3461028957600036600319011261028957610fb36121fd565b610fbb612158565b60008051602061262d833981519152600160ff198254161790557f62e78cea01bee320cd4e420270b5ea74000d11b0c9f74754ebdbfc544b05a2586020604051338152a1005b3461028957600036600319011261028957602060405160008051602061264d8339815191528152f35b3461028957600036600319011261028957602060ff60008051602061262d83398151915254166040519015158152f35b34610289576000366003190112610289577f00000000000000000000000000000000000000000000000000000000000000006001600160a01b031630036110c55760206040517f360894a13ba1a3210667c828492db98dca3e2076cc3735a920a3ca505d382bbc8152f35b60405163703e46dd60e11b8152600490fd5b6040366003190112610289576110eb611ec3565b6024356001600160401b03811161028957366023820112156102895761111b903690602481600401359101612017565b906001600160a01b037f000000000000000000000000000000000000000000000000000000000000000081163081149081156112d7575b506110c55761115f6121fd565b6040516352d1902d60e01b8152908216916020918281600481875afa600091816112a8575b506111a257604051634c9c8ce360e01b815260048101859052602490fd5b9284937f360894a13ba1a3210667c828492db98dca3e2076cc3735a920a3ca505d382bbc908181036112905750823b156112775780546001600160a01b03191682179055604051907fbc7cd75a20ee27fd9adebab32041f755214dbc6bffa90cc0225b39da2e5c2d3b600080a283511561125d5750600080848461081b96519101845af4903d15611254573d61123781611ffc565b906112456040519283611dbd565b8152600081943d92013e612589565b60609250612589565b925050503461126857005b63b398979f60e01b8152600490fd5b604051634c9c8ce360e01b815260048101839052602490fd5b60249060405190632a87526960e21b82526004820152fd5b9091508381813d83116112d0575b6112c08183611dbd565b8101031261028957519086611184565b503d6112b6565b9050817f360894a13ba1a3210667c828492db98dca3e2076cc3735a920a3ca505d382bbc5416141584611152565b346102895760003660031901126102895761131e6121fd565b60008051602061262d833981519152805460ff81161561136a5760ff191690557f5db9ee0a495bf2e6ff9c91a7834c1ba4fdd244a5e8aa4e537bd38aeae4b073aa6020604051338152a1005b604051638dfc202b60e01b8152600490fd5b3461028957600036600319011261028957604051806004548083526020809301809160046000527f8a35acfbc15ff81a39ae7d344fd709f28e8600b4aa8c65c6b64bfe7fe36bd19b9060005b8682821061141e5786866113de82880383611dbd565b604051928392818401908285525180915260408401929160005b82811061140757505050500390f35b8351855286955093810193928101926001016113f8565b8354855290930192600192830192016113c8565b34610289576020366003190112610289576001600160a01b03611453611ec3565b166000526000602052604060002061146a81611dde565b61067461147960018401611dde565b9261148660028201611f1c565b9061149360038201611dde565b60ff60048301541690600660058401549301549360405197889788611f9c565b34610289576040366003190112610289576114cc611ed9565b336001600160a01b038216036114e85761081b906004356124c5565b60405163334bd91960e11b8152600490fd5b346102895760003660031901126102895760206040517f1324c07b429e7aca3a767b19c12867b295a0a37d54953449d8c7f5da7bfd23478152f35b346102895760403660031901126102895761081b600435611554611ed9565b908060005260008051602061260d83398151915260205261157c600160406000200154612247565b612450565b34610289576000366003190112610289576020600654604051908152f35b346102895760203660031901126102895760043560005260008051602061260d8339815191526020526020600160406000200154604051908152f35b34610289576040366003190112610289576115f4611ec3565b60243590811515908183036102895761160b612183565b611613612158565b60018060a01b03169182600052600060205260056040600020015415610eba577fe2c7e58d09321ad575b9693100ed35d3d7b350225719418e3aababea724409739161167c602092856000526000845260046040600020019060ff801983541691151516179055565b604051908152a2005b346102895760a03660031901126102895761169e611ec3565b6024356001600160401b038111610289576116bd903690600401611eef565b906044356001600160401b038111610289576116dd903690600401611eef565b9290936064356001600160401b038111610289576116ff903690600401611eef565b6084356001600160401b0381116102895761171e903690600401611eef565b9091611728612183565b611730612158565b6001600160a01b038516600090815260208190526040902060050154611b66576001600160a01b0385166000908152602081905260409020936001600160401b0387116104e15761178b876117858754611d68565b876120bc565b600087601f8111600114611afd57806117ba92600091611af2575b508160011b916000199060031b1c19161790565b85555b6001600160401b0389116104e1576117e5896117dc6001880154611d68565b600188016120bc565b600089601f8111600114611a83578061181392600091611a7857508160011b916000199060031b1c19161790565b60018601555b6001600160401b0382116104e157611841826118386002880154611d68565b600288016120bc565b600090601f8311600114611a0a576118719291600091836119ff5750508160011b916000199060031b1c19161790565b60028401555b60038301916001600160401b0382116104e15761189e826118988554611d68565b856120bc565b600090601f8311600114611997576118ce92916000918361198c5750508160011b916000199060031b1c19161790565b90555b60048101600160ff1982541617905560054291015560035490600160401b8210156104e1577f756316b04a04bcf1c6dcf35960ff8d4f31d9179708b86e1177696390c6d7bbf09461192b836001611987950160035561204e565b81546001600160a01b0385811660039390931b92831b921b191617905560055461195490612112565b60055561196e604051958695604087526040870191612137565b84810360208601526001600160a01b0390921696612137565b0390a2005b013590508a806103ff565b601f198316918460005260206000209260005b8181106119e757509084600195949392106119cd575b505050811b0190556118d1565b0135600019600384901b60f8161c191690558980806119c0565b919360206001819287870135815501950192016119aa565b013590508b806103ff565b601f198316916002870160005260206000209260005b818110611a605750908460019594939210611a46575b505050811b016002840155611877565b0135600019600384901b60f8161c191690558a8080611a36565b91936020600181928787013581550195019201611a20565b90508c01358d6117a6565b506001860160005260206000209060005b8c601f198d168210611ada5750508a601f19811610611ac0575b5050600189811b016001860155611819565b8b013560001960038c901b60f8161c191690558a80611aae565b60018394602093948493013581550193019101611a94565b90508a01358d6117a6565b508560005260206000209060005b8a601f198b168210611b4e57505088601f19811610611b34575b5050600187811b0185556117bd565b89013560001960038a901b60f8161c191690558a80611b25565b60018394602093948493013581550193019101611b0b565b6040516359db621160e11b8152600490fd5b34610289576000366003190112610289576020600554604051908152f35b34610289576040366003190112610289576024356004356000526002602052604060002090815481101561028957611bcd91611d36565b508054610674600183015492611bea600360028301549201611dde565b9060ff604051958695865260018060a01b038116602087015260a01c1615156040850152606084015260a0608084015260a0830190611e83565b3461028957602036600319011261028957600435611c40612158565b8060005260016020526040600020600381015415610ea05760028101546001600160a01b031633141580611caa575b61094b57600501805460ff1916600117905533907f2179dbd57f3b7382a131c9fcee85d10f6dc8f061641526d8b3b38ae94ddd85f7600080a3005b503360009081527fb16e88c42fd4e48df2dd6a2eabd6bc9aec654ec170056b470819f8892cc6431c602052604090205460ff1615611c6f565b34610289576020366003190112610289576004359063ffffffff60e01b821680920361028957602091637965db0b60e01b8114908115611d25575b5015158152f35b6301ffc9a760e01b14905083611d1e565b8054821015611d525760005260206000209060021b0190600090565b634e487b7160e01b600052603260045260246000fd5b90600182811c92168015611d98575b6020831014611d8257565b634e487b7160e01b600052602260045260246000fd5b91607f1691611d77565b60a081019081106001600160401b038211176104e157604052565b90601f801991011681019081106001600160401b038211176104e157604052565b90604051918260008254611df181611d68565b90818452602094600191600181169081600014611e615750600114611e22575b505050611e2092500383611dbd565b565b600090815285812095935091905b818310611e49575050611e209350820101388080611e11565b85548884018501529485019487945091830191611e30565b92505050611e2094925060ff191682840152151560051b820101388080611e11565b919082519283825260005b848110611eaf575050826000602080949584010152601f8019910116010190565b602081830181015184830182015201611e8e565b600435906001600160a01b038216820361028957565b602435906001600160a01b038216820361028957565b9181601f84011215610289578235916001600160401b038311610289576020838186019501011161028957565b90604051918260008254611f2f81611d68565b90818452602094600191600181169081600014611e615750600114611f5d57505050611e2092500383611dbd565b600090815285812095935091905b818310611f84575050611e209350820101388080611e11565b85548884018501529485019487945091830191611f6b565b939060c09598979693611fcf611feb94611fc1611fdd9460e08a5260e08a0190611e83565b9088820360208a0152611e83565b908682036040880152611e83565b908482036060860152611e83565b951515608083015260a08201520152565b6001600160401b0381116104e157601f01601f191660200190565b92919261202382611ffc565b916120316040519384611dbd565b829481845281830111610289578281602093846000960137010152565b600354811015611d525760036000527fc2575a0e9e593c00f959f8c92f12db2869c3395a3b0502d05e2516446f71f85b0190600090565b600454811015611d525760046000527f8a35acfbc15ff81a39ae7d344fd709f28e8600b4aa8c65c6b64bfe7fe36bd19b0190600090565b90601f81116120ca57505050565b6000916000526020600020906020601f850160051c83019410612108575b601f0160051c01915b8281106120fd57505050565b8181556001016120f1565b90925082906120e8565b60001981146121215760010190565b634e487b7160e01b600052601160045260246000fd5b908060209392818452848401376000828201840152601f01601f1916010190565b60ff60008051602061262d833981519152541661217157565b60405163d93c066560e01b8152600490fd5b3360009081527f9967084534f1bfdf20406ac7fea0e72efc88feba87e44092894e4546122729c360205260409020547f1324c07b429e7aca3a767b19c12867b295a0a37d54953449d8c7f5da7bfd23479060ff16156121df5750565b6044906040519063e2517d3f60e01b82523360048301526024820152fd5b3360009081527fb16e88c42fd4e48df2dd6a2eabd6bc9aec654ec170056b470819f8892cc6431c602052604090205460008051602061264d8339815191529060ff16156121df5750565b8060005260008051602061260d83398151915260205260406000203360005260205260ff60406000205416156121df5750565b6001600160a01b031660008181527fb7db2dd08fcb62d0c9e08c51941cae53c267786a0b75803fb7960902fc8ef97d602052604081205490919060008051602061260d8339815191529060ff16612303578280526020526040822081835260205260408220600160ff1982541617905533916000805160206125ed8339815191528180a4600190565b505090565b6001600160a01b031660008181527fb16e88c42fd4e48df2dd6a2eabd6bc9aec654ec170056b470819f8892cc6431c602052604081205490919060008051602061264d8339815191529060008051602061260d8339815191529060ff166123a0578184526020526040832082845260205260408320600160ff198254161790556000805160206125ed833981519152339380a4600190565b50505090565b6001600160a01b031660008181527f9967084534f1bfdf20406ac7fea0e72efc88feba87e44092894e4546122729c360205260408120549091907f1324c07b429e7aca3a767b19c12867b295a0a37d54953449d8c7f5da7bfd23479060008051602061260d8339815191529060ff166123a0578184526020526040832082845260205260408320600160ff198254161790556000805160206125ed833981519152339380a4600190565b9060009180835260008051602061260d83398151915280602052604084209260018060a01b03169283855260205260ff604085205416156000146123a0578184526020526040832082845260205260408320600160ff198254161790556000805160206125ed833981519152339380a4600190565b9060009180835260008051602061260d83398151915280602052604084209260018060a01b03169283855260205260ff6040852054166000146123a057818452602052604083208284526020526040832060ff1981541690557ff6391f5c32d9c69d2a47ea670b442974b53935d1edc7fd64eb21e047a839171b339380a4600190565b60ff7ff0c57e16840df040f15088dc2f81fe391c3923bec73e23a9662efc9c229c6a005460401c161561257757565b604051631afcd79f60e31b8152600490fd5b906125b0575080511561259e57602081519101fd5b60405163d6bda27560e01b8152600490fd5b815115806125e3575b6125c1575090565b604051639996b31560e01b81526001600160a01b039091166004820152602490fd5b50803b156125b956fe2f8788117e7eff1d82e926ec794901d17c78024a50270940304540a733656f0d02dd7bc7dec4dceedda775e58dd541e08a116c6c53815c0bd028192f7b626800cd5ed15c6e187e77e9aee88184c21f4f2182ab5827cb3b7e07fbedcd63f03300a49807205ce4d355092ef5a8a18f56e8913cf4a201fbe287825b095693c21775a2646970667358221220bfb711e24ffd995f5f0bf215713979cbb795f419841f1f594be1084fbfb92c5464736f6c63430008160033","opcodes":"PUSH1 0xA0 DUP1 PUSH1 0x40 MSTORE CALLVALUE PUSH2 0xCC JUMPI ADDRESS PUSH1 0x80 MSTORE PUSH32 0xF0C57E16840DF040F15088DC2F81FE391C3923BEC73E23A9662EFC9C229C6A00 SWAP1 DUP2 SLOAD SWAP1 PUSH1 0xFF DUP3 PUSH1 0x40 SHR AND PUSH2 0xBD JUMPI POP PUSH1 0x1 PUSH1 0x1 PUSH1 0x40 SHL SUB PUSH1 0x2 PUSH1 0x1 PUSH1 0x40 SHL SUB NOT DUP3 DUP3 AND ADD PUSH2 0x78 JUMPI JUMPDEST PUSH1 0x40 MLOAD PUSH2 0x26A2 SWAP1 DUP2 PUSH2 0xD2 DUP3 CODECOPY PUSH1 0x80 MLOAD DUP2 DUP2 DUP2 PUSH2 0x106D ADD MSTORE PUSH2 0x1126 ADD MSTORE RETURN JUMPDEST PUSH1 0x1 PUSH1 0x1 PUSH1 0x40 SHL SUB NOT SWAP1 SWAP2 AND DUP2 OR SWAP1 SWAP2 SSTORE PUSH1 0x40 MLOAD SWAP1 DUP2 MSTORE PUSH32 0xC7F505B2F371AE2175EE4913F4499E1F2633A7B5936321EED1CDAEB6115181D2 SWAP1 PUSH1 0x20 SWAP1 LOG1 CODESIZE DUP1 DUP1 PUSH2 0x59 JUMP JUMPDEST PUSH4 0xF92EE8A9 PUSH1 0xE0 SHL DUP2 MSTORE PUSH1 0x4 SWAP1 REVERT JUMPDEST PUSH1 0x0 DUP1 REVERT INVALID PUSH1 0x80 DUP1 PUSH1 0x40 MSTORE PUSH1 0x4 CALLDATASIZE LT ISZERO PUSH2 0x13 JUMPI PUSH1 0x0 DUP1 REVERT JUMPDEST PUSH1 0x0 CALLDATALOAD PUSH1 0xE0 SHR SWAP1 DUP2 PUSH4 0x1FFC9A7 EQ PUSH2 0x1CE3 JUMPI POP DUP1 PUSH4 0x8408BC5 EQ PUSH2 0x1C24 JUMPI DUP1 PUSH4 0x8B01DC4 EQ PUSH2 0x1B96 JUMPI DUP1 PUSH4 0x1427E441 EQ PUSH2 0x1B78 JUMPI DUP1 PUSH4 0x167073EE EQ PUSH2 0x1685 JUMPI DUP1 PUSH4 0x22CF6193 EQ PUSH2 0x15DB JUMPI DUP1 PUSH4 0x248A9CA3 EQ PUSH2 0x159F JUMPI DUP1 PUSH4 0x2DED3568 EQ PUSH2 0x1581 JUMPI DUP1 PUSH4 0x2F2FF15D EQ PUSH2 0x1535 JUMPI DUP1 PUSH4 0x33D1AE08 EQ PUSH2 0x14FA JUMPI DUP1 PUSH4 0x36568ABE EQ PUSH2 0x14B3 JUMPI DUP1 PUSH4 0x39CC49DF EQ PUSH2 0x1432 JUMPI DUP1 PUSH4 0x3CAE193B EQ PUSH2 0x137C JUMPI DUP1 PUSH4 0x3F4BA83A EQ PUSH2 0x1305 JUMPI DUP1 PUSH4 0x4F1EF286 EQ PUSH2 0x10D7 JUMPI DUP1 PUSH4 0x52D1902D EQ PUSH2 0x105A JUMPI DUP1 PUSH4 0x5C975ABB EQ PUSH2 0x102A JUMPI DUP1 PUSH4 0x75B238FC EQ PUSH2 0x1001 JUMPI DUP1 PUSH4 0x8456CB59 EQ PUSH2 0xF9A JUMPI DUP1 PUSH4 0x8607761F EQ PUSH2 0xF4A JUMPI DUP1 PUSH4 0x91D14854 EQ PUSH2 0xEF0 JUMPI DUP1 PUSH4 0xA1D82581 EQ PUSH2 0xCA1 JUMPI DUP1 PUSH4 0xA217FDDF EQ PUSH2 0xC85 JUMPI DUP1 PUSH4 0xA86E9715 EQ PUSH2 0xC4E JUMPI DUP1 PUSH4 0xAC90C140 EQ PUSH2 0xC30 JUMPI DUP1 PUSH4 0xAD3CB1CC EQ PUSH2 0xBD8 JUMPI DUP1 PUSH4 0xB69DAB68 EQ PUSH2 0xB96 JUMPI DUP1 PUSH4 0xC1695CAA EQ PUSH2 0xB1C JUMPI DUP1 PUSH4 0xC4D66DE8 EQ PUSH2 0x99B JUMPI DUP1 PUSH4 0xC73B33DC EQ PUSH2 0x8BF JUMPI DUP1 PUSH4 0xD1CE59A7 EQ PUSH2 0x890 JUMPI DUP1 PUSH4 0xD51B456B EQ PUSH2 0x81D JUMPI DUP1 PUSH4 0xD547741F EQ PUSH2 0x7CF JUMPI DUP1 PUSH4 0xD6C7C503 EQ PUSH2 0x678 JUMPI DUP1 PUSH4 0xE1FE74FD EQ PUSH2 0x5F3 JUMPI DUP1 PUSH4 0xE7705DB6 EQ PUSH2 0x5B8 JUMPI DUP1 PUSH4 0xEB2F774E EQ PUSH2 0x28E JUMPI PUSH4 0xFEDF2C56 EQ PUSH2 0x1C1 JUMPI PUSH1 0x0 DUP1 REVERT JUMPDEST CALLVALUE PUSH2 0x289 JUMPI PUSH1 0x0 CALLDATASIZE PUSH1 0x3 NOT ADD SLT PUSH2 0x289 JUMPI PUSH1 0x40 MLOAD DUP1 PUSH1 0x3 SLOAD DUP1 DUP4 MSTORE PUSH1 0x20 DUP1 SWAP4 ADD DUP1 SWAP2 PUSH1 0x3 PUSH1 0x0 MSTORE PUSH32 0xC2575A0E9E593C00F959F8C92F12DB2869C3395A3B0502D05E2516446F71F85B SWAP1 PUSH1 0x0 JUMPDEST DUP7 DUP3 DUP3 LT PUSH2 0x26C JUMPI DUP7 DUP7 PUSH2 0x223 DUP3 DUP9 SUB DUP4 PUSH2 0x1DBD JUMP JUMPDEST PUSH1 0x40 MLOAD SWAP3 DUP4 SWAP3 DUP2 DUP5 ADD SWAP1 DUP3 DUP6 MSTORE MLOAD DUP1 SWAP2 MSTORE PUSH1 0x40 DUP5 ADD SWAP3 SWAP2 PUSH1 0x0 JUMPDEST DUP3 DUP2 LT PUSH2 0x24C JUMPI POP POP POP POP SUB SWAP1 RETURN JUMPDEST DUP4 MLOAD PUSH1 0x1 PUSH1 0x1 PUSH1 0xA0 SHL SUB AND DUP6 MSTORE DUP7 SWAP6 POP SWAP4 DUP2 ADD SWAP4 SWAP3 DUP2 ADD SWAP3 PUSH1 0x1 ADD PUSH2 0x23D JUMP JUMPDEST DUP4 SLOAD PUSH1 0x1 PUSH1 0x1 PUSH1 0xA0 SHL SUB AND DUP6 MSTORE SWAP1 SWAP4 ADD SWAP3 PUSH1 0x1 SWAP3 DUP4 ADD SWAP3 ADD PUSH2 0x20D JUMP JUMPDEST PUSH1 0x0 DUP1 REVERT JUMPDEST CALLVALUE PUSH2 0x289 JUMPI PUSH1 0x40 CALLDATASIZE PUSH1 0x3 NOT ADD SLT PUSH2 0x289 JUMPI PUSH1 0x4 CALLDATALOAD PUSH1 0x1 PUSH1 0x1 PUSH1 0x40 SHL SUB PUSH1 0x24 CALLDATALOAD DUP2 DUP2 GT PUSH2 0x289 JUMPI PUSH2 0x2C2 SWAP1 CALLDATASIZE SWAP1 PUSH1 0x4 ADD PUSH2 0x1EEF JUMP JUMPDEST SWAP1 SWAP3 PUSH2 0x2CC PUSH2 0x2158 JUMP JUMPDEST DUP1 PUSH1 0x0 MSTORE PUSH1 0x1 SWAP4 PUSH1 0x20 SWAP5 DUP1 DUP7 MSTORE PUSH1 0x40 PUSH1 0x0 KECCAK256 PUSH1 0x3 DUP2 ADD SLOAD ISZERO PUSH1 0x0 EQ PUSH2 0x50D JUMPI POP PUSH1 0x0 SWAP5 JUMPDEST DUP4 PUSH1 0x0 MSTORE PUSH1 0x2 DUP8 MSTORE PUSH1 0x40 PUSH1 0x0 KECCAK256 SWAP2 PUSH1 0x40 MLOAD PUSH2 0x30A DUP2 PUSH2 0x1DA2 JUMP JUMPDEST DUP6 DUP2 MSTORE DUP9 DUP2 ADD SWAP8 CALLER DUP10 MSTORE PUSH1 0x40 DUP3 ADD SWAP1 ISZERO ISZERO SWAP9 DUP10 DUP3 MSTORE PUSH1 0x60 DUP4 ADD SWAP1 TIMESTAMP DUP3 MSTORE PUSH2 0x332 CALLDATASIZE DUP12 DUP11 PUSH2 0x2017 JUMP JUMPDEST SWAP7 PUSH1 0x80 DUP6 ADD SWAP8 DUP9 MSTORE DUP1 SLOAD PUSH1 0x1 PUSH1 0x40 SHL DUP2 LT ISZERO PUSH2 0x4E1 JUMPI PUSH2 0x356 SWAP2 DUP8 DUP3 ADD DUP2 SSTORE PUSH2 0x1D36 JUMP JUMPDEST SWAP4 SWAP1 SWAP4 PUSH2 0x4F7 JUMPI PUSH1 0x3 SWAP5 MLOAD DUP5 SSTORE DUP6 DUP5 ADD SWAP2 PUSH1 0x1 DUP1 PUSH1 0xA0 SHL SUB SWAP1 MLOAD AND DUP3 SLOAD SWAP2 PUSH1 0xFF PUSH1 0xA0 SHL SWAP1 MLOAD ISZERO ISZERO PUSH1 0xA0 SHL AND SWAP2 PUSH11 0xFFFFFFFFFFFFFFFFFFFFFF PUSH1 0xA8 SHL AND OR OR SWAP1 SSTORE MLOAD PUSH1 0x2 DUP3 ADD SSTORE ADD SWAP3 MLOAD DUP1 MLOAD SWAP3 DUP4 GT PUSH2 0x4E1 JUMPI PUSH2 0x3BC DUP4 PUSH2 0x3B6 DUP7 SLOAD PUSH2 0x1D68 JUMP JUMPDEST DUP7 PUSH2 0x20BC JUMP JUMPDEST DUP9 SWAP2 PUSH1 0x1F DUP5 GT PUSH1 0x1 EQ PUSH2 0x456 JUMPI POP DUP3 PUSH32 0x7CD17665C199FAADF7A359D20CBF1D54E48EBB214E3D7138D90DB00753177214 SWAP6 SWAP4 PUSH2 0x440 SWAP6 SWAP4 PUSH2 0x414 SWAP4 PUSH1 0x0 SWAP3 PUSH2 0x44B JUMPI JUMPDEST POP POP DUP2 PUSH1 0x1 SHL SWAP2 PUSH1 0x0 NOT SWAP1 PUSH1 0x3 SHL SHR NOT AND OR SWAP1 JUMP JUMPDEST SWAP1 SSTORE JUMPDEST PUSH2 0x422 PUSH1 0x7 SLOAD PUSH2 0x2112 JUMP JUMPDEST PUSH1 0x7 SSTORE PUSH1 0x40 MLOAD SWAP2 DUP3 SWAP2 DUP8 DUP4 MSTORE PUSH1 0x40 DUP10 DUP5 ADD MSTORE CALLER SWAP7 PUSH1 0x40 DUP5 ADD SWAP2 PUSH2 0x2137 JUMP JUMPDEST SUB SWAP1 LOG3 PUSH1 0x40 MLOAD SWAP1 DUP2 MSTORE RETURN JUMPDEST ADD MLOAD SWAP1 POP DUP12 DUP1 PUSH2 0x3FF JUMP JUMPDEST SWAP3 SWAP2 PUSH1 0x1F NOT DUP4 AND SWAP2 DUP6 PUSH1 0x0 MSTORE DUP11 PUSH1 0x0 KECCAK256 SWAP3 PUSH1 0x0 JUMPDEST DUP13 DUP3 DUP3 LT PUSH2 0x4CD JUMPI POP POP SWAP2 PUSH32 0x7CD17665C199FAADF7A359D20CBF1D54E48EBB214E3D7138D90DB00753177214 SWAP8 SWAP6 SWAP4 SWAP2 DUP6 PUSH2 0x440 SWAP9 SWAP7 SWAP5 LT PUSH2 0x4B4 JUMPI JUMPDEST POP POP POP DUP2 SHL ADD SWAP1 SSTORE PUSH2 0x417 JUMP JUMPDEST ADD MLOAD PUSH1 0x0 NOT PUSH1 0xF8 DUP5 PUSH1 0x3 SHL AND SHR NOT AND SWAP1 SSTORE DUP11 DUP1 DUP1 PUSH2 0x4A7 JUMP JUMPDEST DUP4 DUP6 ADD MLOAD DUP7 SSTORE SWAP5 DUP8 ADD SWAP5 SWAP4 DUP5 ADD SWAP4 ADD PUSH2 0x46A JUMP JUMPDEST PUSH4 0x4E487B71 PUSH1 0xE0 SHL PUSH1 0x0 MSTORE PUSH1 0x41 PUSH1 0x4 MSTORE PUSH1 0x24 PUSH1 0x0 REVERT JUMPDEST PUSH4 0x4E487B71 PUSH1 0xE0 SHL PUSH1 0x0 MSTORE PUSH1 0x0 PUSH1 0x4 MSTORE PUSH1 0x24 PUSH1 0x0 REVERT JUMPDEST PUSH1 0x5 DUP2 ADD SLOAD PUSH1 0xFF AND ISZERO PUSH2 0x523 JUMPI POP PUSH1 0x0 SWAP5 PUSH2 0x2F0 JUMP JUMPDEST PUSH1 0x4 DUP2 ADD SLOAD DUP1 ISZERO ISZERO SWAP1 DUP2 PUSH2 0x5AE JUMPI JUMPDEST POP ISZERO PUSH2 0x541 JUMPI POP PUSH1 0x0 SWAP5 PUSH2 0x2F0 JUMP JUMPDEST PUSH1 0x2 DUP2 ADD SLOAD PUSH1 0x1 PUSH1 0x1 PUSH1 0xA0 SHL SUB AND PUSH1 0x0 SWAP1 DUP2 MSTORE DUP1 DUP9 MSTORE PUSH1 0x40 SWAP1 KECCAK256 PUSH1 0x4 DUP2 ADD SLOAD PUSH1 0xFF AND PUSH2 0x571 JUMPI POP POP PUSH1 0x0 SWAP5 PUSH2 0x2F0 JUMP JUMPDEST PUSH1 0x7 SWAP1 DUP4 DUP4 ADD SLOAD PUSH1 0x0 MSTORE ADD DUP8 MSTORE PUSH1 0xFF PUSH1 0x40 PUSH1 0x0 KECCAK256 SLOAD AND PUSH1 0x0 EQ PUSH2 0x597 JUMPI POP PUSH1 0x0 SWAP5 PUSH2 0x2F0 JUMP JUMPDEST SWAP5 PUSH1 0x6 DUP3 SWAP7 ADD PUSH2 0x5A7 DUP2 SLOAD PUSH2 0x2112 JUMP JUMPDEST SWAP1 SSTORE PUSH2 0x2F0 JUMP JUMPDEST SWAP1 POP TIMESTAMP GT DUP9 PUSH2 0x532 JUMP JUMPDEST CALLVALUE PUSH2 0x289 JUMPI PUSH1 0x0 CALLDATASIZE PUSH1 0x3 NOT ADD SLT PUSH2 0x289 JUMPI PUSH1 0x20 PUSH1 0x40 MLOAD PUSH32 0xCE23C3E399818CFEE81A7AB0880F714E53D7672B08DF0FA62F2843416E1EA09 DUP2 MSTORE RETURN JUMPDEST CALLVALUE PUSH2 0x289 JUMPI PUSH1 0x20 CALLDATASIZE PUSH1 0x3 NOT ADD SLT PUSH2 0x289 JUMPI PUSH1 0x1 PUSH1 0x1 PUSH1 0xA0 SHL SUB PUSH2 0x614 PUSH2 0x1EC3 JUMP JUMPDEST AND PUSH1 0x0 MSTORE PUSH1 0x0 PUSH1 0x20 MSTORE PUSH1 0x40 PUSH1 0x0 KECCAK256 PUSH1 0xFF PUSH1 0x4 DUP3 ADD SLOAD AND PUSH2 0x674 PUSH1 0x5 DUP4 ADD SLOAD PUSH1 0x6 DUP5 ADD SLOAD SWAP1 PUSH2 0x641 DUP6 PUSH2 0x1DDE JUMP JUMPDEST SWAP4 PUSH2 0x64E PUSH1 0x1 DUP8 ADD PUSH2 0x1DDE JUMP JUMPDEST SWAP6 PUSH2 0x667 PUSH1 0x3 PUSH2 0x660 PUSH1 0x2 DUP5 ADD PUSH2 0x1F1C JUMP JUMPDEST SWAP3 ADD PUSH2 0x1DDE JUMP JUMPDEST SWAP1 PUSH1 0x40 MLOAD SWAP8 DUP9 SWAP8 DUP9 PUSH2 0x1F9C JUMP JUMPDEST SUB SWAP1 RETURN JUMPDEST CALLVALUE PUSH2 0x289 JUMPI PUSH1 0x20 DUP1 PUSH1 0x3 NOT CALLDATASIZE ADD SLT PUSH2 0x289 JUMPI PUSH1 0x4 CALLDATALOAD PUSH1 0x0 MSTORE PUSH1 0x2 DUP1 DUP3 MSTORE PUSH1 0x40 PUSH1 0x0 KECCAK256 DUP1 SLOAD PUSH1 0x1 PUSH1 0x1 PUSH1 0x40 SHL SUB DUP2 GT PUSH2 0x4E1 JUMPI PUSH1 0x40 MLOAD SWAP4 SWAP3 PUSH2 0x6BF PUSH1 0x5 DUP4 SWAP1 SHL DUP6 ADD DUP7 PUSH2 0x1DBD JUMP JUMPDEST DUP2 DUP6 MSTORE PUSH1 0x0 SWAP3 DUP4 MSTORE DUP4 DUP4 KECCAK256 DUP5 DUP7 ADD SWAP4 SWAP2 DUP5 JUMPDEST DUP5 DUP5 LT PUSH2 0x76E JUMPI PUSH1 0x40 DUP1 MLOAD DUP9 DUP2 MSTORE DUP10 MLOAD DUP2 DUP11 ADD DUP2 SWAP1 MSTORE PUSH1 0x0 SWAP3 PUSH1 0x5 DUP3 SWAP1 SHL DUP4 ADD DUP2 ADD SWAP2 DUP11 SWAP2 DUP13 SWAP1 DUP6 ADD JUMPDEST DUP3 DUP8 LT PUSH2 0x708 JUMPI DUP6 DUP6 SUB DUP7 RETURN JUMPDEST SWAP1 SWAP2 SWAP3 SWAP4 DUP3 DUP1 PUSH2 0x75E PUSH1 0x1 SWAP4 PUSH1 0x3F NOT DUP11 DUP3 SUB ADD DUP7 MSTORE DUP9 MLOAD SWAP1 PUSH1 0xA0 SWAP1 DUP3 MLOAD DUP2 MSTORE DUP7 DUP1 PUSH1 0xA0 SHL SUB DUP6 DUP5 ADD MLOAD AND DUP6 DUP3 ADD MSTORE PUSH1 0x40 DUP4 ADD MLOAD ISZERO ISZERO PUSH1 0x40 DUP3 ADD MSTORE PUSH1 0x60 DUP1 DUP5 ADD MLOAD SWAP1 DUP3 ADD MSTORE DUP2 PUSH1 0x80 DUP1 SWAP5 ADD MLOAD SWAP4 DUP3 ADD MSTORE ADD SWAP1 PUSH2 0x1E83 JUMP JUMPDEST SWAP7 ADD SWAP3 ADD SWAP7 ADD SWAP6 SWAP3 SWAP2 SWAP1 SWAP3 PUSH2 0x6FB JUMP JUMPDEST PUSH1 0x4 DUP8 PUSH1 0x1 SWAP3 PUSH1 0x40 SWAP11 SWAP10 SWAP11 MLOAD PUSH2 0x783 DUP2 PUSH2 0x1DA2 JUMP JUMPDEST DUP7 SLOAD DUP2 MSTORE PUSH1 0xFF DUP6 DUP9 ADD SLOAD DUP7 DUP1 PUSH1 0xA0 SHL SUB DUP2 AND DUP6 DUP5 ADD MSTORE PUSH1 0xA0 SHR AND ISZERO ISZERO PUSH1 0x40 DUP3 ADD MSTORE DUP6 DUP8 ADD SLOAD PUSH1 0x60 DUP3 ADD MSTORE PUSH2 0x7B9 PUSH1 0x3 DUP9 ADD PUSH2 0x1DDE JUMP JUMPDEST PUSH1 0x80 DUP3 ADD MSTORE DUP2 MSTORE ADD SWAP4 ADD SWAP4 ADD SWAP3 SWAP2 SWAP7 SWAP6 SWAP7 PUSH2 0x6D1 JUMP JUMPDEST CALLVALUE PUSH2 0x289 JUMPI PUSH1 0x40 CALLDATASIZE PUSH1 0x3 NOT ADD SLT PUSH2 0x289 JUMPI PUSH2 0x81B PUSH1 0x4 CALLDATALOAD PUSH2 0x7EE PUSH2 0x1ED9 JUMP JUMPDEST SWAP1 DUP1 PUSH1 0x0 MSTORE PUSH1 0x0 DUP1 MLOAD PUSH1 0x20 PUSH2 0x260D DUP4 CODECOPY DUP2 MLOAD SWAP2 MSTORE PUSH1 0x20 MSTORE PUSH2 0x816 PUSH1 0x1 PUSH1 0x40 PUSH1 0x0 KECCAK256 ADD SLOAD PUSH2 0x2247 JUMP JUMPDEST PUSH2 0x24C5 JUMP JUMPDEST STOP JUMPDEST CALLVALUE PUSH2 0x289 JUMPI PUSH1 0x20 CALLDATASIZE PUSH1 0x3 NOT ADD SLT PUSH2 0x289 JUMPI PUSH1 0x4 CALLDATALOAD PUSH1 0x0 MSTORE PUSH1 0x1 PUSH1 0x20 MSTORE PUSH1 0xC0 PUSH1 0x40 PUSH1 0x0 KECCAK256 PUSH1 0x1 DUP2 ADD SLOAD SWAP1 PUSH1 0x1 DUP1 PUSH1 0xA0 SHL SUB PUSH1 0x2 DUP3 ADD SLOAD AND SWAP1 PUSH1 0x3 DUP2 ADD SLOAD PUSH1 0x4 DUP3 ADD SLOAD SWAP1 PUSH1 0x6 PUSH1 0xFF PUSH1 0x5 DUP6 ADD SLOAD AND SWAP4 ADD SLOAD SWAP4 PUSH1 0x40 MLOAD SWAP6 DUP7 MSTORE PUSH1 0x20 DUP7 ADD MSTORE PUSH1 0x40 DUP6 ADD MSTORE PUSH1 0x60 DUP5 ADD MSTORE ISZERO ISZERO PUSH1 0x80 DUP4 ADD MSTORE PUSH1 0xA0 DUP3 ADD MSTORE RETURN JUMPDEST CALLVALUE PUSH2 0x289 JUMPI PUSH1 0x0 CALLDATASIZE PUSH1 0x3 NOT ADD SLT PUSH2 0x289 JUMPI PUSH1 0x60 PUSH1 0x5 SLOAD PUSH1 0x6 SLOAD PUSH1 0x7 SLOAD SWAP1 PUSH1 0x40 MLOAD SWAP3 DUP4 MSTORE PUSH1 0x20 DUP4 ADD MSTORE PUSH1 0x40 DUP3 ADD MSTORE RETURN JUMPDEST CALLVALUE PUSH2 0x289 JUMPI PUSH1 0x20 DUP1 PUSH1 0x3 NOT CALLDATASIZE ADD SLT PUSH2 0x289 JUMPI PUSH1 0x4 CALLDATALOAD SWAP1 PUSH2 0x8DD PUSH2 0x2158 JUMP JUMPDEST CALLER PUSH1 0x0 MSTORE PUSH1 0x0 DUP2 MSTORE PUSH1 0xFF PUSH1 0x4 PUSH1 0x40 PUSH1 0x0 KECCAK256 ADD SLOAD AND ISZERO DUP1 PUSH2 0x95D JUMPI JUMPDEST PUSH2 0x94B JUMPI CALLER PUSH1 0x0 MSTORE PUSH1 0x0 DUP2 MSTORE PUSH1 0x7 PUSH1 0x40 PUSH1 0x0 KECCAK256 ADD SWAP1 DUP3 PUSH1 0x0 MSTORE MSTORE PUSH1 0x40 PUSH1 0x0 KECCAK256 PUSH1 0x1 PUSH1 0xFF NOT DUP3 SLOAD AND OR SWAP1 SSTORE CALLER SWAP1 PUSH32 0x2D39AA90C1F9517E47E1DB941B3804234D9C8338B1F5562A95F33A967ADCB1C7 PUSH1 0x0 DUP1 LOG3 STOP JUMPDEST PUSH1 0x40 MLOAD PUSH4 0x1A27EAC3 PUSH1 0xE1 SHL DUP2 MSTORE PUSH1 0x4 SWAP1 REVERT JUMPDEST POP PUSH1 0x0 DUP1 MLOAD PUSH1 0x20 PUSH2 0x264D DUP4 CODECOPY DUP2 MLOAD SWAP2 MSTORE PUSH1 0x0 MSTORE PUSH1 0x0 DUP1 MLOAD PUSH1 0x20 PUSH2 0x260D DUP4 CODECOPY DUP2 MLOAD SWAP2 MSTORE DUP2 MSTORE PUSH1 0x40 PUSH1 0x0 KECCAK256 CALLER PUSH1 0x0 MSTORE DUP2 MSTORE PUSH1 0xFF PUSH1 0x40 PUSH1 0x0 KECCAK256 SLOAD AND ISZERO PUSH2 0x8F8 JUMP JUMPDEST CALLVALUE PUSH2 0x289 JUMPI PUSH1 0x20 CALLDATASIZE PUSH1 0x3 NOT ADD SLT PUSH2 0x289 JUMPI PUSH2 0x9B4 PUSH2 0x1EC3 JUMP JUMPDEST PUSH32 0xF0C57E16840DF040F15088DC2F81FE391C3923BEC73E23A9662EFC9C229C6A00 SWAP1 DUP2 SLOAD PUSH1 0xFF DUP2 PUSH1 0x40 SHR AND ISZERO SWAP2 PUSH1 0x1 PUSH1 0x1 PUSH1 0x40 SHL SUB DUP3 AND DUP1 ISZERO SWAP1 DUP2 PUSH2 0xB14 JUMPI JUMPDEST PUSH1 0x1 EQ SWAP1 DUP2 PUSH2 0xB0A JUMPI JUMPDEST ISZERO SWAP1 DUP2 PUSH2 0xB01 JUMPI JUMPDEST POP PUSH2 0xAEF JUMPI PUSH8 0xFFFFFFFFFFFFFFFF NOT DUP3 AND PUSH1 0x1 OR DUP5 SSTORE PUSH2 0xA8C SWAP2 DUP4 PUSH2 0xAD0 JUMPI JUMPDEST POP PUSH2 0xA2F PUSH2 0x2548 JUMP JUMPDEST PUSH2 0xA37 PUSH2 0x2548 JUMP JUMPDEST PUSH2 0xA3F PUSH2 0x2548 JUMP JUMPDEST PUSH2 0xA47 PUSH2 0x2548 JUMP JUMPDEST PUSH1 0x1 PUSH32 0x9B779B17422D0DF92223018B32B4D1FA46E071723D6817E2486D003BECC55F00 SSTORE PUSH2 0xA73 PUSH2 0x2548 JUMP JUMPDEST PUSH2 0xA7C DUP2 PUSH2 0x227A JUMP JUMPDEST POP PUSH2 0xA86 DUP2 PUSH2 0x2308 JUMP JUMPDEST POP PUSH2 0x23A6 JUMP JUMPDEST POP PUSH2 0xA93 JUMPI STOP JUMPDEST PUSH9 0xFF0000000000000000 NOT DUP2 SLOAD AND SWAP1 SSTORE PUSH32 0xC7F505B2F371AE2175EE4913F4499E1F2633A7B5936321EED1CDAEB6115181D2 PUSH1 0x20 PUSH1 0x40 MLOAD PUSH1 0x1 DUP2 MSTORE LOG1 STOP JUMPDEST PUSH9 0xFFFFFFFFFFFFFFFFFF NOT AND PUSH9 0x10000000000000001 OR DUP5 SSTORE DUP5 PUSH2 0xA26 JUMP JUMPDEST PUSH1 0x40 MLOAD PUSH4 0xF92EE8A9 PUSH1 0xE0 SHL DUP2 MSTORE PUSH1 0x4 SWAP1 REVERT JUMPDEST SWAP1 POP ISZERO DUP6 PUSH2 0xA06 JUMP JUMPDEST ADDRESS EXTCODESIZE ISZERO SWAP2 POP PUSH2 0x9FE JUMP JUMPDEST DUP5 SWAP2 POP PUSH2 0x9F4 JUMP JUMPDEST CALLVALUE PUSH2 0x289 JUMPI PUSH1 0x20 CALLDATASIZE PUSH1 0x3 NOT ADD SLT PUSH2 0x289 JUMPI PUSH1 0x4 CALLDATALOAD PUSH1 0x0 MSTORE PUSH1 0x1 PUSH1 0x20 MSTORE PUSH1 0xE0 PUSH1 0x40 PUSH1 0x0 KECCAK256 DUP1 SLOAD SWAP1 PUSH1 0x1 DUP2 ADD SLOAD SWAP1 PUSH1 0x1 DUP1 PUSH1 0xA0 SHL SUB PUSH1 0x2 DUP3 ADD SLOAD AND PUSH1 0x3 DUP3 ADD SLOAD PUSH1 0x4 DUP4 ADD SLOAD SWAP2 PUSH1 0x6 PUSH1 0xFF PUSH1 0x5 DUP7 ADD SLOAD AND SWAP5 ADD SLOAD SWAP5 PUSH1 0x40 MLOAD SWAP7 DUP8 MSTORE PUSH1 0x20 DUP8 ADD MSTORE PUSH1 0x40 DUP7 ADD MSTORE PUSH1 0x60 DUP6 ADD MSTORE PUSH1 0x80 DUP5 ADD MSTORE ISZERO ISZERO PUSH1 0xA0 DUP4 ADD MSTORE PUSH1 0xC0 DUP3 ADD MSTORE RETURN JUMPDEST CALLVALUE PUSH2 0x289 JUMPI PUSH1 0x20 CALLDATASIZE PUSH1 0x3 NOT ADD SLT PUSH2 0x289 JUMPI PUSH1 0x4 CALLDATALOAD PUSH1 0x3 SLOAD DUP2 LT ISZERO PUSH2 0x289 JUMPI PUSH2 0xBBF PUSH1 0x20 SWAP2 PUSH2 0x204E JUMP JUMPDEST SWAP1 SLOAD PUSH1 0x40 MLOAD PUSH1 0x3 SWAP3 SWAP1 SWAP3 SHL SHR PUSH1 0x1 PUSH1 0x1 PUSH1 0xA0 SHL SUB AND DUP2 MSTORE RETURN JUMPDEST CALLVALUE PUSH2 0x289 JUMPI PUSH1 0x0 CALLDATASIZE PUSH1 0x3 NOT ADD SLT PUSH2 0x289 JUMPI PUSH1 0x40 MLOAD PUSH1 0x40 DUP2 ADD SWAP1 DUP1 DUP3 LT PUSH1 0x1 PUSH1 0x1 PUSH1 0x40 SHL SUB DUP4 GT OR PUSH2 0x4E1 JUMPI PUSH2 0x674 SWAP2 PUSH1 0x40 MSTORE PUSH1 0x5 DUP2 MSTORE PUSH5 0x352E302E3 PUSH1 0xDC SHL PUSH1 0x20 DUP3 ADD MSTORE PUSH1 0x40 MLOAD SWAP2 DUP3 SWAP2 PUSH1 0x20 DUP4 MSTORE PUSH1 0x20 DUP4 ADD SWAP1 PUSH2 0x1E83 JUMP JUMPDEST CALLVALUE PUSH2 0x289 JUMPI PUSH1 0x0 CALLDATASIZE PUSH1 0x3 NOT ADD SLT PUSH2 0x289 JUMPI PUSH1 0x20 PUSH1 0x7 SLOAD PUSH1 0x40 MLOAD SWAP1 DUP2 MSTORE RETURN JUMPDEST CALLVALUE PUSH2 0x289 JUMPI PUSH1 0x20 CALLDATASIZE PUSH1 0x3 NOT ADD SLT PUSH2 0x289 JUMPI PUSH1 0x4 CALLDATALOAD PUSH1 0x4 SLOAD DUP2 LT ISZERO PUSH2 0x289 JUMPI PUSH2 0xC77 PUSH1 0x20 SWAP2 PUSH2 0x2085 JUMP JUMPDEST SWAP1 SLOAD PUSH1 0x40 MLOAD SWAP2 PUSH1 0x3 SHL SHR DUP2 MSTORE RETURN JUMPDEST CALLVALUE PUSH2 0x289 JUMPI PUSH1 0x0 CALLDATASIZE PUSH1 0x3 NOT ADD SLT PUSH2 0x289 JUMPI PUSH1 0x20 PUSH1 0x40 MLOAD PUSH1 0x0 DUP2 MSTORE RETURN JUMPDEST CALLVALUE PUSH2 0x289 JUMPI PUSH1 0xA0 CALLDATASIZE PUSH1 0x3 NOT ADD SLT PUSH2 0x289 JUMPI PUSH1 0x4 CALLDATALOAD PUSH1 0x1 PUSH1 0x1 PUSH1 0xA0 SHL SUB PUSH1 0x44 CALLDATALOAD DUP2 DUP2 AND SWAP1 PUSH1 0x24 CALLDATALOAD SWAP1 DUP3 SWAP1 SUB PUSH2 0x289 JUMPI PUSH1 0x64 CALLDATALOAD SWAP4 PUSH1 0x1 PUSH1 0x1 PUSH1 0x40 SHL SUB PUSH1 0x84 CALLDATALOAD DUP2 DUP2 GT PUSH2 0x289 JUMPI PUSH2 0xCF3 SWAP1 CALLDATASIZE SWAP1 PUSH1 0x4 ADD PUSH2 0x1EEF JUMP JUMPDEST POP POP PUSH2 0xCFD PUSH2 0x2158 JUMP JUMPDEST PUSH32 0x9B779B17422D0DF92223018B32B4D1FA46E071723D6817E2486D003BECC55F00 SWAP5 PUSH1 0x2 DUP7 SLOAD EQ PUSH2 0xEDE JUMPI PUSH1 0x2 DUP7 SSTORE DUP3 PUSH1 0x0 MSTORE PUSH1 0x20 SWAP2 PUSH1 0x1 DUP4 MSTORE PUSH1 0x3 PUSH1 0x40 PUSH1 0x0 KECCAK256 ADD SLOAD PUSH2 0xECC JUMPI DUP6 PUSH1 0x0 MSTORE PUSH1 0x0 DUP4 MSTORE PUSH1 0xFF PUSH1 0x4 PUSH1 0x40 PUSH1 0x0 KECCAK256 ADD SLOAD AND ISZERO PUSH2 0xEBA JUMPI DUP4 ISZERO DUP1 ISZERO PUSH2 0xEB2 JUMPI JUMPDEST PUSH2 0xEA0 JUMPI PUSH1 0x40 MLOAD SWAP2 PUSH1 0xE0 DUP4 ADD SWAP2 DUP3 GT DUP4 DUP4 LT OR PUSH2 0x4E1 JUMPI PUSH1 0x6 SWAP2 PUSH1 0x40 MSTORE DUP5 DUP4 MSTORE PUSH2 0xE10 DUP5 DUP5 ADD SWAP2 DUP8 DUP4 MSTORE PUSH1 0x40 DUP6 ADD DUP10 DUP2 MSTORE PUSH1 0x60 DUP7 ADD TIMESTAMP DUP2 MSTORE PUSH1 0x80 DUP8 ADD SWAP2 DUP14 DUP4 MSTORE PUSH1 0xA0 DUP9 ADD SWAP4 PUSH1 0x0 DUP6 MSTORE PUSH1 0xC0 DUP10 ADD SWAP7 PUSH1 0x0 DUP9 MSTORE DUP12 PUSH1 0x0 MSTORE PUSH1 0x1 DUP12 MSTORE PUSH1 0x40 PUSH1 0x0 KECCAK256 SWAP10 MLOAD DUP11 SSTORE MLOAD PUSH1 0x1 DUP11 ADD SSTORE PUSH1 0x2 DUP10 ADD SWAP2 MLOAD AND PUSH12 0xFFFFFFFFFFFFFFFFFFFFFFFF PUSH1 0xA0 SHL DUP3 SLOAD AND OR SWAP1 SSTORE MLOAD PUSH1 0x3 DUP8 ADD SSTORE MLOAD PUSH1 0x4 DUP7 ADD SSTORE MLOAD ISZERO ISZERO PUSH1 0x5 DUP6 ADD SWAP1 PUSH1 0xFF DUP1 NOT DUP4 SLOAD AND SWAP2 ISZERO ISZERO AND OR SWAP1 SSTORE JUMP JUMPDEST MLOAD SWAP2 ADD SSTORE PUSH1 0x4 SLOAD SWAP1 PUSH1 0x1 PUSH1 0x40 SHL DUP3 LT ISZERO PUSH2 0x4E1 JUMPI PUSH1 0x1 SWAP7 PUSH2 0xE57 DUP4 DUP10 PUSH32 0xDB0C35DDA8D526CC468605FB51D281F009B6D4D17B6E73A5632C407B07B987B9 SWAP6 ADD PUSH1 0x4 SSTORE PUSH2 0x2085 JUMP JUMPDEST DUP2 SLOAD SWAP1 PUSH1 0x3 SHL SWAP1 DUP7 DUP3 SHL SWAP2 PUSH1 0x0 NOT SWAP1 SHL NOT AND OR SWAP1 SSTORE PUSH2 0xE77 PUSH1 0x6 SLOAD PUSH2 0x2112 JUMP JUMPDEST PUSH1 0x6 SSTORE DUP6 PUSH1 0x0 MSTORE PUSH1 0x0 DUP3 MSTORE PUSH1 0x6 PUSH1 0x40 PUSH1 0x0 KECCAK256 ADD PUSH2 0xE94 DUP2 SLOAD PUSH2 0x2112 JUMP JUMPDEST SWAP1 SSTORE PUSH1 0x40 MLOAD SWAP1 DUP2 MSTORE LOG4 SSTORE STOP JUMPDEST PUSH1 0x40 MLOAD PUSH4 0x9BDE339 PUSH1 0xE0 SHL DUP2 MSTORE PUSH1 0x4 SWAP1 REVERT JUMPDEST POP DUP5 ISZERO PUSH2 0xD66 JUMP JUMPDEST PUSH1 0x40 MLOAD PUSH4 0x6F6A1B87 PUSH1 0xE1 SHL DUP2 MSTORE PUSH1 0x4 SWAP1 REVERT JUMPDEST PUSH1 0x40 MLOAD PUSH4 0xB8CDB9BD PUSH1 0xE0 SHL DUP2 MSTORE PUSH1 0x4 SWAP1 REVERT JUMPDEST PUSH1 0x40 MLOAD PUSH4 0x3EE5AEB5 PUSH1 0xE0 SHL DUP2 MSTORE PUSH1 0x4 SWAP1 REVERT JUMPDEST CALLVALUE PUSH2 0x289 JUMPI PUSH1 0x40 CALLDATASIZE PUSH1 0x3 NOT ADD SLT PUSH2 0x289 JUMPI PUSH2 0xF09 PUSH2 0x1ED9 JUMP JUMPDEST PUSH1 0x4 CALLDATALOAD PUSH1 0x0 MSTORE PUSH1 0x0 DUP1 MLOAD PUSH1 0x20 PUSH2 0x260D DUP4 CODECOPY DUP2 MLOAD SWAP2 MSTORE PUSH1 0x20 MSTORE PUSH1 0x40 PUSH1 0x0 KECCAK256 SWAP1 PUSH1 0x1 DUP1 PUSH1 0xA0 SHL SUB AND PUSH1 0x0 MSTORE PUSH1 0x20 MSTORE PUSH1 0x20 PUSH1 0xFF PUSH1 0x40 PUSH1 0x0 KECCAK256 SLOAD AND PUSH1 0x40 MLOAD SWAP1 ISZERO ISZERO DUP2 MSTORE RETURN JUMPDEST CALLVALUE PUSH2 0x289 JUMPI PUSH1 0x40 CALLDATASIZE PUSH1 0x3 NOT ADD SLT PUSH2 0x289 JUMPI PUSH1 0x1 PUSH1 0x1 PUSH1 0xA0 SHL SUB PUSH2 0xF6B PUSH2 0x1EC3 JUMP JUMPDEST AND PUSH1 0x0 MSTORE PUSH1 0x0 PUSH1 0x20 MSTORE PUSH1 0x7 PUSH1 0x40 PUSH1 0x0 KECCAK256 ADD PUSH1 0x24 CALLDATALOAD PUSH1 0x0 MSTORE PUSH1 0x20 MSTORE PUSH1 0x20 PUSH1 0xFF PUSH1 0x40 PUSH1 0x0 KECCAK256 SLOAD AND PUSH1 0x40 MLOAD SWAP1 ISZERO ISZERO DUP2 MSTORE RETURN JUMPDEST CALLVALUE PUSH2 0x289 JUMPI PUSH1 0x0 CALLDATASIZE PUSH1 0x3 NOT ADD SLT PUSH2 0x289 JUMPI PUSH2 0xFB3 PUSH2 0x21FD JUMP JUMPDEST PUSH2 0xFBB PUSH2 0x2158 JUMP JUMPDEST PUSH1 0x0 DUP1 MLOAD PUSH1 0x20 PUSH2 0x262D DUP4 CODECOPY DUP2 MLOAD SWAP2 MSTORE PUSH1 0x1 PUSH1 0xFF NOT DUP3 SLOAD AND OR SWAP1 SSTORE PUSH32 0x62E78CEA01BEE320CD4E420270B5EA74000D11B0C9F74754EBDBFC544B05A258 PUSH1 0x20 PUSH1 0x40 MLOAD CALLER DUP2 MSTORE LOG1 STOP JUMPDEST CALLVALUE PUSH2 0x289 JUMPI PUSH1 0x0 CALLDATASIZE PUSH1 0x3 NOT ADD SLT PUSH2 0x289 JUMPI PUSH1 0x20 PUSH1 0x40 MLOAD PUSH1 0x0 DUP1 MLOAD PUSH1 0x20 PUSH2 0x264D DUP4 CODECOPY DUP2 MLOAD SWAP2 MSTORE DUP2 MSTORE RETURN JUMPDEST CALLVALUE PUSH2 0x289 JUMPI PUSH1 0x0 CALLDATASIZE PUSH1 0x3 NOT ADD SLT PUSH2 0x289 JUMPI PUSH1 0x20 PUSH1 0xFF PUSH1 0x0 DUP1 MLOAD PUSH1 0x20 PUSH2 0x262D DUP4 CODECOPY DUP2 MLOAD SWAP2 MSTORE SLOAD AND PUSH1 0x40 MLOAD SWAP1 ISZERO ISZERO DUP2 MSTORE RETURN JUMPDEST CALLVALUE PUSH2 0x289 JUMPI PUSH1 0x0 CALLDATASIZE PUSH1 0x3 NOT ADD SLT PUSH2 0x289 JUMPI PUSH32 0x0 PUSH1 0x1 PUSH1 0x1 PUSH1 0xA0 SHL SUB AND ADDRESS SUB PUSH2 0x10C5 JUMPI PUSH1 0x20 PUSH1 0x40 MLOAD PUSH32 0x360894A13BA1A3210667C828492DB98DCA3E2076CC3735A920A3CA505D382BBC DUP2 MSTORE RETURN JUMPDEST PUSH1 0x40 MLOAD PUSH4 0x703E46DD PUSH1 0xE1 SHL DUP2 MSTORE PUSH1 0x4 SWAP1 REVERT JUMPDEST PUSH1 0x40 CALLDATASIZE PUSH1 0x3 NOT ADD SLT PUSH2 0x289 JUMPI PUSH2 0x10EB PUSH2 0x1EC3 JUMP JUMPDEST PUSH1 0x24 CALLDATALOAD PUSH1 0x1 PUSH1 0x1 PUSH1 0x40 SHL SUB DUP2 GT PUSH2 0x289 JUMPI CALLDATASIZE PUSH1 0x23 DUP3 ADD SLT ISZERO PUSH2 0x289 JUMPI PUSH2 0x111B SWAP1 CALLDATASIZE SWAP1 PUSH1 0x24 DUP2 PUSH1 0x4 ADD CALLDATALOAD SWAP2 ADD PUSH2 0x2017 JUMP JUMPDEST SWAP1 PUSH1 0x1 PUSH1 0x1 PUSH1 0xA0 SHL SUB PUSH32 0x0 DUP2 AND ADDRESS DUP2 EQ SWAP1 DUP2 ISZERO PUSH2 0x12D7 JUMPI JUMPDEST POP PUSH2 0x10C5 JUMPI PUSH2 0x115F PUSH2 0x21FD JUMP JUMPDEST PUSH1 0x40 MLOAD PUSH4 0x52D1902D PUSH1 0xE0 SHL DUP2 MSTORE SWAP1 DUP3 AND SWAP2 PUSH1 0x20 SWAP2 DUP3 DUP2 PUSH1 0x4 DUP2 DUP8 GAS STATICCALL PUSH1 0x0 SWAP2 DUP2 PUSH2 0x12A8 JUMPI JUMPDEST POP PUSH2 0x11A2 JUMPI PUSH1 0x40 MLOAD PUSH4 0x4C9C8CE3 PUSH1 0xE0 SHL DUP2 MSTORE PUSH1 0x4 DUP2 ADD DUP6 SWAP1 MSTORE PUSH1 0x24 SWAP1 REVERT JUMPDEST SWAP3 DUP5 SWAP4 PUSH32 0x360894A13BA1A3210667C828492DB98DCA3E2076CC3735A920A3CA505D382BBC SWAP1 DUP2 DUP2 SUB PUSH2 0x1290 JUMPI POP DUP3 EXTCODESIZE ISZERO PUSH2 0x1277 JUMPI DUP1 SLOAD PUSH1 0x1 PUSH1 0x1 PUSH1 0xA0 SHL SUB NOT AND DUP3 OR SWAP1 SSTORE PUSH1 0x40 MLOAD SWAP1 PUSH32 0xBC7CD75A20EE27FD9ADEBAB32041F755214DBC6BFFA90CC0225B39DA2E5C2D3B PUSH1 0x0 DUP1 LOG2 DUP4 MLOAD ISZERO PUSH2 0x125D JUMPI POP PUSH1 0x0 DUP1 DUP5 DUP5 PUSH2 0x81B SWAP7 MLOAD SWAP2 ADD DUP5 GAS DELEGATECALL SWAP1 RETURNDATASIZE ISZERO PUSH2 0x1254 JUMPI RETURNDATASIZE PUSH2 0x1237 DUP2 PUSH2 0x1FFC JUMP JUMPDEST SWAP1 PUSH2 0x1245 PUSH1 0x40 MLOAD SWAP3 DUP4 PUSH2 0x1DBD JUMP JUMPDEST DUP2 MSTORE PUSH1 0x0 DUP2 SWAP5 RETURNDATASIZE SWAP3 ADD RETURNDATACOPY PUSH2 0x2589 JUMP JUMPDEST PUSH1 0x60 SWAP3 POP PUSH2 0x2589 JUMP JUMPDEST SWAP3 POP POP POP CALLVALUE PUSH2 0x1268 JUMPI STOP JUMPDEST PUSH4 0xB398979F PUSH1 0xE0 SHL DUP2 MSTORE PUSH1 0x4 SWAP1 REVERT JUMPDEST PUSH1 0x40 MLOAD PUSH4 0x4C9C8CE3 PUSH1 0xE0 SHL DUP2 MSTORE PUSH1 0x4 DUP2 ADD DUP4 SWAP1 MSTORE PUSH1 0x24 SWAP1 REVERT JUMPDEST PUSH1 0x24 SWAP1 PUSH1 0x40 MLOAD SWAP1 PUSH4 0x2A875269 PUSH1 0xE2 SHL DUP3 MSTORE PUSH1 0x4 DUP3 ADD MSTORE REVERT JUMPDEST SWAP1 SWAP2 POP DUP4 DUP2 DUP2 RETURNDATASIZE DUP4 GT PUSH2 0x12D0 JUMPI JUMPDEST PUSH2 0x12C0 DUP2 DUP4 PUSH2 0x1DBD JUMP JUMPDEST DUP2 ADD SUB SLT PUSH2 0x289 JUMPI MLOAD SWAP1 DUP7 PUSH2 0x1184 JUMP JUMPDEST POP RETURNDATASIZE PUSH2 0x12B6 JUMP JUMPDEST SWAP1 POP DUP2 PUSH32 0x360894A13BA1A3210667C828492DB98DCA3E2076CC3735A920A3CA505D382BBC SLOAD AND EQ ISZERO DUP5 PUSH2 0x1152 JUMP JUMPDEST CALLVALUE PUSH2 0x289 JUMPI PUSH1 0x0 CALLDATASIZE PUSH1 0x3 NOT ADD SLT PUSH2 0x289 JUMPI PUSH2 0x131E PUSH2 0x21FD JUMP JUMPDEST PUSH1 0x0 DUP1 MLOAD PUSH1 0x20 PUSH2 0x262D DUP4 CODECOPY DUP2 MLOAD SWAP2 MSTORE DUP1 SLOAD PUSH1 0xFF DUP2 AND ISZERO PUSH2 0x136A JUMPI PUSH1 0xFF NOT AND SWAP1 SSTORE PUSH32 0x5DB9EE0A495BF2E6FF9C91A7834C1BA4FDD244A5E8AA4E537BD38AEAE4B073AA PUSH1 0x20 PUSH1 0x40 MLOAD CALLER DUP2 MSTORE LOG1 STOP JUMPDEST PUSH1 0x40 MLOAD PUSH4 0x8DFC202B PUSH1 0xE0 SHL DUP2 MSTORE PUSH1 0x4 SWAP1 REVERT JUMPDEST CALLVALUE PUSH2 0x289 JUMPI PUSH1 0x0 CALLDATASIZE PUSH1 0x3 NOT ADD SLT PUSH2 0x289 JUMPI PUSH1 0x40 MLOAD DUP1 PUSH1 0x4 SLOAD DUP1 DUP4 MSTORE PUSH1 0x20 DUP1 SWAP4 ADD DUP1 SWAP2 PUSH1 0x4 PUSH1 0x0 MSTORE PUSH32 0x8A35ACFBC15FF81A39AE7D344FD709F28E8600B4AA8C65C6B64BFE7FE36BD19B SWAP1 PUSH1 0x0 JUMPDEST DUP7 DUP3 DUP3 LT PUSH2 0x141E JUMPI DUP7 DUP7 PUSH2 0x13DE DUP3 DUP9 SUB DUP4 PUSH2 0x1DBD JUMP JUMPDEST PUSH1 0x40 MLOAD SWAP3 DUP4 SWAP3 DUP2 DUP5 ADD SWAP1 DUP3 DUP6 MSTORE MLOAD DUP1 SWAP2 MSTORE PUSH1 0x40 DUP5 ADD SWAP3 SWAP2 PUSH1 0x0 JUMPDEST DUP3 DUP2 LT PUSH2 0x1407 JUMPI POP POP POP POP SUB SWAP1 RETURN JUMPDEST DUP4 MLOAD DUP6 MSTORE DUP7 SWAP6 POP SWAP4 DUP2 ADD SWAP4 SWAP3 DUP2 ADD SWAP3 PUSH1 0x1 ADD PUSH2 0x13F8 JUMP JUMPDEST DUP4 SLOAD DUP6 MSTORE SWAP1 SWAP4 ADD SWAP3 PUSH1 0x1 SWAP3 DUP4 ADD SWAP3 ADD PUSH2 0x13C8 JUMP JUMPDEST CALLVALUE PUSH2 0x289 JUMPI PUSH1 0x20 CALLDATASIZE PUSH1 0x3 NOT ADD SLT PUSH2 0x289 JUMPI PUSH1 0x1 PUSH1 0x1 PUSH1 0xA0 SHL SUB PUSH2 0x1453 PUSH2 0x1EC3 JUMP JUMPDEST AND PUSH1 0x0 MSTORE PUSH1 0x0 PUSH1 0x20 MSTORE PUSH1 0x40 PUSH1 0x0 KECCAK256 PUSH2 0x146A DUP2 PUSH2 0x1DDE JUMP JUMPDEST PUSH2 0x674 PUSH2 0x1479 PUSH1 0x1 DUP5 ADD PUSH2 0x1DDE JUMP JUMPDEST SWAP3 PUSH2 0x1486 PUSH1 0x2 DUP3 ADD PUSH2 0x1F1C JUMP JUMPDEST SWAP1 PUSH2 0x1493 PUSH1 0x3 DUP3 ADD PUSH2 0x1DDE JUMP JUMPDEST PUSH1 0xFF PUSH1 0x4 DUP4 ADD SLOAD AND SWAP1 PUSH1 0x6 PUSH1 0x5 DUP5 ADD SLOAD SWAP4 ADD SLOAD SWAP4 PUSH1 0x40 MLOAD SWAP8 DUP9 SWAP8 DUP9 PUSH2 0x1F9C JUMP JUMPDEST CALLVALUE PUSH2 0x289 JUMPI PUSH1 0x40 CALLDATASIZE PUSH1 0x3 NOT ADD SLT PUSH2 0x289 JUMPI PUSH2 0x14CC PUSH2 0x1ED9 JUMP JUMPDEST CALLER PUSH1 0x1 PUSH1 0x1 PUSH1 0xA0 SHL SUB DUP3 AND SUB PUSH2 0x14E8 JUMPI PUSH2 0x81B SWAP1 PUSH1 0x4 CALLDATALOAD PUSH2 0x24C5 JUMP JUMPDEST PUSH1 0x40 MLOAD PUSH4 0x334BD919 PUSH1 0xE1 SHL DUP2 MSTORE PUSH1 0x4 SWAP1 REVERT JUMPDEST CALLVALUE PUSH2 0x289 JUMPI PUSH1 0x0 CALLDATASIZE PUSH1 0x3 NOT ADD SLT PUSH2 0x289 JUMPI PUSH1 0x20 PUSH1 0x40 MLOAD PUSH32 0x1324C07B429E7ACA3A767B19C12867B295A0A37D54953449D8C7F5DA7BFD2347 DUP2 MSTORE RETURN JUMPDEST CALLVALUE PUSH2 0x289 JUMPI PUSH1 0x40 CALLDATASIZE PUSH1 0x3 NOT ADD SLT PUSH2 0x289 JUMPI PUSH2 0x81B PUSH1 0x4 CALLDATALOAD PUSH2 0x1554 PUSH2 0x1ED9 JUMP JUMPDEST SWAP1 DUP1 PUSH1 0x0 MSTORE PUSH1 0x0 DUP1 MLOAD PUSH1 0x20 PUSH2 0x260D DUP4 CODECOPY DUP2 MLOAD SWAP2 MSTORE PUSH1 0x20 MSTORE PUSH2 0x157C PUSH1 0x1 PUSH1 0x40 PUSH1 0x0 KECCAK256 ADD SLOAD PUSH2 0x2247 JUMP JUMPDEST PUSH2 0x2450 JUMP JUMPDEST CALLVALUE PUSH2 0x289 JUMPI PUSH1 0x0 CALLDATASIZE PUSH1 0x3 NOT ADD SLT PUSH2 0x289 JUMPI PUSH1 0x20 PUSH1 0x6 SLOAD PUSH1 0x40 MLOAD SWAP1 DUP2 MSTORE RETURN JUMPDEST CALLVALUE PUSH2 0x289 JUMPI PUSH1 0x20 CALLDATASIZE PUSH1 0x3 NOT ADD SLT PUSH2 0x289 JUMPI PUSH1 0x4 CALLDATALOAD PUSH1 0x0 MSTORE PUSH1 0x0 DUP1 MLOAD PUSH1 0x20 PUSH2 0x260D DUP4 CODECOPY DUP2 MLOAD SWAP2 MSTORE PUSH1 0x20 MSTORE PUSH1 0x20 PUSH1 0x1 PUSH1 0x40 PUSH1 0x0 KECCAK256 ADD SLOAD PUSH1 0x40 MLOAD SWAP1 DUP2 MSTORE RETURN JUMPDEST CALLVALUE PUSH2 0x289 JUMPI PUSH1 0x40 CALLDATASIZE PUSH1 0x3 NOT ADD SLT PUSH2 0x289 JUMPI PUSH2 0x15F4 PUSH2 0x1EC3 JUMP JUMPDEST PUSH1 0x24 CALLDATALOAD SWAP1 DUP2 ISZERO ISZERO SWAP1 DUP2 DUP4 SUB PUSH2 0x289 JUMPI PUSH2 0x160B PUSH2 0x2183 JUMP JUMPDEST PUSH2 0x1613 PUSH2 0x2158 JUMP JUMPDEST PUSH1 0x1 DUP1 PUSH1 0xA0 SHL SUB AND SWAP2 DUP3 PUSH1 0x0 MSTORE PUSH1 0x0 PUSH1 0x20 MSTORE PUSH1 0x5 PUSH1 0x40 PUSH1 0x0 KECCAK256 ADD SLOAD ISZERO PUSH2 0xEBA JUMPI PUSH32 0xE2C7E58D09321AD575B9693100ED35D3D7B350225719418E3AABABEA72440973 SWAP2 PUSH2 0x167C PUSH1 0x20 SWAP3 DUP6 PUSH1 0x0 MSTORE PUSH1 0x0 DUP5 MSTORE PUSH1 0x4 PUSH1 0x40 PUSH1 0x0 KECCAK256 ADD SWAP1 PUSH1 0xFF DUP1 NOT DUP4 SLOAD AND SWAP2 ISZERO ISZERO AND OR SWAP1 SSTORE JUMP JUMPDEST PUSH1 0x40 MLOAD SWAP1 DUP2 MSTORE LOG2 STOP JUMPDEST CALLVALUE PUSH2 0x289 JUMPI PUSH1 0xA0 CALLDATASIZE PUSH1 0x3 NOT ADD SLT PUSH2 0x289 JUMPI PUSH2 0x169E PUSH2 0x1EC3 JUMP JUMPDEST PUSH1 0x24 CALLDATALOAD PUSH1 0x1 PUSH1 0x1 PUSH1 0x40 SHL SUB DUP2 GT PUSH2 0x289 JUMPI PUSH2 0x16BD SWAP1 CALLDATASIZE SWAP1 PUSH1 0x4 ADD PUSH2 0x1EEF JUMP JUMPDEST SWAP1 PUSH1 0x44 CALLDATALOAD PUSH1 0x1 PUSH1 0x1 PUSH1 0x40 SHL SUB DUP2 GT PUSH2 0x289 JUMPI PUSH2 0x16DD SWAP1 CALLDATASIZE SWAP1 PUSH1 0x4 ADD PUSH2 0x1EEF JUMP JUMPDEST SWAP3 SWAP1 SWAP4 PUSH1 0x64 CALLDATALOAD PUSH1 0x1 PUSH1 0x1 PUSH1 0x40 SHL SUB DUP2 GT PUSH2 0x289 JUMPI PUSH2 0x16FF SWAP1 CALLDATASIZE SWAP1 PUSH1 0x4 ADD PUSH2 0x1EEF JUMP JUMPDEST PUSH1 0x84 CALLDATALOAD PUSH1 0x1 PUSH1 0x1 PUSH1 0x40 SHL SUB DUP2 GT PUSH2 0x289 JUMPI PUSH2 0x171E SWAP1 CALLDATASIZE SWAP1 PUSH1 0x4 ADD PUSH2 0x1EEF JUMP JUMPDEST SWAP1 SWAP2 PUSH2 0x1728 PUSH2 0x2183 JUMP JUMPDEST PUSH2 0x1730 PUSH2 0x2158 JUMP JUMPDEST PUSH1 0x1 PUSH1 0x1 PUSH1 0xA0 SHL SUB DUP6 AND PUSH1 0x0 SWAP1 DUP2 MSTORE PUSH1 0x20 DUP2 SWAP1 MSTORE PUSH1 0x40 SWAP1 KECCAK256 PUSH1 0x5 ADD SLOAD PUSH2 0x1B66 JUMPI PUSH1 0x1 PUSH1 0x1 PUSH1 0xA0 SHL SUB DUP6 AND PUSH1 0x0 SWAP1 DUP2 MSTORE PUSH1 0x20 DUP2 SWAP1 MSTORE PUSH1 0x40 SWAP1 KECCAK256 SWAP4 PUSH1 0x1 PUSH1 0x1 PUSH1 0x40 SHL SUB DUP8 GT PUSH2 0x4E1 JUMPI PUSH2 0x178B DUP8 PUSH2 0x1785 DUP8 SLOAD PUSH2 0x1D68 JUMP JUMPDEST DUP8 PUSH2 0x20BC JUMP JUMPDEST PUSH1 0x0 DUP8 PUSH1 0x1F DUP2 GT PUSH1 0x1 EQ PUSH2 0x1AFD JUMPI DUP1 PUSH2 0x17BA SWAP3 PUSH1 0x0 SWAP2 PUSH2 0x1AF2 JUMPI JUMPDEST POP DUP2 PUSH1 0x1 SHL SWAP2 PUSH1 0x0 NOT SWAP1 PUSH1 0x3 SHL SHR NOT AND OR SWAP1 JUMP JUMPDEST DUP6 SSTORE JUMPDEST PUSH1 0x1 PUSH1 0x1 PUSH1 0x40 SHL SUB DUP10 GT PUSH2 0x4E1 JUMPI PUSH2 0x17E5 DUP10 PUSH2 0x17DC PUSH1 0x1 DUP9 ADD SLOAD PUSH2 0x1D68 JUMP JUMPDEST PUSH1 0x1 DUP9 ADD PUSH2 0x20BC JUMP JUMPDEST PUSH1 0x0 DUP10 PUSH1 0x1F DUP2 GT PUSH1 0x1 EQ PUSH2 0x1A83 JUMPI DUP1 PUSH2 0x1813 SWAP3 PUSH1 0x0 SWAP2 PUSH2 0x1A78 JUMPI POP DUP2 PUSH1 0x1 SHL SWAP2 PUSH1 0x0 NOT SWAP1 PUSH1 0x3 SHL SHR NOT AND OR SWAP1 JUMP JUMPDEST PUSH1 0x1 DUP7 ADD SSTORE JUMPDEST PUSH1 0x1 PUSH1 0x1 PUSH1 0x40 SHL SUB DUP3 GT PUSH2 0x4E1 JUMPI PUSH2 0x1841 DUP3 PUSH2 0x1838 PUSH1 0x2 DUP9 ADD SLOAD PUSH2 0x1D68 JUMP JUMPDEST PUSH1 0x2 DUP9 ADD PUSH2 0x20BC JUMP JUMPDEST PUSH1 0x0 SWAP1 PUSH1 0x1F DUP4 GT PUSH1 0x1 EQ PUSH2 0x1A0A JUMPI PUSH2 0x1871 SWAP3 SWAP2 PUSH1 0x0 SWAP2 DUP4 PUSH2 0x19FF JUMPI POP POP DUP2 PUSH1 0x1 SHL SWAP2 PUSH1 0x0 NOT SWAP1 PUSH1 0x3 SHL SHR NOT AND OR SWAP1 JUMP JUMPDEST PUSH1 0x2 DUP5 ADD SSTORE JUMPDEST PUSH1 0x3 DUP4 ADD SWAP2 PUSH1 0x1 PUSH1 0x1 PUSH1 0x40 SHL SUB DUP3 GT PUSH2 0x4E1 JUMPI PUSH2 0x189E DUP3 PUSH2 0x1898 DUP6 SLOAD PUSH2 0x1D68 JUMP JUMPDEST DUP6 PUSH2 0x20BC JUMP JUMPDEST PUSH1 0x0 SWAP1 PUSH1 0x1F DUP4 GT PUSH1 0x1 EQ PUSH2 0x1997 JUMPI PUSH2 0x18CE SWAP3 SWAP2 PUSH1 0x0 SWAP2 DUP4 PUSH2 0x198C JUMPI POP POP DUP2 PUSH1 0x1 SHL SWAP2 PUSH1 0x0 NOT SWAP1 PUSH1 0x3 SHL SHR NOT AND OR SWAP1 JUMP JUMPDEST SWAP1 SSTORE JUMPDEST PUSH1 0x4 DUP2 ADD PUSH1 0x1 PUSH1 0xFF NOT DUP3 SLOAD AND OR SWAP1 SSTORE PUSH1 0x5 TIMESTAMP SWAP2 ADD SSTORE PUSH1 0x3 SLOAD SWAP1 PUSH1 0x1 PUSH1 0x40 SHL DUP3 LT ISZERO PUSH2 0x4E1 JUMPI PUSH32 0x756316B04A04BCF1C6DCF35960FF8D4F31D9179708B86E1177696390C6D7BBF0 SWAP5 PUSH2 0x192B DUP4 PUSH1 0x1 PUSH2 0x1987 SWAP6 ADD PUSH1 0x3 SSTORE PUSH2 0x204E JUMP JUMPDEST DUP2 SLOAD PUSH1 0x1 PUSH1 0x1 PUSH1 0xA0 SHL SUB DUP6 DUP2 AND PUSH1 0x3 SWAP4 SWAP1 SWAP4 SHL SWAP3 DUP4 SHL SWAP3 SHL NOT AND OR SWAP1 SSTORE PUSH1 0x5 SLOAD PUSH2 0x1954 SWAP1 PUSH2 0x2112 JUMP JUMPDEST PUSH1 0x5 SSTORE PUSH2 0x196E PUSH1 0x40 MLOAD SWAP6 DUP7 SWAP6 PUSH1 0x40 DUP8 MSTORE PUSH1 0x40 DUP8 ADD SWAP2 PUSH2 0x2137 JUMP JUMPDEST DUP5 DUP2 SUB PUSH1 0x20 DUP7 ADD MSTORE PUSH1 0x1 PUSH1 0x1 PUSH1 0xA0 SHL SUB SWAP1 SWAP3 AND SWAP7 PUSH2 0x2137 JUMP JUMPDEST SUB SWAP1 LOG2 STOP JUMPDEST ADD CALLDATALOAD SWAP1 POP DUP11 DUP1 PUSH2 0x3FF JUMP JUMPDEST PUSH1 0x1F NOT DUP4 AND SWAP2 DUP5 PUSH1 0x0 MSTORE PUSH1 0x20 PUSH1 0x0 KECCAK256 SWAP3 PUSH1 0x0 JUMPDEST DUP2 DUP2 LT PUSH2 0x19E7 JUMPI POP SWAP1 DUP5 PUSH1 0x1 SWAP6 SWAP5 SWAP4 SWAP3 LT PUSH2 0x19CD JUMPI JUMPDEST POP POP POP DUP2 SHL ADD SWAP1 SSTORE PUSH2 0x18D1 JUMP JUMPDEST ADD CALLDATALOAD PUSH1 0x0 NOT PUSH1 0x3 DUP5 SWAP1 SHL PUSH1 0xF8 AND SHR NOT AND SWAP1 SSTORE DUP10 DUP1 DUP1 PUSH2 0x19C0 JUMP JUMPDEST SWAP2 SWAP4 PUSH1 0x20 PUSH1 0x1 DUP2 SWAP3 DUP8 DUP8 ADD CALLDATALOAD DUP2 SSTORE ADD SWAP6 ADD SWAP3 ADD PUSH2 0x19AA JUMP JUMPDEST ADD CALLDATALOAD SWAP1 POP DUP12 DUP1 PUSH2 0x3FF JUMP JUMPDEST PUSH1 0x1F NOT DUP4 AND SWAP2 PUSH1 0x2 DUP8 ADD PUSH1 0x0 MSTORE PUSH1 0x20 PUSH1 0x0 KECCAK256 SWAP3 PUSH1 0x0 JUMPDEST DUP2 DUP2 LT PUSH2 0x1A60 JUMPI POP SWAP1 DUP5 PUSH1 0x1 SWAP6 SWAP5 SWAP4 SWAP3 LT PUSH2 0x1A46 JUMPI JUMPDEST POP POP POP DUP2 SHL ADD PUSH1 0x2 DUP5 ADD SSTORE PUSH2 0x1877 JUMP JUMPDEST ADD CALLDATALOAD PUSH1 0x0 NOT PUSH1 0x3 DUP5 SWAP1 SHL PUSH1 0xF8 AND SHR NOT AND SWAP1 SSTORE DUP11 DUP1 DUP1 PUSH2 0x1A36 JUMP JUMPDEST SWAP2 SWAP4 PUSH1 0x20 PUSH1 0x1 DUP2 SWAP3 DUP8 DUP8 ADD CALLDATALOAD DUP2 SSTORE ADD SWAP6 ADD SWAP3 ADD PUSH2 0x1A20 JUMP JUMPDEST SWAP1 POP DUP13 ADD CALLDATALOAD DUP14 PUSH2 0x17A6 JUMP JUMPDEST POP PUSH1 0x1 DUP7 ADD PUSH1 0x0 MSTORE PUSH1 0x20 PUSH1 0x0 KECCAK256 SWAP1 PUSH1 0x0 JUMPDEST DUP13 PUSH1 0x1F NOT DUP14 AND DUP3 LT PUSH2 0x1ADA JUMPI POP POP DUP11 PUSH1 0x1F NOT DUP2 AND LT PUSH2 0x1AC0 JUMPI JUMPDEST POP POP PUSH1 0x1 DUP10 DUP2 SHL ADD PUSH1 0x1 DUP7 ADD SSTORE PUSH2 0x1819 JUMP JUMPDEST DUP12 ADD CALLDATALOAD PUSH1 0x0 NOT PUSH1 0x3 DUP13 SWAP1 SHL PUSH1 0xF8 AND SHR NOT AND SWAP1 SSTORE DUP11 DUP1 PUSH2 0x1AAE JUMP JUMPDEST PUSH1 0x1 DUP4 SWAP5 PUSH1 0x20 SWAP4 SWAP5 DUP5 SWAP4 ADD CALLDATALOAD DUP2 SSTORE ADD SWAP4 ADD SWAP2 ADD PUSH2 0x1A94 JUMP JUMPDEST SWAP1 POP DUP11 ADD CALLDATALOAD DUP14 PUSH2 0x17A6 JUMP JUMPDEST POP DUP6 PUSH1 0x0 MSTORE PUSH1 0x20 PUSH1 0x0 KECCAK256 SWAP1 PUSH1 0x0 JUMPDEST DUP11 PUSH1 0x1F NOT DUP12 AND DUP3 LT PUSH2 0x1B4E JUMPI POP POP DUP9 PUSH1 0x1F NOT DUP2 AND LT PUSH2 0x1B34 JUMPI JUMPDEST POP POP PUSH1 0x1 DUP8 DUP2 SHL ADD DUP6 SSTORE PUSH2 0x17BD JUMP JUMPDEST DUP10 ADD CALLDATALOAD PUSH1 0x0 NOT PUSH1 0x3 DUP11 SWAP1 SHL PUSH1 0xF8 AND SHR NOT AND SWAP1 SSTORE DUP11 DUP1 PUSH2 0x1B25 JUMP JUMPDEST PUSH1 0x1 DUP4 SWAP5 PUSH1 0x20 SWAP4 SWAP5 DUP5 SWAP4 ADD CALLDATALOAD DUP2 SSTORE ADD SWAP4 ADD SWAP2 ADD PUSH2 0x1B0B JUMP JUMPDEST PUSH1 0x40 MLOAD PUSH4 0x59DB6211 PUSH1 0xE1 SHL DUP2 MSTORE PUSH1 0x4 SWAP1 REVERT JUMPDEST CALLVALUE PUSH2 0x289 JUMPI PUSH1 0x0 CALLDATASIZE PUSH1 0x3 NOT ADD SLT PUSH2 0x289 JUMPI PUSH1 0x20 PUSH1 0x5 SLOAD PUSH1 0x40 MLOAD SWAP1 DUP2 MSTORE RETURN JUMPDEST CALLVALUE PUSH2 0x289 JUMPI PUSH1 0x40 CALLDATASIZE PUSH1 0x3 NOT ADD SLT PUSH2 0x289 JUMPI PUSH1 0x24 CALLDATALOAD PUSH1 0x4 CALLDATALOAD PUSH1 0x0 MSTORE PUSH1 0x2 PUSH1 0x20 MSTORE PUSH1 0x40 PUSH1 0x0 KECCAK256 SWAP1 DUP2 SLOAD DUP2 LT ISZERO PUSH2 0x289 JUMPI PUSH2 0x1BCD SWAP2 PUSH2 0x1D36 JUMP JUMPDEST POP DUP1 SLOAD PUSH2 0x674 PUSH1 0x1 DUP4 ADD SLOAD SWAP3 PUSH2 0x1BEA PUSH1 0x3 PUSH1 0x2 DUP4 ADD SLOAD SWAP3 ADD PUSH2 0x1DDE JUMP JUMPDEST SWAP1 PUSH1 0xFF PUSH1 0x40 MLOAD SWAP6 DUP7 SWAP6 DUP7 MSTORE PUSH1 0x1 DUP1 PUSH1 0xA0 SHL SUB DUP2 AND PUSH1 0x20 DUP8 ADD MSTORE PUSH1 0xA0 SHR AND ISZERO ISZERO PUSH1 0x40 DUP6 ADD MSTORE PUSH1 0x60 DUP5 ADD MSTORE PUSH1 0xA0 PUSH1 0x80 DUP5 ADD MSTORE PUSH1 0xA0 DUP4 ADD SWAP1 PUSH2 0x1E83 JUMP JUMPDEST CALLVALUE PUSH2 0x289 JUMPI PUSH1 0x20 CALLDATASIZE PUSH1 0x3 NOT ADD SLT PUSH2 0x289 JUMPI PUSH1 0x4 CALLDATALOAD PUSH2 0x1C40 PUSH2 0x2158 JUMP JUMPDEST DUP1 PUSH1 0x0 MSTORE PUSH1 0x1 PUSH1 0x20 MSTORE PUSH1 0x40 PUSH1 0x0 KECCAK256 PUSH1 0x3 DUP2 ADD SLOAD ISZERO PUSH2 0xEA0 JUMPI PUSH1 0x2 DUP2 ADD SLOAD PUSH1 0x1 PUSH1 0x1 PUSH1 0xA0 SHL SUB AND CALLER EQ ISZERO DUP1 PUSH2 0x1CAA JUMPI JUMPDEST PUSH2 0x94B JUMPI PUSH1 0x5 ADD DUP1 SLOAD PUSH1 0xFF NOT AND PUSH1 0x1 OR SWAP1 SSTORE CALLER SWAP1 PUSH32 0x2179DBD57F3B7382A131C9FCEE85D10F6DC8F061641526D8B3B38AE94DDD85F7 PUSH1 0x0 DUP1 LOG3 STOP JUMPDEST POP CALLER PUSH1 0x0 SWAP1 DUP2 MSTORE PUSH32 0xB16E88C42FD4E48DF2DD6A2EABD6BC9AEC654EC170056B470819F8892CC6431C PUSH1 0x20 MSTORE PUSH1 0x40 SWAP1 KECCAK256 SLOAD PUSH1 0xFF AND ISZERO PUSH2 0x1C6F JUMP JUMPDEST CALLVALUE PUSH2 0x289 JUMPI PUSH1 0x20 CALLDATASIZE PUSH1 0x3 NOT ADD SLT PUSH2 0x289 JUMPI PUSH1 0x4 CALLDATALOAD SWAP1 PUSH4 0xFFFFFFFF PUSH1 0xE0 SHL DUP3 AND DUP1 SWAP3 SUB PUSH2 0x289 JUMPI PUSH1 0x20 SWAP2 PUSH4 0x7965DB0B PUSH1 0xE0 SHL DUP2 EQ SWAP1 DUP2 ISZERO PUSH2 0x1D25 JUMPI JUMPDEST POP ISZERO ISZERO DUP2 MSTORE RETURN JUMPDEST PUSH4 0x1FFC9A7 PUSH1 0xE0 SHL EQ SWAP1 POP DUP4 PUSH2 0x1D1E JUMP JUMPDEST DUP1 SLOAD DUP3 LT ISZERO PUSH2 0x1D52 JUMPI PUSH1 0x0 MSTORE PUSH1 0x20 PUSH1 0x0 KECCAK256 SWAP1 PUSH1 0x2 SHL ADD SWAP1 PUSH1 0x0 SWAP1 JUMP JUMPDEST PUSH4 0x4E487B71 PUSH1 0xE0 SHL PUSH1 0x0 MSTORE PUSH1 0x32 PUSH1 0x4 MSTORE PUSH1 0x24 PUSH1 0x0 REVERT JUMPDEST SWAP1 PUSH1 0x1 DUP3 DUP2 SHR SWAP3 AND DUP1 ISZERO PUSH2 0x1D98 JUMPI JUMPDEST PUSH1 0x20 DUP4 LT EQ PUSH2 0x1D82 JUMPI JUMP JUMPDEST PUSH4 0x4E487B71 PUSH1 0xE0 SHL PUSH1 0x0 MSTORE PUSH1 0x22 PUSH1 0x4 MSTORE PUSH1 0x24 PUSH1 0x0 REVERT JUMPDEST SWAP2 PUSH1 0x7F AND SWAP2 PUSH2 0x1D77 JUMP JUMPDEST PUSH1 0xA0 DUP2 ADD SWAP1 DUP2 LT PUSH1 0x1 PUSH1 0x1 PUSH1 0x40 SHL SUB DUP3 GT OR PUSH2 0x4E1 JUMPI PUSH1 0x40 MSTORE JUMP JUMPDEST SWAP1 PUSH1 0x1F DUP1 NOT SWAP2 ADD AND DUP2 ADD SWAP1 DUP2 LT PUSH1 0x1 PUSH1 0x1 PUSH1 0x40 SHL SUB DUP3 GT OR PUSH2 0x4E1 JUMPI PUSH1 0x40 MSTORE JUMP JUMPDEST SWAP1 PUSH1 0x40 MLOAD SWAP2 DUP3 PUSH1 0x0 DUP3 SLOAD PUSH2 0x1DF1 DUP2 PUSH2 0x1D68 JUMP JUMPDEST SWAP1 DUP2 DUP5 MSTORE PUSH1 0x20 SWAP5 PUSH1 0x1 SWAP2 PUSH1 0x1 DUP2 AND SWAP1 DUP2 PUSH1 0x0 EQ PUSH2 0x1E61 JUMPI POP PUSH1 0x1 EQ PUSH2 0x1E22 JUMPI JUMPDEST POP POP POP PUSH2 0x1E20 SWAP3 POP SUB DUP4 PUSH2 0x1DBD JUMP JUMPDEST JUMP JUMPDEST PUSH1 0x0 SWAP1 DUP2 MSTORE DUP6 DUP2 KECCAK256 SWAP6 SWAP4 POP SWAP2 SWAP1 JUMPDEST DUP2 DUP4 LT PUSH2 0x1E49 JUMPI POP POP PUSH2 0x1E20 SWAP4 POP DUP3 ADD ADD CODESIZE DUP1 DUP1 PUSH2 0x1E11 JUMP JUMPDEST DUP6 SLOAD DUP9 DUP5 ADD DUP6 ADD MSTORE SWAP5 DUP6 ADD SWAP5 DUP8 SWAP5 POP SWAP2 DUP4 ADD SWAP2 PUSH2 0x1E30 JUMP JUMPDEST SWAP3 POP POP POP PUSH2 0x1E20 SWAP5 SWAP3 POP PUSH1 0xFF NOT AND DUP3 DUP5 ADD MSTORE ISZERO ISZERO PUSH1 0x5 SHL DUP3 ADD ADD CODESIZE DUP1 DUP1 PUSH2 0x1E11 JUMP JUMPDEST SWAP2 SWAP1 DUP3 MLOAD SWAP3 DUP4 DUP3 MSTORE PUSH1 0x0 JUMPDEST DUP5 DUP2 LT PUSH2 0x1EAF JUMPI POP POP DUP3 PUSH1 0x0 PUSH1 0x20 DUP1 SWAP5 SWAP6 DUP5 ADD ADD MSTORE PUSH1 0x1F DUP1 NOT SWAP2 ADD AND ADD ADD SWAP1 JUMP JUMPDEST PUSH1 0x20 DUP2 DUP4 ADD DUP2 ADD MLOAD DUP5 DUP4 ADD DUP3 ADD MSTORE ADD PUSH2 0x1E8E JUMP JUMPDEST PUSH1 0x4 CALLDATALOAD SWAP1 PUSH1 0x1 PUSH1 0x1 PUSH1 0xA0 SHL SUB DUP3 AND DUP3 SUB PUSH2 0x289 JUMPI JUMP JUMPDEST PUSH1 0x24 CALLDATALOAD SWAP1 PUSH1 0x1 PUSH1 0x1 PUSH1 0xA0 SHL SUB DUP3 AND DUP3 SUB PUSH2 0x289 JUMPI JUMP JUMPDEST SWAP2 DUP2 PUSH1 0x1F DUP5 ADD SLT ISZERO PUSH2 0x289 JUMPI DUP3 CALLDATALOAD SWAP2 PUSH1 0x1 PUSH1 0x1 PUSH1 0x40 SHL SUB DUP4 GT PUSH2 0x289 JUMPI PUSH1 0x20 DUP4 DUP2 DUP7 ADD SWAP6 ADD ADD GT PUSH2 0x289 JUMPI JUMP JUMPDEST SWAP1 PUSH1 0x40 MLOAD SWAP2 DUP3 PUSH1 0x0 DUP3 SLOAD PUSH2 0x1F2F DUP2 PUSH2 0x1D68 JUMP JUMPDEST SWAP1 DUP2 DUP5 MSTORE PUSH1 0x20 SWAP5 PUSH1 0x1 SWAP2 PUSH1 0x1 DUP2 AND SWAP1 DUP2 PUSH1 0x0 EQ PUSH2 0x1E61 JUMPI POP PUSH1 0x1 EQ PUSH2 0x1F5D JUMPI POP POP POP PUSH2 0x1E20 SWAP3 POP SUB DUP4 PUSH2 0x1DBD JUMP JUMPDEST PUSH1 0x0 SWAP1 DUP2 MSTORE DUP6 DUP2 KECCAK256 SWAP6 SWAP4 POP SWAP2 SWAP1 JUMPDEST DUP2 DUP4 LT PUSH2 0x1F84 JUMPI POP POP PUSH2 0x1E20 SWAP4 POP DUP3 ADD ADD CODESIZE DUP1 DUP1 PUSH2 0x1E11 JUMP JUMPDEST DUP6 SLOAD DUP9 DUP5 ADD DUP6 ADD MSTORE SWAP5 DUP6 ADD SWAP5 DUP8 SWAP5 POP SWAP2 DUP4 ADD SWAP2 PUSH2 0x1F6B JUMP JUMPDEST SWAP4 SWAP1 PUSH1 0xC0 SWAP6 SWAP9 SWAP8 SWAP7 SWAP4 PUSH2 0x1FCF PUSH2 0x1FEB SWAP5 PUSH2 0x1FC1 PUSH2 0x1FDD SWAP5 PUSH1 0xE0 DUP11 MSTORE PUSH1 0xE0 DUP11 ADD SWAP1 PUSH2 0x1E83 JUMP JUMPDEST SWAP1 DUP9 DUP3 SUB PUSH1 0x20 DUP11 ADD MSTORE PUSH2 0x1E83 JUMP JUMPDEST SWAP1 DUP7 DUP3 SUB PUSH1 0x40 DUP9 ADD MSTORE PUSH2 0x1E83 JUMP JUMPDEST SWAP1 DUP5 DUP3 SUB PUSH1 0x60 DUP7 ADD MSTORE PUSH2 0x1E83 JUMP JUMPDEST SWAP6 ISZERO ISZERO PUSH1 0x80 DUP4 ADD MSTORE PUSH1 0xA0 DUP3 ADD MSTORE ADD MSTORE JUMP JUMPDEST PUSH1 0x1 PUSH1 0x1 PUSH1 0x40 SHL SUB DUP2 GT PUSH2 0x4E1 JUMPI PUSH1 0x1F ADD PUSH1 0x1F NOT AND PUSH1 0x20 ADD SWAP1 JUMP JUMPDEST SWAP3 SWAP2 SWAP3 PUSH2 0x2023 DUP3 PUSH2 0x1FFC JUMP JUMPDEST SWAP2 PUSH2 0x2031 PUSH1 0x40 MLOAD SWAP4 DUP5 PUSH2 0x1DBD JUMP JUMPDEST DUP3 SWAP5 DUP2 DUP5 MSTORE DUP2 DUP4 ADD GT PUSH2 0x289 JUMPI DUP3 DUP2 PUSH1 0x20 SWAP4 DUP5 PUSH1 0x0 SWAP7 ADD CALLDATACOPY ADD ADD MSTORE JUMP JUMPDEST PUSH1 0x3 SLOAD DUP2 LT ISZERO PUSH2 0x1D52 JUMPI PUSH1 0x3 PUSH1 0x0 MSTORE PUSH32 0xC2575A0E9E593C00F959F8C92F12DB2869C3395A3B0502D05E2516446F71F85B ADD SWAP1 PUSH1 0x0 SWAP1 JUMP JUMPDEST PUSH1 0x4 SLOAD DUP2 LT ISZERO PUSH2 0x1D52 JUMPI PUSH1 0x4 PUSH1 0x0 MSTORE PUSH32 0x8A35ACFBC15FF81A39AE7D344FD709F28E8600B4AA8C65C6B64BFE7FE36BD19B ADD SWAP1 PUSH1 0x0 SWAP1 JUMP JUMPDEST SWAP1 PUSH1 0x1F DUP2 GT PUSH2 0x20CA JUMPI POP POP POP JUMP JUMPDEST PUSH1 0x0 SWAP2 PUSH1 0x0 MSTORE PUSH1 0x20 PUSH1 0x0 KECCAK256 SWAP1 PUSH1 0x20 PUSH1 0x1F DUP6 ADD PUSH1 0x5 SHR DUP4 ADD SWAP5 LT PUSH2 0x2108 JUMPI JUMPDEST PUSH1 0x1F ADD PUSH1 0x5 SHR ADD SWAP2 JUMPDEST DUP3 DUP2 LT PUSH2 0x20FD JUMPI POP POP POP JUMP JUMPDEST DUP2 DUP2 SSTORE PUSH1 0x1 ADD PUSH2 0x20F1 JUMP JUMPDEST SWAP1 SWAP3 POP DUP3 SWAP1 PUSH2 0x20E8 JUMP JUMPDEST PUSH1 0x0 NOT DUP2 EQ PUSH2 0x2121 JUMPI PUSH1 0x1 ADD SWAP1 JUMP JUMPDEST PUSH4 0x4E487B71 PUSH1 0xE0 SHL PUSH1 0x0 MSTORE PUSH1 0x11 PUSH1 0x4 MSTORE PUSH1 0x24 PUSH1 0x0 REVERT JUMPDEST SWAP1 DUP1 PUSH1 0x20 SWAP4 SWAP3 DUP2 DUP5 MSTORE DUP5 DUP5 ADD CALLDATACOPY PUSH1 0x0 DUP3 DUP3 ADD DUP5 ADD MSTORE PUSH1 0x1F ADD PUSH1 0x1F NOT AND ADD ADD SWAP1 JUMP JUMPDEST PUSH1 0xFF PUSH1 0x0 DUP1 MLOAD PUSH1 0x20 PUSH2 0x262D DUP4 CODECOPY DUP2 MLOAD SWAP2 MSTORE SLOAD AND PUSH2 0x2171 JUMPI JUMP JUMPDEST PUSH1 0x40 MLOAD PUSH4 0xD93C0665 PUSH1 0xE0 SHL DUP2 MSTORE PUSH1 0x4 SWAP1 REVERT JUMPDEST CALLER PUSH1 0x0 SWAP1 DUP2 MSTORE PUSH32 0x9967084534F1BFDF20406AC7FEA0E72EFC88FEBA87E44092894E4546122729C3 PUSH1 0x20 MSTORE PUSH1 0x40 SWAP1 KECCAK256 SLOAD PUSH32 0x1324C07B429E7ACA3A767B19C12867B295A0A37D54953449D8C7F5DA7BFD2347 SWAP1 PUSH1 0xFF AND ISZERO PUSH2 0x21DF JUMPI POP JUMP JUMPDEST PUSH1 0x44 SWAP1 PUSH1 0x40 MLOAD SWAP1 PUSH4 0xE2517D3F PUSH1 0xE0 SHL DUP3 MSTORE CALLER PUSH1 0x4 DUP4 ADD MSTORE PUSH1 0x24 DUP3 ADD MSTORE REVERT JUMPDEST CALLER PUSH1 0x0 SWAP1 DUP2 MSTORE PUSH32 0xB16E88C42FD4E48DF2DD6A2EABD6BC9AEC654EC170056B470819F8892CC6431C PUSH1 0x20 MSTORE PUSH1 0x40 SWAP1 KECCAK256 SLOAD PUSH1 0x0 DUP1 MLOAD PUSH1 0x20 PUSH2 0x264D DUP4 CODECOPY DUP2 MLOAD SWAP2 MSTORE SWAP1 PUSH1 0xFF AND ISZERO PUSH2 0x21DF JUMPI POP JUMP JUMPDEST DUP1 PUSH1 0x0 MSTORE PUSH1 0x0 DUP1 MLOAD PUSH1 0x20 PUSH2 0x260D DUP4 CODECOPY DUP2 MLOAD SWAP2 MSTORE PUSH1 0x20 MSTORE PUSH1 0x40 PUSH1 0x0 KECCAK256 CALLER PUSH1 0x0 MSTORE PUSH1 0x20 MSTORE PUSH1 0xFF PUSH1 0x40 PUSH1 0x0 KECCAK256 SLOAD AND ISZERO PUSH2 0x21DF JUMPI POP JUMP JUMPDEST PUSH1 0x1 PUSH1 0x1 PUSH1 0xA0 SHL SUB AND PUSH1 0x0 DUP2 DUP2 MSTORE PUSH32 0xB7DB2DD08FCB62D0C9E08C51941CAE53C267786A0B75803FB7960902FC8EF97D PUSH1 0x20 MSTORE PUSH1 0x40 DUP2 KECCAK256 SLOAD SWAP1 SWAP2 SWAP1 PUSH1 0x0 DUP1 MLOAD PUSH1 0x20 PUSH2 0x260D DUP4 CODECOPY DUP2 MLOAD SWAP2 MSTORE SWAP1 PUSH1 0xFF AND PUSH2 0x2303 JUMPI DUP3 DUP1 MSTORE PUSH1 0x20 MSTORE PUSH1 0x40 DUP3 KECCAK256 DUP2 DUP4 MSTORE PUSH1 0x20 MSTORE PUSH1 0x40 DUP3 KECCAK256 PUSH1 0x1 PUSH1 0xFF NOT DUP3 SLOAD AND OR SWAP1 SSTORE CALLER SWAP2 PUSH1 0x0 DUP1 MLOAD PUSH1 0x20 PUSH2 0x25ED DUP4 CODECOPY DUP2 MLOAD SWAP2 MSTORE DUP2 DUP1 LOG4 PUSH1 0x1 SWAP1 JUMP JUMPDEST POP POP SWAP1 JUMP JUMPDEST PUSH1 0x1 PUSH1 0x1 PUSH1 0xA0 SHL SUB AND PUSH1 0x0 DUP2 DUP2 MSTORE PUSH32 0xB16E88C42FD4E48DF2DD6A2EABD6BC9AEC654EC170056B470819F8892CC6431C PUSH1 0x20 MSTORE PUSH1 0x40 DUP2 KECCAK256 SLOAD SWAP1 SWAP2 SWAP1 PUSH1 0x0 DUP1 MLOAD PUSH1 0x20 PUSH2 0x264D DUP4 CODECOPY DUP2 MLOAD SWAP2 MSTORE SWAP1 PUSH1 0x0 DUP1 MLOAD PUSH1 0x20 PUSH2 0x260D DUP4 CODECOPY DUP2 MLOAD SWAP2 MSTORE SWAP1 PUSH1 0xFF AND PUSH2 0x23A0 JUMPI DUP2 DUP5 MSTORE PUSH1 0x20 MSTORE PUSH1 0x40 DUP4 KECCAK256 DUP3 DUP5 MSTORE PUSH1 0x20 MSTORE PUSH1 0x40 DUP4 KECCAK256 PUSH1 0x1 PUSH1 0xFF NOT DUP3 SLOAD AND OR SWAP1 SSTORE PUSH1 0x0 DUP1 MLOAD PUSH1 0x20 PUSH2 0x25ED DUP4 CODECOPY DUP2 MLOAD SWAP2 MSTORE CALLER SWAP4 DUP1 LOG4 PUSH1 0x1 SWAP1 JUMP JUMPDEST POP POP POP SWAP1 JUMP JUMPDEST PUSH1 0x1 PUSH1 0x1 PUSH1 0xA0 SHL SUB AND PUSH1 0x0 DUP2 DUP2 MSTORE PUSH32 0x9967084534F1BFDF20406AC7FEA0E72EFC88FEBA87E44092894E4546122729C3 PUSH1 0x20 MSTORE PUSH1 0x40 DUP2 KECCAK256 SLOAD SWAP1 SWAP2 SWAP1 PUSH32 0x1324C07B429E7ACA3A767B19C12867B295A0A37D54953449D8C7F5DA7BFD2347 SWAP1 PUSH1 0x0 DUP1 MLOAD PUSH1 0x20 PUSH2 0x260D DUP4 CODECOPY DUP2 MLOAD SWAP2 MSTORE SWAP1 PUSH1 0xFF AND PUSH2 0x23A0 JUMPI DUP2 DUP5 MSTORE PUSH1 0x20 MSTORE PUSH1 0x40 DUP4 KECCAK256 DUP3 DUP5 MSTORE PUSH1 0x20 MSTORE PUSH1 0x40 DUP4 KECCAK256 PUSH1 0x1 PUSH1 0xFF NOT DUP3 SLOAD AND OR SWAP1 SSTORE PUSH1 0x0 DUP1 MLOAD PUSH1 0x20 PUSH2 0x25ED DUP4 CODECOPY DUP2 MLOAD SWAP2 MSTORE CALLER SWAP4 DUP1 LOG4 PUSH1 0x1 SWAP1 JUMP JUMPDEST SWAP1 PUSH1 0x0 SWAP2 DUP1 DUP4 MSTORE PUSH1 0x0 DUP1 MLOAD PUSH1 0x20 PUSH2 0x260D DUP4 CODECOPY DUP2 MLOAD SWAP2 MSTORE DUP1 PUSH1 0x20 MSTORE PUSH1 0x40 DUP5 KECCAK256 SWAP3 PUSH1 0x1 DUP1 PUSH1 0xA0 SHL SUB AND SWAP3 DUP4 DUP6 MSTORE PUSH1 0x20 MSTORE PUSH1 0xFF PUSH1 0x40 DUP6 KECCAK256 SLOAD AND ISZERO PUSH1 0x0 EQ PUSH2 0x23A0 JUMPI DUP2 DUP5 MSTORE PUSH1 0x20 MSTORE PUSH1 0x40 DUP4 KECCAK256 DUP3 DUP5 MSTORE PUSH1 0x20 MSTORE PUSH1 0x40 DUP4 KECCAK256 PUSH1 0x1 PUSH1 0xFF NOT DUP3 SLOAD AND OR SWAP1 SSTORE PUSH1 0x0 DUP1 MLOAD PUSH1 0x20 PUSH2 0x25ED DUP4 CODECOPY DUP2 MLOAD SWAP2 MSTORE CALLER SWAP4 DUP1 LOG4 PUSH1 0x1 SWAP1 JUMP JUMPDEST SWAP1 PUSH1 0x0 SWAP2 DUP1 DUP4 MSTORE PUSH1 0x0 DUP1 MLOAD PUSH1 0x20 PUSH2 0x260D DUP4 CODECOPY DUP2 MLOAD SWAP2 MSTORE DUP1 PUSH1 0x20 MSTORE PUSH1 0x40 DUP5 KECCAK256 SWAP3 PUSH1 0x1 DUP1 PUSH1 0xA0 SHL SUB AND SWAP3 DUP4 DUP6 MSTORE PUSH1 0x20 MSTORE PUSH1 0xFF PUSH1 0x40 DUP6 KECCAK256 SLOAD AND PUSH1 0x0 EQ PUSH2 0x23A0 JUMPI DUP2 DUP5 MSTORE PUSH1 0x20 MSTORE PUSH1 0x40 DUP4 KECCAK256 DUP3 DUP5 MSTORE PUSH1 0x20 MSTORE PUSH1 0x40 DUP4 KECCAK256 PUSH1 0xFF NOT DUP2 SLOAD AND SWAP1 SSTORE PUSH32 0xF6391F5C32D9C69D2A47EA670B442974B53935D1EDC7FD64EB21E047A839171B CALLER SWAP4 DUP1 LOG4 PUSH1 0x1 SWAP1 JUMP JUMPDEST PUSH1 0xFF PUSH32 0xF0C57E16840DF040F15088DC2F81FE391C3923BEC73E23A9662EFC9C229C6A00 SLOAD PUSH1 0x40 SHR AND ISZERO PUSH2 0x2577 JUMPI JUMP JUMPDEST PUSH1 0x40 MLOAD PUSH4 0x1AFCD79F PUSH1 0xE3 SHL DUP2 MSTORE PUSH1 0x4 SWAP1 REVERT JUMPDEST SWAP1 PUSH2 0x25B0 JUMPI POP DUP1 MLOAD ISZERO PUSH2 0x259E JUMPI PUSH1 0x20 DUP2 MLOAD SWAP2 ADD REVERT JUMPDEST PUSH1 0x40 MLOAD PUSH4 0xD6BDA275 PUSH1 0xE0 SHL DUP2 MSTORE PUSH1 0x4 SWAP1 REVERT JUMPDEST DUP2 MLOAD ISZERO DUP1 PUSH2 0x25E3 JUMPI JUMPDEST PUSH2 0x25C1 JUMPI POP SWAP1 JUMP JUMPDEST PUSH1 0x40 MLOAD PUSH4 0x9996B315 PUSH1 0xE0 SHL DUP2 MSTORE PUSH1 0x1 PUSH1 0x1 PUSH1 0xA0 SHL SUB SWAP1 SWAP2 AND PUSH1 0x4 DUP3 ADD MSTORE PUSH1 0x24 SWAP1 REVERT JUMPDEST POP DUP1 EXTCODESIZE ISZERO PUSH2 0x25B9 JUMP INVALID 0x2F DUP8 DUP9 GT PUSH31 0x7EFF1D82E926EC794901D17C78024A50270940304540A733656F0D02DD7BC7 0xDE 0xC4 0xDC 0xEE 0xDD 0xA7 PUSH22 0xE58DD541E08A116C6C53815C0BD028192F7B626800CD 0x5E 0xD1 0x5C PUSH15 0x187E77E9AEE88184C21F4F2182AB58 0x27 0xCB EXTCODESIZE PUSH31 0x7FBEDCD63F03300A49807205CE4D355092EF5A8A18F56E8913CF4A201FBE2 DUP8 DUP3 JUMPDEST MULMOD JUMP SWAP4 0xC2 OR PUSH22 0xA2646970667358221220BFB711E24FFD995F5F0BF215 PUSH18 0x3979CBB795F419841F1F594BE1084FBFB92C SLOAD PUSH5 0x736F6C6343 STOP ADDMOD AND STOP CALLER "},"methodIdentifiers":{"ADMIN_ROLE()":"75b238fc","AUTHORITY_MANAGER_ROLE()":"33d1ae08","DEFAULT_ADMIN_ROLE()":"a217fddf","UPGRADE_INTERFACE_VERSION()":"ad3cb1cc","VERIFIER_ROLE()":"e7705db6","authorityAddresses(uint256)":"b69dab68","getAllAuthorities()":"fedf2c56","getAllProofHashes()":"3cae193b","getHealthAuthority(address)":"e1fe74fd","getRoleAdmin(bytes32)":"248a9ca3","getSystemStats()":"d1ce59a7","getVerificationHistory(bytes32)":"d6c7c503","getZKProof(bytes32)":"d51b456b","grantRole(bytes32,address)":"2f2ff15d","hasRole(bytes32,address)":"91d14854","healthAuthorities(address)":"39cc49df","initialize(address)":"c4d66de8","isHealthRecordRevoked(address,bytes32)":"8607761f","pause()":"8456cb59","paused()":"5c975abb","proofHashes(uint256)":"a86e9715","proxiableUUID()":"52d1902d","registerHealthAuthority(address,string,string,bytes,string)":"167073ee","renounceRole(bytes32,address)":"36568abe","revokeHealthRecord(bytes32)":"c73b33dc","revokeRole(bytes32,address)":"d547741f","revokeZKProof(bytes32)":"08408bc5","submitZKProof(bytes32,bytes32,address,uint256,bytes)":"a1d82581","supportsInterface(bytes4)":"01ffc9a7","totalAuthorities()":"1427e441","totalProofs()":"2ded3568","totalVerifications()":"ac90c140","unpause()":"3f4ba83a","updateHealthAuthorityStatus(address,bool)":"22cf6193","upgradeToAndCall(address,bytes)":"4f1ef286","verificationHistory(bytes32,uint256)":"08b01dc4","verifyZKProof(bytes32,string)":"eb2f774e","zkProofs(bytes32)":"c1695caa"}},"storageLayout":{"storage":[{"astId":3447,"contract":"contracts/ZKHealthPassRegistry.sol:ZKHealthPassRegistry","label":"healthAuthorities","offset":0,"slot":"0","type":"t_mapping(t_address,t_struct(HealthAuthority)3416_storage)"},{"astId":3452,"contract":"contracts/ZKHealthPassRegistry.sol:ZKHealthPassRegistry","label":"zkProofs","offset":0,"slot":"1","type":"t_mapping(t_bytes32,t_struct(ZKProof)3431_storage)"},{"astId":3458,"contract":"contracts/ZKHealthPassRegistry.sol:ZKHealthPassRegistry","label":"verificationHistory","offset":0,"slot":"2","type":"t_mapping(t_bytes32,t_array(t_struct(VerificationEvent)3442_storage)dyn_storage)"},{"astId":3461,"contract":"contracts/ZKHealthPassRegistry.sol:ZKHealthPassRegistry","label":"authorityAddresses","offset":0,"slot":"3","type":"t_array(t_address)dyn_storage"},{"astId":3464,"contract":"contracts/ZKHealthPassRegistry.sol:ZKHealthPassRegistry","label":"proofHashes","offset":0,"slot":"4","type":"t_array(t_bytes32)dyn_storage"},{"astId":3466,"contract":"contracts/ZKHealthPassRegistry.sol:ZKHealthPassRegistry","label":"totalAuthorities","offset":0,"slot":"5","type":"t_uint256"},{"astId":3468,"contract":"contracts/ZKHealthPassRegistry.sol:ZKHealthPassRegistry","label":"totalProofs","offset":0,"slot":"6","type":"t_uint256"},{"astId":3470,"contract":"contracts/ZKHealthPassRegistry.sol:ZKHealthPassRegistry","label":"totalVerifications","offset":0,"slot":"7","type":"t_uint256"}],"types":{"t_address":{"encoding":"inplace","label":"address","numberOfBytes":"20"},"t_array(t_address)dyn_storage":{"base":"t_address","encoding":"dynamic_array","label":"address[]","numberOfBytes":"32"},"t_array(t_bytes32)dyn_storage":{"base":"t_bytes32","encoding":"dynamic_array","label":"bytes32[]","numberOfBytes":"32"},"t_array(t_struct(VerificationEvent)3442_storage)dyn_storage":{"base":"t_struct(VerificationEvent)3442_storage","encoding":"dynamic_array","label":"struct ZKHealthPassRegistry.VerificationEvent[]","numberOfBytes":"32"},"t_bool":{"encoding":"inplace","label":"bool","numberOfBytes":"1"},"t_bytes32":{"encoding":"inplace","label":"bytes32","numberOfBytes":"32"},"t_bytes_storage":{"encoding":"bytes","label":"bytes","numberOfBytes":"32"},"t_mapping(t_address,t_struct(HealthAuthority)3416_storage)":{"encoding":"mapping","key":"t_address","label":"mapping(address => struct ZKHealthPassRegistry.HealthAuthority)","numberOfBytes":"32","value":"t_struct(HealthAuthority)3416_storage"},"t_mapping(t_bytes32,t_array(t_struct(VerificationEvent)3442_storage)dyn_storage)":{"encoding":"mapping","key":"t_bytes32","label":"mapping(bytes32 => struct ZKHealthPassRegistry.VerificationEvent[])","numberOfBytes":"32","value":"t_array(t_struct(VerificationEvent)3442_storage)dyn_storage"},"t_mapping(t_bytes32,t_bool)":{"encoding":"mapping","key":"t_bytes32","label":"mapping(bytes32 => bool)","numberOfBytes":"32","value":"t_bool"},"t_mapping(t_bytes32,t_struct(ZKProof)3431_storage)":{"encoding":"mapping","key":"t_bytes32","label":"mapping(bytes32 => struct ZKHealthPassRegistry.ZKProof)","numberOfBytes":"32","value":"t_struct(ZKProof)3431_storage"},"t_string_storage":{"encoding":"bytes","label":"string","numberOfBytes":"32"},"t_struct(HealthAuthority)3416_storage":{"encoding":"inplace","label":"struct ZKHealthPassRegistry.HealthAuthority","members":[{"astId":3399,"contract":"contracts/ZKHealthPassRegistry.sol:ZKHealthPassRegistry","label":"name","offset":0,"slot":"0","type":"t_string_storage"},{"astId":3401,"contract":"contracts/ZKHealthPassRegistry.sol:ZKHealthPassRegistry","label":"authorityType","offset":0,"slot":"1","type":"t_string_storage"},{"astId":3403,"contract":"contracts/ZKHealthPassRegistry.sol:ZKHealthPassRegistry","label":"publicKey","offset":0,"slot":"2","type":"t_bytes_storage"},{"astId":3405,"contract":"contracts/ZKHealthPassRegistry.sol:ZKHealthPassRegistry","label":"certificate","offset":0,"slot":"3","type":"t_string_storage"},{"astId":3407,"contract":"contracts/ZKHealthPassRegistry.sol:ZKHealthPassRegistry","label":"isActive","offset":0,"slot":"4","type":"t_bool"},{"astId":3409,"contract":"contracts/ZKHealthPassRegistry.sol:ZKHealthPassRegistry","label":"registeredAt","offset":0,"slot":"5","type":"t_uint256"},{"astId":3411,"contract":"contracts/ZKHealthPassRegistry.sol:ZKHealthPassRegistry","label":"totalRecordsIssued","offset":0,"slot":"6","type":"t_uint256"},{"astId":3415,"contract":"contracts/ZKHealthPassRegistry.sol:ZKHealthPassRegistry","label":"revokedRecords","offset":0,"slot":"7","type":"t_mapping(t_bytes32,t_bool)"}],"numberOfBytes":"256"},"t_struct(VerificationEvent)3442_storage":{"encoding":"inplace","label":"struct ZKHealthPassRegistry.VerificationEvent","members":[{"astId":3433,"contract":"contracts/ZKHealthPassRegistry.sol:ZKHealthPassRegistry","label":"proofHash","offset":0,"slot":"0","type":"t_bytes32"},{"astId":3435,"contract":"contracts/ZKHealthPassRegistry.sol:ZKHealthPassRegistry","label":"verifier","offset":0,"slot":"1","type":"t_address"},{"astId":3437,"contract":"contracts/ZKHealthPassRegistry.sol:ZKHealthPassRegistry","label":"isValid","offset":20,"slot":"1","type":"t_bool"},{"astId":3439,"contract":"contracts/ZKHealthPassRegistry.sol:ZKHealthPassRegistry","label":"timestamp","offset":0,"slot":"2","type":"t_uint256"},{"astId":3441,"contract":"contracts/ZKHealthPassRegistry.sol:ZKHealthPassRegistry","label":"context","offset":0,"slot":"3","type":"t_string_storage"}],"numberOfBytes":"128"},"t_struct(ZKProof)3431_storage":{"encoding":"inplace","label":"struct ZKHealthPassRegistry.ZKProof","members":[{"astId":3418,"contract":"contracts/ZKHealthPassRegistry.sol:ZKHealthPassRegistry","label":"proofHash","offset":0,"slot":"0","type":"t_bytes32"},{"astId":3420,"contract":"contracts/ZKHealthPassRegistry.sol:ZKHealthPassRegistry","label":"healthRecordHash","offset":0,"slot":"1","type":"t_bytes32"},{"astId":3422,"contract":"contracts/ZKHealthPassRegistry.sol:ZKHealthPassRegistry","label":"authority","offset":0,"slot":"2","type":"t_address"},{"astId":3424,"contract":"contracts/ZKHealthPassRegistry.sol:ZKHealthPassRegistry","label":"generatedAt","offset":0,"slot":"3","type":"t_uint256"},{"astId":3426,"contract":"contracts/ZKHealthPassRegistry.sol:ZKHealthPassRegistry","label":"expiresAt","offset":0,"slot":"4","type":"t_uint256"},{"astId":3428,"contract":"contracts/ZKHealthPassRegistry.sol:ZKHealthPassRegistry","label":"isRevoked","offset":0,"slot":"5","type":"t_bool"},{"astId":3430,"contract":"contracts/ZKHealthPassRegistry.sol:ZKHealthPassRegistry","label":"verificationCount","offset":0,"slot":"6","type":"t_uint256"}],"numberOfBytes":"224"},"t_uint256":{"encoding":"inplace","label":"uint256","numberOfBytes":"32"}}}}}}