{"contracts/HealthAuthorityRegistry.sol":{"HealthAuthorityRegistry":{"abi":[{"inputs":[],"stateMutability":"nonpayable","type":"constructor"},{"inputs":[],"name":"AccessControlBadConfirmation","type":"error"},{"inputs":[{"internalType":"address","name":"account","type":"address"},{"internalType":"bytes32","name":"neededRole","type":"bytes32"}],"name":"AccessControlUnauthorizedAccount","type":"error"},{"inputs":[{"internalType":"address","name":"target","type":"address"}],"name":"AddressEmptyCode","type":"error"},{"inputs":[],"name":"ApplicationAlreadyExists","type":"error"},{"inputs":[],"name":"ApplicationNotFound","type":"error"},{"inputs":[],"name":"AuthorityAlreadyExists","type":"error"},{"inputs":[{"internalType":"address","name":"implementation","type":"address"}],"name":"ERC1967InvalidImplementation","type":"error"},{"inputs":[],"name":"ERC1967NonPayable","type":"error"},{"inputs":[],"name":"EnforcedPause","type":"error"},{"inputs":[],"name":"ExpectedPause","type":"error"},{"inputs":[],"name":"FailedCall","type":"error"},{"inputs":[],"name":"InvalidAuthority","type":"error"},{"inputs":[],"name":"InvalidInitialization","type":"error"},{"inputs":[],"name":"InvalidPublicKey","type":"error"},{"inputs":[],"name":"NameAlreadyTaken","type":"error"},{"inputs":[],"name":"NotInitializing","type":"error"},{"inputs":[],"name":"UUPSUnauthorizedCallContext","type":"error"},{"inputs":[{"internalType":"bytes32","name":"slot","type":"bytes32"}],"name":"UUPSUnsupportedProxiableUUID","type":"error"},{"inputs":[],"name":"UnauthorizedAccess","type":"error"},{"anonymous":false,"inputs":[{"indexed":true,"internalType":"address","name":"applicant","type":"address"},{"indexed":false,"internalType":"string","name":"reason","type":"string"},{"indexed":true,"internalType":"address","name":"rejectedBy","type":"address"}],"name":"ApplicationRejected","type":"event"},{"anonymous":false,"inputs":[{"indexed":true,"internalType":"address","name":"applicant","type":"address"},{"indexed":false,"internalType":"string","name":"name","type":"string"},{"indexed":false,"internalType":"enum HealthAuthorityRegistry.AuthorityType","name":"authorityType","type":"uint8"},{"indexed":false,"internalType":"string","name":"country","type":"string"}],"name":"ApplicationSubmitted","type":"event"},{"anonymous":false,"inputs":[{"indexed":true,"internalType":"address","name":"authority","type":"address"},{"indexed":false,"internalType":"string","name":"name","type":"string"},{"indexed":false,"internalType":"enum HealthAuthorityRegistry.AuthorityType","name":"authorityType","type":"uint8"},{"indexed":true,"internalType":"address","name":"registeredBy","type":"address"}],"name":"AuthorityRegistered","type":"event"},{"anonymous":false,"inputs":[{"indexed":true,"internalType":"address","name":"authority","type":"address"},{"indexed":false,"internalType":"enum HealthAuthorityRegistry.AuthorityStatus","name":"oldStatus","type":"uint8"},{"indexed":false,"internalType":"enum HealthAuthorityRegistry.AuthorityStatus","name":"newStatus","type":"uint8"},{"indexed":true,"internalType":"address","name":"changedBy","type":"address"}],"name":"AuthorityStatusChanged","type":"event"},{"anonymous":false,"inputs":[{"indexed":true,"internalType":"address","name":"authority","type":"address"},{"indexed":false,"internalType":"string","name":"field","type":"string"},{"indexed":true,"internalType":"address","name":"updatedBy","type":"address"}],"name":"AuthorityUpdated","type":"event"},{"anonymous":false,"inputs":[{"indexed":false,"internalType":"uint64","name":"version","type":"uint64"}],"name":"Initialized","type":"event"},{"anonymous":false,"inputs":[{"indexed":false,"internalType":"address","name":"account","type":"address"}],"name":"Paused","type":"event"},{"anonymous":false,"inputs":[{"indexed":true,"internalType":"bytes32","name":"role","type":"bytes32"},{"indexed":true,"internalType":"bytes32","name":"previousAdminRole","type":"bytes32"},{"indexed":true,"internalType":"bytes32","name":"newAdminRole","type":"bytes32"}],"name":"RoleAdminChanged","type":"event"},{"anonymous":false,"inputs":[{"indexed":true,"internalType":"bytes32","name":"role","type":"bytes32"},{"indexed":true,"internalType":"address","name":"account","type":"address"},{"indexed":true,"internalType":"address","name":"sender","type":"address"}],"name":"RoleGranted","type":"event"},{"anonymous":false,"inputs":[{"indexed":true,"internalType":"bytes32","name":"role","type":"bytes32"},{"indexed":true,"internalType":"address","name":"account","type":"address"},{"indexed":true,"internalType":"address","name":"sender","type":"address"}],"name":"RoleRevoked","type":"event"},{"anonymous":false,"inputs":[{"indexed":false,"internalType":"address","name":"account","type":"address"}],"name":"Unpaused","type":"event"},{"anonymous":false,"inputs":[{"indexed":true,"internalType":"address","name":"implementation","type":"address"}],"name":"Upgraded","type":"event"},{"inputs":[],"name":"ADMIN_ROLE","outputs":[{"internalType":"bytes32","name":"","type":"bytes32"}],"stateMutability":"view","type":"function"},{"inputs":[],"name":"AUDITOR_ROLE","outputs":[{"internalType":"bytes32","name":"","type":"bytes32"}],"stateMutability":"view","type":"function"},{"inputs":[],"name":"DEFAULT_ADMIN_ROLE","outputs":[{"internalType":"bytes32","name":"","type":"bytes32"}],"stateMutability":"view","type":"function"},{"inputs":[],"name":"REGISTRAR_ROLE","outputs":[{"internalType":"bytes32","name":"","type":"bytes32"}],"stateMutability":"view","type":"function"},{"inputs":[],"name":"UPGRADE_INTERFACE_VERSION","outputs":[{"internalType":"string","name":"","type":"string"}],"stateMutability":"view","type":"function"},{"inputs":[],"name":"activeAuthorities","outputs":[{"internalType":"uint256","name":"","type":"uint256"}],"stateMutability":"view","type":"function"},{"inputs":[{"internalType":"uint256","name":"","type":"uint256"}],"name":"allAuthorities","outputs":[{"internalType":"address","name":"","type":"address"}],"stateMutability":"view","type":"function"},{"inputs":[{"internalType":"address","name":"","type":"address"}],"name":"applications","outputs":[{"internalType":"address","name":"applicant","type":"address"},{"internalType":"string","name":"name","type":"string"},{"internalType":"enum HealthAuthorityRegistry.AuthorityType","name":"authorityType","type":"uint8"},{"internalType":"string","name":"country","type":"string"},{"internalType":"string","name":"region","type":"string"},{"internalType":"bytes","name":"publicKey","type":"bytes"},{"internalType":"string","name":"certificateHash","type":"string"},{"internalType":"string","name":"contactInfo","type":"string"},{"internalType":"uint256","name":"appliedAt","type":"uint256"},{"internalType":"bool","name":"isProcessed","type":"bool"},{"internalType":"string","name":"rejectionReason","type":"string"}],"stateMutability":"view","type":"function"},{"inputs":[{"internalType":"address","name":"applicant","type":"address"}],"name":"approveApplication","outputs":[],"stateMutability":"nonpayable","type":"function"},{"inputs":[{"internalType":"string","name":"","type":"string"},{"internalType":"uint256","name":"","type":"uint256"}],"name":"authoritiesByCountry","outputs":[{"internalType":"address","name":"","type":"address"}],"stateMutability":"view","type":"function"},{"inputs":[{"internalType":"enum HealthAuthorityRegistry.AuthorityType","name":"","type":"uint8"},{"internalType":"uint256","name":"","type":"uint256"}],"name":"authoritiesByType","outputs":[{"internalType":"address","name":"","type":"address"}],"stateMutability":"view","type":"function"},{"inputs":[],"name":"getAllAuthorities","outputs":[{"internalType":"address[]","name":"","type":"address[]"}],"stateMutability":"view","type":"function"},{"inputs":[{"internalType":"address","name":"applicant","type":"address"}],"name":"getApplication","outputs":[{"internalType":"string","name":"name","type":"string"},{"internalType":"enum HealthAuthorityRegistry.AuthorityType","name":"authorityType","type":"uint8"},{"internalType":"string","name":"country","type":"string"},{"internalType":"string","name":"region","type":"string"},{"internalType":"bytes","name":"publicKey","type":"bytes"},{"internalType":"string","name":"certificateHash","type":"string"},{"internalType":"string","name":"contactInfo","type":"string"},{"internalType":"uint256","name":"appliedAt","type":"uint256"},{"internalType":"bool","name":"isProcessed","type":"bool"},{"internalType":"string","name":"rejectionReason","type":"string"}],"stateMutability":"view","type":"function"},{"inputs":[{"internalType":"string","name":"country","type":"string"}],"name":"getAuthoritiesByCountry","outputs":[{"internalType":"address[]","name":"","type":"address[]"}],"stateMutability":"view","type":"function"},{"inputs":[{"internalType":"enum HealthAuthorityRegistry.AuthorityType","name":"authorityType","type":"uint8"}],"name":"getAuthoritiesByType","outputs":[{"internalType":"address[]","name":"","type":"address[]"}],"stateMutability":"view","type":"function"},{"inputs":[{"internalType":"address","name":"authority","type":"address"}],"name":"getAuthority","outputs":[{"internalType":"string","name":"name","type":"string"},{"internalType":"enum HealthAuthorityRegistry.AuthorityType","name":"authorityType","type":"uint8"},{"internalType":"string","name":"country","type":"string"},{"internalType":"string","name":"region","type":"string"},{"internalType":"bytes","name":"publicKey","type":"bytes"},{"internalType":"string","name":"certificateHash","type":"string"},{"internalType":"string","name":"contactInfo","type":"string"},{"internalType":"enum HealthAuthorityRegistry.AuthorityStatus","name":"status","type":"uint8"},{"internalType":"uint256","name":"registeredAt","type":"uint256"},{"internalType":"uint256","name":"totalRecordsIssued","type":"uint256"},{"internalType":"uint256","name":"totalRecordsRevoked","type":"uint256"}],"stateMutability":"view","type":"function"},{"inputs":[],"name":"getPendingApplications","outputs":[{"internalType":"address[]","name":"","type":"address[]"}],"stateMutability":"view","type":"function"},{"inputs":[],"name":"getRegistryStats","outputs":[{"internalType":"uint256","name":"total","type":"uint256"},{"internalType":"uint256","name":"active","type":"uint256"},{"internalType":"uint256","name":"pending","type":"uint256"},{"internalType":"uint256","name":"suspended","type":"uint256"},{"internalType":"uint256","name":"revoked","type":"uint256"}],"stateMutability":"view","type":"function"},{"inputs":[{"internalType":"bytes32","name":"role","type":"bytes32"}],"name":"getRoleAdmin","outputs":[{"internalType":"bytes32","name":"","type":"bytes32"}],"stateMutability":"view","type":"function"},{"inputs":[{"internalType":"bytes32","name":"role","type":"bytes32"},{"internalType":"address","name":"account","type":"address"}],"name":"grantRole","outputs":[],"stateMutability":"nonpayable","type":"function"},{"inputs":[{"internalType":"bytes32","name":"role","type":"bytes32"},{"internalType":"address","name":"account","type":"address"}],"name":"hasRole","outputs":[{"internalType":"bool","name":"","type":"bool"}],"stateMutability":"view","type":"function"},{"inputs":[{"internalType":"address","name":"","type":"address"}],"name":"healthAuthorities","outputs":[{"internalType":"string","name":"name","type":"string"},{"internalType":"enum HealthAuthorityRegistry.AuthorityType","name":"authorityType","type":"uint8"},{"internalType":"string","name":"country","type":"string"},{"internalType":"string","name":"region","type":"string"},{"internalType":"bytes","name":"publicKey","type":"bytes"},{"internalType":"string","name":"certificateHash","type":"string"},{"internalType":"string","name":"contactInfo","type":"string"},{"internalType":"enum HealthAuthorityRegistry.AuthorityStatus","name":"status","type":"uint8"},{"internalType":"uint256","name":"registeredAt","type":"uint256"},{"internalType":"uint256","name":"lastUpdated","type":"uint256"},{"internalType":"address","name":"registeredBy","type":"address"},{"internalType":"uint256","name":"totalRecordsIssued","type":"uint256"},{"internalType":"uint256","name":"totalRecordsRevoked","type":"uint256"}],"stateMutability":"view","type":"function"},{"inputs":[{"internalType":"address","name":"admin","type":"address"}],"name":"initialize","outputs":[],"stateMutability":"nonpayable","type":"function"},{"inputs":[{"internalType":"address","name":"authority","type":"address"}],"name":"isActiveAuthority","outputs":[{"internalType":"bool","name":"","type":"bool"}],"stateMutability":"view","type":"function"},{"inputs":[{"internalType":"string","name":"","type":"string"}],"name":"nameToAddress","outputs":[{"internalType":"address","name":"","type":"address"}],"stateMutability":"view","type":"function"},{"inputs":[],"name":"pause","outputs":[],"stateMutability":"nonpayable","type":"function"},{"inputs":[],"name":"paused","outputs":[{"internalType":"bool","name":"","type":"bool"}],"stateMutability":"view","type":"function"},{"inputs":[{"internalType":"uint256","name":"","type":"uint256"}],"name":"pendingApplications","outputs":[{"internalType":"address","name":"","type":"address"}],"stateMutability":"view","type":"function"},{"inputs":[],"name":"pendingApplicationsCount","outputs":[{"internalType":"uint256","name":"","type":"uint256"}],"stateMutability":"view","type":"function"},{"inputs":[],"name":"proxiableUUID","outputs":[{"internalType":"bytes32","name":"","type":"bytes32"}],"stateMutability":"view","type":"function"},{"inputs":[{"internalType":"address","name":"authority","type":"address"}],"name":"recordHealthRecordIssued","outputs":[],"stateMutability":"nonpayable","type":"function"},{"inputs":[{"internalType":"address","name":"authority","type":"address"}],"name":"recordHealthRecordRevoked","outputs":[],"stateMutability":"nonpayable","type":"function"},{"inputs":[{"internalType":"address","name":"applicant","type":"address"},{"internalType":"string","name":"reason","type":"string"}],"name":"rejectApplication","outputs":[],"stateMutability":"nonpayable","type":"function"},{"inputs":[{"internalType":"bytes32","name":"role","type":"bytes32"},{"internalType":"address","name":"callerConfirmation","type":"address"}],"name":"renounceRole","outputs":[],"stateMutability":"nonpayable","type":"function"},{"inputs":[{"internalType":"bytes32","name":"role","type":"bytes32"},{"internalType":"address","name":"account","type":"address"}],"name":"revokeRole","outputs":[],"stateMutability":"nonpayable","type":"function"},{"inputs":[{"internalType":"string","name":"name","type":"string"},{"internalType":"enum HealthAuthorityRegistry.AuthorityType","name":"authorityType","type":"uint8"},{"internalType":"string","name":"country","type":"string"},{"internalType":"string","name":"region","type":"string"},{"internalType":"bytes","name":"publicKey","type":"bytes"},{"internalType":"string","name":"certificateHash","type":"string"},{"internalType":"string","name":"contactInfo","type":"string"},{"internalType":"string[]","name":"accreditations","type":"string[]"}],"name":"submitApplication","outputs":[],"stateMutability":"nonpayable","type":"function"},{"inputs":[{"internalType":"bytes4","name":"interfaceId","type":"bytes4"}],"name":"supportsInterface","outputs":[{"internalType":"bool","name":"","type":"bool"}],"stateMutability":"view","type":"function"},{"inputs":[],"name":"totalAuthorities","outputs":[{"internalType":"uint256","name":"","type":"uint256"}],"stateMutability":"view","type":"function"},{"inputs":[],"name":"unpause","outputs":[],"stateMutability":"nonpayable","type":"function"},{"inputs":[{"internalType":"address","name":"authority","type":"address"},{"internalType":"string","name":"contactInfo","type":"string"},{"internalType":"string","name":"certificateHash","type":"string"}],"name":"updateAuthorityInfo","outputs":[],"stateMutability":"nonpayable","type":"function"},{"inputs":[{"internalType":"address","name":"authority","type":"address"},{"internalType":"enum HealthAuthorityRegistry.AuthorityStatus","name":"newStatus","type":"uint8"}],"name":"updateAuthorityStatus","outputs":[],"stateMutability":"nonpayable","type":"function"},{"inputs":[{"internalType":"address","name":"newImplementation","type":"address"},{"internalType":"bytes","name":"data","type":"bytes"}],"name":"upgradeToAndCall","outputs":[],"stateMutability":"payable","type":"function"}],"evm":{"bytecode":{"linkReferences":{},"object":"60a08060405234620000d157306080527ff0c57e16840df040f15088dc2f81fe391c3923bec73e23a9662efc9c229c6a009081549060ff8260401c16620000c257506001600160401b036002600160401b0319828216016200007c575b604051613dd99081620000d7823960805181818161276101526129590152f35b6001600160401b031990911681179091556040519081527fc7f505b2f371ae2175ee4913f4499e1f2633a7b5936321eed1cdaeb6115181d290602090a13880806200005c565b63f92ee8a960e01b8152600490fd5b600080fdfe608080604052600436101561001357600080fd5b60003560e01c90816301ffc9a714613348575080630369f7031461308257806308d88aad1461301a57806308e52d5814612ff15780631427e44114612fd35780631afd695714612f585780631febde3d14612f3a578063248a9ca314612efe5780632f2ff15d14612eb257806336568abe14612e6b57806339cc49df14612cb65780633a4e261314612c1a5780633f4ba83a14612ba357806343c224fa14612b385780634f1ef2861461290a578063528fd91a146127cb57806352d1902d1461274e5780635c975abb1461271e5780635fabcaaf146125865780636630d3ab146125025780636e1d616e146124c757806371e1f32f1461247457806375b238fc146124395780637c3bf42d146122815780638456cb591461221a578063879a2d2a1461206e57806391d1485414612014578063940cc39714611feb5780639de0963d14611f1f578063a217fddf14611f03578063aaf40bd51461135e578063ad3cb1cc14611306578063be4f6c3914611138578063c35ed8a6146110cf578063c4d66de814610f82578063cb38e1a914610f35578063d3658dc214610ede578063d547741f14610e90578063e3ae4d0a146102df578063f68e9553146102a4578063fedf2c56146102105763ff15e011146101ed57600080fd5b3461020b57600036600319011261020b576020600854604051908152f35b600080fd5b3461020b57600036600319011261020b57604051806005549182815260208091019260056000527f036b6384b5eca791c62761152d0c79bb0604c104a5fb6f4eb0703f3154bb3db0916000905b8282106102845761028085610274818903826133f4565b60405191829182613544565b0390f35b83546001600160a01b03168652948501946001938401939091019061025d565b3461020b57600036600319011261020b5760206040517fedcc084d3dcd65a1f7f23c65c46722faca6953d28e43150a467cf43e5c3092388152f35b3461020b57602036600319011261020b576102f861339b565b61030061387d565b6103086137d8565b6001600160a01b0381166000908152600160205260409020600981015415610e7e5760ff600a82015416610e6c5760ff60028201541660405190816101c08101106001600160401b036101c0840111176109635761039d906101c0830160405261038d6101bf19846103816101c08201600189016135c3565b03016101c085016133f4565b6101c08301835260208301613759565b6040516103b8816103b181600387016135c3565b03826133f4565b60408201526040516103d1816103b181600487016135c3565b60608201526040516103ea816103b181600587016135c3565b6080820152604051610403816103b181600687016135c3565b60a082015260405161041c816103b181600787016135c3565b60c0820152600160e082015242610100820152426101208201523361014082015260006101608201526000610180820152600882015461045b81613765565b9061046960405192836133f4565b808252602082016008850160005260206000206000915b838310610e4757505050506101a082015260018060a01b038316600052600060205260406000209080518051906001600160401b038211610963576104cf826104c98654613589565b866136c8565b602090601f8311600114610ddb57610500929160009183610b96575b50508160011b916000199060031b1c19161790565b82555b60208101516007811015610b805761051e906001840161377c565b60408101518051906001600160401b0382116109635761054e826105456002870154613589565b600287016136c8565b602090601f8311600114610d695761057e929160009183610b965750508160011b916000199060031b1c19161790565b60028301555b60608101518051906001600160401b038211610963576105b4826105ab6003870154613589565b600387016136c8565b602090601f8311600114610cf7576105e4929160009183610b965750508160011b916000199060031b1c19161790565b60038301555b60808101518051906001600160401b0382116109635761061a826106116004870154613589565b600487016136c8565b602090601f8311600114610c855761064a929160009183610b965750508160011b916000199060031b1c19161790565b60048301555b60a08101518051906001600160401b03821161096357610680826106776005870154613589565b600587016136c8565b602090601f8311600114610c13576106b0929160009183610b965750508160011b916000199060031b1c19161790565b60058301555b60c08101518051906001600160401b038211610963576106e6826106dd6006870154613589565b600687016136c8565b602090601f8311600114610ba157610716929160009183610b965750508160011b916000199060031b1c19161790565b60068301555b60e0810151906004821015610b805761073b6101a0926007850161370f565b61010081015160088401556101208101516009840155600a830160018060a01b03610140830151166bffffffffffffffffffffffff60a01b825416179055610160810151600b840155610180810151600c8401550151805190600160401b821161096357600d83015482600d850155808310610b08575b506020600d910192016000526020600020916000905b828210610a1f5785856040516000816001840154916107e683613589565b9260018116908115610a0857506001146109ca575b600280825291900360200190922080546001600160a01b0319166001600160a01b0386161790555081015461083d9083906108389060ff16613698565b613794565b604051826000600384015461085181613589565b90600181169081156109b45750600114610979575b509160208184600461087c965203019020613794565b600554600160401b811015610963578261089f8260016108bd94016005556134a8565b90919060018060a01b038084549260031b9316831b921b1916179055565b600a8101805460ff191660011790556007546108d890613727565b6007556108e6600854613727565b6008556108f460095461374c565b60095561090082613bec565b7fa306cba18d5a93d3b9690cddf06d6073cfd4004ee05ff11dabd234ba51ad2cd860ff60028301541691610950610945604051926040845260016040850191016135c3565b93602083019061367e565b33936001600160a01b03169281900390a3005b634e487b7160e01b600052604160045260246000fd5b90506003840160005260206000206000905b82821061099d57505082016020610866565b80548286015286935060209091019060010161098b565b60ff191685525080151502830190506020610866565b5050600183016000528160206000206000905b8382106109f057505060209181016107fb565b602091925080600191548487015201910183916109dd565b60ff191683525060209280151502820190506107fb565b80518051906001600160401b03821161096357610a4682610a408854613589565b886136c8565b602090601f8311600114610a985792610a7e83600195946020948796600092610a8d5750508160011b916000199060031b1c19161790565b87555b019401910190926107c8565b015190508c806104eb565b908660005260206000209160005b601f1985168110610af0575083602093600196938796938794601f19811610610ad7575b505050811b018755610a81565b015160001960f88460031b161c191690558b8080610aca565b91926020600181928685015181550194019201610aa6565b600d84016000526020600020908382015b8183018110610b295750506107b2565b80610b3660019254613589565b80610b43575b5001610b19565b601f81118314610b595750600081555b89610b3c565b600090828252610b77601f60208420920160051c82018583016136b1565b81835555610b53565b634e487b7160e01b600052602160045260246000fd5b0151905087806104eb565b9190600685016000526020600020906000935b601f1984168510610bf8576001945083601f19811610610bdf575b505050811b01600683015561071c565b015160001960f88460031b161c19169055868080610bcf565b81810151835560209485019460019093019290910190610bb4565b9190600585016000526020600020906000935b601f1984168510610c6a576001945083601f19811610610c51575b505050811b0160058301556106b6565b015160001960f88460031b161c19169055868080610c41565b81810151835560209485019460019093019290910190610c26565b9190600485016000526020600020906000935b601f1984168510610cdc576001945083601f19811610610cc3575b505050811b016004830155610650565b015160001960f88460031b161c19169055868080610cb3565b81810151835560209485019460019093019290910190610c98565b9190600385016000526020600020906000935b601f1984168510610d4e576001945083601f19811610610d35575b505050811b0160038301556105ea565b015160001960f88460031b161c19169055868080610d25565b81810151835560209485019460019093019290910190610d0a565b9190600285016000526020600020906000935b601f1984168510610dc0576001945083601f19811610610da7575b505050811b016002830155610584565b015160001960f88460031b161c19169055868080610d97565b81810151835560209485019460019093019290910190610d7c565b9190846000526020600020906000935b601f1984168510610e2c576001945083601f19811610610e13575b505050811b018255610503565b015160001960f88460031b161c19169055868080610e06565b81810151835560209485019460019093019290910190610deb565b600160208192604051610e5e816103b181896135c3565b815201920192019190610480565b604051630b792c8f60e01b8152600490fd5b604051630bd94e9760e11b8152600490fd5b3461020b57604036600319011261020b57610edc600435610eaf6133b1565b9080600052600080516020613d64833981519152602052610ed76001604060002001546138d9565b613b69565b005b3461020b57604036600319011261020b57600435600781101561020b57610f0760243591613698565b805482101561020b57602091610f1c9161352c565b905460405160039290921b1c6001600160a01b03168152f35b3461020b57602036600319011261020b576001600160a01b03610f5661339b565b16600052600060205260ff600760406000200154166004811015610b8057602090600160405191148152f35b3461020b57602036600319011261020b57610f9b61339b565b7ff0c57e16840df040f15088dc2f81fe391c3923bec73e23a9662efc9c229c6a0090815460ff8160401c1615916001600160401b038216801590816110c7575b60011490816110bd575b1590816110b4575b506110a25767ffffffffffffffff198216600117845561103f9183611083575b50611016613c9f565b61101e613c9f565b611026613c9f565b61102f8161390c565b506110398161399a565b50613a4a565b5061104657005b68ff00000000000000001981541690557fc7f505b2f371ae2175ee4913f4499e1f2633a7b5936321eed1cdaeb6115181d2602060405160018152a1005b68ffffffffffffffffff1916680100000000000000011784558461100d565b60405163f92ee8a960e01b8152600490fd5b90501585610fed565b303b159150610fe5565b849150610fdb565b3461020b57602036600319011261020b576001600160a01b036110f061339b565b1680600052600060205260086040600020015415611126576000526000602052600b6040600020016111228154613727565b9055005b604051636f6a1b8760e11b8152600490fd5b3461020b57604036600319011261020b5761115161339b565b6001600160401b039060243582811161020b576111729036906004016133c7565b9061117b61387d565b6111836137d8565b60018060a01b0383169182600052600194602095600187526040600020600981015415610e7e57600a81019081549160ff8316610e6c576001600b9360ff191617905501918311610963576111e2836111dc8454613589565b846136c8565b600090601f84116001146112765750946112509161123a84807fa48f4c1ccc0ba48a23c6f8469cc585d5868976d8c47a6e5a6c9e4e3621422f1b989960009161126b575b508160011b916000199060031b1c19161790565b90555b61124860095461374c565b600955613bec565b61126660405192839287845233978401916137b7565b0390a3005b90508701358b611226565b90601f1984168360005288600020926000905b8a8383106112ee57505050916112509391857fa48f4c1ccc0ba48a23c6f8469cc585d5868976d8c47a6e5a6c9e4e3621422f1b989994106112d4575b5050600184811b01905561123d565b860135600019600387901b60f8161c1916905588806112c5565b88850135865594810194938401939190910190611289565b3461020b57600036600319011261020b5760405160408101908082106001600160401b03831117610963576102809160405260058152640352e302e360dc1b6020820152604051918291602083526020830190613659565b3461020b5761010036600319011261020b576004356001600160401b03811161020b5761138f9036906004016133c7565b906007602435101561020b576044356001600160401b03811161020b576113ba9036906004016133c7565b9190926064356001600160401b03811161020b576113dc9036906004016133c7565b906084356001600160401b03811161020b576113fc9036906004016133c7565b91909260a4356001600160401b03811161020b5761141e9036906004016133c7565b919060c4356001600160401b03811161020b5761143f9036906004016133c7565b9390946001600160401b0360e4351161020b5736602360e43501121561020b576001600160401b0360e435600401351161020b5736602460e4356004013560051b60e43501011161020b576114926137d8565b336000526001602052600960406000200154610e6c57336000526000602052600860406000200154611ef157604051898b82376002818b019081528190036020019020546001600160a01b0316611edf5760408703611ecd5760405197886101808101106001600160401b036101808b011117610963576115859761156161156d938f978f8f8f8f929b6115799c61153c6060946115579461018088016040523388523691613430565b602086015261155060243560408701613759565b3691613430565b9101523691613430565b60808b01523691613430565b60a08801523691613430565b60c08501523691613430565b60e082015261159960e43560040135613765565b6115a660405191826133f4565b60e43560048101358252602401602082015b602460e4356004013560051b60e43501018210611e9d5750506101008201524261012082015260006101408201526040518060208101106001600160401b0360208301111761096357602081016040526000815261016082015233600052600160205260406000209060018060a01b038151166bffffffffffffffffffffffff60a01b83541617825560208101518051906001600160401b03821161096357611671826116686001870154613589565b600187016136c8565b602090601f8311600114611e2b576116a1929160009183611a1d5750508160011b916000199060031b1c19161790565b60018301555b60408101516007811015610b80576116c2906002840161377c565b60608101518051906001600160401b038211610963576116e9826105ab6003870154613589565b602090601f8311600114611db957611719929160009183611a1d5750508160011b916000199060031b1c19161790565b60038301555b60808101518051906001600160401b03821161096357611746826106116004870154613589565b602090601f8311600114611d4757611776929160009183611a1d5750508160011b916000199060031b1c19161790565b60048301555b60a08101518051906001600160401b038211610963576117a3826106776005870154613589565b602090601f8311600114611cd5576117d3929160009183611a1d5750508160011b916000199060031b1c19161790565b60058301555b60c08101518051906001600160401b03821161096357611800826106dd6006870154613589565b602090601f8311600114611c6357611830929160009183611a1d5750508160011b916000199060031b1c19161790565b60068301555b60e08101518051906001600160401b038211610963576118668261185d6007870154613589565b600787016136c8565b602090601f8311600114611bf157611896929160009183611a1d5750508160011b916000199060031b1c19161790565b60078301555b610100810151805190600160401b8211610963576008840154826008860155808310611b79575b5060200190600884016000526020600020916000905b828210611a965750505050806101206101609201516009840155600a8301610140820151151560ff8019835416911617905501518051906001600160401b038211610963576119388261192f600b860154613589565b600b86016136c8565b602090601f8311600114611a2857918061196b92600b94600092611a1d5750508160011b916000199060031b1c19161790565b9101555b600654600160401b811015610963577f3f56e6bc6fb47b24447b4b773b9c51cb0a8efdc06f22d2839fa1c2bc3a3d16e8936119d46119b6836001611a1895016006556134f5565b81546001600160a01b0360039290921b91821b19163390911b179055565b6119df600954613727565b6009556119f96040519485946060865260608601916137b7565b90611a096020850160243561367e565b838203604085015233966137b7565b0390a2005b0151905089806104eb565b90601f19831691600b850160005260206000209260005b818110611a7e5750916001939185600b969410611a65575b505050811b0191015561196f565b015160001960f88460031b161c19169055888080611a57565b92936020600181928786015181550195019301611a3f565b80518051906001600160401b03821161096357611ab782610a408854613589565b602090601f8311600114611b095792611aef83600195946020948796600092611afe5750508160011b916000199060031b1c19161790565b87555b019401910190926118d9565b0151905038806104eb565b908660005260206000209160005b601f1985168110611b61575083602093600196938796938794601f19811610611b48575b505050811b018755611af2565b015160001960f88460031b161c191690558f8080611b3b565b91926020600181928685015181550194019201611b17565b600885016000526020600020908382015b8183018110611b9a5750506118c3565b80611ba760019254613589565b80611bb4575b5001611b8a565b601f81118314611bca5750600081555b8c611bad565b600090828252611be8601f60208420920160051c82018583016136b1565b81835555611bc4565b9190600785016000526020600020906000935b601f1984168510611c48576001945083601f19811610611c2f575b505050811b01600783015561189c565b015160001960f88460031b161c19169055888080611c1f565b81810151835560209485019460019093019290910190611c04565b9190600685016000526020600020906000935b601f1984168510611cba576001945083601f19811610611ca1575b505050811b016006830155611836565b015160001960f88460031b161c19169055888080611c91565b81810151835560209485019460019093019290910190611c76565b9190600585016000526020600020906000935b601f1984168510611d2c576001945083601f19811610611d13575b505050811b0160058301556117d9565b015160001960f88460031b161c19169055888080611d03565b81810151835560209485019460019093019290910190611ce8565b9190600485016000526020600020906000935b601f1984168510611d9e576001945083601f19811610611d85575b505050811b01600483015561177c565b015160001960f88460031b161c19169055888080611d75565b81810151835560209485019460019093019290910190611d5a565b9190600385016000526020600020906000935b601f1984168510611e10576001945083601f19811610611df7575b505050811b01600383015561171f565b015160001960f88460031b161c19169055888080611de7565b81810151835560209485019460019093019290910190611dcc565b9190600185016000526020600020906000935b601f1984168510611e82576001945083601f19811610611e69575b505050811b0160018301556116a7565b015160001960f88460031b161c19169055888080611e59565b81810151835560209485019460019093019290910190611e3e565b6001600160401b0382351161020b5760208091611ec2366024863560e4350101613467565b8152019101906115b8565b60405163145a1fdd60e31b8152600490fd5b604051630d706ecd60e21b8152600490fd5b6040516359db621160e11b8152600490fd5b3461020b57600036600319011261020b57602060405160008152f35b3461020b57600036600319011261020b576007805460085460095460009060009260006005545b808210611f6f57505060a095506040519485526020850152604084015260608301526080820152f35b9093611f7a856134a8565b9054600391821b1c6001600160a01b0316600090815260208190526040902089015460ff166004811015610b805760028103611fc6575050611fbd600191613727565b945b0190611f46565b95919514611fd7575b600190611fbf565b94611fe3600191613727565b959050611fcf565b3461020b57602036600319011261020b5760043560065481101561020b57610f1c6020916134f5565b3461020b57604036600319011261020b5761202d6133b1565b600435600052600080516020613d6483398151915260205260406000209060018060a01b0316600052602052602060ff604060002054166040519015158152f35b3461020b57602036600319011261020b576001600160a01b0361208f61339b565b1660005260016020526040600020600281015460ff1690600981015490600a81015460ff169160405192838060018501906120c9916135c3565b036120d490856133f4565b604051806120e581600387016135c3565b036120f090826133f4565b6040518061210181600488016135c3565b0361210c90826133f4565b6040518061211d81600589016135c3565b0361212890826133f4565b604051918261213a8160068a016135c3565b0361214590846133f4565b60405193846121578160078b016135c3565b0361216290866133f4565b60405180600b819a0190612175916135c3565b0361218090896133f4565b604051998a99610140808c528b0161219791613659565b9060208b016121a59161367e565b89810360408b01526121b691613659565b88810360608a01526121c791613659565b87810360808901526121d891613659565b86810360a08801526121e991613659565b85810360c08701526121fa91613659565b9160e0850152151561010084015282810361012084015261028091613659565b3461020b57600036600319011261020b57612233613803565b61223b6137d8565b600080516020613d84833981519152600160ff198254161790557f62e78cea01bee320cd4e420270b5ea74000d11b0c9f74754ebdbfc544b05a2586020604051338152a1005b3461020b57602036600319011261020b576001600160a01b03806122a361339b565b16600052600160205260406000209081541660405191828060018301906122c9916135c3565b036122d490846133f4565b60028101546040519060ff16816122ee81600386016135c3565b036122f990836133f4565b6040518061230a81600487016135c3565b0361231590826133f4565b6040518061232681600588016135c3565b0361233190826133f4565b604051908161234381600689016135c3565b0361234e90836133f4565b60405192836123608160078a016135c3565b0361236b90856133f4565b600987015495600a88015460ff169560405180600b819b019061238d916135c3565b03612398908a6133f4565b6040519a8b9a610160908c528060208d01528b016123b591613659565b9060408b016123c39161367e565b89810360608b01526123d491613659565b88810360808a01526123e591613659565b87810360a08901526123f691613659565b86810360c088015261240791613659565b85810360e087015261241891613659565b91610100850152151561012084015282810361014084015261028091613659565b3461020b57600036600319011261020b5760206040517fa49807205ce4d355092ef5a8a18f56e8913cf4a201fbe287825b095693c217758152f35b3461020b57602036600319011261020b576001600160a01b0361249561339b565b1680600052600060205260086040600020015415611126576000526000602052600c6040600020016111228154613727565b3461020b57600036600319011261020b5760206040517f59a1c48e5837ad7a7f3dcedcbe129bf3249ec4fbf651fd4f5e2600ead39fe2f58152f35b3461020b57600036600319011261020b57604051806006549182815260208091019260066000527ff652222313e28459528d920b65115c16c04f3efc82aaedc97be59f3f377c0d3f916000905b8282106125665761028085610274818903826133f4565b83546001600160a01b03168652948501946001938401939091019061254f565b3461020b57602036600319011261020b576001600160a01b036125a761339b565b1660005260006020526040600020600181015460ff1690600781015460ff166008820154600b830154600c8401549160405194856125e581836135c3565b036125f090876133f4565b6040518061260181600285016135c3565b0361260c90826133f4565b6040518061261d81600386016135c3565b0361262890826133f4565b604051908161263a81600487016135c3565b0361264590836133f4565b604051928361265781600588016135c3565b0361266290856133f4565b60405180600681970190612675916135c3565b0361268090866133f4565b6040519a8b9a610160808d528c0161269791613659565b9060208c016126a59161367e565b8a810360408c01526126b691613659565b89810360608b01526126c791613659565b88810360808a01526126d891613659565b87810360a08901526126e991613659565b86810360c08801526126fa91613659565b9360e086016127089161368b565b6101008501526101208401526101408301520390f35b3461020b57600036600319011261020b57602060ff600080516020613d8483398151915254166040519015158152f35b3461020b57600036600319011261020b577f00000000000000000000000000000000000000000000000000000000000000006001600160a01b031630036127b95760206040517f360894a13ba1a3210667c828492db98dca3e2076cc3735a920a3ca505d382bbc8152f35b60405163703e46dd60e11b8152600490fd5b3461020b57604036600319011261020b576127e461339b565b602435906004821015908161020b576127fb61387d565b6128036137d8565b60018060a01b03169081600052600060205260086040600020015415611126578160005260006020526007604060002001926128448160ff8654169561370f565b826000526000602052426009604060002001556004841015610b80576001841480806128fb575b156128c4575061289c915061288160085461374c565b6008555b612892604051809561368b565b602084019061368b565b7f7d7e6e7dea09c0ee8923e2d538421cdbbf648608c7a83027d359833aac2e995060403393a3005b15806128e8575b61289c925015612885576128e0600854613727565b600855612885565b5090610b805780600161289c92146128cb565b5060009250600182141561286b565b604036600319011261020b5761291e61339b565b6024356001600160401b03811161020b573660238201121561020b5761294e903690602481600401359101613430565b906001600160a01b037f00000000000000000000000000000000000000000000000000000000000000008116308114908115612b0a575b506127b957612992613803565b6040516352d1902d60e01b8152908216916020918281600481875afa60009181612adb575b506129d557604051634c9c8ce360e01b815260048101859052602490fd5b9284937f360894a13ba1a3210667c828492db98dca3e2076cc3735a920a3ca505d382bbc90818103612ac35750823b15612aaa5780546001600160a01b03191682179055604051907fbc7cd75a20ee27fd9adebab32041f755214dbc6bffa90cc0225b39da2e5c2d3b600080a2835115612a9057506000808484610edc96519101845af4903d15612a87573d612a6a81613415565b90612a7860405192836133f4565b8152600081943d92013e613ce0565b60609250613ce0565b9250505034612a9b57005b63b398979f60e01b8152600490fd5b604051634c9c8ce360e01b815260048101839052602490fd5b60249060405190632a87526960e21b82526004820152fd5b9091508381813d8311612b03575b612af381836133f4565b8101031261020b575190866129b7565b503d612ae9565b9050817f360894a13ba1a3210667c828492db98dca3e2076cc3735a920a3ca505d382bbc5416141584612985565b3461020b57604036600319011261020b576004356001600160401b03811161020b57612b68903690600401613467565b612b846020602435928160405193828580945193849201613485565b81016004815203019020805482101561020b57602091610f1c9161352c565b3461020b57600036600319011261020b57612bbc613803565b600080516020613d84833981519152805460ff811615612c085760ff191690557f5db9ee0a495bf2e6ff9c91a7834c1ba4fdd244a5e8aa4e537bd38aeae4b073aa6020604051338152a1005b604051638dfc202b60e01b8152600490fd5b3461020b5760208060031936011261020b576004356001600160401b03811161020b57612c4d60209136906004016133c7565b919082604051938492833781016004815203019020906040519081602084549182815201936000526020600020916000905b828210612c965761028085610274818903826133f4565b83546001600160a01b031686529485019460019384019390910190612c7f565b3461020b57602036600319011261020b576001600160a01b0380612cd861339b565b1660005260006020526040600020906040519081612cf681856135c3565b03612d0190836133f4565b600183015460405160ff9091169381612d1d81600284016135c3565b03612d2890836133f4565b60405180612d3981600385016135c3565b03612d4490826133f4565b6040519384612d5681600486016135c3565b03612d6190866133f4565b6040519485612d7381600587016135c3565b03612d7e90876133f4565b60405180612d8f81600688016135c3565b03612d9a90826133f4565b600785015460ff1696600886015492600987015494600a8801541695600b88015497600c015498604051809d819d6101a08084528301612dd991613659565b91602001612de69161367e565b8c810360408e0152612df791613659565b8b810360608d0152612e0891613659565b8a810360808c0152612e1991613659565b89810360a08b0152612e2a91613659565b88810360c08a0152612e3b91613659565b9560e08801612e499161368b565b6101008701526101208601526101408501526101608401526101808301520390f35b3461020b57604036600319011261020b57612e846133b1565b336001600160a01b03821603612ea057610edc90600435613b69565b60405163334bd91960e11b8152600490fd5b3461020b57604036600319011261020b57610edc600435612ed16133b1565b9080600052600080516020613d64833981519152602052612ef96001604060002001546138d9565b613af4565b3461020b57602036600319011261020b57600435600052600080516020613d648339815191526020526020600160406000200154604051908152f35b3461020b57600036600319011261020b576020600954604051908152f35b3461020b5760208060031936011261020b57600435600781101561020b57612f7f90613698565b906040519081602084549182815201936000526020600020916000905b828210612fb35761028085610274818903826133f4565b83546001600160a01b031686529485019460019384019390910190612f9c565b3461020b57600036600319011261020b576020600754604051908152f35b3461020b57602036600319011261020b5760043560055481101561020b57610f1c6020916134a8565b3461020b57602036600319011261020b576004356001600160401b03811161020b5761304c6020913690600401613467565b816130606040519283815193849201613485565b600290820190815281900382019020546040516001600160a01b039091168152f35b3461020b57606036600319011261020b5761309b61339b565b6001600160401b039060243582811161020b576130bc9036906004016133c7565b9260443581811161020b576130d59036906004016133c7565b90936130df6137d8565b6001600160a01b031692338414158061330f575b6132fd578360005260209560008752600860406000200154156111265784600052600087526006604060002001918482116109635761313c826131368554613589565b856136c8565b600090601f83116001146132965761316c92916000918361328b5750508160011b916000199060031b1c19161790565b90555b8260005260008552600560406000200191811161096357613194816111dc8454613589565b6000601f82116001146132265781906131c593949560009261321b5750508160011b916000199060031b1c19161790565b90555b80600052600082524260096040600020015560046040519280845283015263696e666f60e01b60408301527f6a49a5041edc130ed47db6186be8e6c94007dd71088c546a758fce507e3a81c460603393a3005b0135905086806104eb565b601f1982169483600052866000209160005b888882106132755750508360019596971061325b575b505050811b0190556131c8565b0135600019600384901b60f8161c1916905585808061324e565b6001839582939486013581550194019101613238565b0135905089806104eb565b601f1983169184600052896000209260005b8b8282106132e75750509084600195949392106132cd575b505050811b01905561316f565b0135600019600384901b60f8161c191690558880806132c0565b60018496829395870135815501950192016132a8565b604051631a27eac360e11b8152600490fd5b503360009081527fb16e88c42fd4e48df2dd6a2eabd6bc9aec654ec170056b470819f8892cc6431c602052604090205460ff16156130f3565b3461020b57602036600319011261020b576004359063ffffffff60e01b821680920361020b57602091637965db0b60e01b811490811561338a575b5015158152f35b6301ffc9a760e01b14905083613383565b600435906001600160a01b038216820361020b57565b602435906001600160a01b038216820361020b57565b9181601f8401121561020b578235916001600160401b03831161020b576020838186019501011161020b57565b90601f801991011681019081106001600160401b0382111761096357604052565b6001600160401b03811161096357601f01601f191660200190565b92919261343c82613415565b9161344a60405193846133f4565b82948184528183011161020b578281602093846000960137010152565b9080601f8301121561020b5781602061348293359101613430565b90565b60005b8381106134985750506000910152565b8181015183820152602001613488565b6005548110156134df5760056000527f036b6384b5eca791c62761152d0c79bb0604c104a5fb6f4eb0703f3154bb3db00190600090565b634e487b7160e01b600052603260045260246000fd5b6006548110156134df5760066000527ff652222313e28459528d920b65115c16c04f3efc82aaedc97be59f3f377c0d3f0190600090565b80548210156134df5760005260206000200190600090565b602090602060408183019282815285518094520193019160005b82811061356c575050505090565b83516001600160a01b03168552938101939281019260010161355e565b90600182811c921680156135b9575b60208310146135a357565b634e487b7160e01b600052602260045260246000fd5b91607f1691613598565b8054600093926135d282613589565b9182825260209360019160018116908160001461363a57506001146135f9575b5050505050565b90939495506000929192528360002092846000945b838610613626575050505001019038808080806135f2565b80548587018301529401938590820161360e565b60ff19168685015250505090151560051b0101915038808080806135f2565b9060209161367281518092818552858086019101613485565b601f01601f1916010190565b906007821015610b805752565b906004821015610b805752565b6007811015610b80576000526003602052604060002090565b8181106136bc575050565b600081556001016136b1565b9190601f81116136d757505050565b613703926000526020600020906020601f840160051c83019310613705575b601f0160051c01906136b1565b565b90915081906136f6565b906004811015610b805760ff80198354169116179055565b60001981146137365760010190565b634e487b7160e01b600052601160045260246000fd5b8015613736576000190190565b6007821015610b805752565b6001600160401b0381116109635760051b60200190565b906007811015610b805760ff80198354169116179055565b90815491600160401b831015610963578261089f9160016137039501815561352c565b908060209392818452848401376000828201840152601f01601f1916010190565b60ff600080516020613d8483398151915254166137f157565b60405163d93c066560e01b8152600490fd5b3360009081527fb16e88c42fd4e48df2dd6a2eabd6bc9aec654ec170056b470819f8892cc6431c60205260409020547fa49807205ce4d355092ef5a8a18f56e8913cf4a201fbe287825b095693c217759060ff161561385f5750565b6044906040519063e2517d3f60e01b82523360048301526024820152fd5b3360009081527f07966f2ab141347034724e9b2a472c2f77f5cd745aeba27cacba797b8fcb708660205260409020547fedcc084d3dcd65a1f7f23c65c46722faca6953d28e43150a467cf43e5c3092389060ff161561385f5750565b80600052600080516020613d6483398151915260205260406000203360005260205260ff604060002054161561385f5750565b6001600160a01b031660008181527fb7db2dd08fcb62d0c9e08c51941cae53c267786a0b75803fb7960902fc8ef97d6020526040812054909190600080516020613d648339815191529060ff16613995578280526020526040822081835260205260408220600160ff198254161790553391600080516020613d448339815191528180a4600190565b505090565b6001600160a01b031660008181527fb16e88c42fd4e48df2dd6a2eabd6bc9aec654ec170056b470819f8892cc6431c60205260408120549091907fa49807205ce4d355092ef5a8a18f56e8913cf4a201fbe287825b095693c2177590600080516020613d648339815191529060ff16613a44578184526020526040832082845260205260408320600160ff19825416179055600080516020613d44833981519152339380a4600190565b50505090565b6001600160a01b031660008181527f07966f2ab141347034724e9b2a472c2f77f5cd745aeba27cacba797b8fcb708660205260408120549091907fedcc084d3dcd65a1f7f23c65c46722faca6953d28e43150a467cf43e5c30923890600080516020613d648339815191529060ff16613a44578184526020526040832082845260205260408320600160ff19825416179055600080516020613d44833981519152339380a4600190565b90600091808352600080516020613d6483398151915280602052604084209260018060a01b03169283855260205260ff60408520541615600014613a44578184526020526040832082845260205260408320600160ff19825416179055600080516020613d44833981519152339380a4600190565b90600091808352600080516020613d6483398151915280602052604084209260018060a01b03169283855260205260ff604085205416600014613a4457818452602052604083208284526020526040832060ff1981541690557ff6391f5c32d9c69d2a47ea670b442974b53935d1edc7fd64eb21e047a839171b339380a4600190565b6000905b60069182549283821015613c9957613c07826134f5565b90546003956001600160a01b0392909190871b1c821685831614613c32575050506001019150613bf0565b9193509160001991828101919082116137365761089f84613c55613c62946134f5565b905490891b1c16916134f5565b82548015613c83570192613c75846134f5565b81939154921b1b1916905555565b634e487b7160e01b600052603160045260246000fd5b50505050565b60ff7ff0c57e16840df040f15088dc2f81fe391c3923bec73e23a9662efc9c229c6a005460401c1615613cce57565b604051631afcd79f60e31b8152600490fd5b90613d075750805115613cf557602081519101fd5b60405163d6bda27560e01b8152600490fd5b81511580613d3a575b613d18575090565b604051639996b31560e01b81526001600160a01b039091166004820152602490fd5b50803b15613d1056fe2f8788117e7eff1d82e926ec794901d17c78024a50270940304540a733656f0d02dd7bc7dec4dceedda775e58dd541e08a116c6c53815c0bd028192f7b626800cd5ed15c6e187e77e9aee88184c21f4f2182ab5827cb3b7e07fbedcd63f03300a264697066735822122066fdbf6e89f068a41486c8bcc18c79758e158e2b7cbdf3fe9d590f98554708b264736f6c63430008160033","opcodes":"PUSH1 0xA0 DUP1 PUSH1 0x40 MSTORE CALLVALUE PUSH3 0xD1 JUMPI ADDRESS PUSH1 0x80 MSTORE PUSH32 0xF0C57E16840DF040F15088DC2F81FE391C3923BEC73E23A9662EFC9C229C6A00 SWAP1 DUP2 SLOAD SWAP1 PUSH1 0xFF DUP3 PUSH1 0x40 SHR AND PUSH3 0xC2 JUMPI POP PUSH1 0x1 PUSH1 0x1 PUSH1 0x40 SHL SUB PUSH1 0x2 PUSH1 0x1 PUSH1 0x40 SHL SUB NOT DUP3 DUP3 AND ADD PUSH3 0x7C JUMPI JUMPDEST PUSH1 0x40 MLOAD PUSH2 0x3DD9 SWAP1 DUP2 PUSH3 0xD7 DUP3 CODECOPY PUSH1 0x80 MLOAD DUP2 DUP2 DUP2 PUSH2 0x2761 ADD MSTORE PUSH2 0x2959 ADD MSTORE RETURN JUMPDEST PUSH1 0x1 PUSH1 0x1 PUSH1 0x40 SHL SUB NOT SWAP1 SWAP2 AND DUP2 OR SWAP1 SWAP2 SSTORE PUSH1 0x40 MLOAD SWAP1 DUP2 MSTORE PUSH32 0xC7F505B2F371AE2175EE4913F4499E1F2633A7B5936321EED1CDAEB6115181D2 SWAP1 PUSH1 0x20 SWAP1 LOG1 CODESIZE DUP1 DUP1 PUSH3 0x5C JUMP JUMPDEST PUSH4 0xF92EE8A9 PUSH1 0xE0 SHL DUP2 MSTORE PUSH1 0x4 SWAP1 REVERT JUMPDEST PUSH1 0x0 DUP1 REVERT INVALID PUSH1 0x80 DUP1 PUSH1 0x40 MSTORE PUSH1 0x4 CALLDATASIZE LT ISZERO PUSH2 0x13 JUMPI PUSH1 0x0 DUP1 REVERT JUMPDEST PUSH1 0x0 CALLDATALOAD PUSH1 0xE0 SHR SWAP1 DUP2 PUSH4 0x1FFC9A7 EQ PUSH2 0x3348 JUMPI POP DUP1 PUSH4 0x369F703 EQ PUSH2 0x3082 JUMPI DUP1 PUSH4 0x8D88AAD EQ PUSH2 0x301A JUMPI DUP1 PUSH4 0x8E52D58 EQ PUSH2 0x2FF1 JUMPI DUP1 PUSH4 0x1427E441 EQ PUSH2 0x2FD3 JUMPI DUP1 PUSH4 0x1AFD6957 EQ PUSH2 0x2F58 JUMPI DUP1 PUSH4 0x1FEBDE3D EQ PUSH2 0x2F3A JUMPI DUP1 PUSH4 0x248A9CA3 EQ PUSH2 0x2EFE JUMPI DUP1 PUSH4 0x2F2FF15D EQ PUSH2 0x2EB2 JUMPI DUP1 PUSH4 0x36568ABE EQ PUSH2 0x2E6B JUMPI DUP1 PUSH4 0x39CC49DF EQ PUSH2 0x2CB6 JUMPI DUP1 PUSH4 0x3A4E2613 EQ PUSH2 0x2C1A JUMPI DUP1 PUSH4 0x3F4BA83A EQ PUSH2 0x2BA3 JUMPI DUP1 PUSH4 0x43C224FA EQ PUSH2 0x2B38 JUMPI DUP1 PUSH4 0x4F1EF286 EQ PUSH2 0x290A JUMPI DUP1 PUSH4 0x528FD91A EQ PUSH2 0x27CB JUMPI DUP1 PUSH4 0x52D1902D EQ PUSH2 0x274E JUMPI DUP1 PUSH4 0x5C975ABB EQ PUSH2 0x271E JUMPI DUP1 PUSH4 0x5FABCAAF EQ PUSH2 0x2586 JUMPI DUP1 PUSH4 0x6630D3AB EQ PUSH2 0x2502 JUMPI DUP1 PUSH4 0x6E1D616E EQ PUSH2 0x24C7 JUMPI DUP1 PUSH4 0x71E1F32F EQ PUSH2 0x2474 JUMPI DUP1 PUSH4 0x75B238FC EQ PUSH2 0x2439 JUMPI DUP1 PUSH4 0x7C3BF42D EQ PUSH2 0x2281 JUMPI DUP1 PUSH4 0x8456CB59 EQ PUSH2 0x221A JUMPI DUP1 PUSH4 0x879A2D2A EQ PUSH2 0x206E JUMPI DUP1 PUSH4 0x91D14854 EQ PUSH2 0x2014 JUMPI DUP1 PUSH4 0x940CC397 EQ PUSH2 0x1FEB JUMPI DUP1 PUSH4 0x9DE0963D EQ PUSH2 0x1F1F JUMPI DUP1 PUSH4 0xA217FDDF EQ PUSH2 0x1F03 JUMPI DUP1 PUSH4 0xAAF40BD5 EQ PUSH2 0x135E JUMPI DUP1 PUSH4 0xAD3CB1CC EQ PUSH2 0x1306 JUMPI DUP1 PUSH4 0xBE4F6C39 EQ PUSH2 0x1138 JUMPI DUP1 PUSH4 0xC35ED8A6 EQ PUSH2 0x10CF JUMPI DUP1 PUSH4 0xC4D66DE8 EQ PUSH2 0xF82 JUMPI DUP1 PUSH4 0xCB38E1A9 EQ PUSH2 0xF35 JUMPI DUP1 PUSH4 0xD3658DC2 EQ PUSH2 0xEDE JUMPI DUP1 PUSH4 0xD547741F EQ PUSH2 0xE90 JUMPI DUP1 PUSH4 0xE3AE4D0A EQ PUSH2 0x2DF JUMPI DUP1 PUSH4 0xF68E9553 EQ PUSH2 0x2A4 JUMPI DUP1 PUSH4 0xFEDF2C56 EQ PUSH2 0x210 JUMPI PUSH4 0xFF15E011 EQ PUSH2 0x1ED JUMPI PUSH1 0x0 DUP1 REVERT JUMPDEST CALLVALUE PUSH2 0x20B JUMPI PUSH1 0x0 CALLDATASIZE PUSH1 0x3 NOT ADD SLT PUSH2 0x20B JUMPI PUSH1 0x20 PUSH1 0x8 SLOAD PUSH1 0x40 MLOAD SWAP1 DUP2 MSTORE RETURN JUMPDEST PUSH1 0x0 DUP1 REVERT JUMPDEST CALLVALUE PUSH2 0x20B JUMPI PUSH1 0x0 CALLDATASIZE PUSH1 0x3 NOT ADD SLT PUSH2 0x20B JUMPI PUSH1 0x40 MLOAD DUP1 PUSH1 0x5 SLOAD SWAP2 DUP3 DUP2 MSTORE PUSH1 0x20 DUP1 SWAP2 ADD SWAP3 PUSH1 0x5 PUSH1 0x0 MSTORE PUSH32 0x36B6384B5ECA791C62761152D0C79BB0604C104A5FB6F4EB0703F3154BB3DB0 SWAP2 PUSH1 0x0 SWAP1 JUMPDEST DUP3 DUP3 LT PUSH2 0x284 JUMPI PUSH2 0x280 DUP6 PUSH2 0x274 DUP2 DUP10 SUB DUP3 PUSH2 0x33F4 JUMP JUMPDEST PUSH1 0x40 MLOAD SWAP2 DUP3 SWAP2 DUP3 PUSH2 0x3544 JUMP JUMPDEST SUB SWAP1 RETURN JUMPDEST DUP4 SLOAD PUSH1 0x1 PUSH1 0x1 PUSH1 0xA0 SHL SUB AND DUP7 MSTORE SWAP5 DUP6 ADD SWAP5 PUSH1 0x1 SWAP4 DUP5 ADD SWAP4 SWAP1 SWAP2 ADD SWAP1 PUSH2 0x25D JUMP JUMPDEST CALLVALUE PUSH2 0x20B JUMPI PUSH1 0x0 CALLDATASIZE PUSH1 0x3 NOT ADD SLT PUSH2 0x20B JUMPI PUSH1 0x20 PUSH1 0x40 MLOAD PUSH32 0xEDCC084D3DCD65A1F7F23C65C46722FACA6953D28E43150A467CF43E5C309238 DUP2 MSTORE RETURN JUMPDEST CALLVALUE PUSH2 0x20B JUMPI PUSH1 0x20 CALLDATASIZE PUSH1 0x3 NOT ADD SLT PUSH2 0x20B JUMPI PUSH2 0x2F8 PUSH2 0x339B JUMP JUMPDEST PUSH2 0x300 PUSH2 0x387D JUMP JUMPDEST PUSH2 0x308 PUSH2 0x37D8 JUMP JUMPDEST PUSH1 0x1 PUSH1 0x1 PUSH1 0xA0 SHL SUB DUP2 AND PUSH1 0x0 SWAP1 DUP2 MSTORE PUSH1 0x1 PUSH1 0x20 MSTORE PUSH1 0x40 SWAP1 KECCAK256 PUSH1 0x9 DUP2 ADD SLOAD ISZERO PUSH2 0xE7E JUMPI PUSH1 0xFF PUSH1 0xA DUP3 ADD SLOAD AND PUSH2 0xE6C JUMPI PUSH1 0xFF PUSH1 0x2 DUP3 ADD SLOAD AND PUSH1 0x40 MLOAD SWAP1 DUP2 PUSH2 0x1C0 DUP2 ADD LT PUSH1 0x1 PUSH1 0x1 PUSH1 0x40 SHL SUB PUSH2 0x1C0 DUP5 ADD GT OR PUSH2 0x963 JUMPI PUSH2 0x39D SWAP1 PUSH2 0x1C0 DUP4 ADD PUSH1 0x40 MSTORE PUSH2 0x38D PUSH2 0x1BF NOT DUP5 PUSH2 0x381 PUSH2 0x1C0 DUP3 ADD PUSH1 0x1 DUP10 ADD PUSH2 0x35C3 JUMP JUMPDEST SUB ADD PUSH2 0x1C0 DUP6 ADD PUSH2 0x33F4 JUMP JUMPDEST PUSH2 0x1C0 DUP4 ADD DUP4 MSTORE PUSH1 0x20 DUP4 ADD PUSH2 0x3759 JUMP JUMPDEST PUSH1 0x40 MLOAD PUSH2 0x3B8 DUP2 PUSH2 0x3B1 DUP2 PUSH1 0x3 DUP8 ADD PUSH2 0x35C3 JUMP JUMPDEST SUB DUP3 PUSH2 0x33F4 JUMP JUMPDEST PUSH1 0x40 DUP3 ADD MSTORE PUSH1 0x40 MLOAD PUSH2 0x3D1 DUP2 PUSH2 0x3B1 DUP2 PUSH1 0x4 DUP8 ADD PUSH2 0x35C3 JUMP JUMPDEST PUSH1 0x60 DUP3 ADD MSTORE PUSH1 0x40 MLOAD PUSH2 0x3EA DUP2 PUSH2 0x3B1 DUP2 PUSH1 0x5 DUP8 ADD PUSH2 0x35C3 JUMP JUMPDEST PUSH1 0x80 DUP3 ADD MSTORE PUSH1 0x40 MLOAD PUSH2 0x403 DUP2 PUSH2 0x3B1 DUP2 PUSH1 0x6 DUP8 ADD PUSH2 0x35C3 JUMP JUMPDEST PUSH1 0xA0 DUP3 ADD MSTORE PUSH1 0x40 MLOAD PUSH2 0x41C DUP2 PUSH2 0x3B1 DUP2 PUSH1 0x7 DUP8 ADD PUSH2 0x35C3 JUMP JUMPDEST PUSH1 0xC0 DUP3 ADD MSTORE PUSH1 0x1 PUSH1 0xE0 DUP3 ADD MSTORE TIMESTAMP PUSH2 0x100 DUP3 ADD MSTORE TIMESTAMP PUSH2 0x120 DUP3 ADD MSTORE CALLER PUSH2 0x140 DUP3 ADD MSTORE PUSH1 0x0 PUSH2 0x160 DUP3 ADD MSTORE PUSH1 0x0 PUSH2 0x180 DUP3 ADD MSTORE PUSH1 0x8 DUP3 ADD SLOAD PUSH2 0x45B DUP2 PUSH2 0x3765 JUMP JUMPDEST SWAP1 PUSH2 0x469 PUSH1 0x40 MLOAD SWAP3 DUP4 PUSH2 0x33F4 JUMP JUMPDEST DUP1 DUP3 MSTORE PUSH1 0x20 DUP3 ADD PUSH1 0x8 DUP6 ADD PUSH1 0x0 MSTORE PUSH1 0x20 PUSH1 0x0 KECCAK256 PUSH1 0x0 SWAP2 JUMPDEST DUP4 DUP4 LT PUSH2 0xE47 JUMPI POP POP POP POP PUSH2 0x1A0 DUP3 ADD MSTORE PUSH1 0x1 DUP1 PUSH1 0xA0 SHL SUB DUP4 AND PUSH1 0x0 MSTORE PUSH1 0x0 PUSH1 0x20 MSTORE PUSH1 0x40 PUSH1 0x0 KECCAK256 SWAP1 DUP1 MLOAD DUP1 MLOAD SWAP1 PUSH1 0x1 PUSH1 0x1 PUSH1 0x40 SHL SUB DUP3 GT PUSH2 0x963 JUMPI PUSH2 0x4CF DUP3 PUSH2 0x4C9 DUP7 SLOAD PUSH2 0x3589 JUMP JUMPDEST DUP7 PUSH2 0x36C8 JUMP JUMPDEST PUSH1 0x20 SWAP1 PUSH1 0x1F DUP4 GT PUSH1 0x1 EQ PUSH2 0xDDB JUMPI PUSH2 0x500 SWAP3 SWAP2 PUSH1 0x0 SWAP2 DUP4 PUSH2 0xB96 JUMPI JUMPDEST POP POP DUP2 PUSH1 0x1 SHL SWAP2 PUSH1 0x0 NOT SWAP1 PUSH1 0x3 SHL SHR NOT AND OR SWAP1 JUMP JUMPDEST DUP3 SSTORE JUMPDEST PUSH1 0x20 DUP2 ADD MLOAD PUSH1 0x7 DUP2 LT ISZERO PUSH2 0xB80 JUMPI PUSH2 0x51E SWAP1 PUSH1 0x1 DUP5 ADD PUSH2 0x377C JUMP JUMPDEST PUSH1 0x40 DUP2 ADD MLOAD DUP1 MLOAD SWAP1 PUSH1 0x1 PUSH1 0x1 PUSH1 0x40 SHL SUB DUP3 GT PUSH2 0x963 JUMPI PUSH2 0x54E DUP3 PUSH2 0x545 PUSH1 0x2 DUP8 ADD SLOAD PUSH2 0x3589 JUMP JUMPDEST PUSH1 0x2 DUP8 ADD PUSH2 0x36C8 JUMP JUMPDEST PUSH1 0x20 SWAP1 PUSH1 0x1F DUP4 GT PUSH1 0x1 EQ PUSH2 0xD69 JUMPI PUSH2 0x57E SWAP3 SWAP2 PUSH1 0x0 SWAP2 DUP4 PUSH2 0xB96 JUMPI POP POP DUP2 PUSH1 0x1 SHL SWAP2 PUSH1 0x0 NOT SWAP1 PUSH1 0x3 SHL SHR NOT AND OR SWAP1 JUMP JUMPDEST PUSH1 0x2 DUP4 ADD SSTORE JUMPDEST PUSH1 0x60 DUP2 ADD MLOAD DUP1 MLOAD SWAP1 PUSH1 0x1 PUSH1 0x1 PUSH1 0x40 SHL SUB DUP3 GT PUSH2 0x963 JUMPI PUSH2 0x5B4 DUP3 PUSH2 0x5AB PUSH1 0x3 DUP8 ADD SLOAD PUSH2 0x3589 JUMP JUMPDEST PUSH1 0x3 DUP8 ADD PUSH2 0x36C8 JUMP JUMPDEST PUSH1 0x20 SWAP1 PUSH1 0x1F DUP4 GT PUSH1 0x1 EQ PUSH2 0xCF7 JUMPI PUSH2 0x5E4 SWAP3 SWAP2 PUSH1 0x0 SWAP2 DUP4 PUSH2 0xB96 JUMPI POP POP DUP2 PUSH1 0x1 SHL SWAP2 PUSH1 0x0 NOT SWAP1 PUSH1 0x3 SHL SHR NOT AND OR SWAP1 JUMP JUMPDEST PUSH1 0x3 DUP4 ADD SSTORE JUMPDEST PUSH1 0x80 DUP2 ADD MLOAD DUP1 MLOAD SWAP1 PUSH1 0x1 PUSH1 0x1 PUSH1 0x40 SHL SUB DUP3 GT PUSH2 0x963 JUMPI PUSH2 0x61A DUP3 PUSH2 0x611 PUSH1 0x4 DUP8 ADD SLOAD PUSH2 0x3589 JUMP JUMPDEST PUSH1 0x4 DUP8 ADD PUSH2 0x36C8 JUMP JUMPDEST PUSH1 0x20 SWAP1 PUSH1 0x1F DUP4 GT PUSH1 0x1 EQ PUSH2 0xC85 JUMPI PUSH2 0x64A SWAP3 SWAP2 PUSH1 0x0 SWAP2 DUP4 PUSH2 0xB96 JUMPI POP POP DUP2 PUSH1 0x1 SHL SWAP2 PUSH1 0x0 NOT SWAP1 PUSH1 0x3 SHL SHR NOT AND OR SWAP1 JUMP JUMPDEST PUSH1 0x4 DUP4 ADD SSTORE JUMPDEST PUSH1 0xA0 DUP2 ADD MLOAD DUP1 MLOAD SWAP1 PUSH1 0x1 PUSH1 0x1 PUSH1 0x40 SHL SUB DUP3 GT PUSH2 0x963 JUMPI PUSH2 0x680 DUP3 PUSH2 0x677 PUSH1 0x5 DUP8 ADD SLOAD PUSH2 0x3589 JUMP JUMPDEST PUSH1 0x5 DUP8 ADD PUSH2 0x36C8 JUMP JUMPDEST PUSH1 0x20 SWAP1 PUSH1 0x1F DUP4 GT PUSH1 0x1 EQ PUSH2 0xC13 JUMPI PUSH2 0x6B0 SWAP3 SWAP2 PUSH1 0x0 SWAP2 DUP4 PUSH2 0xB96 JUMPI POP POP DUP2 PUSH1 0x1 SHL SWAP2 PUSH1 0x0 NOT SWAP1 PUSH1 0x3 SHL SHR NOT AND OR SWAP1 JUMP JUMPDEST PUSH1 0x5 DUP4 ADD SSTORE JUMPDEST PUSH1 0xC0 DUP2 ADD MLOAD DUP1 MLOAD SWAP1 PUSH1 0x1 PUSH1 0x1 PUSH1 0x40 SHL SUB DUP3 GT PUSH2 0x963 JUMPI PUSH2 0x6E6 DUP3 PUSH2 0x6DD PUSH1 0x6 DUP8 ADD SLOAD PUSH2 0x3589 JUMP JUMPDEST PUSH1 0x6 DUP8 ADD PUSH2 0x36C8 JUMP JUMPDEST PUSH1 0x20 SWAP1 PUSH1 0x1F DUP4 GT PUSH1 0x1 EQ PUSH2 0xBA1 JUMPI PUSH2 0x716 SWAP3 SWAP2 PUSH1 0x0 SWAP2 DUP4 PUSH2 0xB96 JUMPI POP POP DUP2 PUSH1 0x1 SHL SWAP2 PUSH1 0x0 NOT SWAP1 PUSH1 0x3 SHL SHR NOT AND OR SWAP1 JUMP JUMPDEST PUSH1 0x6 DUP4 ADD SSTORE JUMPDEST PUSH1 0xE0 DUP2 ADD MLOAD SWAP1 PUSH1 0x4 DUP3 LT ISZERO PUSH2 0xB80 JUMPI PUSH2 0x73B PUSH2 0x1A0 SWAP3 PUSH1 0x7 DUP6 ADD PUSH2 0x370F JUMP JUMPDEST PUSH2 0x100 DUP2 ADD MLOAD PUSH1 0x8 DUP5 ADD SSTORE PUSH2 0x120 DUP2 ADD MLOAD PUSH1 0x9 DUP5 ADD SSTORE PUSH1 0xA DUP4 ADD PUSH1 0x1 DUP1 PUSH1 0xA0 SHL SUB PUSH2 0x140 DUP4 ADD MLOAD AND PUSH12 0xFFFFFFFFFFFFFFFFFFFFFFFF PUSH1 0xA0 SHL DUP3 SLOAD AND OR SWAP1 SSTORE PUSH2 0x160 DUP2 ADD MLOAD PUSH1 0xB DUP5 ADD SSTORE PUSH2 0x180 DUP2 ADD MLOAD PUSH1 0xC DUP5 ADD SSTORE ADD MLOAD DUP1 MLOAD SWAP1 PUSH1 0x1 PUSH1 0x40 SHL DUP3 GT PUSH2 0x963 JUMPI PUSH1 0xD DUP4 ADD SLOAD DUP3 PUSH1 0xD DUP6 ADD SSTORE DUP1 DUP4 LT PUSH2 0xB08 JUMPI JUMPDEST POP PUSH1 0x20 PUSH1 0xD SWAP2 ADD SWAP3 ADD PUSH1 0x0 MSTORE PUSH1 0x20 PUSH1 0x0 KECCAK256 SWAP2 PUSH1 0x0 SWAP1 JUMPDEST DUP3 DUP3 LT PUSH2 0xA1F JUMPI DUP6 DUP6 PUSH1 0x40 MLOAD PUSH1 0x0 DUP2 PUSH1 0x1 DUP5 ADD SLOAD SWAP2 PUSH2 0x7E6 DUP4 PUSH2 0x3589 JUMP JUMPDEST SWAP3 PUSH1 0x1 DUP2 AND SWAP1 DUP2 ISZERO PUSH2 0xA08 JUMPI POP PUSH1 0x1 EQ PUSH2 0x9CA JUMPI JUMPDEST PUSH1 0x2 DUP1 DUP3 MSTORE SWAP2 SWAP1 SUB PUSH1 0x20 ADD SWAP1 SWAP3 KECCAK256 DUP1 SLOAD PUSH1 0x1 PUSH1 0x1 PUSH1 0xA0 SHL SUB NOT AND PUSH1 0x1 PUSH1 0x1 PUSH1 0xA0 SHL SUB DUP7 AND OR SWAP1 SSTORE POP DUP2 ADD SLOAD PUSH2 0x83D SWAP1 DUP4 SWAP1 PUSH2 0x838 SWAP1 PUSH1 0xFF AND PUSH2 0x3698 JUMP JUMPDEST PUSH2 0x3794 JUMP JUMPDEST PUSH1 0x40 MLOAD DUP3 PUSH1 0x0 PUSH1 0x3 DUP5 ADD SLOAD PUSH2 0x851 DUP2 PUSH2 0x3589 JUMP JUMPDEST SWAP1 PUSH1 0x1 DUP2 AND SWAP1 DUP2 ISZERO PUSH2 0x9B4 JUMPI POP PUSH1 0x1 EQ PUSH2 0x979 JUMPI JUMPDEST POP SWAP2 PUSH1 0x20 DUP2 DUP5 PUSH1 0x4 PUSH2 0x87C SWAP7 MSTORE SUB ADD SWAP1 KECCAK256 PUSH2 0x3794 JUMP JUMPDEST PUSH1 0x5 SLOAD PUSH1 0x1 PUSH1 0x40 SHL DUP2 LT ISZERO PUSH2 0x963 JUMPI DUP3 PUSH2 0x89F DUP3 PUSH1 0x1 PUSH2 0x8BD SWAP5 ADD PUSH1 0x5 SSTORE PUSH2 0x34A8 JUMP JUMPDEST SWAP1 SWAP2 SWAP1 PUSH1 0x1 DUP1 PUSH1 0xA0 SHL SUB DUP1 DUP5 SLOAD SWAP3 PUSH1 0x3 SHL SWAP4 AND DUP4 SHL SWAP3 SHL NOT AND OR SWAP1 SSTORE JUMP JUMPDEST PUSH1 0xA DUP2 ADD DUP1 SLOAD PUSH1 0xFF NOT AND PUSH1 0x1 OR SWAP1 SSTORE PUSH1 0x7 SLOAD PUSH2 0x8D8 SWAP1 PUSH2 0x3727 JUMP JUMPDEST PUSH1 0x7 SSTORE PUSH2 0x8E6 PUSH1 0x8 SLOAD PUSH2 0x3727 JUMP JUMPDEST PUSH1 0x8 SSTORE PUSH2 0x8F4 PUSH1 0x9 SLOAD PUSH2 0x374C JUMP JUMPDEST PUSH1 0x9 SSTORE PUSH2 0x900 DUP3 PUSH2 0x3BEC JUMP JUMPDEST PUSH32 0xA306CBA18D5A93D3B9690CDDF06D6073CFD4004EE05FF11DABD234BA51AD2CD8 PUSH1 0xFF PUSH1 0x2 DUP4 ADD SLOAD AND SWAP2 PUSH2 0x950 PUSH2 0x945 PUSH1 0x40 MLOAD SWAP3 PUSH1 0x40 DUP5 MSTORE PUSH1 0x1 PUSH1 0x40 DUP6 ADD SWAP2 ADD PUSH2 0x35C3 JUMP JUMPDEST SWAP4 PUSH1 0x20 DUP4 ADD SWAP1 PUSH2 0x367E JUMP JUMPDEST CALLER SWAP4 PUSH1 0x1 PUSH1 0x1 PUSH1 0xA0 SHL SUB AND SWAP3 DUP2 SWAP1 SUB SWAP1 LOG3 STOP JUMPDEST PUSH4 0x4E487B71 PUSH1 0xE0 SHL PUSH1 0x0 MSTORE PUSH1 0x41 PUSH1 0x4 MSTORE PUSH1 0x24 PUSH1 0x0 REVERT JUMPDEST SWAP1 POP PUSH1 0x3 DUP5 ADD PUSH1 0x0 MSTORE PUSH1 0x20 PUSH1 0x0 KECCAK256 PUSH1 0x0 SWAP1 JUMPDEST DUP3 DUP3 LT PUSH2 0x99D JUMPI POP POP DUP3 ADD PUSH1 0x20 PUSH2 0x866 JUMP JUMPDEST DUP1 SLOAD DUP3 DUP7 ADD MSTORE DUP7 SWAP4 POP PUSH1 0x20 SWAP1 SWAP2 ADD SWAP1 PUSH1 0x1 ADD PUSH2 0x98B JUMP JUMPDEST PUSH1 0xFF NOT AND DUP6 MSTORE POP DUP1 ISZERO ISZERO MUL DUP4 ADD SWAP1 POP PUSH1 0x20 PUSH2 0x866 JUMP JUMPDEST POP POP PUSH1 0x1 DUP4 ADD PUSH1 0x0 MSTORE DUP2 PUSH1 0x20 PUSH1 0x0 KECCAK256 PUSH1 0x0 SWAP1 JUMPDEST DUP4 DUP3 LT PUSH2 0x9F0 JUMPI POP POP PUSH1 0x20 SWAP2 DUP2 ADD PUSH2 0x7FB JUMP JUMPDEST PUSH1 0x20 SWAP2 SWAP3 POP DUP1 PUSH1 0x1 SWAP2 SLOAD DUP5 DUP8 ADD MSTORE ADD SWAP2 ADD DUP4 SWAP2 PUSH2 0x9DD JUMP JUMPDEST PUSH1 0xFF NOT AND DUP4 MSTORE POP PUSH1 0x20 SWAP3 DUP1 ISZERO ISZERO MUL DUP3 ADD SWAP1 POP PUSH2 0x7FB JUMP JUMPDEST DUP1 MLOAD DUP1 MLOAD SWAP1 PUSH1 0x1 PUSH1 0x1 PUSH1 0x40 SHL SUB DUP3 GT PUSH2 0x963 JUMPI PUSH2 0xA46 DUP3 PUSH2 0xA40 DUP9 SLOAD PUSH2 0x3589 JUMP JUMPDEST DUP9 PUSH2 0x36C8 JUMP JUMPDEST PUSH1 0x20 SWAP1 PUSH1 0x1F DUP4 GT PUSH1 0x1 EQ PUSH2 0xA98 JUMPI SWAP3 PUSH2 0xA7E DUP4 PUSH1 0x1 SWAP6 SWAP5 PUSH1 0x20 SWAP5 DUP8 SWAP7 PUSH1 0x0 SWAP3 PUSH2 0xA8D JUMPI POP POP DUP2 PUSH1 0x1 SHL SWAP2 PUSH1 0x0 NOT SWAP1 PUSH1 0x3 SHL SHR NOT AND OR SWAP1 JUMP JUMPDEST DUP8 SSTORE JUMPDEST ADD SWAP5 ADD SWAP2 ADD SWAP1 SWAP3 PUSH2 0x7C8 JUMP JUMPDEST ADD MLOAD SWAP1 POP DUP13 DUP1 PUSH2 0x4EB JUMP JUMPDEST SWAP1 DUP7 PUSH1 0x0 MSTORE PUSH1 0x20 PUSH1 0x0 KECCAK256 SWAP2 PUSH1 0x0 JUMPDEST PUSH1 0x1F NOT DUP6 AND DUP2 LT PUSH2 0xAF0 JUMPI POP DUP4 PUSH1 0x20 SWAP4 PUSH1 0x1 SWAP7 SWAP4 DUP8 SWAP7 SWAP4 DUP8 SWAP5 PUSH1 0x1F NOT DUP2 AND LT PUSH2 0xAD7 JUMPI JUMPDEST POP POP POP DUP2 SHL ADD DUP8 SSTORE PUSH2 0xA81 JUMP JUMPDEST ADD MLOAD PUSH1 0x0 NOT PUSH1 0xF8 DUP5 PUSH1 0x3 SHL AND SHR NOT AND SWAP1 SSTORE DUP12 DUP1 DUP1 PUSH2 0xACA JUMP JUMPDEST SWAP2 SWAP3 PUSH1 0x20 PUSH1 0x1 DUP2 SWAP3 DUP7 DUP6 ADD MLOAD DUP2 SSTORE ADD SWAP5 ADD SWAP3 ADD PUSH2 0xAA6 JUMP JUMPDEST PUSH1 0xD DUP5 ADD PUSH1 0x0 MSTORE PUSH1 0x20 PUSH1 0x0 KECCAK256 SWAP1 DUP4 DUP3 ADD JUMPDEST DUP2 DUP4 ADD DUP2 LT PUSH2 0xB29 JUMPI POP POP PUSH2 0x7B2 JUMP JUMPDEST DUP1 PUSH2 0xB36 PUSH1 0x1 SWAP3 SLOAD PUSH2 0x3589 JUMP JUMPDEST DUP1 PUSH2 0xB43 JUMPI JUMPDEST POP ADD PUSH2 0xB19 JUMP JUMPDEST PUSH1 0x1F DUP2 GT DUP4 EQ PUSH2 0xB59 JUMPI POP PUSH1 0x0 DUP2 SSTORE JUMPDEST DUP10 PUSH2 0xB3C JUMP JUMPDEST PUSH1 0x0 SWAP1 DUP3 DUP3 MSTORE PUSH2 0xB77 PUSH1 0x1F PUSH1 0x20 DUP5 KECCAK256 SWAP3 ADD PUSH1 0x5 SHR DUP3 ADD DUP6 DUP4 ADD PUSH2 0x36B1 JUMP JUMPDEST DUP2 DUP4 SSTORE SSTORE PUSH2 0xB53 JUMP JUMPDEST PUSH4 0x4E487B71 PUSH1 0xE0 SHL PUSH1 0x0 MSTORE PUSH1 0x21 PUSH1 0x4 MSTORE PUSH1 0x24 PUSH1 0x0 REVERT JUMPDEST ADD MLOAD SWAP1 POP DUP8 DUP1 PUSH2 0x4EB JUMP JUMPDEST SWAP2 SWAP1 PUSH1 0x6 DUP6 ADD PUSH1 0x0 MSTORE PUSH1 0x20 PUSH1 0x0 KECCAK256 SWAP1 PUSH1 0x0 SWAP4 JUMPDEST PUSH1 0x1F NOT DUP5 AND DUP6 LT PUSH2 0xBF8 JUMPI PUSH1 0x1 SWAP5 POP DUP4 PUSH1 0x1F NOT DUP2 AND LT PUSH2 0xBDF JUMPI JUMPDEST POP POP POP DUP2 SHL ADD PUSH1 0x6 DUP4 ADD SSTORE PUSH2 0x71C JUMP JUMPDEST ADD MLOAD PUSH1 0x0 NOT PUSH1 0xF8 DUP5 PUSH1 0x3 SHL AND SHR NOT AND SWAP1 SSTORE DUP7 DUP1 DUP1 PUSH2 0xBCF JUMP JUMPDEST DUP2 DUP2 ADD MLOAD DUP4 SSTORE PUSH1 0x20 SWAP5 DUP6 ADD SWAP5 PUSH1 0x1 SWAP1 SWAP4 ADD SWAP3 SWAP1 SWAP2 ADD SWAP1 PUSH2 0xBB4 JUMP JUMPDEST SWAP2 SWAP1 PUSH1 0x5 DUP6 ADD PUSH1 0x0 MSTORE PUSH1 0x20 PUSH1 0x0 KECCAK256 SWAP1 PUSH1 0x0 SWAP4 JUMPDEST PUSH1 0x1F NOT DUP5 AND DUP6 LT PUSH2 0xC6A JUMPI PUSH1 0x1 SWAP5 POP DUP4 PUSH1 0x1F NOT DUP2 AND LT PUSH2 0xC51 JUMPI JUMPDEST POP POP POP DUP2 SHL ADD PUSH1 0x5 DUP4 ADD SSTORE PUSH2 0x6B6 JUMP JUMPDEST ADD MLOAD PUSH1 0x0 NOT PUSH1 0xF8 DUP5 PUSH1 0x3 SHL AND SHR NOT AND SWAP1 SSTORE DUP7 DUP1 DUP1 PUSH2 0xC41 JUMP JUMPDEST DUP2 DUP2 ADD MLOAD DUP4 SSTORE PUSH1 0x20 SWAP5 DUP6 ADD SWAP5 PUSH1 0x1 SWAP1 SWAP4 ADD SWAP3 SWAP1 SWAP2 ADD SWAP1 PUSH2 0xC26 JUMP JUMPDEST SWAP2 SWAP1 PUSH1 0x4 DUP6 ADD PUSH1 0x0 MSTORE PUSH1 0x20 PUSH1 0x0 KECCAK256 SWAP1 PUSH1 0x0 SWAP4 JUMPDEST PUSH1 0x1F NOT DUP5 AND DUP6 LT PUSH2 0xCDC JUMPI PUSH1 0x1 SWAP5 POP DUP4 PUSH1 0x1F NOT DUP2 AND LT PUSH2 0xCC3 JUMPI JUMPDEST POP POP POP DUP2 SHL ADD PUSH1 0x4 DUP4 ADD SSTORE PUSH2 0x650 JUMP JUMPDEST ADD MLOAD PUSH1 0x0 NOT PUSH1 0xF8 DUP5 PUSH1 0x3 SHL AND SHR NOT AND SWAP1 SSTORE DUP7 DUP1 DUP1 PUSH2 0xCB3 JUMP JUMPDEST DUP2 DUP2 ADD MLOAD DUP4 SSTORE PUSH1 0x20 SWAP5 DUP6 ADD SWAP5 PUSH1 0x1 SWAP1 SWAP4 ADD SWAP3 SWAP1 SWAP2 ADD SWAP1 PUSH2 0xC98 JUMP JUMPDEST SWAP2 SWAP1 PUSH1 0x3 DUP6 ADD PUSH1 0x0 MSTORE PUSH1 0x20 PUSH1 0x0 KECCAK256 SWAP1 PUSH1 0x0 SWAP4 JUMPDEST PUSH1 0x1F NOT DUP5 AND DUP6 LT PUSH2 0xD4E JUMPI PUSH1 0x1 SWAP5 POP DUP4 PUSH1 0x1F NOT DUP2 AND LT PUSH2 0xD35 JUMPI JUMPDEST POP POP POP DUP2 SHL ADD PUSH1 0x3 DUP4 ADD SSTORE PUSH2 0x5EA JUMP JUMPDEST ADD MLOAD PUSH1 0x0 NOT PUSH1 0xF8 DUP5 PUSH1 0x3 SHL AND SHR NOT AND SWAP1 SSTORE DUP7 DUP1 DUP1 PUSH2 0xD25 JUMP JUMPDEST DUP2 DUP2 ADD MLOAD DUP4 SSTORE PUSH1 0x20 SWAP5 DUP6 ADD SWAP5 PUSH1 0x1 SWAP1 SWAP4 ADD SWAP3 SWAP1 SWAP2 ADD SWAP1 PUSH2 0xD0A JUMP JUMPDEST SWAP2 SWAP1 PUSH1 0x2 DUP6 ADD PUSH1 0x0 MSTORE PUSH1 0x20 PUSH1 0x0 KECCAK256 SWAP1 PUSH1 0x0 SWAP4 JUMPDEST PUSH1 0x1F NOT DUP5 AND DUP6 LT PUSH2 0xDC0 JUMPI PUSH1 0x1 SWAP5 POP DUP4 PUSH1 0x1F NOT DUP2 AND LT PUSH2 0xDA7 JUMPI JUMPDEST POP POP POP DUP2 SHL ADD PUSH1 0x2 DUP4 ADD SSTORE PUSH2 0x584 JUMP JUMPDEST ADD MLOAD PUSH1 0x0 NOT PUSH1 0xF8 DUP5 PUSH1 0x3 SHL AND SHR NOT AND SWAP1 SSTORE DUP7 DUP1 DUP1 PUSH2 0xD97 JUMP JUMPDEST DUP2 DUP2 ADD MLOAD DUP4 SSTORE PUSH1 0x20 SWAP5 DUP6 ADD SWAP5 PUSH1 0x1 SWAP1 SWAP4 ADD SWAP3 SWAP1 SWAP2 ADD SWAP1 PUSH2 0xD7C JUMP JUMPDEST SWAP2 SWAP1 DUP5 PUSH1 0x0 MSTORE PUSH1 0x20 PUSH1 0x0 KECCAK256 SWAP1 PUSH1 0x0 SWAP4 JUMPDEST PUSH1 0x1F NOT DUP5 AND DUP6 LT PUSH2 0xE2C JUMPI PUSH1 0x1 SWAP5 POP DUP4 PUSH1 0x1F NOT DUP2 AND LT PUSH2 0xE13 JUMPI JUMPDEST POP POP POP DUP2 SHL ADD DUP3 SSTORE PUSH2 0x503 JUMP JUMPDEST ADD MLOAD PUSH1 0x0 NOT PUSH1 0xF8 DUP5 PUSH1 0x3 SHL AND SHR NOT AND SWAP1 SSTORE DUP7 DUP1 DUP1 PUSH2 0xE06 JUMP JUMPDEST DUP2 DUP2 ADD MLOAD DUP4 SSTORE PUSH1 0x20 SWAP5 DUP6 ADD SWAP5 PUSH1 0x1 SWAP1 SWAP4 ADD SWAP3 SWAP1 SWAP2 ADD SWAP1 PUSH2 0xDEB JUMP JUMPDEST PUSH1 0x1 PUSH1 0x20 DUP2 SWAP3 PUSH1 0x40 MLOAD PUSH2 0xE5E DUP2 PUSH2 0x3B1 DUP2 DUP10 PUSH2 0x35C3 JUMP JUMPDEST DUP2 MSTORE ADD SWAP3 ADD SWAP3 ADD SWAP2 SWAP1 PUSH2 0x480 JUMP JUMPDEST PUSH1 0x40 MLOAD PUSH4 0xB792C8F PUSH1 0xE0 SHL DUP2 MSTORE PUSH1 0x4 SWAP1 REVERT JUMPDEST PUSH1 0x40 MLOAD PUSH4 0xBD94E97 PUSH1 0xE1 SHL DUP2 MSTORE PUSH1 0x4 SWAP1 REVERT JUMPDEST CALLVALUE PUSH2 0x20B JUMPI PUSH1 0x40 CALLDATASIZE PUSH1 0x3 NOT ADD SLT PUSH2 0x20B JUMPI PUSH2 0xEDC PUSH1 0x4 CALLDATALOAD PUSH2 0xEAF PUSH2 0x33B1 JUMP JUMPDEST SWAP1 DUP1 PUSH1 0x0 MSTORE PUSH1 0x0 DUP1 MLOAD PUSH1 0x20 PUSH2 0x3D64 DUP4 CODECOPY DUP2 MLOAD SWAP2 MSTORE PUSH1 0x20 MSTORE PUSH2 0xED7 PUSH1 0x1 PUSH1 0x40 PUSH1 0x0 KECCAK256 ADD SLOAD PUSH2 0x38D9 JUMP JUMPDEST PUSH2 0x3B69 JUMP JUMPDEST STOP JUMPDEST CALLVALUE PUSH2 0x20B JUMPI PUSH1 0x40 CALLDATASIZE PUSH1 0x3 NOT ADD SLT PUSH2 0x20B JUMPI PUSH1 0x4 CALLDATALOAD PUSH1 0x7 DUP2 LT ISZERO PUSH2 0x20B JUMPI PUSH2 0xF07 PUSH1 0x24 CALLDATALOAD SWAP2 PUSH2 0x3698 JUMP JUMPDEST DUP1 SLOAD DUP3 LT ISZERO PUSH2 0x20B JUMPI PUSH1 0x20 SWAP2 PUSH2 0xF1C SWAP2 PUSH2 0x352C JUMP JUMPDEST SWAP1 SLOAD PUSH1 0x40 MLOAD PUSH1 0x3 SWAP3 SWAP1 SWAP3 SHL SHR PUSH1 0x1 PUSH1 0x1 PUSH1 0xA0 SHL SUB AND DUP2 MSTORE RETURN JUMPDEST CALLVALUE PUSH2 0x20B JUMPI PUSH1 0x20 CALLDATASIZE PUSH1 0x3 NOT ADD SLT PUSH2 0x20B JUMPI PUSH1 0x1 PUSH1 0x1 PUSH1 0xA0 SHL SUB PUSH2 0xF56 PUSH2 0x339B JUMP JUMPDEST AND PUSH1 0x0 MSTORE PUSH1 0x0 PUSH1 0x20 MSTORE PUSH1 0xFF PUSH1 0x7 PUSH1 0x40 PUSH1 0x0 KECCAK256 ADD SLOAD AND PUSH1 0x4 DUP2 LT ISZERO PUSH2 0xB80 JUMPI PUSH1 0x20 SWAP1 PUSH1 0x1 PUSH1 0x40 MLOAD SWAP2 EQ DUP2 MSTORE RETURN JUMPDEST CALLVALUE PUSH2 0x20B JUMPI PUSH1 0x20 CALLDATASIZE PUSH1 0x3 NOT ADD SLT PUSH2 0x20B JUMPI PUSH2 0xF9B PUSH2 0x339B JUMP JUMPDEST PUSH32 0xF0C57E16840DF040F15088DC2F81FE391C3923BEC73E23A9662EFC9C229C6A00 SWAP1 DUP2 SLOAD PUSH1 0xFF DUP2 PUSH1 0x40 SHR AND ISZERO SWAP2 PUSH1 0x1 PUSH1 0x1 PUSH1 0x40 SHL SUB DUP3 AND DUP1 ISZERO SWAP1 DUP2 PUSH2 0x10C7 JUMPI JUMPDEST PUSH1 0x1 EQ SWAP1 DUP2 PUSH2 0x10BD JUMPI JUMPDEST ISZERO SWAP1 DUP2 PUSH2 0x10B4 JUMPI JUMPDEST POP PUSH2 0x10A2 JUMPI PUSH8 0xFFFFFFFFFFFFFFFF NOT DUP3 AND PUSH1 0x1 OR DUP5 SSTORE PUSH2 0x103F SWAP2 DUP4 PUSH2 0x1083 JUMPI JUMPDEST POP PUSH2 0x1016 PUSH2 0x3C9F JUMP JUMPDEST PUSH2 0x101E PUSH2 0x3C9F JUMP JUMPDEST PUSH2 0x1026 PUSH2 0x3C9F JUMP JUMPDEST PUSH2 0x102F DUP2 PUSH2 0x390C JUMP JUMPDEST POP PUSH2 0x1039 DUP2 PUSH2 0x399A JUMP JUMPDEST POP PUSH2 0x3A4A JUMP JUMPDEST POP PUSH2 0x1046 JUMPI STOP JUMPDEST PUSH9 0xFF0000000000000000 NOT DUP2 SLOAD AND SWAP1 SSTORE PUSH32 0xC7F505B2F371AE2175EE4913F4499E1F2633A7B5936321EED1CDAEB6115181D2 PUSH1 0x20 PUSH1 0x40 MLOAD PUSH1 0x1 DUP2 MSTORE LOG1 STOP JUMPDEST PUSH9 0xFFFFFFFFFFFFFFFFFF NOT AND PUSH9 0x10000000000000001 OR DUP5 SSTORE DUP5 PUSH2 0x100D JUMP JUMPDEST PUSH1 0x40 MLOAD PUSH4 0xF92EE8A9 PUSH1 0xE0 SHL DUP2 MSTORE PUSH1 0x4 SWAP1 REVERT JUMPDEST SWAP1 POP ISZERO DUP6 PUSH2 0xFED JUMP JUMPDEST ADDRESS EXTCODESIZE ISZERO SWAP2 POP PUSH2 0xFE5 JUMP JUMPDEST DUP5 SWAP2 POP PUSH2 0xFDB JUMP JUMPDEST CALLVALUE PUSH2 0x20B JUMPI PUSH1 0x20 CALLDATASIZE PUSH1 0x3 NOT ADD SLT PUSH2 0x20B JUMPI PUSH1 0x1 PUSH1 0x1 PUSH1 0xA0 SHL SUB PUSH2 0x10F0 PUSH2 0x339B JUMP JUMPDEST AND DUP1 PUSH1 0x0 MSTORE PUSH1 0x0 PUSH1 0x20 MSTORE PUSH1 0x8 PUSH1 0x40 PUSH1 0x0 KECCAK256 ADD SLOAD ISZERO PUSH2 0x1126 JUMPI PUSH1 0x0 MSTORE PUSH1 0x0 PUSH1 0x20 MSTORE PUSH1 0xB PUSH1 0x40 PUSH1 0x0 KECCAK256 ADD PUSH2 0x1122 DUP2 SLOAD PUSH2 0x3727 JUMP JUMPDEST SWAP1 SSTORE STOP JUMPDEST PUSH1 0x40 MLOAD PUSH4 0x6F6A1B87 PUSH1 0xE1 SHL DUP2 MSTORE PUSH1 0x4 SWAP1 REVERT JUMPDEST CALLVALUE PUSH2 0x20B JUMPI PUSH1 0x40 CALLDATASIZE PUSH1 0x3 NOT ADD SLT PUSH2 0x20B JUMPI PUSH2 0x1151 PUSH2 0x339B JUMP JUMPDEST PUSH1 0x1 PUSH1 0x1 PUSH1 0x40 SHL SUB SWAP1 PUSH1 0x24 CALLDATALOAD DUP3 DUP2 GT PUSH2 0x20B JUMPI PUSH2 0x1172 SWAP1 CALLDATASIZE SWAP1 PUSH1 0x4 ADD PUSH2 0x33C7 JUMP JUMPDEST SWAP1 PUSH2 0x117B PUSH2 0x387D JUMP JUMPDEST PUSH2 0x1183 PUSH2 0x37D8 JUMP JUMPDEST PUSH1 0x1 DUP1 PUSH1 0xA0 SHL SUB DUP4 AND SWAP2 DUP3 PUSH1 0x0 MSTORE PUSH1 0x1 SWAP5 PUSH1 0x20 SWAP6 PUSH1 0x1 DUP8 MSTORE PUSH1 0x40 PUSH1 0x0 KECCAK256 PUSH1 0x9 DUP2 ADD SLOAD ISZERO PUSH2 0xE7E JUMPI PUSH1 0xA DUP2 ADD SWAP1 DUP2 SLOAD SWAP2 PUSH1 0xFF DUP4 AND PUSH2 0xE6C JUMPI PUSH1 0x1 PUSH1 0xB SWAP4 PUSH1 0xFF NOT AND OR SWAP1 SSTORE ADD SWAP2 DUP4 GT PUSH2 0x963 JUMPI PUSH2 0x11E2 DUP4 PUSH2 0x11DC DUP5 SLOAD PUSH2 0x3589 JUMP JUMPDEST DUP5 PUSH2 0x36C8 JUMP JUMPDEST PUSH1 0x0 SWAP1 PUSH1 0x1F DUP5 GT PUSH1 0x1 EQ PUSH2 0x1276 JUMPI POP SWAP5 PUSH2 0x1250 SWAP2 PUSH2 0x123A DUP5 DUP1 PUSH32 0xA48F4C1CCC0BA48A23C6F8469CC585D5868976D8C47A6E5A6C9E4E3621422F1B SWAP9 SWAP10 PUSH1 0x0 SWAP2 PUSH2 0x126B JUMPI JUMPDEST POP DUP2 PUSH1 0x1 SHL SWAP2 PUSH1 0x0 NOT SWAP1 PUSH1 0x3 SHL SHR NOT AND OR SWAP1 JUMP JUMPDEST SWAP1 SSTORE JUMPDEST PUSH2 0x1248 PUSH1 0x9 SLOAD PUSH2 0x374C JUMP JUMPDEST PUSH1 0x9 SSTORE PUSH2 0x3BEC JUMP JUMPDEST PUSH2 0x1266 PUSH1 0x40 MLOAD SWAP3 DUP4 SWAP3 DUP8 DUP5 MSTORE CALLER SWAP8 DUP5 ADD SWAP2 PUSH2 0x37B7 JUMP JUMPDEST SUB SWAP1 LOG3 STOP JUMPDEST SWAP1 POP DUP8 ADD CALLDATALOAD DUP12 PUSH2 0x1226 JUMP JUMPDEST SWAP1 PUSH1 0x1F NOT DUP5 AND DUP4 PUSH1 0x0 MSTORE DUP9 PUSH1 0x0 KECCAK256 SWAP3 PUSH1 0x0 SWAP1 JUMPDEST DUP11 DUP4 DUP4 LT PUSH2 0x12EE JUMPI POP POP POP SWAP2 PUSH2 0x1250 SWAP4 SWAP2 DUP6 PUSH32 0xA48F4C1CCC0BA48A23C6F8469CC585D5868976D8C47A6E5A6C9E4E3621422F1B SWAP9 SWAP10 SWAP5 LT PUSH2 0x12D4 JUMPI JUMPDEST POP POP PUSH1 0x1 DUP5 DUP2 SHL ADD SWAP1 SSTORE PUSH2 0x123D JUMP JUMPDEST DUP7 ADD CALLDATALOAD PUSH1 0x0 NOT PUSH1 0x3 DUP8 SWAP1 SHL PUSH1 0xF8 AND SHR NOT AND SWAP1 SSTORE DUP9 DUP1 PUSH2 0x12C5 JUMP JUMPDEST DUP9 DUP6 ADD CALLDATALOAD DUP7 SSTORE SWAP5 DUP2 ADD SWAP5 SWAP4 DUP5 ADD SWAP4 SWAP2 SWAP1 SWAP2 ADD SWAP1 PUSH2 0x1289 JUMP JUMPDEST CALLVALUE PUSH2 0x20B JUMPI PUSH1 0x0 CALLDATASIZE PUSH1 0x3 NOT ADD SLT PUSH2 0x20B JUMPI PUSH1 0x40 MLOAD PUSH1 0x40 DUP2 ADD SWAP1 DUP1 DUP3 LT PUSH1 0x1 PUSH1 0x1 PUSH1 0x40 SHL SUB DUP4 GT OR PUSH2 0x963 JUMPI PUSH2 0x280 SWAP2 PUSH1 0x40 MSTORE PUSH1 0x5 DUP2 MSTORE PUSH5 0x352E302E3 PUSH1 0xDC SHL PUSH1 0x20 DUP3 ADD MSTORE PUSH1 0x40 MLOAD SWAP2 DUP3 SWAP2 PUSH1 0x20 DUP4 MSTORE PUSH1 0x20 DUP4 ADD SWAP1 PUSH2 0x3659 JUMP JUMPDEST CALLVALUE PUSH2 0x20B JUMPI PUSH2 0x100 CALLDATASIZE PUSH1 0x3 NOT ADD SLT PUSH2 0x20B JUMPI PUSH1 0x4 CALLDATALOAD PUSH1 0x1 PUSH1 0x1 PUSH1 0x40 SHL SUB DUP2 GT PUSH2 0x20B JUMPI PUSH2 0x138F SWAP1 CALLDATASIZE SWAP1 PUSH1 0x4 ADD PUSH2 0x33C7 JUMP JUMPDEST SWAP1 PUSH1 0x7 PUSH1 0x24 CALLDATALOAD LT ISZERO PUSH2 0x20B JUMPI PUSH1 0x44 CALLDATALOAD PUSH1 0x1 PUSH1 0x1 PUSH1 0x40 SHL SUB DUP2 GT PUSH2 0x20B JUMPI PUSH2 0x13BA SWAP1 CALLDATASIZE SWAP1 PUSH1 0x4 ADD PUSH2 0x33C7 JUMP JUMPDEST SWAP2 SWAP1 SWAP3 PUSH1 0x64 CALLDATALOAD PUSH1 0x1 PUSH1 0x1 PUSH1 0x40 SHL SUB DUP2 GT PUSH2 0x20B JUMPI PUSH2 0x13DC SWAP1 CALLDATASIZE SWAP1 PUSH1 0x4 ADD PUSH2 0x33C7 JUMP JUMPDEST SWAP1 PUSH1 0x84 CALLDATALOAD PUSH1 0x1 PUSH1 0x1 PUSH1 0x40 SHL SUB DUP2 GT PUSH2 0x20B JUMPI PUSH2 0x13FC SWAP1 CALLDATASIZE SWAP1 PUSH1 0x4 ADD PUSH2 0x33C7 JUMP JUMPDEST SWAP2 SWAP1 SWAP3 PUSH1 0xA4 CALLDATALOAD PUSH1 0x1 PUSH1 0x1 PUSH1 0x40 SHL SUB DUP2 GT PUSH2 0x20B JUMPI PUSH2 0x141E SWAP1 CALLDATASIZE SWAP1 PUSH1 0x4 ADD PUSH2 0x33C7 JUMP JUMPDEST SWAP2 SWAP1 PUSH1 0xC4 CALLDATALOAD PUSH1 0x1 PUSH1 0x1 PUSH1 0x40 SHL SUB DUP2 GT PUSH2 0x20B JUMPI PUSH2 0x143F SWAP1 CALLDATASIZE SWAP1 PUSH1 0x4 ADD PUSH2 0x33C7 JUMP JUMPDEST SWAP4 SWAP1 SWAP5 PUSH1 0x1 PUSH1 0x1 PUSH1 0x40 SHL SUB PUSH1 0xE4 CALLDATALOAD GT PUSH2 0x20B JUMPI CALLDATASIZE PUSH1 0x23 PUSH1 0xE4 CALLDATALOAD ADD SLT ISZERO PUSH2 0x20B JUMPI PUSH1 0x1 PUSH1 0x1 PUSH1 0x40 SHL SUB PUSH1 0xE4 CALLDATALOAD PUSH1 0x4 ADD CALLDATALOAD GT PUSH2 0x20B JUMPI CALLDATASIZE PUSH1 0x24 PUSH1 0xE4 CALLDATALOAD PUSH1 0x4 ADD CALLDATALOAD PUSH1 0x5 SHL PUSH1 0xE4 CALLDATALOAD ADD ADD GT PUSH2 0x20B JUMPI PUSH2 0x1492 PUSH2 0x37D8 JUMP JUMPDEST CALLER PUSH1 0x0 MSTORE PUSH1 0x1 PUSH1 0x20 MSTORE PUSH1 0x9 PUSH1 0x40 PUSH1 0x0 KECCAK256 ADD SLOAD PUSH2 0xE6C JUMPI CALLER PUSH1 0x0 MSTORE PUSH1 0x0 PUSH1 0x20 MSTORE PUSH1 0x8 PUSH1 0x40 PUSH1 0x0 KECCAK256 ADD SLOAD PUSH2 0x1EF1 JUMPI PUSH1 0x40 MLOAD DUP10 DUP12 DUP3 CALLDATACOPY PUSH1 0x2 DUP2 DUP12 ADD SWAP1 DUP2 MSTORE DUP2 SWAP1 SUB PUSH1 0x20 ADD SWAP1 KECCAK256 SLOAD PUSH1 0x1 PUSH1 0x1 PUSH1 0xA0 SHL SUB AND PUSH2 0x1EDF JUMPI PUSH1 0x40 DUP8 SUB PUSH2 0x1ECD JUMPI PUSH1 0x40 MLOAD SWAP8 DUP9 PUSH2 0x180 DUP2 ADD LT PUSH1 0x1 PUSH1 0x1 PUSH1 0x40 SHL SUB PUSH2 0x180 DUP12 ADD GT OR PUSH2 0x963 JUMPI PUSH2 0x1585 SWAP8 PUSH2 0x1561 PUSH2 0x156D SWAP4 DUP16 SWAP8 DUP16 DUP16 DUP16 DUP16 SWAP3 SWAP12 PUSH2 0x1579 SWAP13 PUSH2 0x153C PUSH1 0x60 SWAP5 PUSH2 0x1557 SWAP5 PUSH2 0x180 DUP9 ADD PUSH1 0x40 MSTORE CALLER DUP9 MSTORE CALLDATASIZE SWAP2 PUSH2 0x3430 JUMP JUMPDEST PUSH1 0x20 DUP7 ADD MSTORE PUSH2 0x1550 PUSH1 0x24 CALLDATALOAD PUSH1 0x40 DUP8 ADD PUSH2 0x3759 JUMP JUMPDEST CALLDATASIZE SWAP2 PUSH2 0x3430 JUMP JUMPDEST SWAP2 ADD MSTORE CALLDATASIZE SWAP2 PUSH2 0x3430 JUMP JUMPDEST PUSH1 0x80 DUP12 ADD MSTORE CALLDATASIZE SWAP2 PUSH2 0x3430 JUMP JUMPDEST PUSH1 0xA0 DUP9 ADD MSTORE CALLDATASIZE SWAP2 PUSH2 0x3430 JUMP JUMPDEST PUSH1 0xC0 DUP6 ADD MSTORE CALLDATASIZE SWAP2 PUSH2 0x3430 JUMP JUMPDEST PUSH1 0xE0 DUP3 ADD MSTORE PUSH2 0x1599 PUSH1 0xE4 CALLDATALOAD PUSH1 0x4 ADD CALLDATALOAD PUSH2 0x3765 JUMP JUMPDEST PUSH2 0x15A6 PUSH1 0x40 MLOAD SWAP2 DUP3 PUSH2 0x33F4 JUMP JUMPDEST PUSH1 0xE4 CALLDATALOAD PUSH1 0x4 DUP2 ADD CALLDATALOAD DUP3 MSTORE PUSH1 0x24 ADD PUSH1 0x20 DUP3 ADD JUMPDEST PUSH1 0x24 PUSH1 0xE4 CALLDATALOAD PUSH1 0x4 ADD CALLDATALOAD PUSH1 0x5 SHL PUSH1 0xE4 CALLDATALOAD ADD ADD DUP3 LT PUSH2 0x1E9D JUMPI POP POP PUSH2 0x100 DUP3 ADD MSTORE TIMESTAMP PUSH2 0x120 DUP3 ADD MSTORE PUSH1 0x0 PUSH2 0x140 DUP3 ADD MSTORE PUSH1 0x40 MLOAD DUP1 PUSH1 0x20 DUP2 ADD LT PUSH1 0x1 PUSH1 0x1 PUSH1 0x40 SHL SUB PUSH1 0x20 DUP4 ADD GT OR PUSH2 0x963 JUMPI PUSH1 0x20 DUP2 ADD PUSH1 0x40 MSTORE PUSH1 0x0 DUP2 MSTORE PUSH2 0x160 DUP3 ADD MSTORE CALLER PUSH1 0x0 MSTORE PUSH1 0x1 PUSH1 0x20 MSTORE PUSH1 0x40 PUSH1 0x0 KECCAK256 SWAP1 PUSH1 0x1 DUP1 PUSH1 0xA0 SHL SUB DUP2 MLOAD AND PUSH12 0xFFFFFFFFFFFFFFFFFFFFFFFF PUSH1 0xA0 SHL DUP4 SLOAD AND OR DUP3 SSTORE PUSH1 0x20 DUP2 ADD MLOAD DUP1 MLOAD SWAP1 PUSH1 0x1 PUSH1 0x1 PUSH1 0x40 SHL SUB DUP3 GT PUSH2 0x963 JUMPI PUSH2 0x1671 DUP3 PUSH2 0x1668 PUSH1 0x1 DUP8 ADD SLOAD PUSH2 0x3589 JUMP JUMPDEST PUSH1 0x1 DUP8 ADD PUSH2 0x36C8 JUMP JUMPDEST PUSH1 0x20 SWAP1 PUSH1 0x1F DUP4 GT PUSH1 0x1 EQ PUSH2 0x1E2B JUMPI PUSH2 0x16A1 SWAP3 SWAP2 PUSH1 0x0 SWAP2 DUP4 PUSH2 0x1A1D JUMPI POP POP DUP2 PUSH1 0x1 SHL SWAP2 PUSH1 0x0 NOT SWAP1 PUSH1 0x3 SHL SHR NOT AND OR SWAP1 JUMP JUMPDEST PUSH1 0x1 DUP4 ADD SSTORE JUMPDEST PUSH1 0x40 DUP2 ADD MLOAD PUSH1 0x7 DUP2 LT ISZERO PUSH2 0xB80 JUMPI PUSH2 0x16C2 SWAP1 PUSH1 0x2 DUP5 ADD PUSH2 0x377C JUMP JUMPDEST PUSH1 0x60 DUP2 ADD MLOAD DUP1 MLOAD SWAP1 PUSH1 0x1 PUSH1 0x1 PUSH1 0x40 SHL SUB DUP3 GT PUSH2 0x963 JUMPI PUSH2 0x16E9 DUP3 PUSH2 0x5AB PUSH1 0x3 DUP8 ADD SLOAD PUSH2 0x3589 JUMP JUMPDEST PUSH1 0x20 SWAP1 PUSH1 0x1F DUP4 GT PUSH1 0x1 EQ PUSH2 0x1DB9 JUMPI PUSH2 0x1719 SWAP3 SWAP2 PUSH1 0x0 SWAP2 DUP4 PUSH2 0x1A1D JUMPI POP POP DUP2 PUSH1 0x1 SHL SWAP2 PUSH1 0x0 NOT SWAP1 PUSH1 0x3 SHL SHR NOT AND OR SWAP1 JUMP JUMPDEST PUSH1 0x3 DUP4 ADD SSTORE JUMPDEST PUSH1 0x80 DUP2 ADD MLOAD DUP1 MLOAD SWAP1 PUSH1 0x1 PUSH1 0x1 PUSH1 0x40 SHL SUB DUP3 GT PUSH2 0x963 JUMPI PUSH2 0x1746 DUP3 PUSH2 0x611 PUSH1 0x4 DUP8 ADD SLOAD PUSH2 0x3589 JUMP JUMPDEST PUSH1 0x20 SWAP1 PUSH1 0x1F DUP4 GT PUSH1 0x1 EQ PUSH2 0x1D47 JUMPI PUSH2 0x1776 SWAP3 SWAP2 PUSH1 0x0 SWAP2 DUP4 PUSH2 0x1A1D JUMPI POP POP DUP2 PUSH1 0x1 SHL SWAP2 PUSH1 0x0 NOT SWAP1 PUSH1 0x3 SHL SHR NOT AND OR SWAP1 JUMP JUMPDEST PUSH1 0x4 DUP4 ADD SSTORE JUMPDEST PUSH1 0xA0 DUP2 ADD MLOAD DUP1 MLOAD SWAP1 PUSH1 0x1 PUSH1 0x1 PUSH1 0x40 SHL SUB DUP3 GT PUSH2 0x963 JUMPI PUSH2 0x17A3 DUP3 PUSH2 0x677 PUSH1 0x5 DUP8 ADD SLOAD PUSH2 0x3589 JUMP JUMPDEST PUSH1 0x20 SWAP1 PUSH1 0x1F DUP4 GT PUSH1 0x1 EQ PUSH2 0x1CD5 JUMPI PUSH2 0x17D3 SWAP3 SWAP2 PUSH1 0x0 SWAP2 DUP4 PUSH2 0x1A1D JUMPI POP POP DUP2 PUSH1 0x1 SHL SWAP2 PUSH1 0x0 NOT SWAP1 PUSH1 0x3 SHL SHR NOT AND OR SWAP1 JUMP JUMPDEST PUSH1 0x5 DUP4 ADD SSTORE JUMPDEST PUSH1 0xC0 DUP2 ADD MLOAD DUP1 MLOAD SWAP1 PUSH1 0x1 PUSH1 0x1 PUSH1 0x40 SHL SUB DUP3 GT PUSH2 0x963 JUMPI PUSH2 0x1800 DUP3 PUSH2 0x6DD PUSH1 0x6 DUP8 ADD SLOAD PUSH2 0x3589 JUMP JUMPDEST PUSH1 0x20 SWAP1 PUSH1 0x1F DUP4 GT PUSH1 0x1 EQ PUSH2 0x1C63 JUMPI PUSH2 0x1830 SWAP3 SWAP2 PUSH1 0x0 SWAP2 DUP4 PUSH2 0x1A1D JUMPI POP POP DUP2 PUSH1 0x1 SHL SWAP2 PUSH1 0x0 NOT SWAP1 PUSH1 0x3 SHL SHR NOT AND OR SWAP1 JUMP JUMPDEST PUSH1 0x6 DUP4 ADD SSTORE JUMPDEST PUSH1 0xE0 DUP2 ADD MLOAD DUP1 MLOAD SWAP1 PUSH1 0x1 PUSH1 0x1 PUSH1 0x40 SHL SUB DUP3 GT PUSH2 0x963 JUMPI PUSH2 0x1866 DUP3 PUSH2 0x185D PUSH1 0x7 DUP8 ADD SLOAD PUSH2 0x3589 JUMP JUMPDEST PUSH1 0x7 DUP8 ADD PUSH2 0x36C8 JUMP JUMPDEST PUSH1 0x20 SWAP1 PUSH1 0x1F DUP4 GT PUSH1 0x1 EQ PUSH2 0x1BF1 JUMPI PUSH2 0x1896 SWAP3 SWAP2 PUSH1 0x0 SWAP2 DUP4 PUSH2 0x1A1D JUMPI POP POP DUP2 PUSH1 0x1 SHL SWAP2 PUSH1 0x0 NOT SWAP1 PUSH1 0x3 SHL SHR NOT AND OR SWAP1 JUMP JUMPDEST PUSH1 0x7 DUP4 ADD SSTORE JUMPDEST PUSH2 0x100 DUP2 ADD MLOAD DUP1 MLOAD SWAP1 PUSH1 0x1 PUSH1 0x40 SHL DUP3 GT PUSH2 0x963 JUMPI PUSH1 0x8 DUP5 ADD SLOAD DUP3 PUSH1 0x8 DUP7 ADD SSTORE DUP1 DUP4 LT PUSH2 0x1B79 JUMPI JUMPDEST POP PUSH1 0x20 ADD SWAP1 PUSH1 0x8 DUP5 ADD PUSH1 0x0 MSTORE PUSH1 0x20 PUSH1 0x0 KECCAK256 SWAP2 PUSH1 0x0 SWAP1 JUMPDEST DUP3 DUP3 LT PUSH2 0x1A96 JUMPI POP POP POP POP DUP1 PUSH2 0x120 PUSH2 0x160 SWAP3 ADD MLOAD PUSH1 0x9 DUP5 ADD SSTORE PUSH1 0xA DUP4 ADD PUSH2 0x140 DUP3 ADD MLOAD ISZERO ISZERO PUSH1 0xFF DUP1 NOT DUP4 SLOAD AND SWAP2 AND OR SWAP1 SSTORE ADD MLOAD DUP1 MLOAD SWAP1 PUSH1 0x1 PUSH1 0x1 PUSH1 0x40 SHL SUB DUP3 GT PUSH2 0x963 JUMPI PUSH2 0x1938 DUP3 PUSH2 0x192F PUSH1 0xB DUP7 ADD SLOAD PUSH2 0x3589 JUMP JUMPDEST PUSH1 0xB DUP7 ADD PUSH2 0x36C8 JUMP JUMPDEST PUSH1 0x20 SWAP1 PUSH1 0x1F DUP4 GT PUSH1 0x1 EQ PUSH2 0x1A28 JUMPI SWAP2 DUP1 PUSH2 0x196B SWAP3 PUSH1 0xB SWAP5 PUSH1 0x0 SWAP3 PUSH2 0x1A1D JUMPI POP POP DUP2 PUSH1 0x1 SHL SWAP2 PUSH1 0x0 NOT SWAP1 PUSH1 0x3 SHL SHR NOT AND OR SWAP1 JUMP JUMPDEST SWAP2 ADD SSTORE JUMPDEST PUSH1 0x6 SLOAD PUSH1 0x1 PUSH1 0x40 SHL DUP2 LT ISZERO PUSH2 0x963 JUMPI PUSH32 0x3F56E6BC6FB47B24447B4B773B9C51CB0A8EFDC06F22D2839FA1C2BC3A3D16E8 SWAP4 PUSH2 0x19D4 PUSH2 0x19B6 DUP4 PUSH1 0x1 PUSH2 0x1A18 SWAP6 ADD PUSH1 0x6 SSTORE PUSH2 0x34F5 JUMP JUMPDEST DUP2 SLOAD PUSH1 0x1 PUSH1 0x1 PUSH1 0xA0 SHL SUB PUSH1 0x3 SWAP3 SWAP1 SWAP3 SHL SWAP2 DUP3 SHL NOT AND CALLER SWAP1 SWAP2 SHL OR SWAP1 SSTORE JUMP JUMPDEST PUSH2 0x19DF PUSH1 0x9 SLOAD PUSH2 0x3727 JUMP JUMPDEST PUSH1 0x9 SSTORE PUSH2 0x19F9 PUSH1 0x40 MLOAD SWAP5 DUP6 SWAP5 PUSH1 0x60 DUP7 MSTORE PUSH1 0x60 DUP7 ADD SWAP2 PUSH2 0x37B7 JUMP JUMPDEST SWAP1 PUSH2 0x1A09 PUSH1 0x20 DUP6 ADD PUSH1 0x24 CALLDATALOAD PUSH2 0x367E JUMP JUMPDEST DUP4 DUP3 SUB PUSH1 0x40 DUP6 ADD MSTORE CALLER SWAP7 PUSH2 0x37B7 JUMP JUMPDEST SUB SWAP1 LOG2 STOP JUMPDEST ADD MLOAD SWAP1 POP DUP10 DUP1 PUSH2 0x4EB JUMP JUMPDEST SWAP1 PUSH1 0x1F NOT DUP4 AND SWAP2 PUSH1 0xB DUP6 ADD PUSH1 0x0 MSTORE PUSH1 0x20 PUSH1 0x0 KECCAK256 SWAP3 PUSH1 0x0 JUMPDEST DUP2 DUP2 LT PUSH2 0x1A7E JUMPI POP SWAP2 PUSH1 0x1 SWAP4 SWAP2 DUP6 PUSH1 0xB SWAP7 SWAP5 LT PUSH2 0x1A65 JUMPI JUMPDEST POP POP POP DUP2 SHL ADD SWAP2 ADD SSTORE PUSH2 0x196F JUMP JUMPDEST ADD MLOAD PUSH1 0x0 NOT PUSH1 0xF8 DUP5 PUSH1 0x3 SHL AND SHR NOT AND SWAP1 SSTORE DUP9 DUP1 DUP1 PUSH2 0x1A57 JUMP JUMPDEST SWAP3 SWAP4 PUSH1 0x20 PUSH1 0x1 DUP2 SWAP3 DUP8 DUP7 ADD MLOAD DUP2 SSTORE ADD SWAP6 ADD SWAP4 ADD PUSH2 0x1A3F JUMP JUMPDEST DUP1 MLOAD DUP1 MLOAD SWAP1 PUSH1 0x1 PUSH1 0x1 PUSH1 0x40 SHL SUB DUP3 GT PUSH2 0x963 JUMPI PUSH2 0x1AB7 DUP3 PUSH2 0xA40 DUP9 SLOAD PUSH2 0x3589 JUMP JUMPDEST PUSH1 0x20 SWAP1 PUSH1 0x1F DUP4 GT PUSH1 0x1 EQ PUSH2 0x1B09 JUMPI SWAP3 PUSH2 0x1AEF DUP4 PUSH1 0x1 SWAP6 SWAP5 PUSH1 0x20 SWAP5 DUP8 SWAP7 PUSH1 0x0 SWAP3 PUSH2 0x1AFE JUMPI POP POP DUP2 PUSH1 0x1 SHL SWAP2 PUSH1 0x0 NOT SWAP1 PUSH1 0x3 SHL SHR NOT AND OR SWAP1 JUMP JUMPDEST DUP8 SSTORE JUMPDEST ADD SWAP5 ADD SWAP2 ADD SWAP1 SWAP3 PUSH2 0x18D9 JUMP JUMPDEST ADD MLOAD SWAP1 POP CODESIZE DUP1 PUSH2 0x4EB JUMP JUMPDEST SWAP1 DUP7 PUSH1 0x0 MSTORE PUSH1 0x20 PUSH1 0x0 KECCAK256 SWAP2 PUSH1 0x0 JUMPDEST PUSH1 0x1F NOT DUP6 AND DUP2 LT PUSH2 0x1B61 JUMPI POP DUP4 PUSH1 0x20 SWAP4 PUSH1 0x1 SWAP7 SWAP4 DUP8 SWAP7 SWAP4 DUP8 SWAP5 PUSH1 0x1F NOT DUP2 AND LT PUSH2 0x1B48 JUMPI JUMPDEST POP POP POP DUP2 SHL ADD DUP8 SSTORE PUSH2 0x1AF2 JUMP JUMPDEST ADD MLOAD PUSH1 0x0 NOT PUSH1 0xF8 DUP5 PUSH1 0x3 SHL AND SHR NOT AND SWAP1 SSTORE DUP16 DUP1 DUP1 PUSH2 0x1B3B JUMP JUMPDEST SWAP2 SWAP3 PUSH1 0x20 PUSH1 0x1 DUP2 SWAP3 DUP7 DUP6 ADD MLOAD DUP2 SSTORE ADD SWAP5 ADD SWAP3 ADD PUSH2 0x1B17 JUMP JUMPDEST PUSH1 0x8 DUP6 ADD PUSH1 0x0 MSTORE PUSH1 0x20 PUSH1 0x0 KECCAK256 SWAP1 DUP4 DUP3 ADD JUMPDEST DUP2 DUP4 ADD DUP2 LT PUSH2 0x1B9A JUMPI POP POP PUSH2 0x18C3 JUMP JUMPDEST DUP1 PUSH2 0x1BA7 PUSH1 0x1 SWAP3 SLOAD PUSH2 0x3589 JUMP JUMPDEST DUP1 PUSH2 0x1BB4 JUMPI JUMPDEST POP ADD PUSH2 0x1B8A JUMP JUMPDEST PUSH1 0x1F DUP2 GT DUP4 EQ PUSH2 0x1BCA JUMPI POP PUSH1 0x0 DUP2 SSTORE JUMPDEST DUP13 PUSH2 0x1BAD JUMP JUMPDEST PUSH1 0x0 SWAP1 DUP3 DUP3 MSTORE PUSH2 0x1BE8 PUSH1 0x1F PUSH1 0x20 DUP5 KECCAK256 SWAP3 ADD PUSH1 0x5 SHR DUP3 ADD DUP6 DUP4 ADD PUSH2 0x36B1 JUMP JUMPDEST DUP2 DUP4 SSTORE SSTORE PUSH2 0x1BC4 JUMP JUMPDEST SWAP2 SWAP1 PUSH1 0x7 DUP6 ADD PUSH1 0x0 MSTORE PUSH1 0x20 PUSH1 0x0 KECCAK256 SWAP1 PUSH1 0x0 SWAP4 JUMPDEST PUSH1 0x1F NOT DUP5 AND DUP6 LT PUSH2 0x1C48 JUMPI PUSH1 0x1 SWAP5 POP DUP4 PUSH1 0x1F NOT DUP2 AND LT PUSH2 0x1C2F JUMPI JUMPDEST POP POP POP DUP2 SHL ADD PUSH1 0x7 DUP4 ADD SSTORE PUSH2 0x189C JUMP JUMPDEST ADD MLOAD PUSH1 0x0 NOT PUSH1 0xF8 DUP5 PUSH1 0x3 SHL AND SHR NOT AND SWAP1 SSTORE DUP9 DUP1 DUP1 PUSH2 0x1C1F JUMP JUMPDEST DUP2 DUP2 ADD MLOAD DUP4 SSTORE PUSH1 0x20 SWAP5 DUP6 ADD SWAP5 PUSH1 0x1 SWAP1 SWAP4 ADD SWAP3 SWAP1 SWAP2 ADD SWAP1 PUSH2 0x1C04 JUMP JUMPDEST SWAP2 SWAP1 PUSH1 0x6 DUP6 ADD PUSH1 0x0 MSTORE PUSH1 0x20 PUSH1 0x0 KECCAK256 SWAP1 PUSH1 0x0 SWAP4 JUMPDEST PUSH1 0x1F NOT DUP5 AND DUP6 LT PUSH2 0x1CBA JUMPI PUSH1 0x1 SWAP5 POP DUP4 PUSH1 0x1F NOT DUP2 AND LT PUSH2 0x1CA1 JUMPI JUMPDEST POP POP POP DUP2 SHL ADD PUSH1 0x6 DUP4 ADD SSTORE PUSH2 0x1836 JUMP JUMPDEST ADD MLOAD PUSH1 0x0 NOT PUSH1 0xF8 DUP5 PUSH1 0x3 SHL AND SHR NOT AND SWAP1 SSTORE DUP9 DUP1 DUP1 PUSH2 0x1C91 JUMP JUMPDEST DUP2 DUP2 ADD MLOAD DUP4 SSTORE PUSH1 0x20 SWAP5 DUP6 ADD SWAP5 PUSH1 0x1 SWAP1 SWAP4 ADD SWAP3 SWAP1 SWAP2 ADD SWAP1 PUSH2 0x1C76 JUMP JUMPDEST SWAP2 SWAP1 PUSH1 0x5 DUP6 ADD PUSH1 0x0 MSTORE PUSH1 0x20 PUSH1 0x0 KECCAK256 SWAP1 PUSH1 0x0 SWAP4 JUMPDEST PUSH1 0x1F NOT DUP5 AND DUP6 LT PUSH2 0x1D2C JUMPI PUSH1 0x1 SWAP5 POP DUP4 PUSH1 0x1F NOT DUP2 AND LT PUSH2 0x1D13 JUMPI JUMPDEST POP POP POP DUP2 SHL ADD PUSH1 0x5 DUP4 ADD SSTORE PUSH2 0x17D9 JUMP JUMPDEST ADD MLOAD PUSH1 0x0 NOT PUSH1 0xF8 DUP5 PUSH1 0x3 SHL AND SHR NOT AND SWAP1 SSTORE DUP9 DUP1 DUP1 PUSH2 0x1D03 JUMP JUMPDEST DUP2 DUP2 ADD MLOAD DUP4 SSTORE PUSH1 0x20 SWAP5 DUP6 ADD SWAP5 PUSH1 0x1 SWAP1 SWAP4 ADD SWAP3 SWAP1 SWAP2 ADD SWAP1 PUSH2 0x1CE8 JUMP JUMPDEST SWAP2 SWAP1 PUSH1 0x4 DUP6 ADD PUSH1 0x0 MSTORE PUSH1 0x20 PUSH1 0x0 KECCAK256 SWAP1 PUSH1 0x0 SWAP4 JUMPDEST PUSH1 0x1F NOT DUP5 AND DUP6 LT PUSH2 0x1D9E JUMPI PUSH1 0x1 SWAP5 POP DUP4 PUSH1 0x1F NOT DUP2 AND LT PUSH2 0x1D85 JUMPI JUMPDEST POP POP POP DUP2 SHL ADD PUSH1 0x4 DUP4 ADD SSTORE PUSH2 0x177C JUMP JUMPDEST ADD MLOAD PUSH1 0x0 NOT PUSH1 0xF8 DUP5 PUSH1 0x3 SHL AND SHR NOT AND SWAP1 SSTORE DUP9 DUP1 DUP1 PUSH2 0x1D75 JUMP JUMPDEST DUP2 DUP2 ADD MLOAD DUP4 SSTORE PUSH1 0x20 SWAP5 DUP6 ADD SWAP5 PUSH1 0x1 SWAP1 SWAP4 ADD SWAP3 SWAP1 SWAP2 ADD SWAP1 PUSH2 0x1D5A JUMP JUMPDEST SWAP2 SWAP1 PUSH1 0x3 DUP6 ADD PUSH1 0x0 MSTORE PUSH1 0x20 PUSH1 0x0 KECCAK256 SWAP1 PUSH1 0x0 SWAP4 JUMPDEST PUSH1 0x1F NOT DUP5 AND DUP6 LT PUSH2 0x1E10 JUMPI PUSH1 0x1 SWAP5 POP DUP4 PUSH1 0x1F NOT DUP2 AND LT PUSH2 0x1DF7 JUMPI JUMPDEST POP POP POP DUP2 SHL ADD PUSH1 0x3 DUP4 ADD SSTORE PUSH2 0x171F JUMP JUMPDEST ADD MLOAD PUSH1 0x0 NOT PUSH1 0xF8 DUP5 PUSH1 0x3 SHL AND SHR NOT AND SWAP1 SSTORE DUP9 DUP1 DUP1 PUSH2 0x1DE7 JUMP JUMPDEST DUP2 DUP2 ADD MLOAD DUP4 SSTORE PUSH1 0x20 SWAP5 DUP6 ADD SWAP5 PUSH1 0x1 SWAP1 SWAP4 ADD SWAP3 SWAP1 SWAP2 ADD SWAP1 PUSH2 0x1DCC JUMP JUMPDEST SWAP2 SWAP1 PUSH1 0x1 DUP6 ADD PUSH1 0x0 MSTORE PUSH1 0x20 PUSH1 0x0 KECCAK256 SWAP1 PUSH1 0x0 SWAP4 JUMPDEST PUSH1 0x1F NOT DUP5 AND DUP6 LT PUSH2 0x1E82 JUMPI PUSH1 0x1 SWAP5 POP DUP4 PUSH1 0x1F NOT DUP2 AND LT PUSH2 0x1E69 JUMPI JUMPDEST POP POP POP DUP2 SHL ADD PUSH1 0x1 DUP4 ADD SSTORE PUSH2 0x16A7 JUMP JUMPDEST ADD MLOAD PUSH1 0x0 NOT PUSH1 0xF8 DUP5 PUSH1 0x3 SHL AND SHR NOT AND SWAP1 SSTORE DUP9 DUP1 DUP1 PUSH2 0x1E59 JUMP JUMPDEST DUP2 DUP2 ADD MLOAD DUP4 SSTORE PUSH1 0x20 SWAP5 DUP6 ADD SWAP5 PUSH1 0x1 SWAP1 SWAP4 ADD SWAP3 SWAP1 SWAP2 ADD SWAP1 PUSH2 0x1E3E JUMP JUMPDEST PUSH1 0x1 PUSH1 0x1 PUSH1 0x40 SHL SUB DUP3 CALLDATALOAD GT PUSH2 0x20B JUMPI PUSH1 0x20 DUP1 SWAP2 PUSH2 0x1EC2 CALLDATASIZE PUSH1 0x24 DUP7 CALLDATALOAD PUSH1 0xE4 CALLDATALOAD ADD ADD PUSH2 0x3467 JUMP JUMPDEST DUP2 MSTORE ADD SWAP2 ADD SWAP1 PUSH2 0x15B8 JUMP JUMPDEST PUSH1 0x40 MLOAD PUSH4 0x145A1FDD PUSH1 0xE3 SHL DUP2 MSTORE PUSH1 0x4 SWAP1 REVERT JUMPDEST PUSH1 0x40 MLOAD PUSH4 0xD706ECD PUSH1 0xE2 SHL DUP2 MSTORE PUSH1 0x4 SWAP1 REVERT JUMPDEST PUSH1 0x40 MLOAD PUSH4 0x59DB6211 PUSH1 0xE1 SHL DUP2 MSTORE PUSH1 0x4 SWAP1 REVERT JUMPDEST CALLVALUE PUSH2 0x20B JUMPI PUSH1 0x0 CALLDATASIZE PUSH1 0x3 NOT ADD SLT PUSH2 0x20B JUMPI PUSH1 0x20 PUSH1 0x40 MLOAD PUSH1 0x0 DUP2 MSTORE RETURN JUMPDEST CALLVALUE PUSH2 0x20B JUMPI PUSH1 0x0 CALLDATASIZE PUSH1 0x3 NOT ADD SLT PUSH2 0x20B JUMPI PUSH1 0x7 DUP1 SLOAD PUSH1 0x8 SLOAD PUSH1 0x9 SLOAD PUSH1 0x0 SWAP1 PUSH1 0x0 SWAP3 PUSH1 0x0 PUSH1 0x5 SLOAD JUMPDEST DUP1 DUP3 LT PUSH2 0x1F6F JUMPI POP POP PUSH1 0xA0 SWAP6 POP PUSH1 0x40 MLOAD SWAP5 DUP6 MSTORE PUSH1 0x20 DUP6 ADD MSTORE PUSH1 0x40 DUP5 ADD MSTORE PUSH1 0x60 DUP4 ADD MSTORE PUSH1 0x80 DUP3 ADD MSTORE RETURN JUMPDEST SWAP1 SWAP4 PUSH2 0x1F7A DUP6 PUSH2 0x34A8 JUMP JUMPDEST SWAP1 SLOAD PUSH1 0x3 SWAP2 DUP3 SHL SHR PUSH1 0x1 PUSH1 0x1 PUSH1 0xA0 SHL SUB AND PUSH1 0x0 SWAP1 DUP2 MSTORE PUSH1 0x20 DUP2 SWAP1 MSTORE PUSH1 0x40 SWAP1 KECCAK256 DUP10 ADD SLOAD PUSH1 0xFF AND PUSH1 0x4 DUP2 LT ISZERO PUSH2 0xB80 JUMPI PUSH1 0x2 DUP2 SUB PUSH2 0x1FC6 JUMPI POP POP PUSH2 0x1FBD PUSH1 0x1 SWAP2 PUSH2 0x3727 JUMP JUMPDEST SWAP5 JUMPDEST ADD SWAP1 PUSH2 0x1F46 JUMP JUMPDEST SWAP6 SWAP2 SWAP6 EQ PUSH2 0x1FD7 JUMPI JUMPDEST PUSH1 0x1 SWAP1 PUSH2 0x1FBF JUMP JUMPDEST SWAP5 PUSH2 0x1FE3 PUSH1 0x1 SWAP2 PUSH2 0x3727 JUMP JUMPDEST SWAP6 SWAP1 POP PUSH2 0x1FCF JUMP JUMPDEST CALLVALUE PUSH2 0x20B JUMPI PUSH1 0x20 CALLDATASIZE PUSH1 0x3 NOT ADD SLT PUSH2 0x20B JUMPI PUSH1 0x4 CALLDATALOAD PUSH1 0x6 SLOAD DUP2 LT ISZERO PUSH2 0x20B JUMPI PUSH2 0xF1C PUSH1 0x20 SWAP2 PUSH2 0x34F5 JUMP JUMPDEST CALLVALUE PUSH2 0x20B JUMPI PUSH1 0x40 CALLDATASIZE PUSH1 0x3 NOT ADD SLT PUSH2 0x20B JUMPI PUSH2 0x202D PUSH2 0x33B1 JUMP JUMPDEST PUSH1 0x4 CALLDATALOAD PUSH1 0x0 MSTORE PUSH1 0x0 DUP1 MLOAD PUSH1 0x20 PUSH2 0x3D64 DUP4 CODECOPY DUP2 MLOAD SWAP2 MSTORE PUSH1 0x20 MSTORE PUSH1 0x40 PUSH1 0x0 KECCAK256 SWAP1 PUSH1 0x1 DUP1 PUSH1 0xA0 SHL SUB AND PUSH1 0x0 MSTORE PUSH1 0x20 MSTORE PUSH1 0x20 PUSH1 0xFF PUSH1 0x40 PUSH1 0x0 KECCAK256 SLOAD AND PUSH1 0x40 MLOAD SWAP1 ISZERO ISZERO DUP2 MSTORE RETURN JUMPDEST CALLVALUE PUSH2 0x20B JUMPI PUSH1 0x20 CALLDATASIZE PUSH1 0x3 NOT ADD SLT PUSH2 0x20B JUMPI PUSH1 0x1 PUSH1 0x1 PUSH1 0xA0 SHL SUB PUSH2 0x208F PUSH2 0x339B JUMP JUMPDEST AND PUSH1 0x0 MSTORE PUSH1 0x1 PUSH1 0x20 MSTORE PUSH1 0x40 PUSH1 0x0 KECCAK256 PUSH1 0x2 DUP2 ADD SLOAD PUSH1 0xFF AND SWAP1 PUSH1 0x9 DUP2 ADD SLOAD SWAP1 PUSH1 0xA DUP2 ADD SLOAD PUSH1 0xFF AND SWAP2 PUSH1 0x40 MLOAD SWAP3 DUP4 DUP1 PUSH1 0x1 DUP6 ADD SWAP1 PUSH2 0x20C9 SWAP2 PUSH2 0x35C3 JUMP JUMPDEST SUB PUSH2 0x20D4 SWAP1 DUP6 PUSH2 0x33F4 JUMP JUMPDEST PUSH1 0x40 MLOAD DUP1 PUSH2 0x20E5 DUP2 PUSH1 0x3 DUP8 ADD PUSH2 0x35C3 JUMP JUMPDEST SUB PUSH2 0x20F0 SWAP1 DUP3 PUSH2 0x33F4 JUMP JUMPDEST PUSH1 0x40 MLOAD DUP1 PUSH2 0x2101 DUP2 PUSH1 0x4 DUP9 ADD PUSH2 0x35C3 JUMP JUMPDEST SUB PUSH2 0x210C SWAP1 DUP3 PUSH2 0x33F4 JUMP JUMPDEST PUSH1 0x40 MLOAD DUP1 PUSH2 0x211D DUP2 PUSH1 0x5 DUP10 ADD PUSH2 0x35C3 JUMP JUMPDEST SUB PUSH2 0x2128 SWAP1 DUP3 PUSH2 0x33F4 JUMP JUMPDEST PUSH1 0x40 MLOAD SWAP2 DUP3 PUSH2 0x213A DUP2 PUSH1 0x6 DUP11 ADD PUSH2 0x35C3 JUMP JUMPDEST SUB PUSH2 0x2145 SWAP1 DUP5 PUSH2 0x33F4 JUMP JUMPDEST PUSH1 0x40 MLOAD SWAP4 DUP5 PUSH2 0x2157 DUP2 PUSH1 0x7 DUP12 ADD PUSH2 0x35C3 JUMP JUMPDEST SUB PUSH2 0x2162 SWAP1 DUP7 PUSH2 0x33F4 JUMP JUMPDEST PUSH1 0x40 MLOAD DUP1 PUSH1 0xB DUP2 SWAP11 ADD SWAP1 PUSH2 0x2175 SWAP2 PUSH2 0x35C3 JUMP JUMPDEST SUB PUSH2 0x2180 SWAP1 DUP10 PUSH2 0x33F4 JUMP JUMPDEST PUSH1 0x40 MLOAD SWAP10 DUP11 SWAP10 PUSH2 0x140 DUP1 DUP13 MSTORE DUP12 ADD PUSH2 0x2197 SWAP2 PUSH2 0x3659 JUMP JUMPDEST SWAP1 PUSH1 0x20 DUP12 ADD PUSH2 0x21A5 SWAP2 PUSH2 0x367E JUMP JUMPDEST DUP10 DUP2 SUB PUSH1 0x40 DUP12 ADD MSTORE PUSH2 0x21B6 SWAP2 PUSH2 0x3659 JUMP JUMPDEST DUP9 DUP2 SUB PUSH1 0x60 DUP11 ADD MSTORE PUSH2 0x21C7 SWAP2 PUSH2 0x3659 JUMP JUMPDEST DUP8 DUP2 SUB PUSH1 0x80 DUP10 ADD MSTORE PUSH2 0x21D8 SWAP2 PUSH2 0x3659 JUMP JUMPDEST DUP7 DUP2 SUB PUSH1 0xA0 DUP9 ADD MSTORE PUSH2 0x21E9 SWAP2 PUSH2 0x3659 JUMP JUMPDEST DUP6 DUP2 SUB PUSH1 0xC0 DUP8 ADD MSTORE PUSH2 0x21FA SWAP2 PUSH2 0x3659 JUMP JUMPDEST SWAP2 PUSH1 0xE0 DUP6 ADD MSTORE ISZERO ISZERO PUSH2 0x100 DUP5 ADD MSTORE DUP3 DUP2 SUB PUSH2 0x120 DUP5 ADD MSTORE PUSH2 0x280 SWAP2 PUSH2 0x3659 JUMP JUMPDEST CALLVALUE PUSH2 0x20B JUMPI PUSH1 0x0 CALLDATASIZE PUSH1 0x3 NOT ADD SLT PUSH2 0x20B JUMPI PUSH2 0x2233 PUSH2 0x3803 JUMP JUMPDEST PUSH2 0x223B PUSH2 0x37D8 JUMP JUMPDEST PUSH1 0x0 DUP1 MLOAD PUSH1 0x20 PUSH2 0x3D84 DUP4 CODECOPY DUP2 MLOAD SWAP2 MSTORE PUSH1 0x1 PUSH1 0xFF NOT DUP3 SLOAD AND OR SWAP1 SSTORE PUSH32 0x62E78CEA01BEE320CD4E420270B5EA74000D11B0C9F74754EBDBFC544B05A258 PUSH1 0x20 PUSH1 0x40 MLOAD CALLER DUP2 MSTORE LOG1 STOP JUMPDEST CALLVALUE PUSH2 0x20B JUMPI PUSH1 0x20 CALLDATASIZE PUSH1 0x3 NOT ADD SLT PUSH2 0x20B JUMPI PUSH1 0x1 PUSH1 0x1 PUSH1 0xA0 SHL SUB DUP1 PUSH2 0x22A3 PUSH2 0x339B JUMP JUMPDEST AND PUSH1 0x0 MSTORE PUSH1 0x1 PUSH1 0x20 MSTORE PUSH1 0x40 PUSH1 0x0 KECCAK256 SWAP1 DUP2 SLOAD AND PUSH1 0x40 MLOAD SWAP2 DUP3 DUP1 PUSH1 0x1 DUP4 ADD SWAP1 PUSH2 0x22C9 SWAP2 PUSH2 0x35C3 JUMP JUMPDEST SUB PUSH2 0x22D4 SWAP1 DUP5 PUSH2 0x33F4 JUMP JUMPDEST PUSH1 0x2 DUP2 ADD SLOAD PUSH1 0x40 MLOAD SWAP1 PUSH1 0xFF AND DUP2 PUSH2 0x22EE DUP2 PUSH1 0x3 DUP7 ADD PUSH2 0x35C3 JUMP JUMPDEST SUB PUSH2 0x22F9 SWAP1 DUP4 PUSH2 0x33F4 JUMP JUMPDEST PUSH1 0x40 MLOAD DUP1 PUSH2 0x230A DUP2 PUSH1 0x4 DUP8 ADD PUSH2 0x35C3 JUMP JUMPDEST SUB PUSH2 0x2315 SWAP1 DUP3 PUSH2 0x33F4 JUMP JUMPDEST PUSH1 0x40 MLOAD DUP1 PUSH2 0x2326 DUP2 PUSH1 0x5 DUP9 ADD PUSH2 0x35C3 JUMP JUMPDEST SUB PUSH2 0x2331 SWAP1 DUP3 PUSH2 0x33F4 JUMP JUMPDEST PUSH1 0x40 MLOAD SWAP1 DUP2 PUSH2 0x2343 DUP2 PUSH1 0x6 DUP10 ADD PUSH2 0x35C3 JUMP JUMPDEST SUB PUSH2 0x234E SWAP1 DUP4 PUSH2 0x33F4 JUMP JUMPDEST PUSH1 0x40 MLOAD SWAP3 DUP4 PUSH2 0x2360 DUP2 PUSH1 0x7 DUP11 ADD PUSH2 0x35C3 JUMP JUMPDEST SUB PUSH2 0x236B SWAP1 DUP6 PUSH2 0x33F4 JUMP JUMPDEST PUSH1 0x9 DUP8 ADD SLOAD SWAP6 PUSH1 0xA DUP9 ADD SLOAD PUSH1 0xFF AND SWAP6 PUSH1 0x40 MLOAD DUP1 PUSH1 0xB DUP2 SWAP12 ADD SWAP1 PUSH2 0x238D SWAP2 PUSH2 0x35C3 JUMP JUMPDEST SUB PUSH2 0x2398 SWAP1 DUP11 PUSH2 0x33F4 JUMP JUMPDEST PUSH1 0x40 MLOAD SWAP11 DUP12 SWAP11 PUSH2 0x160 SWAP1 DUP13 MSTORE DUP1 PUSH1 0x20 DUP14 ADD MSTORE DUP12 ADD PUSH2 0x23B5 SWAP2 PUSH2 0x3659 JUMP JUMPDEST SWAP1 PUSH1 0x40 DUP12 ADD PUSH2 0x23C3 SWAP2 PUSH2 0x367E JUMP JUMPDEST DUP10 DUP2 SUB PUSH1 0x60 DUP12 ADD MSTORE PUSH2 0x23D4 SWAP2 PUSH2 0x3659 JUMP JUMPDEST DUP9 DUP2 SUB PUSH1 0x80 DUP11 ADD MSTORE PUSH2 0x23E5 SWAP2 PUSH2 0x3659 JUMP JUMPDEST DUP8 DUP2 SUB PUSH1 0xA0 DUP10 ADD MSTORE PUSH2 0x23F6 SWAP2 PUSH2 0x3659 JUMP JUMPDEST DUP7 DUP2 SUB PUSH1 0xC0 DUP9 ADD MSTORE PUSH2 0x2407 SWAP2 PUSH2 0x3659 JUMP JUMPDEST DUP6 DUP2 SUB PUSH1 0xE0 DUP8 ADD MSTORE PUSH2 0x2418 SWAP2 PUSH2 0x3659 JUMP JUMPDEST SWAP2 PUSH2 0x100 DUP6 ADD MSTORE ISZERO ISZERO PUSH2 0x120 DUP5 ADD MSTORE DUP3 DUP2 SUB PUSH2 0x140 DUP5 ADD MSTORE PUSH2 0x280 SWAP2 PUSH2 0x3659 JUMP JUMPDEST CALLVALUE PUSH2 0x20B JUMPI PUSH1 0x0 CALLDATASIZE PUSH1 0x3 NOT ADD SLT PUSH2 0x20B JUMPI PUSH1 0x20 PUSH1 0x40 MLOAD PUSH32 0xA49807205CE4D355092EF5A8A18F56E8913CF4A201FBE287825B095693C21775 DUP2 MSTORE RETURN JUMPDEST CALLVALUE PUSH2 0x20B JUMPI PUSH1 0x20 CALLDATASIZE PUSH1 0x3 NOT ADD SLT PUSH2 0x20B JUMPI PUSH1 0x1 PUSH1 0x1 PUSH1 0xA0 SHL SUB PUSH2 0x2495 PUSH2 0x339B JUMP JUMPDEST AND DUP1 PUSH1 0x0 MSTORE PUSH1 0x0 PUSH1 0x20 MSTORE PUSH1 0x8 PUSH1 0x40 PUSH1 0x0 KECCAK256 ADD SLOAD ISZERO PUSH2 0x1126 JUMPI PUSH1 0x0 MSTORE PUSH1 0x0 PUSH1 0x20 MSTORE PUSH1 0xC PUSH1 0x40 PUSH1 0x0 KECCAK256 ADD PUSH2 0x1122 DUP2 SLOAD PUSH2 0x3727 JUMP JUMPDEST CALLVALUE PUSH2 0x20B JUMPI PUSH1 0x0 CALLDATASIZE PUSH1 0x3 NOT ADD SLT PUSH2 0x20B JUMPI PUSH1 0x20 PUSH1 0x40 MLOAD PUSH32 0x59A1C48E5837AD7A7F3DCEDCBE129BF3249EC4FBF651FD4F5E2600EAD39FE2F5 DUP2 MSTORE RETURN JUMPDEST CALLVALUE PUSH2 0x20B JUMPI PUSH1 0x0 CALLDATASIZE PUSH1 0x3 NOT ADD SLT PUSH2 0x20B JUMPI PUSH1 0x40 MLOAD DUP1 PUSH1 0x6 SLOAD SWAP2 DUP3 DUP2 MSTORE PUSH1 0x20 DUP1 SWAP2 ADD SWAP3 PUSH1 0x6 PUSH1 0x0 MSTORE PUSH32 0xF652222313E28459528D920B65115C16C04F3EFC82AAEDC97BE59F3F377C0D3F SWAP2 PUSH1 0x0 SWAP1 JUMPDEST DUP3 DUP3 LT PUSH2 0x2566 JUMPI PUSH2 0x280 DUP6 PUSH2 0x274 DUP2 DUP10 SUB DUP3 PUSH2 0x33F4 JUMP JUMPDEST DUP4 SLOAD PUSH1 0x1 PUSH1 0x1 PUSH1 0xA0 SHL SUB AND DUP7 MSTORE SWAP5 DUP6 ADD SWAP5 PUSH1 0x1 SWAP4 DUP5 ADD SWAP4 SWAP1 SWAP2 ADD SWAP1 PUSH2 0x254F JUMP JUMPDEST CALLVALUE PUSH2 0x20B JUMPI PUSH1 0x20 CALLDATASIZE PUSH1 0x3 NOT ADD SLT PUSH2 0x20B JUMPI PUSH1 0x1 PUSH1 0x1 PUSH1 0xA0 SHL SUB PUSH2 0x25A7 PUSH2 0x339B JUMP JUMPDEST AND PUSH1 0x0 MSTORE PUSH1 0x0 PUSH1 0x20 MSTORE PUSH1 0x40 PUSH1 0x0 KECCAK256 PUSH1 0x1 DUP2 ADD SLOAD PUSH1 0xFF AND SWAP1 PUSH1 0x7 DUP2 ADD SLOAD PUSH1 0xFF AND PUSH1 0x8 DUP3 ADD SLOAD PUSH1 0xB DUP4 ADD SLOAD PUSH1 0xC DUP5 ADD SLOAD SWAP2 PUSH1 0x40 MLOAD SWAP5 DUP6 PUSH2 0x25E5 DUP2 DUP4 PUSH2 0x35C3 JUMP JUMPDEST SUB PUSH2 0x25F0 SWAP1 DUP8 PUSH2 0x33F4 JUMP JUMPDEST PUSH1 0x40 MLOAD DUP1 PUSH2 0x2601 DUP2 PUSH1 0x2 DUP6 ADD PUSH2 0x35C3 JUMP JUMPDEST SUB PUSH2 0x260C SWAP1 DUP3 PUSH2 0x33F4 JUMP JUMPDEST PUSH1 0x40 MLOAD DUP1 PUSH2 0x261D DUP2 PUSH1 0x3 DUP7 ADD PUSH2 0x35C3 JUMP JUMPDEST SUB PUSH2 0x2628 SWAP1 DUP3 PUSH2 0x33F4 JUMP JUMPDEST PUSH1 0x40 MLOAD SWAP1 DUP2 PUSH2 0x263A DUP2 PUSH1 0x4 DUP8 ADD PUSH2 0x35C3 JUMP JUMPDEST SUB PUSH2 0x2645 SWAP1 DUP4 PUSH2 0x33F4 JUMP JUMPDEST PUSH1 0x40 MLOAD SWAP3 DUP4 PUSH2 0x2657 DUP2 PUSH1 0x5 DUP9 ADD PUSH2 0x35C3 JUMP JUMPDEST SUB PUSH2 0x2662 SWAP1 DUP6 PUSH2 0x33F4 JUMP JUMPDEST PUSH1 0x40 MLOAD DUP1 PUSH1 0x6 DUP2 SWAP8 ADD SWAP1 PUSH2 0x2675 SWAP2 PUSH2 0x35C3 JUMP JUMPDEST SUB PUSH2 0x2680 SWAP1 DUP7 PUSH2 0x33F4 JUMP JUMPDEST PUSH1 0x40 MLOAD SWAP11 DUP12 SWAP11 PUSH2 0x160 DUP1 DUP14 MSTORE DUP13 ADD PUSH2 0x2697 SWAP2 PUSH2 0x3659 JUMP JUMPDEST SWAP1 PUSH1 0x20 DUP13 ADD PUSH2 0x26A5 SWAP2 PUSH2 0x367E JUMP JUMPDEST DUP11 DUP2 SUB PUSH1 0x40 DUP13 ADD MSTORE PUSH2 0x26B6 SWAP2 PUSH2 0x3659 JUMP JUMPDEST DUP10 DUP2 SUB PUSH1 0x60 DUP12 ADD MSTORE PUSH2 0x26C7 SWAP2 PUSH2 0x3659 JUMP JUMPDEST DUP9 DUP2 SUB PUSH1 0x80 DUP11 ADD MSTORE PUSH2 0x26D8 SWAP2 PUSH2 0x3659 JUMP JUMPDEST DUP8 DUP2 SUB PUSH1 0xA0 DUP10 ADD MSTORE PUSH2 0x26E9 SWAP2 PUSH2 0x3659 JUMP JUMPDEST DUP7 DUP2 SUB PUSH1 0xC0 DUP9 ADD MSTORE PUSH2 0x26FA SWAP2 PUSH2 0x3659 JUMP JUMPDEST SWAP4 PUSH1 0xE0 DUP7 ADD PUSH2 0x2708 SWAP2 PUSH2 0x368B JUMP JUMPDEST PUSH2 0x100 DUP6 ADD MSTORE PUSH2 0x120 DUP5 ADD MSTORE PUSH2 0x140 DUP4 ADD MSTORE SUB SWAP1 RETURN JUMPDEST CALLVALUE PUSH2 0x20B JUMPI PUSH1 0x0 CALLDATASIZE PUSH1 0x3 NOT ADD SLT PUSH2 0x20B JUMPI PUSH1 0x20 PUSH1 0xFF PUSH1 0x0 DUP1 MLOAD PUSH1 0x20 PUSH2 0x3D84 DUP4 CODECOPY DUP2 MLOAD SWAP2 MSTORE SLOAD AND PUSH1 0x40 MLOAD SWAP1 ISZERO ISZERO DUP2 MSTORE RETURN JUMPDEST CALLVALUE PUSH2 0x20B JUMPI PUSH1 0x0 CALLDATASIZE PUSH1 0x3 NOT ADD SLT PUSH2 0x20B JUMPI PUSH32 0x0 PUSH1 0x1 PUSH1 0x1 PUSH1 0xA0 SHL SUB AND ADDRESS SUB PUSH2 0x27B9 JUMPI PUSH1 0x20 PUSH1 0x40 MLOAD PUSH32 0x360894A13BA1A3210667C828492DB98DCA3E2076CC3735A920A3CA505D382BBC DUP2 MSTORE RETURN JUMPDEST PUSH1 0x40 MLOAD PUSH4 0x703E46DD PUSH1 0xE1 SHL DUP2 MSTORE PUSH1 0x4 SWAP1 REVERT JUMPDEST CALLVALUE PUSH2 0x20B JUMPI PUSH1 0x40 CALLDATASIZE PUSH1 0x3 NOT ADD SLT PUSH2 0x20B JUMPI PUSH2 0x27E4 PUSH2 0x339B JUMP JUMPDEST PUSH1 0x24 CALLDATALOAD SWAP1 PUSH1 0x4 DUP3 LT ISZERO SWAP1 DUP2 PUSH2 0x20B JUMPI PUSH2 0x27FB PUSH2 0x387D JUMP JUMPDEST PUSH2 0x2803 PUSH2 0x37D8 JUMP JUMPDEST PUSH1 0x1 DUP1 PUSH1 0xA0 SHL SUB AND SWAP1 DUP2 PUSH1 0x0 MSTORE PUSH1 0x0 PUSH1 0x20 MSTORE PUSH1 0x8 PUSH1 0x40 PUSH1 0x0 KECCAK256 ADD SLOAD ISZERO PUSH2 0x1126 JUMPI DUP2 PUSH1 0x0 MSTORE PUSH1 0x0 PUSH1 0x20 MSTORE PUSH1 0x7 PUSH1 0x40 PUSH1 0x0 KECCAK256 ADD SWAP3 PUSH2 0x2844 DUP2 PUSH1 0xFF DUP7 SLOAD AND SWAP6 PUSH2 0x370F JUMP JUMPDEST DUP3 PUSH1 0x0 MSTORE PUSH1 0x0 PUSH1 0x20 MSTORE TIMESTAMP PUSH1 0x9 PUSH1 0x40 PUSH1 0x0 KECCAK256 ADD SSTORE PUSH1 0x4 DUP5 LT ISZERO PUSH2 0xB80 JUMPI PUSH1 0x1 DUP5 EQ DUP1 DUP1 PUSH2 0x28FB JUMPI JUMPDEST ISZERO PUSH2 0x28C4 JUMPI POP PUSH2 0x289C SWAP2 POP PUSH2 0x2881 PUSH1 0x8 SLOAD PUSH2 0x374C JUMP JUMPDEST PUSH1 0x8 SSTORE JUMPDEST PUSH2 0x2892 PUSH1 0x40 MLOAD DUP1 SWAP6 PUSH2 0x368B JUMP JUMPDEST PUSH1 0x20 DUP5 ADD SWAP1 PUSH2 0x368B JUMP JUMPDEST PUSH32 0x7D7E6E7DEA09C0EE8923E2D538421CDBBF648608C7A83027D359833AAC2E9950 PUSH1 0x40 CALLER SWAP4 LOG3 STOP JUMPDEST ISZERO DUP1 PUSH2 0x28E8 JUMPI JUMPDEST PUSH2 0x289C SWAP3 POP ISZERO PUSH2 0x2885 JUMPI PUSH2 0x28E0 PUSH1 0x8 SLOAD PUSH2 0x3727 JUMP JUMPDEST PUSH1 0x8 SSTORE PUSH2 0x2885 JUMP JUMPDEST POP SWAP1 PUSH2 0xB80 JUMPI DUP1 PUSH1 0x1 PUSH2 0x289C SWAP3 EQ PUSH2 0x28CB JUMP JUMPDEST POP PUSH1 0x0 SWAP3 POP PUSH1 0x1 DUP3 EQ ISZERO PUSH2 0x286B JUMP JUMPDEST PUSH1 0x40 CALLDATASIZE PUSH1 0x3 NOT ADD SLT PUSH2 0x20B JUMPI PUSH2 0x291E PUSH2 0x339B JUMP JUMPDEST PUSH1 0x24 CALLDATALOAD PUSH1 0x1 PUSH1 0x1 PUSH1 0x40 SHL SUB DUP2 GT PUSH2 0x20B JUMPI CALLDATASIZE PUSH1 0x23 DUP3 ADD SLT ISZERO PUSH2 0x20B JUMPI PUSH2 0x294E SWAP1 CALLDATASIZE SWAP1 PUSH1 0x24 DUP2 PUSH1 0x4 ADD CALLDATALOAD SWAP2 ADD PUSH2 0x3430 JUMP JUMPDEST SWAP1 PUSH1 0x1 PUSH1 0x1 PUSH1 0xA0 SHL SUB PUSH32 0x0 DUP2 AND ADDRESS DUP2 EQ SWAP1 DUP2 ISZERO PUSH2 0x2B0A JUMPI JUMPDEST POP PUSH2 0x27B9 JUMPI PUSH2 0x2992 PUSH2 0x3803 JUMP JUMPDEST PUSH1 0x40 MLOAD PUSH4 0x52D1902D PUSH1 0xE0 SHL DUP2 MSTORE SWAP1 DUP3 AND SWAP2 PUSH1 0x20 SWAP2 DUP3 DUP2 PUSH1 0x4 DUP2 DUP8 GAS STATICCALL PUSH1 0x0 SWAP2 DUP2 PUSH2 0x2ADB JUMPI JUMPDEST POP PUSH2 0x29D5 JUMPI PUSH1 0x40 MLOAD PUSH4 0x4C9C8CE3 PUSH1 0xE0 SHL DUP2 MSTORE PUSH1 0x4 DUP2 ADD DUP6 SWAP1 MSTORE PUSH1 0x24 SWAP1 REVERT JUMPDEST SWAP3 DUP5 SWAP4 PUSH32 0x360894A13BA1A3210667C828492DB98DCA3E2076CC3735A920A3CA505D382BBC SWAP1 DUP2 DUP2 SUB PUSH2 0x2AC3 JUMPI POP DUP3 EXTCODESIZE ISZERO PUSH2 0x2AAA JUMPI DUP1 SLOAD PUSH1 0x1 PUSH1 0x1 PUSH1 0xA0 SHL SUB NOT AND DUP3 OR SWAP1 SSTORE PUSH1 0x40 MLOAD SWAP1 PUSH32 0xBC7CD75A20EE27FD9ADEBAB32041F755214DBC6BFFA90CC0225B39DA2E5C2D3B PUSH1 0x0 DUP1 LOG2 DUP4 MLOAD ISZERO PUSH2 0x2A90 JUMPI POP PUSH1 0x0 DUP1 DUP5 DUP5 PUSH2 0xEDC SWAP7 MLOAD SWAP2 ADD DUP5 GAS DELEGATECALL SWAP1 RETURNDATASIZE ISZERO PUSH2 0x2A87 JUMPI RETURNDATASIZE PUSH2 0x2A6A DUP2 PUSH2 0x3415 JUMP JUMPDEST SWAP1 PUSH2 0x2A78 PUSH1 0x40 MLOAD SWAP3 DUP4 PUSH2 0x33F4 JUMP JUMPDEST DUP2 MSTORE PUSH1 0x0 DUP2 SWAP5 RETURNDATASIZE SWAP3 ADD RETURNDATACOPY PUSH2 0x3CE0 JUMP JUMPDEST PUSH1 0x60 SWAP3 POP PUSH2 0x3CE0 JUMP JUMPDEST SWAP3 POP POP POP CALLVALUE PUSH2 0x2A9B JUMPI STOP JUMPDEST PUSH4 0xB398979F PUSH1 0xE0 SHL DUP2 MSTORE PUSH1 0x4 SWAP1 REVERT JUMPDEST PUSH1 0x40 MLOAD PUSH4 0x4C9C8CE3 PUSH1 0xE0 SHL DUP2 MSTORE PUSH1 0x4 DUP2 ADD DUP4 SWAP1 MSTORE PUSH1 0x24 SWAP1 REVERT JUMPDEST PUSH1 0x24 SWAP1 PUSH1 0x40 MLOAD SWAP1 PUSH4 0x2A875269 PUSH1 0xE2 SHL DUP3 MSTORE PUSH1 0x4 DUP3 ADD MSTORE REVERT JUMPDEST SWAP1 SWAP2 POP DUP4 DUP2 DUP2 RETURNDATASIZE DUP4 GT PUSH2 0x2B03 JUMPI JUMPDEST PUSH2 0x2AF3 DUP2 DUP4 PUSH2 0x33F4 JUMP JUMPDEST DUP2 ADD SUB SLT PUSH2 0x20B JUMPI MLOAD SWAP1 DUP7 PUSH2 0x29B7 JUMP JUMPDEST POP RETURNDATASIZE PUSH2 0x2AE9 JUMP JUMPDEST SWAP1 POP DUP2 PUSH32 0x360894A13BA1A3210667C828492DB98DCA3E2076CC3735A920A3CA505D382BBC SLOAD AND EQ ISZERO DUP5 PUSH2 0x2985 JUMP JUMPDEST CALLVALUE PUSH2 0x20B JUMPI PUSH1 0x40 CALLDATASIZE PUSH1 0x3 NOT ADD SLT PUSH2 0x20B JUMPI PUSH1 0x4 CALLDATALOAD PUSH1 0x1 PUSH1 0x1 PUSH1 0x40 SHL SUB DUP2 GT PUSH2 0x20B JUMPI PUSH2 0x2B68 SWAP1 CALLDATASIZE SWAP1 PUSH1 0x4 ADD PUSH2 0x3467 JUMP JUMPDEST PUSH2 0x2B84 PUSH1 0x20 PUSH1 0x24 CALLDATALOAD SWAP3 DUP2 PUSH1 0x40 MLOAD SWAP4 DUP3 DUP6 DUP1 SWAP5 MLOAD SWAP4 DUP5 SWAP3 ADD PUSH2 0x3485 JUMP JUMPDEST DUP2 ADD PUSH1 0x4 DUP2 MSTORE SUB ADD SWAP1 KECCAK256 DUP1 SLOAD DUP3 LT ISZERO PUSH2 0x20B JUMPI PUSH1 0x20 SWAP2 PUSH2 0xF1C SWAP2 PUSH2 0x352C JUMP JUMPDEST CALLVALUE PUSH2 0x20B JUMPI PUSH1 0x0 CALLDATASIZE PUSH1 0x3 NOT ADD SLT PUSH2 0x20B JUMPI PUSH2 0x2BBC PUSH2 0x3803 JUMP JUMPDEST PUSH1 0x0 DUP1 MLOAD PUSH1 0x20 PUSH2 0x3D84 DUP4 CODECOPY DUP2 MLOAD SWAP2 MSTORE DUP1 SLOAD PUSH1 0xFF DUP2 AND ISZERO PUSH2 0x2C08 JUMPI PUSH1 0xFF NOT AND SWAP1 SSTORE PUSH32 0x5DB9EE0A495BF2E6FF9C91A7834C1BA4FDD244A5E8AA4E537BD38AEAE4B073AA PUSH1 0x20 PUSH1 0x40 MLOAD CALLER DUP2 MSTORE LOG1 STOP JUMPDEST PUSH1 0x40 MLOAD PUSH4 0x8DFC202B PUSH1 0xE0 SHL DUP2 MSTORE PUSH1 0x4 SWAP1 REVERT JUMPDEST CALLVALUE PUSH2 0x20B JUMPI PUSH1 0x20 DUP1 PUSH1 0x3 NOT CALLDATASIZE ADD SLT PUSH2 0x20B JUMPI PUSH1 0x4 CALLDATALOAD PUSH1 0x1 PUSH1 0x1 PUSH1 0x40 SHL SUB DUP2 GT PUSH2 0x20B JUMPI PUSH2 0x2C4D PUSH1 0x20 SWAP2 CALLDATASIZE SWAP1 PUSH1 0x4 ADD PUSH2 0x33C7 JUMP JUMPDEST SWAP2 SWAP1 DUP3 PUSH1 0x40 MLOAD SWAP4 DUP5 SWAP3 DUP4 CALLDATACOPY DUP2 ADD PUSH1 0x4 DUP2 MSTORE SUB ADD SWAP1 KECCAK256 SWAP1 PUSH1 0x40 MLOAD SWAP1 DUP2 PUSH1 0x20 DUP5 SLOAD SWAP2 DUP3 DUP2 MSTORE ADD SWAP4 PUSH1 0x0 MSTORE PUSH1 0x20 PUSH1 0x0 KECCAK256 SWAP2 PUSH1 0x0 SWAP1 JUMPDEST DUP3 DUP3 LT PUSH2 0x2C96 JUMPI PUSH2 0x280 DUP6 PUSH2 0x274 DUP2 DUP10 SUB DUP3 PUSH2 0x33F4 JUMP JUMPDEST DUP4 SLOAD PUSH1 0x1 PUSH1 0x1 PUSH1 0xA0 SHL SUB AND DUP7 MSTORE SWAP5 DUP6 ADD SWAP5 PUSH1 0x1 SWAP4 DUP5 ADD SWAP4 SWAP1 SWAP2 ADD SWAP1 PUSH2 0x2C7F JUMP JUMPDEST CALLVALUE PUSH2 0x20B JUMPI PUSH1 0x20 CALLDATASIZE PUSH1 0x3 NOT ADD SLT PUSH2 0x20B JUMPI PUSH1 0x1 PUSH1 0x1 PUSH1 0xA0 SHL SUB DUP1 PUSH2 0x2CD8 PUSH2 0x339B JUMP JUMPDEST AND PUSH1 0x0 MSTORE PUSH1 0x0 PUSH1 0x20 MSTORE PUSH1 0x40 PUSH1 0x0 KECCAK256 SWAP1 PUSH1 0x40 MLOAD SWAP1 DUP2 PUSH2 0x2CF6 DUP2 DUP6 PUSH2 0x35C3 JUMP JUMPDEST SUB PUSH2 0x2D01 SWAP1 DUP4 PUSH2 0x33F4 JUMP JUMPDEST PUSH1 0x1 DUP4 ADD SLOAD PUSH1 0x40 MLOAD PUSH1 0xFF SWAP1 SWAP2 AND SWAP4 DUP2 PUSH2 0x2D1D DUP2 PUSH1 0x2 DUP5 ADD PUSH2 0x35C3 JUMP JUMPDEST SUB PUSH2 0x2D28 SWAP1 DUP4 PUSH2 0x33F4 JUMP JUMPDEST PUSH1 0x40 MLOAD DUP1 PUSH2 0x2D39 DUP2 PUSH1 0x3 DUP6 ADD PUSH2 0x35C3 JUMP JUMPDEST SUB PUSH2 0x2D44 SWAP1 DUP3 PUSH2 0x33F4 JUMP JUMPDEST PUSH1 0x40 MLOAD SWAP4 DUP5 PUSH2 0x2D56 DUP2 PUSH1 0x4 DUP7 ADD PUSH2 0x35C3 JUMP JUMPDEST SUB PUSH2 0x2D61 SWAP1 DUP7 PUSH2 0x33F4 JUMP JUMPDEST PUSH1 0x40 MLOAD SWAP5 DUP6 PUSH2 0x2D73 DUP2 PUSH1 0x5 DUP8 ADD PUSH2 0x35C3 JUMP JUMPDEST SUB PUSH2 0x2D7E SWAP1 DUP8 PUSH2 0x33F4 JUMP JUMPDEST PUSH1 0x40 MLOAD DUP1 PUSH2 0x2D8F DUP2 PUSH1 0x6 DUP9 ADD PUSH2 0x35C3 JUMP JUMPDEST SUB PUSH2 0x2D9A SWAP1 DUP3 PUSH2 0x33F4 JUMP JUMPDEST PUSH1 0x7 DUP6 ADD SLOAD PUSH1 0xFF AND SWAP7 PUSH1 0x8 DUP7 ADD SLOAD SWAP3 PUSH1 0x9 DUP8 ADD SLOAD SWAP5 PUSH1 0xA DUP9 ADD SLOAD AND SWAP6 PUSH1 0xB DUP9 ADD SLOAD SWAP8 PUSH1 0xC ADD SLOAD SWAP9 PUSH1 0x40 MLOAD DUP1 SWAP14 DUP2 SWAP14 PUSH2 0x1A0 DUP1 DUP5 MSTORE DUP4 ADD PUSH2 0x2DD9 SWAP2 PUSH2 0x3659 JUMP JUMPDEST SWAP2 PUSH1 0x20 ADD PUSH2 0x2DE6 SWAP2 PUSH2 0x367E JUMP JUMPDEST DUP13 DUP2 SUB PUSH1 0x40 DUP15 ADD MSTORE PUSH2 0x2DF7 SWAP2 PUSH2 0x3659 JUMP JUMPDEST DUP12 DUP2 SUB PUSH1 0x60 DUP14 ADD MSTORE PUSH2 0x2E08 SWAP2 PUSH2 0x3659 JUMP JUMPDEST DUP11 DUP2 SUB PUSH1 0x80 DUP13 ADD MSTORE PUSH2 0x2E19 SWAP2 PUSH2 0x3659 JUMP JUMPDEST DUP10 DUP2 SUB PUSH1 0xA0 DUP12 ADD MSTORE PUSH2 0x2E2A SWAP2 PUSH2 0x3659 JUMP JUMPDEST DUP9 DUP2 SUB PUSH1 0xC0 DUP11 ADD MSTORE PUSH2 0x2E3B SWAP2 PUSH2 0x3659 JUMP JUMPDEST SWAP6 PUSH1 0xE0 DUP9 ADD PUSH2 0x2E49 SWAP2 PUSH2 0x368B JUMP JUMPDEST PUSH2 0x100 DUP8 ADD MSTORE PUSH2 0x120 DUP7 ADD MSTORE PUSH2 0x140 DUP6 ADD MSTORE PUSH2 0x160 DUP5 ADD MSTORE PUSH2 0x180 DUP4 ADD MSTORE SUB SWAP1 RETURN JUMPDEST CALLVALUE PUSH2 0x20B JUMPI PUSH1 0x40 CALLDATASIZE PUSH1 0x3 NOT ADD SLT PUSH2 0x20B JUMPI PUSH2 0x2E84 PUSH2 0x33B1 JUMP JUMPDEST CALLER PUSH1 0x1 PUSH1 0x1 PUSH1 0xA0 SHL SUB DUP3 AND SUB PUSH2 0x2EA0 JUMPI PUSH2 0xEDC SWAP1 PUSH1 0x4 CALLDATALOAD PUSH2 0x3B69 JUMP JUMPDEST PUSH1 0x40 MLOAD PUSH4 0x334BD919 PUSH1 0xE1 SHL DUP2 MSTORE PUSH1 0x4 SWAP1 REVERT JUMPDEST CALLVALUE PUSH2 0x20B JUMPI PUSH1 0x40 CALLDATASIZE PUSH1 0x3 NOT ADD SLT PUSH2 0x20B JUMPI PUSH2 0xEDC PUSH1 0x4 CALLDATALOAD PUSH2 0x2ED1 PUSH2 0x33B1 JUMP JUMPDEST SWAP1 DUP1 PUSH1 0x0 MSTORE PUSH1 0x0 DUP1 MLOAD PUSH1 0x20 PUSH2 0x3D64 DUP4 CODECOPY DUP2 MLOAD SWAP2 MSTORE PUSH1 0x20 MSTORE PUSH2 0x2EF9 PUSH1 0x1 PUSH1 0x40 PUSH1 0x0 KECCAK256 ADD SLOAD PUSH2 0x38D9 JUMP JUMPDEST PUSH2 0x3AF4 JUMP JUMPDEST CALLVALUE PUSH2 0x20B JUMPI PUSH1 0x20 CALLDATASIZE PUSH1 0x3 NOT ADD SLT PUSH2 0x20B JUMPI PUSH1 0x4 CALLDATALOAD PUSH1 0x0 MSTORE PUSH1 0x0 DUP1 MLOAD PUSH1 0x20 PUSH2 0x3D64 DUP4 CODECOPY DUP2 MLOAD SWAP2 MSTORE PUSH1 0x20 MSTORE PUSH1 0x20 PUSH1 0x1 PUSH1 0x40 PUSH1 0x0 KECCAK256 ADD SLOAD PUSH1 0x40 MLOAD SWAP1 DUP2 MSTORE RETURN JUMPDEST CALLVALUE PUSH2 0x20B JUMPI PUSH1 0x0 CALLDATASIZE PUSH1 0x3 NOT ADD SLT PUSH2 0x20B JUMPI PUSH1 0x20 PUSH1 0x9 SLOAD PUSH1 0x40 MLOAD SWAP1 DUP2 MSTORE RETURN JUMPDEST CALLVALUE PUSH2 0x20B JUMPI PUSH1 0x20 DUP1 PUSH1 0x3 NOT CALLDATASIZE ADD SLT PUSH2 0x20B JUMPI PUSH1 0x4 CALLDATALOAD PUSH1 0x7 DUP2 LT ISZERO PUSH2 0x20B JUMPI PUSH2 0x2F7F SWAP1 PUSH2 0x3698 JUMP JUMPDEST SWAP1 PUSH1 0x40 MLOAD SWAP1 DUP2 PUSH1 0x20 DUP5 SLOAD SWAP2 DUP3 DUP2 MSTORE ADD SWAP4 PUSH1 0x0 MSTORE PUSH1 0x20 PUSH1 0x0 KECCAK256 SWAP2 PUSH1 0x0 SWAP1 JUMPDEST DUP3 DUP3 LT PUSH2 0x2FB3 JUMPI PUSH2 0x280 DUP6 PUSH2 0x274 DUP2 DUP10 SUB DUP3 PUSH2 0x33F4 JUMP JUMPDEST DUP4 SLOAD PUSH1 0x1 PUSH1 0x1 PUSH1 0xA0 SHL SUB AND DUP7 MSTORE SWAP5 DUP6 ADD SWAP5 PUSH1 0x1 SWAP4 DUP5 ADD SWAP4 SWAP1 SWAP2 ADD SWAP1 PUSH2 0x2F9C JUMP JUMPDEST CALLVALUE PUSH2 0x20B JUMPI PUSH1 0x0 CALLDATASIZE PUSH1 0x3 NOT ADD SLT PUSH2 0x20B JUMPI PUSH1 0x20 PUSH1 0x7 SLOAD PUSH1 0x40 MLOAD SWAP1 DUP2 MSTORE RETURN JUMPDEST CALLVALUE PUSH2 0x20B JUMPI PUSH1 0x20 CALLDATASIZE PUSH1 0x3 NOT ADD SLT PUSH2 0x20B JUMPI PUSH1 0x4 CALLDATALOAD PUSH1 0x5 SLOAD DUP2 LT ISZERO PUSH2 0x20B JUMPI PUSH2 0xF1C PUSH1 0x20 SWAP2 PUSH2 0x34A8 JUMP JUMPDEST CALLVALUE PUSH2 0x20B JUMPI PUSH1 0x20 CALLDATASIZE PUSH1 0x3 NOT ADD SLT PUSH2 0x20B JUMPI PUSH1 0x4 CALLDATALOAD PUSH1 0x1 PUSH1 0x1 PUSH1 0x40 SHL SUB DUP2 GT PUSH2 0x20B JUMPI PUSH2 0x304C PUSH1 0x20 SWAP2 CALLDATASIZE SWAP1 PUSH1 0x4 ADD PUSH2 0x3467 JUMP JUMPDEST DUP2 PUSH2 0x3060 PUSH1 0x40 MLOAD SWAP3 DUP4 DUP2 MLOAD SWAP4 DUP5 SWAP3 ADD PUSH2 0x3485 JUMP JUMPDEST PUSH1 0x2 SWAP1 DUP3 ADD SWAP1 DUP2 MSTORE DUP2 SWAP1 SUB DUP3 ADD SWAP1 KECCAK256 SLOAD PUSH1 0x40 MLOAD PUSH1 0x1 PUSH1 0x1 PUSH1 0xA0 SHL SUB SWAP1 SWAP2 AND DUP2 MSTORE RETURN JUMPDEST CALLVALUE PUSH2 0x20B JUMPI PUSH1 0x60 CALLDATASIZE PUSH1 0x3 NOT ADD SLT PUSH2 0x20B JUMPI PUSH2 0x309B PUSH2 0x339B JUMP JUMPDEST PUSH1 0x1 PUSH1 0x1 PUSH1 0x40 SHL SUB SWAP1 PUSH1 0x24 CALLDATALOAD DUP3 DUP2 GT PUSH2 0x20B JUMPI PUSH2 0x30BC SWAP1 CALLDATASIZE SWAP1 PUSH1 0x4 ADD PUSH2 0x33C7 JUMP JUMPDEST SWAP3 PUSH1 0x44 CALLDATALOAD DUP2 DUP2 GT PUSH2 0x20B JUMPI PUSH2 0x30D5 SWAP1 CALLDATASIZE SWAP1 PUSH1 0x4 ADD PUSH2 0x33C7 JUMP JUMPDEST SWAP1 SWAP4 PUSH2 0x30DF PUSH2 0x37D8 JUMP JUMPDEST PUSH1 0x1 PUSH1 0x1 PUSH1 0xA0 SHL SUB AND SWAP3 CALLER DUP5 EQ ISZERO DUP1 PUSH2 0x330F JUMPI JUMPDEST PUSH2 0x32FD JUMPI DUP4 PUSH1 0x0 MSTORE PUSH1 0x20 SWAP6 PUSH1 0x0 DUP8 MSTORE PUSH1 0x8 PUSH1 0x40 PUSH1 0x0 KECCAK256 ADD SLOAD ISZERO PUSH2 0x1126 JUMPI DUP5 PUSH1 0x0 MSTORE PUSH1 0x0 DUP8 MSTORE PUSH1 0x6 PUSH1 0x40 PUSH1 0x0 KECCAK256 ADD SWAP2 DUP5 DUP3 GT PUSH2 0x963 JUMPI PUSH2 0x313C DUP3 PUSH2 0x3136 DUP6 SLOAD PUSH2 0x3589 JUMP JUMPDEST DUP6 PUSH2 0x36C8 JUMP JUMPDEST PUSH1 0x0 SWAP1 PUSH1 0x1F DUP4 GT PUSH1 0x1 EQ PUSH2 0x3296 JUMPI PUSH2 0x316C SWAP3 SWAP2 PUSH1 0x0 SWAP2 DUP4 PUSH2 0x328B JUMPI POP POP DUP2 PUSH1 0x1 SHL SWAP2 PUSH1 0x0 NOT SWAP1 PUSH1 0x3 SHL SHR NOT AND OR SWAP1 JUMP JUMPDEST SWAP1 SSTORE JUMPDEST DUP3 PUSH1 0x0 MSTORE PUSH1 0x0 DUP6 MSTORE PUSH1 0x5 PUSH1 0x40 PUSH1 0x0 KECCAK256 ADD SWAP2 DUP2 GT PUSH2 0x963 JUMPI PUSH2 0x3194 DUP2 PUSH2 0x11DC DUP5 SLOAD PUSH2 0x3589 JUMP JUMPDEST PUSH1 0x0 PUSH1 0x1F DUP3 GT PUSH1 0x1 EQ PUSH2 0x3226 JUMPI DUP2 SWAP1 PUSH2 0x31C5 SWAP4 SWAP5 SWAP6 PUSH1 0x0 SWAP3 PUSH2 0x321B JUMPI POP POP DUP2 PUSH1 0x1 SHL SWAP2 PUSH1 0x0 NOT SWAP1 PUSH1 0x3 SHL SHR NOT AND OR SWAP1 JUMP JUMPDEST SWAP1 SSTORE JUMPDEST DUP1 PUSH1 0x0 MSTORE PUSH1 0x0 DUP3 MSTORE TIMESTAMP PUSH1 0x9 PUSH1 0x40 PUSH1 0x0 KECCAK256 ADD SSTORE PUSH1 0x4 PUSH1 0x40 MLOAD SWAP3 DUP1 DUP5 MSTORE DUP4 ADD MSTORE PUSH4 0x696E666F PUSH1 0xE0 SHL PUSH1 0x40 DUP4 ADD MSTORE PUSH32 0x6A49A5041EDC130ED47DB6186BE8E6C94007DD71088C546A758FCE507E3A81C4 PUSH1 0x60 CALLER SWAP4 LOG3 STOP JUMPDEST ADD CALLDATALOAD SWAP1 POP DUP7 DUP1 PUSH2 0x4EB JUMP JUMPDEST PUSH1 0x1F NOT DUP3 AND SWAP5 DUP4 PUSH1 0x0 MSTORE DUP7 PUSH1 0x0 KECCAK256 SWAP2 PUSH1 0x0 JUMPDEST DUP9 DUP9 DUP3 LT PUSH2 0x3275 JUMPI POP POP DUP4 PUSH1 0x1 SWAP6 SWAP7 SWAP8 LT PUSH2 0x325B JUMPI JUMPDEST POP POP POP DUP2 SHL ADD SWAP1 SSTORE PUSH2 0x31C8 JUMP JUMPDEST ADD CALLDATALOAD PUSH1 0x0 NOT PUSH1 0x3 DUP5 SWAP1 SHL PUSH1 0xF8 AND SHR NOT AND SWAP1 SSTORE DUP6 DUP1 DUP1 PUSH2 0x324E JUMP JUMPDEST PUSH1 0x1 DUP4 SWAP6 DUP3 SWAP4 SWAP5 DUP7 ADD CALLDATALOAD DUP2 SSTORE ADD SWAP5 ADD SWAP2 ADD PUSH2 0x3238 JUMP JUMPDEST ADD CALLDATALOAD SWAP1 POP DUP10 DUP1 PUSH2 0x4EB JUMP JUMPDEST PUSH1 0x1F NOT DUP4 AND SWAP2 DUP5 PUSH1 0x0 MSTORE DUP10 PUSH1 0x0 KECCAK256 SWAP3 PUSH1 0x0 JUMPDEST DUP12 DUP3 DUP3 LT PUSH2 0x32E7 JUMPI POP POP SWAP1 DUP5 PUSH1 0x1 SWAP6 SWAP5 SWAP4 SWAP3 LT PUSH2 0x32CD JUMPI JUMPDEST POP POP POP DUP2 SHL ADD SWAP1 SSTORE PUSH2 0x316F JUMP JUMPDEST ADD CALLDATALOAD PUSH1 0x0 NOT PUSH1 0x3 DUP5 SWAP1 SHL PUSH1 0xF8 AND SHR NOT AND SWAP1 SSTORE DUP9 DUP1 DUP1 PUSH2 0x32C0 JUMP JUMPDEST PUSH1 0x1 DUP5 SWAP7 DUP3 SWAP4 SWAP6 DUP8 ADD CALLDATALOAD DUP2 SSTORE ADD SWAP6 ADD SWAP3 ADD PUSH2 0x32A8 JUMP JUMPDEST PUSH1 0x40 MLOAD PUSH4 0x1A27EAC3 PUSH1 0xE1 SHL DUP2 MSTORE PUSH1 0x4 SWAP1 REVERT JUMPDEST POP CALLER PUSH1 0x0 SWAP1 DUP2 MSTORE PUSH32 0xB16E88C42FD4E48DF2DD6A2EABD6BC9AEC654EC170056B470819F8892CC6431C PUSH1 0x20 MSTORE PUSH1 0x40 SWAP1 KECCAK256 SLOAD PUSH1 0xFF AND ISZERO PUSH2 0x30F3 JUMP JUMPDEST CALLVALUE PUSH2 0x20B JUMPI PUSH1 0x20 CALLDATASIZE PUSH1 0x3 NOT ADD SLT PUSH2 0x20B JUMPI PUSH1 0x4 CALLDATALOAD SWAP1 PUSH4 0xFFFFFFFF PUSH1 0xE0 SHL DUP3 AND DUP1 SWAP3 SUB PUSH2 0x20B JUMPI PUSH1 0x20 SWAP2 PUSH4 0x7965DB0B PUSH1 0xE0 SHL DUP2 EQ SWAP1 DUP2 ISZERO PUSH2 0x338A JUMPI JUMPDEST POP ISZERO ISZERO DUP2 MSTORE RETURN JUMPDEST PUSH4 0x1FFC9A7 PUSH1 0xE0 SHL EQ SWAP1 POP DUP4 PUSH2 0x3383 JUMP JUMPDEST PUSH1 0x4 CALLDATALOAD SWAP1 PUSH1 0x1 PUSH1 0x1 PUSH1 0xA0 SHL SUB DUP3 AND DUP3 SUB PUSH2 0x20B JUMPI JUMP JUMPDEST PUSH1 0x24 CALLDATALOAD SWAP1 PUSH1 0x1 PUSH1 0x1 PUSH1 0xA0 SHL SUB DUP3 AND DUP3 SUB PUSH2 0x20B JUMPI JUMP JUMPDEST SWAP2 DUP2 PUSH1 0x1F DUP5 ADD SLT ISZERO PUSH2 0x20B JUMPI DUP3 CALLDATALOAD SWAP2 PUSH1 0x1 PUSH1 0x1 PUSH1 0x40 SHL SUB DUP4 GT PUSH2 0x20B JUMPI PUSH1 0x20 DUP4 DUP2 DUP7 ADD SWAP6 ADD ADD GT PUSH2 0x20B JUMPI JUMP JUMPDEST SWAP1 PUSH1 0x1F DUP1 NOT SWAP2 ADD AND DUP2 ADD SWAP1 DUP2 LT PUSH1 0x1 PUSH1 0x1 PUSH1 0x40 SHL SUB DUP3 GT OR PUSH2 0x963 JUMPI PUSH1 0x40 MSTORE JUMP JUMPDEST PUSH1 0x1 PUSH1 0x1 PUSH1 0x40 SHL SUB DUP2 GT PUSH2 0x963 JUMPI PUSH1 0x1F ADD PUSH1 0x1F NOT AND PUSH1 0x20 ADD SWAP1 JUMP JUMPDEST SWAP3 SWAP2 SWAP3 PUSH2 0x343C DUP3 PUSH2 0x3415 JUMP JUMPDEST SWAP2 PUSH2 0x344A PUSH1 0x40 MLOAD SWAP4 DUP5 PUSH2 0x33F4 JUMP JUMPDEST DUP3 SWAP5 DUP2 DUP5 MSTORE DUP2 DUP4 ADD GT PUSH2 0x20B JUMPI DUP3 DUP2 PUSH1 0x20 SWAP4 DUP5 PUSH1 0x0 SWAP7 ADD CALLDATACOPY ADD ADD MSTORE JUMP JUMPDEST SWAP1 DUP1 PUSH1 0x1F DUP4 ADD SLT ISZERO PUSH2 0x20B JUMPI DUP2 PUSH1 0x20 PUSH2 0x3482 SWAP4 CALLDATALOAD SWAP2 ADD PUSH2 0x3430 JUMP JUMPDEST SWAP1 JUMP JUMPDEST PUSH1 0x0 JUMPDEST DUP4 DUP2 LT PUSH2 0x3498 JUMPI POP POP PUSH1 0x0 SWAP2 ADD MSTORE JUMP JUMPDEST DUP2 DUP2 ADD MLOAD DUP4 DUP3 ADD MSTORE PUSH1 0x20 ADD PUSH2 0x3488 JUMP JUMPDEST PUSH1 0x5 SLOAD DUP2 LT ISZERO PUSH2 0x34DF JUMPI PUSH1 0x5 PUSH1 0x0 MSTORE PUSH32 0x36B6384B5ECA791C62761152D0C79BB0604C104A5FB6F4EB0703F3154BB3DB0 ADD SWAP1 PUSH1 0x0 SWAP1 JUMP JUMPDEST PUSH4 0x4E487B71 PUSH1 0xE0 SHL PUSH1 0x0 MSTORE PUSH1 0x32 PUSH1 0x4 MSTORE PUSH1 0x24 PUSH1 0x0 REVERT JUMPDEST PUSH1 0x6 SLOAD DUP2 LT ISZERO PUSH2 0x34DF JUMPI PUSH1 0x6 PUSH1 0x0 MSTORE PUSH32 0xF652222313E28459528D920B65115C16C04F3EFC82AAEDC97BE59F3F377C0D3F ADD SWAP1 PUSH1 0x0 SWAP1 JUMP JUMPDEST DUP1 SLOAD DUP3 LT ISZERO PUSH2 0x34DF JUMPI PUSH1 0x0 MSTORE PUSH1 0x20 PUSH1 0x0 KECCAK256 ADD SWAP1 PUSH1 0x0 SWAP1 JUMP JUMPDEST PUSH1 0x20 SWAP1 PUSH1 0x20 PUSH1 0x40 DUP2 DUP4 ADD SWAP3 DUP3 DUP2 MSTORE DUP6 MLOAD DUP1 SWAP5 MSTORE ADD SWAP4 ADD SWAP2 PUSH1 0x0 JUMPDEST DUP3 DUP2 LT PUSH2 0x356C JUMPI POP POP POP POP SWAP1 JUMP JUMPDEST DUP4 MLOAD PUSH1 0x1 PUSH1 0x1 PUSH1 0xA0 SHL SUB AND DUP6 MSTORE SWAP4 DUP2 ADD SWAP4 SWAP3 DUP2 ADD SWAP3 PUSH1 0x1 ADD PUSH2 0x355E JUMP JUMPDEST SWAP1 PUSH1 0x1 DUP3 DUP2 SHR SWAP3 AND DUP1 ISZERO PUSH2 0x35B9 JUMPI JUMPDEST PUSH1 0x20 DUP4 LT EQ PUSH2 0x35A3 JUMPI JUMP JUMPDEST PUSH4 0x4E487B71 PUSH1 0xE0 SHL PUSH1 0x0 MSTORE PUSH1 0x22 PUSH1 0x4 MSTORE PUSH1 0x24 PUSH1 0x0 REVERT JUMPDEST SWAP2 PUSH1 0x7F AND SWAP2 PUSH2 0x3598 JUMP JUMPDEST DUP1 SLOAD PUSH1 0x0 SWAP4 SWAP3 PUSH2 0x35D2 DUP3 PUSH2 0x3589 JUMP JUMPDEST SWAP2 DUP3 DUP3 MSTORE PUSH1 0x20 SWAP4 PUSH1 0x1 SWAP2 PUSH1 0x1 DUP2 AND SWAP1 DUP2 PUSH1 0x0 EQ PUSH2 0x363A JUMPI POP PUSH1 0x1 EQ PUSH2 0x35F9 JUMPI JUMPDEST POP POP POP POP POP JUMP JUMPDEST SWAP1 SWAP4 SWAP5 SWAP6 POP PUSH1 0x0 SWAP3 SWAP2 SWAP3 MSTORE DUP4 PUSH1 0x0 KECCAK256 SWAP3 DUP5 PUSH1 0x0 SWAP5 JUMPDEST DUP4 DUP7 LT PUSH2 0x3626 JUMPI POP POP POP POP ADD ADD SWAP1 CODESIZE DUP1 DUP1 DUP1 DUP1 PUSH2 0x35F2 JUMP JUMPDEST DUP1 SLOAD DUP6 DUP8 ADD DUP4 ADD MSTORE SWAP5 ADD SWAP4 DUP6 SWAP1 DUP3 ADD PUSH2 0x360E JUMP JUMPDEST PUSH1 0xFF NOT AND DUP7 DUP6 ADD MSTORE POP POP POP SWAP1 ISZERO ISZERO PUSH1 0x5 SHL ADD ADD SWAP2 POP CODESIZE DUP1 DUP1 DUP1 DUP1 PUSH2 0x35F2 JUMP JUMPDEST SWAP1 PUSH1 0x20 SWAP2 PUSH2 0x3672 DUP2 MLOAD DUP1 SWAP3 DUP2 DUP6 MSTORE DUP6 DUP1 DUP7 ADD SWAP2 ADD PUSH2 0x3485 JUMP JUMPDEST PUSH1 0x1F ADD PUSH1 0x1F NOT AND ADD ADD SWAP1 JUMP JUMPDEST SWAP1 PUSH1 0x7 DUP3 LT ISZERO PUSH2 0xB80 JUMPI MSTORE JUMP JUMPDEST SWAP1 PUSH1 0x4 DUP3 LT ISZERO PUSH2 0xB80 JUMPI MSTORE JUMP JUMPDEST PUSH1 0x7 DUP2 LT ISZERO PUSH2 0xB80 JUMPI PUSH1 0x0 MSTORE PUSH1 0x3 PUSH1 0x20 MSTORE PUSH1 0x40 PUSH1 0x0 KECCAK256 SWAP1 JUMP JUMPDEST DUP2 DUP2 LT PUSH2 0x36BC JUMPI POP POP JUMP JUMPDEST PUSH1 0x0 DUP2 SSTORE PUSH1 0x1 ADD PUSH2 0x36B1 JUMP JUMPDEST SWAP2 SWAP1 PUSH1 0x1F DUP2 GT PUSH2 0x36D7 JUMPI POP POP POP JUMP JUMPDEST PUSH2 0x3703 SWAP3 PUSH1 0x0 MSTORE PUSH1 0x20 PUSH1 0x0 KECCAK256 SWAP1 PUSH1 0x20 PUSH1 0x1F DUP5 ADD PUSH1 0x5 SHR DUP4 ADD SWAP4 LT PUSH2 0x3705 JUMPI JUMPDEST PUSH1 0x1F ADD PUSH1 0x5 SHR ADD SWAP1 PUSH2 0x36B1 JUMP JUMPDEST JUMP JUMPDEST SWAP1 SWAP2 POP DUP2 SWAP1 PUSH2 0x36F6 JUMP JUMPDEST SWAP1 PUSH1 0x4 DUP2 LT ISZERO PUSH2 0xB80 JUMPI PUSH1 0xFF DUP1 NOT DUP4 SLOAD AND SWAP2 AND OR SWAP1 SSTORE JUMP JUMPDEST PUSH1 0x0 NOT DUP2 EQ PUSH2 0x3736 JUMPI PUSH1 0x1 ADD SWAP1 JUMP JUMPDEST PUSH4 0x4E487B71 PUSH1 0xE0 SHL PUSH1 0x0 MSTORE PUSH1 0x11 PUSH1 0x4 MSTORE PUSH1 0x24 PUSH1 0x0 REVERT JUMPDEST DUP1 ISZERO PUSH2 0x3736 JUMPI PUSH1 0x0 NOT ADD SWAP1 JUMP JUMPDEST PUSH1 0x7 DUP3 LT ISZERO PUSH2 0xB80 JUMPI MSTORE JUMP JUMPDEST PUSH1 0x1 PUSH1 0x1 PUSH1 0x40 SHL SUB DUP2 GT PUSH2 0x963 JUMPI PUSH1 0x5 SHL PUSH1 0x20 ADD SWAP1 JUMP JUMPDEST SWAP1 PUSH1 0x7 DUP2 LT ISZERO PUSH2 0xB80 JUMPI PUSH1 0xFF DUP1 NOT DUP4 SLOAD AND SWAP2 AND OR SWAP1 SSTORE JUMP JUMPDEST SWAP1 DUP2 SLOAD SWAP2 PUSH1 0x1 PUSH1 0x40 SHL DUP4 LT ISZERO PUSH2 0x963 JUMPI DUP3 PUSH2 0x89F SWAP2 PUSH1 0x1 PUSH2 0x3703 SWAP6 ADD DUP2 SSTORE PUSH2 0x352C JUMP JUMPDEST SWAP1 DUP1 PUSH1 0x20 SWAP4 SWAP3 DUP2 DUP5 MSTORE DUP5 DUP5 ADD CALLDATACOPY PUSH1 0x0 DUP3 DUP3 ADD DUP5 ADD MSTORE PUSH1 0x1F ADD PUSH1 0x1F NOT AND ADD ADD SWAP1 JUMP JUMPDEST PUSH1 0xFF PUSH1 0x0 DUP1 MLOAD PUSH1 0x20 PUSH2 0x3D84 DUP4 CODECOPY DUP2 MLOAD SWAP2 MSTORE SLOAD AND PUSH2 0x37F1 JUMPI JUMP JUMPDEST PUSH1 0x40 MLOAD PUSH4 0xD93C0665 PUSH1 0xE0 SHL DUP2 MSTORE PUSH1 0x4 SWAP1 REVERT JUMPDEST CALLER PUSH1 0x0 SWAP1 DUP2 MSTORE PUSH32 0xB16E88C42FD4E48DF2DD6A2EABD6BC9AEC654EC170056B470819F8892CC6431C PUSH1 0x20 MSTORE PUSH1 0x40 SWAP1 KECCAK256 SLOAD PUSH32 0xA49807205CE4D355092EF5A8A18F56E8913CF4A201FBE287825B095693C21775 SWAP1 PUSH1 0xFF AND ISZERO PUSH2 0x385F JUMPI POP JUMP JUMPDEST PUSH1 0x44 SWAP1 PUSH1 0x40 MLOAD SWAP1 PUSH4 0xE2517D3F PUSH1 0xE0 SHL DUP3 MSTORE CALLER PUSH1 0x4 DUP4 ADD MSTORE PUSH1 0x24 DUP3 ADD MSTORE REVERT JUMPDEST CALLER PUSH1 0x0 SWAP1 DUP2 MSTORE PUSH32 0x7966F2AB141347034724E9B2A472C2F77F5CD745AEBA27CACBA797B8FCB7086 PUSH1 0x20 MSTORE PUSH1 0x40 SWAP1 KECCAK256 SLOAD PUSH32 0xEDCC084D3DCD65A1F7F23C65C46722FACA6953D28E43150A467CF43E5C309238 SWAP1 PUSH1 0xFF AND ISZERO PUSH2 0x385F JUMPI POP JUMP JUMPDEST DUP1 PUSH1 0x0 MSTORE PUSH1 0x0 DUP1 MLOAD PUSH1 0x20 PUSH2 0x3D64 DUP4 CODECOPY DUP2 MLOAD SWAP2 MSTORE PUSH1 0x20 MSTORE PUSH1 0x40 PUSH1 0x0 KECCAK256 CALLER PUSH1 0x0 MSTORE PUSH1 0x20 MSTORE PUSH1 0xFF PUSH1 0x40 PUSH1 0x0 KECCAK256 SLOAD AND ISZERO PUSH2 0x385F JUMPI POP JUMP JUMPDEST PUSH1 0x1 PUSH1 0x1 PUSH1 0xA0 SHL SUB AND PUSH1 0x0 DUP2 DUP2 MSTORE PUSH32 0xB7DB2DD08FCB62D0C9E08C51941CAE53C267786A0B75803FB7960902FC8EF97D PUSH1 0x20 MSTORE PUSH1 0x40 DUP2 KECCAK256 SLOAD SWAP1 SWAP2 SWAP1 PUSH1 0x0 DUP1 MLOAD PUSH1 0x20 PUSH2 0x3D64 DUP4 CODECOPY DUP2 MLOAD SWAP2 MSTORE SWAP1 PUSH1 0xFF AND PUSH2 0x3995 JUMPI DUP3 DUP1 MSTORE PUSH1 0x20 MSTORE PUSH1 0x40 DUP3 KECCAK256 DUP2 DUP4 MSTORE PUSH1 0x20 MSTORE PUSH1 0x40 DUP3 KECCAK256 PUSH1 0x1 PUSH1 0xFF NOT DUP3 SLOAD AND OR SWAP1 SSTORE CALLER SWAP2 PUSH1 0x0 DUP1 MLOAD PUSH1 0x20 PUSH2 0x3D44 DUP4 CODECOPY DUP2 MLOAD SWAP2 MSTORE DUP2 DUP1 LOG4 PUSH1 0x1 SWAP1 JUMP JUMPDEST POP POP SWAP1 JUMP JUMPDEST PUSH1 0x1 PUSH1 0x1 PUSH1 0xA0 SHL SUB AND PUSH1 0x0 DUP2 DUP2 MSTORE PUSH32 0xB16E88C42FD4E48DF2DD6A2EABD6BC9AEC654EC170056B470819F8892CC6431C PUSH1 0x20 MSTORE PUSH1 0x40 DUP2 KECCAK256 SLOAD SWAP1 SWAP2 SWAP1 PUSH32 0xA49807205CE4D355092EF5A8A18F56E8913CF4A201FBE287825B095693C21775 SWAP1 PUSH1 0x0 DUP1 MLOAD PUSH1 0x20 PUSH2 0x3D64 DUP4 CODECOPY DUP2 MLOAD SWAP2 MSTORE SWAP1 PUSH1 0xFF AND PUSH2 0x3A44 JUMPI DUP2 DUP5 MSTORE PUSH1 0x20 MSTORE PUSH1 0x40 DUP4 KECCAK256 DUP3 DUP5 MSTORE PUSH1 0x20 MSTORE PUSH1 0x40 DUP4 KECCAK256 PUSH1 0x1 PUSH1 0xFF NOT DUP3 SLOAD AND OR SWAP1 SSTORE PUSH1 0x0 DUP1 MLOAD PUSH1 0x20 PUSH2 0x3D44 DUP4 CODECOPY DUP2 MLOAD SWAP2 MSTORE CALLER SWAP4 DUP1 LOG4 PUSH1 0x1 SWAP1 JUMP JUMPDEST POP POP POP SWAP1 JUMP JUMPDEST PUSH1 0x1 PUSH1 0x1 PUSH1 0xA0 SHL SUB AND PUSH1 0x0 DUP2 DUP2 MSTORE PUSH32 0x7966F2AB141347034724E9B2A472C2F77F5CD745AEBA27CACBA797B8FCB7086 PUSH1 0x20 MSTORE PUSH1 0x40 DUP2 KECCAK256 SLOAD SWAP1 SWAP2 SWAP1 PUSH32 0xEDCC084D3DCD65A1F7F23C65C46722FACA6953D28E43150A467CF43E5C309238 SWAP1 PUSH1 0x0 DUP1 MLOAD PUSH1 0x20 PUSH2 0x3D64 DUP4 CODECOPY DUP2 MLOAD SWAP2 MSTORE SWAP1 PUSH1 0xFF AND PUSH2 0x3A44 JUMPI DUP2 DUP5 MSTORE PUSH1 0x20 MSTORE PUSH1 0x40 DUP4 KECCAK256 DUP3 DUP5 MSTORE PUSH1 0x20 MSTORE PUSH1 0x40 DUP4 KECCAK256 PUSH1 0x1 PUSH1 0xFF NOT DUP3 SLOAD AND OR SWAP1 SSTORE PUSH1 0x0 DUP1 MLOAD PUSH1 0x20 PUSH2 0x3D44 DUP4 CODECOPY DUP2 MLOAD SWAP2 MSTORE CALLER SWAP4 DUP1 LOG4 PUSH1 0x1 SWAP1 JUMP JUMPDEST SWAP1 PUSH1 0x0 SWAP2 DUP1 DUP4 MSTORE PUSH1 0x0 DUP1 MLOAD PUSH1 0x20 PUSH2 0x3D64 DUP4 CODECOPY DUP2 MLOAD SWAP2 MSTORE DUP1 PUSH1 0x20 MSTORE PUSH1 0x40 DUP5 KECCAK256 SWAP3 PUSH1 0x1 DUP1 PUSH1 0xA0 SHL SUB AND SWAP3 DUP4 DUP6 MSTORE PUSH1 0x20 MSTORE PUSH1 0xFF PUSH1 0x40 DUP6 KECCAK256 SLOAD AND ISZERO PUSH1 0x0 EQ PUSH2 0x3A44 JUMPI DUP2 DUP5 MSTORE PUSH1 0x20 MSTORE PUSH1 0x40 DUP4 KECCAK256 DUP3 DUP5 MSTORE PUSH1 0x20 MSTORE PUSH1 0x40 DUP4 KECCAK256 PUSH1 0x1 PUSH1 0xFF NOT DUP3 SLOAD AND OR SWAP1 SSTORE PUSH1 0x0 DUP1 MLOAD PUSH1 0x20 PUSH2 0x3D44 DUP4 CODECOPY DUP2 MLOAD SWAP2 MSTORE CALLER SWAP4 DUP1 LOG4 PUSH1 0x1 SWAP1 JUMP JUMPDEST SWAP1 PUSH1 0x0 SWAP2 DUP1 DUP4 MSTORE PUSH1 0x0 DUP1 MLOAD PUSH1 0x20 PUSH2 0x3D64 DUP4 CODECOPY DUP2 MLOAD SWAP2 MSTORE DUP1 PUSH1 0x20 MSTORE PUSH1 0x40 DUP5 KECCAK256 SWAP3 PUSH1 0x1 DUP1 PUSH1 0xA0 SHL SUB AND SWAP3 DUP4 DUP6 MSTORE PUSH1 0x20 MSTORE PUSH1 0xFF PUSH1 0x40 DUP6 KECCAK256 SLOAD AND PUSH1 0x0 EQ PUSH2 0x3A44 JUMPI DUP2 DUP5 MSTORE PUSH1 0x20 MSTORE PUSH1 0x40 DUP4 KECCAK256 DUP3 DUP5 MSTORE PUSH1 0x20 MSTORE PUSH1 0x40 DUP4 KECCAK256 PUSH1 0xFF NOT DUP2 SLOAD AND SWAP1 SSTORE PUSH32 0xF6391F5C32D9C69D2A47EA670B442974B53935D1EDC7FD64EB21E047A839171B CALLER SWAP4 DUP1 LOG4 PUSH1 0x1 SWAP1 JUMP JUMPDEST PUSH1 0x0 SWAP1 JUMPDEST PUSH1 0x6 SWAP2 DUP3 SLOAD SWAP3 DUP4 DUP3 LT ISZERO PUSH2 0x3C99 JUMPI PUSH2 0x3C07 DUP3 PUSH2 0x34F5 JUMP JUMPDEST SWAP1 SLOAD PUSH1 0x3 SWAP6 PUSH1 0x1 PUSH1 0x1 PUSH1 0xA0 SHL SUB SWAP3 SWAP1 SWAP2 SWAP1 DUP8 SHL SHR DUP3 AND DUP6 DUP4 AND EQ PUSH2 0x3C32 JUMPI POP POP POP PUSH1 0x1 ADD SWAP2 POP PUSH2 0x3BF0 JUMP JUMPDEST SWAP2 SWAP4 POP SWAP2 PUSH1 0x0 NOT SWAP2 DUP3 DUP2 ADD SWAP2 SWAP1 DUP3 GT PUSH2 0x3736 JUMPI PUSH2 0x89F DUP5 PUSH2 0x3C55 PUSH2 0x3C62 SWAP5 PUSH2 0x34F5 JUMP JUMPDEST SWAP1 SLOAD SWAP1 DUP10 SHL SHR AND SWAP2 PUSH2 0x34F5 JUMP JUMPDEST DUP3 SLOAD DUP1 ISZERO PUSH2 0x3C83 JUMPI ADD SWAP3 PUSH2 0x3C75 DUP5 PUSH2 0x34F5 JUMP JUMPDEST DUP2 SWAP4 SWAP2 SLOAD SWAP3 SHL SHL NOT AND SWAP1 SSTORE SSTORE JUMP JUMPDEST PUSH4 0x4E487B71 PUSH1 0xE0 SHL PUSH1 0x0 MSTORE PUSH1 0x31 PUSH1 0x4 MSTORE PUSH1 0x24 PUSH1 0x0 REVERT JUMPDEST POP POP POP POP JUMP JUMPDEST PUSH1 0xFF PUSH32 0xF0C57E16840DF040F15088DC2F81FE391C3923BEC73E23A9662EFC9C229C6A00 SLOAD PUSH1 0x40 SHR AND ISZERO PUSH2 0x3CCE JUMPI JUMP JUMPDEST PUSH1 0x40 MLOAD PUSH4 0x1AFCD79F PUSH1 0xE3 SHL DUP2 MSTORE PUSH1 0x4 SWAP1 REVERT JUMPDEST SWAP1 PUSH2 0x3D07 JUMPI POP DUP1 MLOAD ISZERO PUSH2 0x3CF5 JUMPI PUSH1 0x20 DUP2 MLOAD SWAP2 ADD REVERT JUMPDEST PUSH1 0x40 MLOAD PUSH4 0xD6BDA275 PUSH1 0xE0 SHL DUP2 MSTORE PUSH1 0x4 SWAP1 REVERT JUMPDEST DUP2 MLOAD ISZERO DUP1 PUSH2 0x3D3A JUMPI JUMPDEST PUSH2 0x3D18 JUMPI POP SWAP1 JUMP JUMPDEST PUSH1 0x40 MLOAD PUSH4 0x9996B315 PUSH1 0xE0 SHL DUP2 MSTORE PUSH1 0x1 PUSH1 0x1 PUSH1 0xA0 SHL SUB SWAP1 SWAP2 AND PUSH1 0x4 DUP3 ADD MSTORE PUSH1 0x24 SWAP1 REVERT JUMPDEST POP DUP1 EXTCODESIZE ISZERO PUSH2 0x3D10 JUMP INVALID 0x2F DUP8 DUP9 GT PUSH31 0x7EFF1D82E926EC794901D17C78024A50270940304540A733656F0D02DD7BC7 0xDE 0xC4 0xDC 0xEE 0xDD 0xA7 PUSH22 0xE58DD541E08A116C6C53815C0BD028192F7B626800CD 0x5E 0xD1 0x5C PUSH15 0x187E77E9AEE88184C21F4F2182AB58 0x27 0xCB EXTCODESIZE PUSH31 0x7FBEDCD63F03300A264697066735822122066FDBF6E89F068A41486C8BCC1 DUP13 PUSH26 0x758E158E2B7CBDF3FE9D590F98554708B264736F6C6343000816 STOP CALLER "},"methodIdentifiers":{"ADMIN_ROLE()":"75b238fc","AUDITOR_ROLE()":"6e1d616e","DEFAULT_ADMIN_ROLE()":"a217fddf","REGISTRAR_ROLE()":"f68e9553","UPGRADE_INTERFACE_VERSION()":"ad3cb1cc","activeAuthorities()":"ff15e011","allAuthorities(uint256)":"08e52d58","applications(address)":"7c3bf42d","approveApplication(address)":"e3ae4d0a","authoritiesByCountry(string,uint256)":"43c224fa","authoritiesByType(uint8,uint256)":"d3658dc2","getAllAuthorities()":"fedf2c56","getApplication(address)":"879a2d2a","getAuthoritiesByCountry(string)":"3a4e2613","getAuthoritiesByType(uint8)":"1afd6957","getAuthority(address)":"5fabcaaf","getPendingApplications()":"6630d3ab","getRegistryStats()":"9de0963d","getRoleAdmin(bytes32)":"248a9ca3","grantRole(bytes32,address)":"2f2ff15d","hasRole(bytes32,address)":"91d14854","healthAuthorities(address)":"39cc49df","initialize(address)":"c4d66de8","isActiveAuthority(address)":"cb38e1a9","nameToAddress(string)":"08d88aad","pause()":"8456cb59","paused()":"5c975abb","pendingApplications(uint256)":"940cc397","pendingApplicationsCount()":"1febde3d","proxiableUUID()":"52d1902d","recordHealthRecordIssued(address)":"c35ed8a6","recordHealthRecordRevoked(address)":"71e1f32f","rejectApplication(address,string)":"be4f6c39","renounceRole(bytes32,address)":"36568abe","revokeRole(bytes32,address)":"d547741f","submitApplication(string,uint8,string,string,bytes,string,string,string[])":"aaf40bd5","supportsInterface(bytes4)":"01ffc9a7","totalAuthorities()":"1427e441","unpause()":"3f4ba83a","updateAuthorityInfo(address,string,string)":"0369f703","updateAuthorityStatus(address,uint8)":"528fd91a","upgradeToAndCall(address,bytes)":"4f1ef286"}},"storageLayout":{"storage":[{"astId":2379,"contract":"contracts/HealthAuthorityRegistry.sol:HealthAuthorityRegistry","label":"healthAuthorities","offset":0,"slot":"0","type":"t_mapping(t_address,t_struct(HealthAuthority)2347_storage)"},{"astId":2384,"contract":"contracts/HealthAuthorityRegistry.sol:HealthAuthorityRegistry","label":"applications","offset":0,"slot":"1","type":"t_mapping(t_address,t_struct(AuthorityApplication)2374_storage)"},{"astId":2388,"contract":"contracts/HealthAuthorityRegistry.sol:HealthAuthorityRegistry","label":"nameToAddress","offset":0,"slot":"2","type":"t_mapping(t_string_memory_ptr,t_address)"},{"astId":2394,"contract":"contracts/HealthAuthorityRegistry.sol:HealthAuthorityRegistry","label":"authoritiesByType","offset":0,"slot":"3","type":"t_mapping(t_enum(AuthorityType)2310,t_array(t_address)dyn_storage)"},{"astId":2399,"contract":"contracts/HealthAuthorityRegistry.sol:HealthAuthorityRegistry","label":"authoritiesByCountry","offset":0,"slot":"4","type":"t_mapping(t_string_memory_ptr,t_array(t_address)dyn_storage)"},{"astId":2402,"contract":"contracts/HealthAuthorityRegistry.sol:HealthAuthorityRegistry","label":"allAuthorities","offset":0,"slot":"5","type":"t_array(t_address)dyn_storage"},{"astId":2405,"contract":"contracts/HealthAuthorityRegistry.sol:HealthAuthorityRegistry","label":"pendingApplications","offset":0,"slot":"6","type":"t_array(t_address)dyn_storage"},{"astId":2407,"contract":"contracts/HealthAuthorityRegistry.sol:HealthAuthorityRegistry","label":"totalAuthorities","offset":0,"slot":"7","type":"t_uint256"},{"astId":2409,"contract":"contracts/HealthAuthorityRegistry.sol:HealthAuthorityRegistry","label":"activeAuthorities","offset":0,"slot":"8","type":"t_uint256"},{"astId":2411,"contract":"contracts/HealthAuthorityRegistry.sol:HealthAuthorityRegistry","label":"pendingApplicationsCount","offset":0,"slot":"9","type":"t_uint256"}],"types":{"t_address":{"encoding":"inplace","label":"address","numberOfBytes":"20"},"t_array(t_address)dyn_storage":{"base":"t_address","encoding":"dynamic_array","label":"address[]","numberOfBytes":"32"},"t_array(t_string_storage)dyn_storage":{"base":"t_string_storage","encoding":"dynamic_array","label":"string[]","numberOfBytes":"32"},"t_bool":{"encoding":"inplace","label":"bool","numberOfBytes":"1"},"t_bytes_storage":{"encoding":"bytes","label":"bytes","numberOfBytes":"32"},"t_enum(AuthorityStatus)2315":{"encoding":"inplace","label":"enum HealthAuthorityRegistry.AuthorityStatus","numberOfBytes":"1"},"t_enum(AuthorityType)2310":{"encoding":"inplace","label":"enum HealthAuthorityRegistry.AuthorityType","numberOfBytes":"1"},"t_mapping(t_address,t_struct(AuthorityApplication)2374_storage)":{"encoding":"mapping","key":"t_address","label":"mapping(address => struct HealthAuthorityRegistry.AuthorityApplication)","numberOfBytes":"32","value":"t_struct(AuthorityApplication)2374_storage"},"t_mapping(t_address,t_struct(HealthAuthority)2347_storage)":{"encoding":"mapping","key":"t_address","label":"mapping(address => struct HealthAuthorityRegistry.HealthAuthority)","numberOfBytes":"32","value":"t_struct(HealthAuthority)2347_storage"},"t_mapping(t_enum(AuthorityType)2310,t_array(t_address)dyn_storage)":{"encoding":"mapping","key":"t_enum(AuthorityType)2310","label":"mapping(enum HealthAuthorityRegistry.AuthorityType => address[])","numberOfBytes":"32","value":"t_array(t_address)dyn_storage"},"t_mapping(t_string_memory_ptr,t_address)":{"encoding":"mapping","key":"t_string_memory_ptr","label":"mapping(string => address)","numberOfBytes":"32","value":"t_address"},"t_mapping(t_string_memory_ptr,t_array(t_address)dyn_storage)":{"encoding":"mapping","key":"t_string_memory_ptr","label":"mapping(string => address[])","numberOfBytes":"32","value":"t_array(t_address)dyn_storage"},"t_string_memory_ptr":{"encoding":"bytes","label":"string","numberOfBytes":"32"},"t_string_storage":{"encoding":"bytes","label":"string","numberOfBytes":"32"},"t_struct(AuthorityApplication)2374_storage":{"encoding":"inplace","label":"struct HealthAuthorityRegistry.AuthorityApplication","members":[{"astId":2349,"contract":"contracts/HealthAuthorityRegistry.sol:HealthAuthorityRegistry","label":"applicant","offset":0,"slot":"0","type":"t_address"},{"astId":2351,"contract":"contracts/HealthAuthorityRegistry.sol:HealthAuthorityRegistry","label":"name","offset":0,"slot":"1","type":"t_string_storage"},{"astId":2354,"contract":"contracts/HealthAuthorityRegistry.sol:HealthAuthorityRegistry","label":"authorityType","offset":0,"slot":"2","type":"t_enum(AuthorityType)2310"},{"astId":2356,"contract":"contracts/HealthAuthorityRegistry.sol:HealthAuthorityRegistry","label":"country","offset":0,"slot":"3","type":"t_string_storage"},{"astId":2358,"contract":"contracts/HealthAuthorityRegistry.sol:HealthAuthorityRegistry","label":"region","offset":0,"slot":"4","type":"t_string_storage"},{"astId":2360,"contract":"contracts/HealthAuthorityRegistry.sol:HealthAuthorityRegistry","label":"publicKey","offset":0,"slot":"5","type":"t_bytes_storage"},{"astId":2362,"contract":"contracts/HealthAuthorityRegistry.sol:HealthAuthorityRegistry","label":"certificateHash","offset":0,"slot":"6","type":"t_string_storage"},{"astId":2364,"contract":"contracts/HealthAuthorityRegistry.sol:HealthAuthorityRegistry","label":"contactInfo","offset":0,"slot":"7","type":"t_string_storage"},{"astId":2367,"contract":"contracts/HealthAuthorityRegistry.sol:HealthAuthorityRegistry","label":"accreditations","offset":0,"slot":"8","type":"t_array(t_string_storage)dyn_storage"},{"astId":2369,"contract":"contracts/HealthAuthorityRegistry.sol:HealthAuthorityRegistry","label":"appliedAt","offset":0,"slot":"9","type":"t_uint256"},{"astId":2371,"contract":"contracts/HealthAuthorityRegistry.sol:HealthAuthorityRegistry","label":"isProcessed","offset":0,"slot":"10","type":"t_bool"},{"astId":2373,"contract":"contracts/HealthAuthorityRegistry.sol:HealthAuthorityRegistry","label":"rejectionReason","offset":0,"slot":"11","type":"t_string_storage"}],"numberOfBytes":"384"},"t_struct(HealthAuthority)2347_storage":{"encoding":"inplace","label":"struct HealthAuthorityRegistry.HealthAuthority","members":[{"astId":2317,"contract":"contracts/HealthAuthorityRegistry.sol:HealthAuthorityRegistry","label":"name","offset":0,"slot":"0","type":"t_string_storage"},{"astId":2320,"contract":"contracts/HealthAuthorityRegistry.sol:HealthAuthorityRegistry","label":"authorityType","offset":0,"slot":"1","type":"t_enum(AuthorityType)2310"},{"astId":2322,"contract":"contracts/HealthAuthorityRegistry.sol:HealthAuthorityRegistry","label":"country","offset":0,"slot":"2","type":"t_string_storage"},{"astId":2324,"contract":"contracts/HealthAuthorityRegistry.sol:HealthAuthorityRegistry","label":"region","offset":0,"slot":"3","type":"t_string_storage"},{"astId":2326,"contract":"contracts/HealthAuthorityRegistry.sol:HealthAuthorityRegistry","label":"publicKey","offset":0,"slot":"4","type":"t_bytes_storage"},{"astId":2328,"contract":"contracts/HealthAuthorityRegistry.sol:HealthAuthorityRegistry","label":"certificateHash","offset":0,"slot":"5","type":"t_string_storage"},{"astId":2330,"contract":"contracts/HealthAuthorityRegistry.sol:HealthAuthorityRegistry","label":"contactInfo","offset":0,"slot":"6","type":"t_string_storage"},{"astId":2333,"contract":"contracts/HealthAuthorityRegistry.sol:HealthAuthorityRegistry","label":"status","offset":0,"slot":"7","type":"t_enum(AuthorityStatus)2315"},{"astId":2335,"contract":"contracts/HealthAuthorityRegistry.sol:HealthAuthorityRegistry","label":"registeredAt","offset":0,"slot":"8","type":"t_uint256"},{"astId":2337,"contract":"contracts/HealthAuthorityRegistry.sol:HealthAuthorityRegistry","label":"lastUpdated","offset":0,"slot":"9","type":"t_uint256"},{"astId":2339,"contract":"contracts/HealthAuthorityRegistry.sol:HealthAuthorityRegistry","label":"registeredBy","offset":0,"slot":"10","type":"t_address"},{"astId":2341,"contract":"contracts/HealthAuthorityRegistry.sol:HealthAuthorityRegistry","label":"totalRecordsIssued","offset":0,"slot":"11","type":"t_uint256"},{"astId":2343,"contract":"contracts/HealthAuthorityRegistry.sol:HealthAuthorityRegistry","label":"totalRecordsRevoked","offset":0,"slot":"12","type":"t_uint256"},{"astId":2346,"contract":"contracts/HealthAuthorityRegistry.sol:HealthAuthorityRegistry","label":"accreditations","offset":0,"slot":"13","type":"t_array(t_string_storage)dyn_storage"}],"numberOfBytes":"448"},"t_uint256":{"encoding":"inplace","label":"uint256","numberOfBytes":"32"}}}}}}