{"contracts/ZKProofVerifier.sol":{"ZKProofVerifier":{"abi":[{"inputs":[],"stateMutability":"nonpayable","type":"constructor"},{"inputs":[],"name":"InvalidProofData","type":"error"},{"inputs":[],"name":"InvalidProofType","type":"error"},{"inputs":[],"name":"InvalidVerificationKey","type":"error"},{"inputs":[{"internalType":"address","name":"owner","type":"address"}],"name":"OwnableInvalidOwner","type":"error"},{"inputs":[{"internalType":"address","name":"account","type":"address"}],"name":"OwnableUnauthorizedAccount","type":"error"},{"inputs":[],"name":"ProofAlreadyVerified","type":"error"},{"inputs":[],"name":"ReentrancyGuardReentrantCall","type":"error"},{"anonymous":false,"inputs":[{"indexed":true,"internalType":"address","name":"previousOwner","type":"address"},{"indexed":true,"internalType":"address","name":"newOwner","type":"address"}],"name":"OwnershipTransferred","type":"event"},{"anonymous":false,"inputs":[{"indexed":true,"internalType":"bytes32","name":"proofHash","type":"bytes32"},{"indexed":false,"internalType":"string","name":"proofType","type":"string"},{"indexed":false,"internalType":"bool","name":"isValid","type":"bool"},{"indexed":true,"internalType":"address","name":"verifier","type":"address"}],"name":"ProofVerified","type":"event"},{"anonymous":false,"inputs":[{"indexed":true,"internalType":"string","name":"proofType","type":"string"},{"indexed":false,"internalType":"bytes32","name":"keyHash","type":"bytes32"}],"name":"VerificationKeyUpdated","type":"event"},{"inputs":[{"internalType":"string[]","name":"proofTypes","type":"string[]"},{"internalType":"bytes[]","name":"proofDataArray","type":"bytes[]"},{"internalType":"bytes[]","name":"publicInputsArray","type":"bytes[]"}],"name":"batchVerifyProofs","outputs":[{"internalType":"bool[]","name":"results","type":"bool[]"}],"stateMutability":"nonpayable","type":"function"},{"inputs":[{"internalType":"string","name":"proofType","type":"string"}],"name":"disableVerificationKey","outputs":[],"stateMutability":"nonpayable","type":"function"},{"inputs":[{"internalType":"string","name":"proofType","type":"string"}],"name":"enableVerificationKey","outputs":[],"stateMutability":"nonpayable","type":"function"},{"inputs":[],"name":"getSupportedProofTypes","outputs":[{"internalType":"string[]","name":"","type":"string[]"}],"stateMutability":"view","type":"function"},{"inputs":[{"internalType":"string","name":"proofType","type":"string"}],"name":"getVerificationKey","outputs":[{"internalType":"bytes32","name":"keyHash","type":"bytes32"},{"internalType":"bytes","name":"vkData","type":"bytes"},{"internalType":"bool","name":"isActive","type":"bool"},{"internalType":"uint256","name":"createdAt","type":"uint256"}],"stateMutability":"view","type":"function"},{"inputs":[{"internalType":"bytes32","name":"proofHash","type":"bytes32"}],"name":"getVerificationResult","outputs":[{"internalType":"bool","name":"isValid","type":"bool"},{"internalType":"bytes32","name":"publicInputsHash","type":"bytes32"},{"internalType":"uint256","name":"verifiedAt","type":"uint256"},{"internalType":"address","name":"verifier","type":"address"}],"stateMutability":"view","type":"function"},{"inputs":[],"name":"getVerificationStats","outputs":[{"internalType":"uint256","name":"total","type":"uint256"},{"internalType":"uint256","name":"successful","type":"uint256"},{"internalType":"uint256","name":"successRate","type":"uint256"}],"stateMutability":"view","type":"function"},{"inputs":[],"name":"owner","outputs":[{"internalType":"address","name":"","type":"address"}],"stateMutability":"view","type":"function"},{"inputs":[],"name":"renounceOwnership","outputs":[],"stateMutability":"nonpayable","type":"function"},{"inputs":[{"internalType":"string","name":"proofType","type":"string"},{"internalType":"bytes","name":"vkData","type":"bytes"}],"name":"setVerificationKey","outputs":[],"stateMutability":"nonpayable","type":"function"},{"inputs":[],"name":"successfulVerifications","outputs":[{"internalType":"uint256","name":"","type":"uint256"}],"stateMutability":"view","type":"function"},{"inputs":[{"internalType":"uint256","name":"","type":"uint256"}],"name":"supportedProofTypes","outputs":[{"internalType":"string","name":"","type":"string"}],"stateMutability":"view","type":"function"},{"inputs":[],"name":"totalVerifications","outputs":[{"internalType":"uint256","name":"","type":"uint256"}],"stateMutability":"view","type":"function"},{"inputs":[{"internalType":"address","name":"newOwner","type":"address"}],"name":"transferOwnership","outputs":[],"stateMutability":"nonpayable","type":"function"},{"inputs":[{"internalType":"string","name":"","type":"string"}],"name":"verificationKeys","outputs":[{"internalType":"bytes32","name":"keyHash","type":"bytes32"},{"internalType":"bytes","name":"vkData","type":"bytes"},{"internalType":"bool","name":"isActive","type":"bool"},{"internalType":"uint256","name":"createdAt","type":"uint256"}],"stateMutability":"view","type":"function"},{"inputs":[{"internalType":"bytes32","name":"","type":"bytes32"}],"name":"verificationResults","outputs":[{"internalType":"bool","name":"isValid","type":"bool"},{"internalType":"bytes32","name":"proofHash","type":"bytes32"},{"internalType":"bytes32","name":"publicInputsHash","type":"bytes32"},{"internalType":"uint256","name":"verifiedAt","type":"uint256"},{"internalType":"address","name":"verifier","type":"address"}],"stateMutability":"view","type":"function"},{"inputs":[{"internalType":"string","name":"proofType","type":"string"},{"internalType":"bytes","name":"proofData","type":"bytes"},{"internalType":"bytes","name":"publicInputs","type":"bytes"}],"name":"verifyProof","outputs":[{"internalType":"bool","name":"isValid","type":"bool"}],"stateMutability":"nonpayable","type":"function"}],"evm":{"bytecode":{"linkReferences":{},"object":"6080806040523461007e5733156100685760008054336001600160a01b03198216811783556040519290916001600160a01b0316907f8be0079c531659141344cd1fd0a4f28419497f9722a3daafe3b4186f6b6457e09080a3600180556113d090816100848239f35b631e4fbdf760e01b815260006004820152602490fd5b600080fdfe6080604052600436101561001257600080fd5b60003560e01c80623c791514610cc257806302cf829914610c3f57806321bf291b146108c657806336beb6971461086a57806341c7ce2e146107ff5780636131f7a1146105b557806361a9d75c1461053d5780636271a849146104b0578063715018a614610457578063742353691461035f5780637e5d70a0146102fa5780638da5cb5b146102d1578063ac90c140146102b3578063ae864daa14610295578063ba191715146101f3578063efcf6a8d1461016b5763f2fde38b146100d657600080fd5b34610166576020366003190112610166576004356001600160a01b038181169182900361016657610105611333565b811561014d57600054826bffffffffffffffffffffffff60a01b821617600055167f8be0079c531659141344cd1fd0a4f28419497f9722a3daafe3b4186f6b6457e0600080a3005b604051631e4fbdf760e01b815260006004820152602490fd5b600080fd5b346101665760003660031901126101665760055460065481159190826101e7576064810292818404606414821517156101d1576101bb578160609304905b60405192835260208301526040820152f35b634e487b7160e01b600052601260045260246000fd5b634e487b7160e01b600052601160045260246000fd5b606092506000906101a9565b34610166576020366003190112610166576004356001600160401b038111610166573660238201121561016657602061023961024c923690602481600401359101610f5b565b8160405193828580945193849201610d7a565b81016002815203019020805461029160405192610277846102708160018501610e5e565b0385610ef4565b600360ff6002830154169101549060405194859485610dc2565b0390f35b34610166576000366003190112610166576020600654604051908152f35b34610166576000366003190112610166576020600554604051908152f35b34610166576000366003190112610166576000546040516001600160a01b039091168152602090f35b3461016657602036600319011261016657600435600052600360205260a0604060002060ff8154169060018101549060028101546003820154916004600180881b03910154169260405194151585526020850152604084015260608301526080820152f35b346101665760003660031901126101665760045461037c81611217565b9061038a6040519283610ef4565b808252602090818301908160046000527f8a35acfbc15ff81a39ae7d344fd709f28e8600b4aa8c65c6b64bfe7fe36bd19b6000915b8383106104265750505050604051918083019381845251809452604083019360408160051b85010192916000955b8287106103fa5785850386f35b909192938280610416600193603f198a82030186528851610d9d565b96019201960195929190926103ed565b60018681926040999899516104468161043f8189610e5e565b0382610ef4565b8152019201920191909594956103bf565b3461016657600036600319011261016657610470611333565b600080546001600160a01b0319811682556001600160a01b03167f8be0079c531659141344cd1fd0a4f28419497f9722a3daafe3b4186f6b6457e08280a3005b34610166576020366003190112610166576004356001600160401b038111610166576104e0903690600401610d4d565b6104e8611333565b600360405182848237602081848101600281520301902001541561052b57602060029282604051938492833781018481520301902001805460ff19166001179055005b6040516369ed70ab60e01b8152600490fd5b34610166576020366003190112610166576004356001600160401b0381116101665761056d903690600401610d4d565b610575611333565b600360405182848237602081848101600281520301902001541561052b57602060029282604051938492833781018481520301902001805460ff19169055005b34610166576060366003190112610166576001600160401b03600435818111610166576105e6903690600401610f2b565b91602435818111610166576105ff903690600401610f2b565b909160443590811161016657610619903690600401610f2b565b9061062261126f565b828614806107f6575b156107b95761063986611217565b956106476040519788610ef4565b80875261065381611217565b601f190136602089013760005b8181106106ae57876001808055604051906020820160208352835180915260206040840194019060005b8181106106975784860385f35b82511515865260209586019590920191830161068a565b8060206106bf61070193858b61122e565b6107256106cd858b8d61122e565b906107136106dc888d8d61122e565b9290936040519a8b988998623c791560e01b8a52606060048b015260648a0191610fb0565b87810360031901602489015291610fb0565b84810360031901604486015291610fb0565b03816000305af19182156107ad57600092610770575b50885181101561075a57600191151560208260051b8b01015201610660565b634e487b7160e01b600052603260045260246000fd5b9091506020813d6020116107a5575b8161078c60209383610ef4565b810103126101665751801515810361016657908961073b565b3d915061077f565b6040513d6000823e3d90fd5b60405162461bcd60e51b8152602060048201526015602482015274082e4e4c2f240d8cadccee8d040dad2e6dac2e8c6d605b1b6044820152606490fd5b5081831461062b565b34610166576020366003190112610166576004356004548110156101665761082690610ded565b6108545761043f6108406102919260405192838092610e5e565b604051918291602083526020830190610d9d565b634e487b7160e01b600052600060045260246000fd5b346101665760203660031901126101665760043560005260036020526080604060002060ff81541690600281015490600381015490600460018060a01b0391015416916040519315158452602084015260408301526060820152f35b34610166576040366003190112610166576001600160401b03600435818111610166576108f7903690600401610d4d565b91602492833582811161016657610912903690600401610d4d565b939061091c611333565b610927368683610f5b565b9384516020809601209560036040518686823787818881016002815203019020015415610b26575b60405192608084019184831084841117610b1157610974926040528885523691610f5b565b85830190815260408301906001926001835260608501934285526040518888823789818a81016002815203019020955186556001860192519a8b51928311610afd57506109cb826109c58554610e24565b856111c1565b8890601f8311600114610a6d575091610a27826003969593610a42957fcafed62afbadcc638be1ffac505173ebb732f97a1c80b63445343bf06335682c9d9e600092610a62575b50508160011b916000199060031b1c19161790565b90555b511515600285019060ff801983541691151516179055565b5191015581604051928392833781016000815203902092604051908152a2005b015190508e80610a12565b9a601f198316846000528a6000209c6000905b828210610ae6575050927fcafed62afbadcc638be1ffac505173ebb732f97a1c80b63445343bf06335682c9b9c610a4295936001938360039a999710610ace575b505050811b019055610a2a565b0151600019838a1b60f8161c191690558d8080610ac1565b848401518f559d8e019d938c0193908c0190610a80565b634e487b7160e01b60009081526041600452fd5b89634e487b7160e01b60005260416004526000fd5b60045468010000000000000000811015610c2a57610b4c60019160018101600455610ded565b919091610c1557838711610b11578690610b6a826109c58554610e24565b600090601f8311600114610bad57509080610b9b92600091610ba2575b508160011b916000199060031b1c19161790565b905561094f565b90508701358c610b87565b91601f198116846000528a600020936000905b8c838310610bfa5750505010610be0575b5050600186811b01905561094f565b860135600019600389901b60f8161c191690558980610bd1565b8b860135875595810195948501948c94509190910190610bc0565b89634e487b7160e01b60005260006004526000fd5b88634e487b7160e01b60005260416004526000fd5b34610166576020366003190112610166576004356001600160401b038111610166576020610c736001923690600401610d4d565b91908260405193849283378101600281520301902061029181549160ff600282015416610cb6600383015492610caf6040518098819301610e5e565b0386610ef4565b60405194859485610dc2565b34610166576060366003190112610166576001600160401b0360043581811161016657610cf3903690600401610d4d565b60249291923582811161016657610d0e903690600401610d4d565b60449491943593841161016657602094610d2f610d3f953690600401610d4d565b949093610d3a61126f565b610fd1565b600180556040519015158152f35b9181601f84011215610166578235916001600160401b038311610166576020838186019501011161016657565b60005b838110610d8d5750506000910152565b8181015183820152602001610d7d565b90602091610db681518092818552858086019101610d7a565b601f01601f1916010190565b90606092610de191969594968352608060208401526080830190610d9d565b94151560408201520152565b60045481101561075a5760046000527f8a35acfbc15ff81a39ae7d344fd709f28e8600b4aa8c65c6b64bfe7fe36bd19b0190600090565b90600182811c92168015610e54575b6020831014610e3e57565b634e487b7160e01b600052602260045260246000fd5b91607f1691610e33565b805460009392610e6d82610e24565b91828252602093600191600181169081600014610ed55750600114610e94575b5050505050565b90939495506000929192528360002092846000945b838610610ec157505050500101903880808080610e8d565b805485870183015294019385908201610ea9565b60ff19168685015250505090151560051b010191503880808080610e8d565b90601f801991011681019081106001600160401b03821117610f1557604052565b634e487b7160e01b600052604160045260246000fd5b9181601f84011215610166578235916001600160401b038311610166576020808501948460051b01011161016657565b9291926001600160401b038211610f155760405191610f84601f8201601f191660200184610ef4565b829481845281830111610166578281602093846000960137010152565b60001981146101d15760010190565b908060209392818452848401376000828201840152601f01601f1916010190565b91909160409283519581838837600387838101600281526020998a910301902001541580156111a1575b61119057845193868886019182378685019461103189828c828a0199818860009c8d815237018983820152038084520182610ef4565b5190209586855260038852858520600381015461117f57509061105989611061938587611292565b983691610f5b565b86815191012084519060a082018281106001600160401b0382111761116b576004879695938a61114b96948b947fe863c4b0bb96b27c64e2f78877ed08b1fc220f2afdb7d52d3ad4bd887d7f360b9b528d1515988984526110f58b8486019288845281870194855260036060880196428852608089019a338c528352522094511515859060ff801983541691151516179055565b516001840155516002830155516003820155019060018060a01b039051166bffffffffffffffffffffffff60a01b82541617905588611135600554610fa1565b600555611158575b845194808652850191610fb0565b948201528033940390a390565b611163600654610fa1565b60065561113d565b634e487b7160e01b86526041600452602486fd5b5460ff169998505050505050505050565b84516369ed70ab60e01b8152600490fd5b5060ff600286518486823789818681018481520301902001541615610ffb565b90601f81116111cf57505050565b6000916000526020600020906020601f850160051c8301941061120d575b601f0160051c01915b82811061120257505050565b8181556001016111f6565b90925082906111ed565b6001600160401b038111610f155760051b60200190565b919081101561075a5760051b81013590601e19813603018212156101665701908135916001600160401b038311610166576020018236038113610166579190565b600260015414611280576002600155565b604051633ee5aeb560e01b8152600490fd5b61129d913691610f5b565b602081519101206040519060408201918083106001600160401b03841117610f155760207f65636473615f7369676e61747572655f766572696669636174696f6e00000000917f36d477060e2f5e503baad5323a99c1e35063633f7f8802a528b29b0456ff315e94604052601c8152015214611326571515908161131f575090565b9050151590565b906113309161135f565b90565b6000546001600160a01b0316330361134757565b60405163118cdaa760e01b8152336004820152602490fd5b9081158015611392575b61138b576060116113855760401161138057600190565b600090565b50600090565b5050600090565b50801561136956fea264697066735822122058392b1a76c11b5d3355a3306d20de6cecc195960b4a9a5ba73c58db50677a7764736f6c63430008160033","opcodes":"PUSH1 0x80 DUP1 PUSH1 0x40 MSTORE CALLVALUE PUSH2 0x7E JUMPI CALLER ISZERO PUSH2 0x68 JUMPI PUSH1 0x0 DUP1 SLOAD CALLER PUSH1 0x1 PUSH1 0x1 PUSH1 0xA0 SHL SUB NOT DUP3 AND DUP2 OR DUP4 SSTORE PUSH1 0x40 MLOAD SWAP3 SWAP1 SWAP2 PUSH1 0x1 PUSH1 0x1 PUSH1 0xA0 SHL SUB AND SWAP1 PUSH32 0x8BE0079C531659141344CD1FD0A4F28419497F9722A3DAAFE3B4186F6B6457E0 SWAP1 DUP1 LOG3 PUSH1 0x1 DUP1 SSTORE PUSH2 0x13D0 SWAP1 DUP2 PUSH2 0x84 DUP3 CODECOPY RETURN JUMPDEST PUSH4 0x1E4FBDF7 PUSH1 0xE0 SHL DUP2 MSTORE PUSH1 0x0 PUSH1 0x4 DUP3 ADD MSTORE PUSH1 0x24 SWAP1 REVERT JUMPDEST PUSH1 0x0 DUP1 REVERT INVALID PUSH1 0x80 PUSH1 0x40 MSTORE PUSH1 0x4 CALLDATASIZE LT ISZERO PUSH2 0x12 JUMPI PUSH1 0x0 DUP1 REVERT JUMPDEST PUSH1 0x0 CALLDATALOAD PUSH1 0xE0 SHR DUP1 PUSH3 0x3C7915 EQ PUSH2 0xCC2 JUMPI DUP1 PUSH4 0x2CF8299 EQ PUSH2 0xC3F JUMPI DUP1 PUSH4 0x21BF291B EQ PUSH2 0x8C6 JUMPI DUP1 PUSH4 0x36BEB697 EQ PUSH2 0x86A JUMPI DUP1 PUSH4 0x41C7CE2E EQ PUSH2 0x7FF JUMPI DUP1 PUSH4 0x6131F7A1 EQ PUSH2 0x5B5 JUMPI DUP1 PUSH4 0x61A9D75C EQ PUSH2 0x53D JUMPI DUP1 PUSH4 0x6271A849 EQ PUSH2 0x4B0 JUMPI DUP1 PUSH4 0x715018A6 EQ PUSH2 0x457 JUMPI DUP1 PUSH4 0x74235369 EQ PUSH2 0x35F JUMPI DUP1 PUSH4 0x7E5D70A0 EQ PUSH2 0x2FA JUMPI DUP1 PUSH4 0x8DA5CB5B EQ PUSH2 0x2D1 JUMPI DUP1 PUSH4 0xAC90C140 EQ PUSH2 0x2B3 JUMPI DUP1 PUSH4 0xAE864DAA EQ PUSH2 0x295 JUMPI DUP1 PUSH4 0xBA191715 EQ PUSH2 0x1F3 JUMPI DUP1 PUSH4 0xEFCF6A8D EQ PUSH2 0x16B JUMPI PUSH4 0xF2FDE38B EQ PUSH2 0xD6 JUMPI PUSH1 0x0 DUP1 REVERT JUMPDEST CALLVALUE PUSH2 0x166 JUMPI PUSH1 0x20 CALLDATASIZE PUSH1 0x3 NOT ADD SLT PUSH2 0x166 JUMPI PUSH1 0x4 CALLDATALOAD PUSH1 0x1 PUSH1 0x1 PUSH1 0xA0 SHL SUB DUP2 DUP2 AND SWAP2 DUP3 SWAP1 SUB PUSH2 0x166 JUMPI PUSH2 0x105 PUSH2 0x1333 JUMP JUMPDEST DUP2 ISZERO PUSH2 0x14D JUMPI PUSH1 0x0 SLOAD DUP3 PUSH12 0xFFFFFFFFFFFFFFFFFFFFFFFF PUSH1 0xA0 SHL DUP3 AND OR PUSH1 0x0 SSTORE AND PUSH32 0x8BE0079C531659141344CD1FD0A4F28419497F9722A3DAAFE3B4186F6B6457E0 PUSH1 0x0 DUP1 LOG3 STOP JUMPDEST PUSH1 0x40 MLOAD PUSH4 0x1E4FBDF7 PUSH1 0xE0 SHL DUP2 MSTORE PUSH1 0x0 PUSH1 0x4 DUP3 ADD MSTORE PUSH1 0x24 SWAP1 REVERT JUMPDEST PUSH1 0x0 DUP1 REVERT JUMPDEST CALLVALUE PUSH2 0x166 JUMPI PUSH1 0x0 CALLDATASIZE PUSH1 0x3 NOT ADD SLT PUSH2 0x166 JUMPI PUSH1 0x5 SLOAD PUSH1 0x6 SLOAD DUP2 ISZERO SWAP2 SWAP1 DUP3 PUSH2 0x1E7 JUMPI PUSH1 0x64 DUP2 MUL SWAP3 DUP2 DUP5 DIV PUSH1 0x64 EQ DUP3 ISZERO OR ISZERO PUSH2 0x1D1 JUMPI PUSH2 0x1BB JUMPI DUP2 PUSH1 0x60 SWAP4 DIV SWAP1 JUMPDEST PUSH1 0x40 MLOAD SWAP3 DUP4 MSTORE PUSH1 0x20 DUP4 ADD MSTORE PUSH1 0x40 DUP3 ADD MSTORE RETURN JUMPDEST PUSH4 0x4E487B71 PUSH1 0xE0 SHL PUSH1 0x0 MSTORE PUSH1 0x12 PUSH1 0x4 MSTORE PUSH1 0x24 PUSH1 0x0 REVERT JUMPDEST PUSH4 0x4E487B71 PUSH1 0xE0 SHL PUSH1 0x0 MSTORE PUSH1 0x11 PUSH1 0x4 MSTORE PUSH1 0x24 PUSH1 0x0 REVERT JUMPDEST PUSH1 0x60 SWAP3 POP PUSH1 0x0 SWAP1 PUSH2 0x1A9 JUMP JUMPDEST CALLVALUE PUSH2 0x166 JUMPI PUSH1 0x20 CALLDATASIZE PUSH1 0x3 NOT ADD SLT PUSH2 0x166 JUMPI PUSH1 0x4 CALLDATALOAD PUSH1 0x1 PUSH1 0x1 PUSH1 0x40 SHL SUB DUP2 GT PUSH2 0x166 JUMPI CALLDATASIZE PUSH1 0x23 DUP3 ADD SLT ISZERO PUSH2 0x166 JUMPI PUSH1 0x20 PUSH2 0x239 PUSH2 0x24C SWAP3 CALLDATASIZE SWAP1 PUSH1 0x24 DUP2 PUSH1 0x4 ADD CALLDATALOAD SWAP2 ADD PUSH2 0xF5B JUMP JUMPDEST DUP2 PUSH1 0x40 MLOAD SWAP4 DUP3 DUP6 DUP1 SWAP5 MLOAD SWAP4 DUP5 SWAP3 ADD PUSH2 0xD7A JUMP JUMPDEST DUP2 ADD PUSH1 0x2 DUP2 MSTORE SUB ADD SWAP1 KECCAK256 DUP1 SLOAD PUSH2 0x291 PUSH1 0x40 MLOAD SWAP3 PUSH2 0x277 DUP5 PUSH2 0x270 DUP2 PUSH1 0x1 DUP6 ADD PUSH2 0xE5E JUMP JUMPDEST SUB DUP6 PUSH2 0xEF4 JUMP JUMPDEST PUSH1 0x3 PUSH1 0xFF PUSH1 0x2 DUP4 ADD SLOAD AND SWAP2 ADD SLOAD SWAP1 PUSH1 0x40 MLOAD SWAP5 DUP6 SWAP5 DUP6 PUSH2 0xDC2 JUMP JUMPDEST SUB SWAP1 RETURN JUMPDEST CALLVALUE PUSH2 0x166 JUMPI PUSH1 0x0 CALLDATASIZE PUSH1 0x3 NOT ADD SLT PUSH2 0x166 JUMPI PUSH1 0x20 PUSH1 0x6 SLOAD PUSH1 0x40 MLOAD SWAP1 DUP2 MSTORE RETURN JUMPDEST CALLVALUE PUSH2 0x166 JUMPI PUSH1 0x0 CALLDATASIZE PUSH1 0x3 NOT ADD SLT PUSH2 0x166 JUMPI PUSH1 0x20 PUSH1 0x5 SLOAD PUSH1 0x40 MLOAD SWAP1 DUP2 MSTORE RETURN JUMPDEST CALLVALUE PUSH2 0x166 JUMPI PUSH1 0x0 CALLDATASIZE PUSH1 0x3 NOT ADD SLT PUSH2 0x166 JUMPI PUSH1 0x0 SLOAD PUSH1 0x40 MLOAD PUSH1 0x1 PUSH1 0x1 PUSH1 0xA0 SHL SUB SWAP1 SWAP2 AND DUP2 MSTORE PUSH1 0x20 SWAP1 RETURN JUMPDEST CALLVALUE PUSH2 0x166 JUMPI PUSH1 0x20 CALLDATASIZE PUSH1 0x3 NOT ADD SLT PUSH2 0x166 JUMPI PUSH1 0x4 CALLDATALOAD PUSH1 0x0 MSTORE PUSH1 0x3 PUSH1 0x20 MSTORE PUSH1 0xA0 PUSH1 0x40 PUSH1 0x0 KECCAK256 PUSH1 0xFF DUP2 SLOAD AND SWAP1 PUSH1 0x1 DUP2 ADD SLOAD SWAP1 PUSH1 0x2 DUP2 ADD SLOAD PUSH1 0x3 DUP3 ADD SLOAD SWAP2 PUSH1 0x4 PUSH1 0x1 DUP1 DUP9 SHL SUB SWAP2 ADD SLOAD AND SWAP3 PUSH1 0x40 MLOAD SWAP5 ISZERO ISZERO DUP6 MSTORE PUSH1 0x20 DUP6 ADD MSTORE PUSH1 0x40 DUP5 ADD MSTORE PUSH1 0x60 DUP4 ADD MSTORE PUSH1 0x80 DUP3 ADD MSTORE RETURN JUMPDEST CALLVALUE PUSH2 0x166 JUMPI PUSH1 0x0 CALLDATASIZE PUSH1 0x3 NOT ADD SLT PUSH2 0x166 JUMPI PUSH1 0x4 SLOAD PUSH2 0x37C DUP2 PUSH2 0x1217 JUMP JUMPDEST SWAP1 PUSH2 0x38A PUSH1 0x40 MLOAD SWAP3 DUP4 PUSH2 0xEF4 JUMP JUMPDEST DUP1 DUP3 MSTORE PUSH1 0x20 SWAP1 DUP2 DUP4 ADD SWAP1 DUP2 PUSH1 0x4 PUSH1 0x0 MSTORE PUSH32 0x8A35ACFBC15FF81A39AE7D344FD709F28E8600B4AA8C65C6B64BFE7FE36BD19B PUSH1 0x0 SWAP2 JUMPDEST DUP4 DUP4 LT PUSH2 0x426 JUMPI POP POP POP POP PUSH1 0x40 MLOAD SWAP2 DUP1 DUP4 ADD SWAP4 DUP2 DUP5 MSTORE MLOAD DUP1 SWAP5 MSTORE PUSH1 0x40 DUP4 ADD SWAP4 PUSH1 0x40 DUP2 PUSH1 0x5 SHL DUP6 ADD ADD SWAP3 SWAP2 PUSH1 0x0 SWAP6 JUMPDEST DUP3 DUP8 LT PUSH2 0x3FA JUMPI DUP6 DUP6 SUB DUP7 RETURN JUMPDEST SWAP1 SWAP2 SWAP3 SWAP4 DUP3 DUP1 PUSH2 0x416 PUSH1 0x1 SWAP4 PUSH1 0x3F NOT DUP11 DUP3 SUB ADD DUP7 MSTORE DUP9 MLOAD PUSH2 0xD9D JUMP JUMPDEST SWAP7 ADD SWAP3 ADD SWAP7 ADD SWAP6 SWAP3 SWAP2 SWAP1 SWAP3 PUSH2 0x3ED JUMP JUMPDEST PUSH1 0x1 DUP7 DUP2 SWAP3 PUSH1 0x40 SWAP10 SWAP9 SWAP10 MLOAD PUSH2 0x446 DUP2 PUSH2 0x43F DUP2 DUP10 PUSH2 0xE5E JUMP JUMPDEST SUB DUP3 PUSH2 0xEF4 JUMP JUMPDEST DUP2 MSTORE ADD SWAP3 ADD SWAP3 ADD SWAP2 SWAP1 SWAP6 SWAP5 SWAP6 PUSH2 0x3BF JUMP JUMPDEST CALLVALUE PUSH2 0x166 JUMPI PUSH1 0x0 CALLDATASIZE PUSH1 0x3 NOT ADD SLT PUSH2 0x166 JUMPI PUSH2 0x470 PUSH2 0x1333 JUMP JUMPDEST PUSH1 0x0 DUP1 SLOAD PUSH1 0x1 PUSH1 0x1 PUSH1 0xA0 SHL SUB NOT DUP2 AND DUP3 SSTORE PUSH1 0x1 PUSH1 0x1 PUSH1 0xA0 SHL SUB AND PUSH32 0x8BE0079C531659141344CD1FD0A4F28419497F9722A3DAAFE3B4186F6B6457E0 DUP3 DUP1 LOG3 STOP JUMPDEST CALLVALUE PUSH2 0x166 JUMPI PUSH1 0x20 CALLDATASIZE PUSH1 0x3 NOT ADD SLT PUSH2 0x166 JUMPI PUSH1 0x4 CALLDATALOAD PUSH1 0x1 PUSH1 0x1 PUSH1 0x40 SHL SUB DUP2 GT PUSH2 0x166 JUMPI PUSH2 0x4E0 SWAP1 CALLDATASIZE SWAP1 PUSH1 0x4 ADD PUSH2 0xD4D JUMP JUMPDEST PUSH2 0x4E8 PUSH2 0x1333 JUMP JUMPDEST PUSH1 0x3 PUSH1 0x40 MLOAD DUP3 DUP5 DUP3 CALLDATACOPY PUSH1 0x20 DUP2 DUP5 DUP2 ADD PUSH1 0x2 DUP2 MSTORE SUB ADD SWAP1 KECCAK256 ADD SLOAD ISZERO PUSH2 0x52B JUMPI PUSH1 0x20 PUSH1 0x2 SWAP3 DUP3 PUSH1 0x40 MLOAD SWAP4 DUP5 SWAP3 DUP4 CALLDATACOPY DUP2 ADD DUP5 DUP2 MSTORE SUB ADD SWAP1 KECCAK256 ADD DUP1 SLOAD PUSH1 0xFF NOT AND PUSH1 0x1 OR SWAP1 SSTORE STOP JUMPDEST PUSH1 0x40 MLOAD PUSH4 0x69ED70AB PUSH1 0xE0 SHL DUP2 MSTORE PUSH1 0x4 SWAP1 REVERT JUMPDEST CALLVALUE PUSH2 0x166 JUMPI PUSH1 0x20 CALLDATASIZE PUSH1 0x3 NOT ADD SLT PUSH2 0x166 JUMPI PUSH1 0x4 CALLDATALOAD PUSH1 0x1 PUSH1 0x1 PUSH1 0x40 SHL SUB DUP2 GT PUSH2 0x166 JUMPI PUSH2 0x56D SWAP1 CALLDATASIZE SWAP1 PUSH1 0x4 ADD PUSH2 0xD4D JUMP JUMPDEST PUSH2 0x575 PUSH2 0x1333 JUMP JUMPDEST PUSH1 0x3 PUSH1 0x40 MLOAD DUP3 DUP5 DUP3 CALLDATACOPY PUSH1 0x20 DUP2 DUP5 DUP2 ADD PUSH1 0x2 DUP2 MSTORE SUB ADD SWAP1 KECCAK256 ADD SLOAD ISZERO PUSH2 0x52B JUMPI PUSH1 0x20 PUSH1 0x2 SWAP3 DUP3 PUSH1 0x40 MLOAD SWAP4 DUP5 SWAP3 DUP4 CALLDATACOPY DUP2 ADD DUP5 DUP2 MSTORE SUB ADD SWAP1 KECCAK256 ADD DUP1 SLOAD PUSH1 0xFF NOT AND SWAP1 SSTORE STOP JUMPDEST CALLVALUE PUSH2 0x166 JUMPI PUSH1 0x60 CALLDATASIZE PUSH1 0x3 NOT ADD SLT PUSH2 0x166 JUMPI PUSH1 0x1 PUSH1 0x1 PUSH1 0x40 SHL SUB PUSH1 0x4 CALLDATALOAD DUP2 DUP2 GT PUSH2 0x166 JUMPI PUSH2 0x5E6 SWAP1 CALLDATASIZE SWAP1 PUSH1 0x4 ADD PUSH2 0xF2B JUMP JUMPDEST SWAP2 PUSH1 0x24 CALLDATALOAD DUP2 DUP2 GT PUSH2 0x166 JUMPI PUSH2 0x5FF SWAP1 CALLDATASIZE SWAP1 PUSH1 0x4 ADD PUSH2 0xF2B JUMP JUMPDEST SWAP1 SWAP2 PUSH1 0x44 CALLDATALOAD SWAP1 DUP2 GT PUSH2 0x166 JUMPI PUSH2 0x619 SWAP1 CALLDATASIZE SWAP1 PUSH1 0x4 ADD PUSH2 0xF2B JUMP JUMPDEST SWAP1 PUSH2 0x622 PUSH2 0x126F JUMP JUMPDEST DUP3 DUP7 EQ DUP1 PUSH2 0x7F6 JUMPI JUMPDEST ISZERO PUSH2 0x7B9 JUMPI PUSH2 0x639 DUP7 PUSH2 0x1217 JUMP JUMPDEST SWAP6 PUSH2 0x647 PUSH1 0x40 MLOAD SWAP8 DUP9 PUSH2 0xEF4 JUMP JUMPDEST DUP1 DUP8 MSTORE PUSH2 0x653 DUP2 PUSH2 0x1217 JUMP JUMPDEST PUSH1 0x1F NOT ADD CALLDATASIZE PUSH1 0x20 DUP10 ADD CALLDATACOPY PUSH1 0x0 JUMPDEST DUP2 DUP2 LT PUSH2 0x6AE JUMPI DUP8 PUSH1 0x1 DUP1 DUP1 SSTORE PUSH1 0x40 MLOAD SWAP1 PUSH1 0x20 DUP3 ADD PUSH1 0x20 DUP4 MSTORE DUP4 MLOAD DUP1 SWAP2 MSTORE PUSH1 0x20 PUSH1 0x40 DUP5 ADD SWAP5 ADD SWAP1 PUSH1 0x0 JUMPDEST DUP2 DUP2 LT PUSH2 0x697 JUMPI DUP5 DUP7 SUB DUP6 RETURN JUMPDEST DUP3 MLOAD ISZERO ISZERO DUP7 MSTORE PUSH1 0x20 SWAP6 DUP7 ADD SWAP6 SWAP1 SWAP3 ADD SWAP2 DUP4 ADD PUSH2 0x68A JUMP JUMPDEST DUP1 PUSH1 0x20 PUSH2 0x6BF PUSH2 0x701 SWAP4 DUP6 DUP12 PUSH2 0x122E JUMP JUMPDEST PUSH2 0x725 PUSH2 0x6CD DUP6 DUP12 DUP14 PUSH2 0x122E JUMP JUMPDEST SWAP1 PUSH2 0x713 PUSH2 0x6DC DUP9 DUP14 DUP14 PUSH2 0x122E JUMP JUMPDEST SWAP3 SWAP1 SWAP4 PUSH1 0x40 MLOAD SWAP11 DUP12 SWAP9 DUP10 SWAP9 PUSH3 0x3C7915 PUSH1 0xE0 SHL DUP11 MSTORE PUSH1 0x60 PUSH1 0x4 DUP12 ADD MSTORE PUSH1 0x64 DUP11 ADD SWAP2 PUSH2 0xFB0 JUMP JUMPDEST DUP8 DUP2 SUB PUSH1 0x3 NOT ADD PUSH1 0x24 DUP10 ADD MSTORE SWAP2 PUSH2 0xFB0 JUMP JUMPDEST DUP5 DUP2 SUB PUSH1 0x3 NOT ADD PUSH1 0x44 DUP7 ADD MSTORE SWAP2 PUSH2 0xFB0 JUMP JUMPDEST SUB DUP2 PUSH1 0x0 ADDRESS GAS CALL SWAP2 DUP3 ISZERO PUSH2 0x7AD JUMPI PUSH1 0x0 SWAP3 PUSH2 0x770 JUMPI JUMPDEST POP DUP9 MLOAD DUP2 LT ISZERO PUSH2 0x75A JUMPI PUSH1 0x1 SWAP2 ISZERO ISZERO PUSH1 0x20 DUP3 PUSH1 0x5 SHL DUP12 ADD ADD MSTORE ADD PUSH2 0x660 JUMP JUMPDEST PUSH4 0x4E487B71 PUSH1 0xE0 SHL PUSH1 0x0 MSTORE PUSH1 0x32 PUSH1 0x4 MSTORE PUSH1 0x24 PUSH1 0x0 REVERT JUMPDEST SWAP1 SWAP2 POP PUSH1 0x20 DUP2 RETURNDATASIZE PUSH1 0x20 GT PUSH2 0x7A5 JUMPI JUMPDEST DUP2 PUSH2 0x78C PUSH1 0x20 SWAP4 DUP4 PUSH2 0xEF4 JUMP JUMPDEST DUP2 ADD SUB SLT PUSH2 0x166 JUMPI MLOAD DUP1 ISZERO ISZERO DUP2 SUB PUSH2 0x166 JUMPI SWAP1 DUP10 PUSH2 0x73B JUMP JUMPDEST RETURNDATASIZE SWAP2 POP PUSH2 0x77F JUMP JUMPDEST PUSH1 0x40 MLOAD RETURNDATASIZE PUSH1 0x0 DUP3 RETURNDATACOPY RETURNDATASIZE SWAP1 REVERT JUMPDEST PUSH1 0x40 MLOAD PUSH3 0x461BCD PUSH1 0xE5 SHL DUP2 MSTORE PUSH1 0x20 PUSH1 0x4 DUP3 ADD MSTORE PUSH1 0x15 PUSH1 0x24 DUP3 ADD MSTORE PUSH21 0x82E4E4C2F240D8CADCCEE8D040DAD2E6DAC2E8C6D PUSH1 0x5B SHL PUSH1 0x44 DUP3 ADD MSTORE PUSH1 0x64 SWAP1 REVERT JUMPDEST POP DUP2 DUP4 EQ PUSH2 0x62B JUMP JUMPDEST CALLVALUE PUSH2 0x166 JUMPI PUSH1 0x20 CALLDATASIZE PUSH1 0x3 NOT ADD SLT PUSH2 0x166 JUMPI PUSH1 0x4 CALLDATALOAD PUSH1 0x4 SLOAD DUP2 LT ISZERO PUSH2 0x166 JUMPI PUSH2 0x826 SWAP1 PUSH2 0xDED JUMP JUMPDEST PUSH2 0x854 JUMPI PUSH2 0x43F PUSH2 0x840 PUSH2 0x291 SWAP3 PUSH1 0x40 MLOAD SWAP3 DUP4 DUP1 SWAP3 PUSH2 0xE5E JUMP JUMPDEST PUSH1 0x40 MLOAD SWAP2 DUP3 SWAP2 PUSH1 0x20 DUP4 MSTORE PUSH1 0x20 DUP4 ADD SWAP1 PUSH2 0xD9D JUMP JUMPDEST PUSH4 0x4E487B71 PUSH1 0xE0 SHL PUSH1 0x0 MSTORE PUSH1 0x0 PUSH1 0x4 MSTORE PUSH1 0x24 PUSH1 0x0 REVERT JUMPDEST CALLVALUE PUSH2 0x166 JUMPI PUSH1 0x20 CALLDATASIZE PUSH1 0x3 NOT ADD SLT PUSH2 0x166 JUMPI PUSH1 0x4 CALLDATALOAD PUSH1 0x0 MSTORE PUSH1 0x3 PUSH1 0x20 MSTORE PUSH1 0x80 PUSH1 0x40 PUSH1 0x0 KECCAK256 PUSH1 0xFF DUP2 SLOAD AND SWAP1 PUSH1 0x2 DUP2 ADD SLOAD SWAP1 PUSH1 0x3 DUP2 ADD SLOAD SWAP1 PUSH1 0x4 PUSH1 0x1 DUP1 PUSH1 0xA0 SHL SUB SWAP2 ADD SLOAD AND SWAP2 PUSH1 0x40 MLOAD SWAP4 ISZERO ISZERO DUP5 MSTORE PUSH1 0x20 DUP5 ADD MSTORE PUSH1 0x40 DUP4 ADD MSTORE PUSH1 0x60 DUP3 ADD MSTORE RETURN JUMPDEST CALLVALUE PUSH2 0x166 JUMPI PUSH1 0x40 CALLDATASIZE PUSH1 0x3 NOT ADD SLT PUSH2 0x166 JUMPI PUSH1 0x1 PUSH1 0x1 PUSH1 0x40 SHL SUB PUSH1 0x4 CALLDATALOAD DUP2 DUP2 GT PUSH2 0x166 JUMPI PUSH2 0x8F7 SWAP1 CALLDATASIZE SWAP1 PUSH1 0x4 ADD PUSH2 0xD4D JUMP JUMPDEST SWAP2 PUSH1 0x24 SWAP3 DUP4 CALLDATALOAD DUP3 DUP2 GT PUSH2 0x166 JUMPI PUSH2 0x912 SWAP1 CALLDATASIZE SWAP1 PUSH1 0x4 ADD PUSH2 0xD4D JUMP JUMPDEST SWAP4 SWAP1 PUSH2 0x91C PUSH2 0x1333 JUMP JUMPDEST PUSH2 0x927 CALLDATASIZE DUP7 DUP4 PUSH2 0xF5B JUMP JUMPDEST SWAP4 DUP5 MLOAD PUSH1 0x20 DUP1 SWAP7 ADD KECCAK256 SWAP6 PUSH1 0x3 PUSH1 0x40 MLOAD DUP7 DUP7 DUP3 CALLDATACOPY DUP8 DUP2 DUP9 DUP2 ADD PUSH1 0x2 DUP2 MSTORE SUB ADD SWAP1 KECCAK256 ADD SLOAD ISZERO PUSH2 0xB26 JUMPI JUMPDEST PUSH1 0x40 MLOAD SWAP3 PUSH1 0x80 DUP5 ADD SWAP2 DUP5 DUP4 LT DUP5 DUP5 GT OR PUSH2 0xB11 JUMPI PUSH2 0x974 SWAP3 PUSH1 0x40 MSTORE DUP9 DUP6 MSTORE CALLDATASIZE SWAP2 PUSH2 0xF5B JUMP JUMPDEST DUP6 DUP4 ADD SWAP1 DUP2 MSTORE PUSH1 0x40 DUP4 ADD SWAP1 PUSH1 0x1 SWAP3 PUSH1 0x1 DUP4 MSTORE PUSH1 0x60 DUP6 ADD SWAP4 TIMESTAMP DUP6 MSTORE PUSH1 0x40 MLOAD DUP9 DUP9 DUP3 CALLDATACOPY DUP10 DUP2 DUP11 DUP2 ADD PUSH1 0x2 DUP2 MSTORE SUB ADD SWAP1 KECCAK256 SWAP6 MLOAD DUP7 SSTORE PUSH1 0x1 DUP7 ADD SWAP3 MLOAD SWAP11 DUP12 MLOAD SWAP3 DUP4 GT PUSH2 0xAFD JUMPI POP PUSH2 0x9CB DUP3 PUSH2 0x9C5 DUP6 SLOAD PUSH2 0xE24 JUMP JUMPDEST DUP6 PUSH2 0x11C1 JUMP JUMPDEST DUP9 SWAP1 PUSH1 0x1F DUP4 GT PUSH1 0x1 EQ PUSH2 0xA6D JUMPI POP SWAP2 PUSH2 0xA27 DUP3 PUSH1 0x3 SWAP7 SWAP6 SWAP4 PUSH2 0xA42 SWAP6 PUSH32 0xCAFED62AFBADCC638BE1FFAC505173EBB732F97A1C80B63445343BF06335682C SWAP14 SWAP15 PUSH1 0x0 SWAP3 PUSH2 0xA62 JUMPI JUMPDEST POP POP DUP2 PUSH1 0x1 SHL SWAP2 PUSH1 0x0 NOT SWAP1 PUSH1 0x3 SHL SHR NOT AND OR SWAP1 JUMP JUMPDEST SWAP1 SSTORE JUMPDEST MLOAD ISZERO ISZERO PUSH1 0x2 DUP6 ADD SWAP1 PUSH1 0xFF DUP1 NOT DUP4 SLOAD AND SWAP2 ISZERO ISZERO AND OR SWAP1 SSTORE JUMP JUMPDEST MLOAD SWAP2 ADD SSTORE DUP2 PUSH1 0x40 MLOAD SWAP3 DUP4 SWAP3 DUP4 CALLDATACOPY DUP2 ADD PUSH1 0x0 DUP2 MSTORE SUB SWAP1 KECCAK256 SWAP3 PUSH1 0x40 MLOAD SWAP1 DUP2 MSTORE LOG2 STOP JUMPDEST ADD MLOAD SWAP1 POP DUP15 DUP1 PUSH2 0xA12 JUMP JUMPDEST SWAP11 PUSH1 0x1F NOT DUP4 AND DUP5 PUSH1 0x0 MSTORE DUP11 PUSH1 0x0 KECCAK256 SWAP13 PUSH1 0x0 SWAP1 JUMPDEST DUP3 DUP3 LT PUSH2 0xAE6 JUMPI POP POP SWAP3 PUSH32 0xCAFED62AFBADCC638BE1FFAC505173EBB732F97A1C80B63445343BF06335682C SWAP12 SWAP13 PUSH2 0xA42 SWAP6 SWAP4 PUSH1 0x1 SWAP4 DUP4 PUSH1 0x3 SWAP11 SWAP10 SWAP8 LT PUSH2 0xACE JUMPI JUMPDEST POP POP POP DUP2 SHL ADD SWAP1 SSTORE PUSH2 0xA2A JUMP JUMPDEST ADD MLOAD PUSH1 0x0 NOT DUP4 DUP11 SHL PUSH1 0xF8 AND SHR NOT AND SWAP1 SSTORE DUP14 DUP1 DUP1 PUSH2 0xAC1 JUMP JUMPDEST DUP5 DUP5 ADD MLOAD DUP16 SSTORE SWAP14 DUP15 ADD SWAP14 SWAP4 DUP13 ADD SWAP4 SWAP1 DUP13 ADD SWAP1 PUSH2 0xA80 JUMP JUMPDEST PUSH4 0x4E487B71 PUSH1 0xE0 SHL PUSH1 0x0 SWAP1 DUP2 MSTORE PUSH1 0x41 PUSH1 0x4 MSTORE REVERT JUMPDEST DUP10 PUSH4 0x4E487B71 PUSH1 0xE0 SHL PUSH1 0x0 MSTORE PUSH1 0x41 PUSH1 0x4 MSTORE PUSH1 0x0 REVERT JUMPDEST PUSH1 0x4 SLOAD PUSH9 0x10000000000000000 DUP2 LT ISZERO PUSH2 0xC2A JUMPI PUSH2 0xB4C PUSH1 0x1 SWAP2 PUSH1 0x1 DUP2 ADD PUSH1 0x4 SSTORE PUSH2 0xDED JUMP JUMPDEST SWAP2 SWAP1 SWAP2 PUSH2 0xC15 JUMPI DUP4 DUP8 GT PUSH2 0xB11 JUMPI DUP7 SWAP1 PUSH2 0xB6A DUP3 PUSH2 0x9C5 DUP6 SLOAD PUSH2 0xE24 JUMP JUMPDEST PUSH1 0x0 SWAP1 PUSH1 0x1F DUP4 GT PUSH1 0x1 EQ PUSH2 0xBAD JUMPI POP SWAP1 DUP1 PUSH2 0xB9B SWAP3 PUSH1 0x0 SWAP2 PUSH2 0xBA2 JUMPI JUMPDEST POP DUP2 PUSH1 0x1 SHL SWAP2 PUSH1 0x0 NOT SWAP1 PUSH1 0x3 SHL SHR NOT AND OR SWAP1 JUMP JUMPDEST SWAP1 SSTORE PUSH2 0x94F JUMP JUMPDEST SWAP1 POP DUP8 ADD CALLDATALOAD DUP13 PUSH2 0xB87 JUMP JUMPDEST SWAP2 PUSH1 0x1F NOT DUP2 AND DUP5 PUSH1 0x0 MSTORE DUP11 PUSH1 0x0 KECCAK256 SWAP4 PUSH1 0x0 SWAP1 JUMPDEST DUP13 DUP4 DUP4 LT PUSH2 0xBFA JUMPI POP POP POP LT PUSH2 0xBE0 JUMPI JUMPDEST POP POP PUSH1 0x1 DUP7 DUP2 SHL ADD SWAP1 SSTORE PUSH2 0x94F JUMP JUMPDEST DUP7 ADD CALLDATALOAD PUSH1 0x0 NOT PUSH1 0x3 DUP10 SWAP1 SHL PUSH1 0xF8 AND SHR NOT AND SWAP1 SSTORE DUP10 DUP1 PUSH2 0xBD1 JUMP JUMPDEST DUP12 DUP7 ADD CALLDATALOAD DUP8 SSTORE SWAP6 DUP2 ADD SWAP6 SWAP5 DUP6 ADD SWAP5 DUP13 SWAP5 POP SWAP2 SWAP1 SWAP2 ADD SWAP1 PUSH2 0xBC0 JUMP JUMPDEST DUP10 PUSH4 0x4E487B71 PUSH1 0xE0 SHL PUSH1 0x0 MSTORE PUSH1 0x0 PUSH1 0x4 MSTORE PUSH1 0x0 REVERT JUMPDEST DUP9 PUSH4 0x4E487B71 PUSH1 0xE0 SHL PUSH1 0x0 MSTORE PUSH1 0x41 PUSH1 0x4 MSTORE PUSH1 0x0 REVERT JUMPDEST CALLVALUE PUSH2 0x166 JUMPI PUSH1 0x20 CALLDATASIZE PUSH1 0x3 NOT ADD SLT PUSH2 0x166 JUMPI PUSH1 0x4 CALLDATALOAD PUSH1 0x1 PUSH1 0x1 PUSH1 0x40 SHL SUB DUP2 GT PUSH2 0x166 JUMPI PUSH1 0x20 PUSH2 0xC73 PUSH1 0x1 SWAP3 CALLDATASIZE SWAP1 PUSH1 0x4 ADD PUSH2 0xD4D JUMP JUMPDEST SWAP2 SWAP1 DUP3 PUSH1 0x40 MLOAD SWAP4 DUP5 SWAP3 DUP4 CALLDATACOPY DUP2 ADD PUSH1 0x2 DUP2 MSTORE SUB ADD SWAP1 KECCAK256 PUSH2 0x291 DUP2 SLOAD SWAP2 PUSH1 0xFF PUSH1 0x2 DUP3 ADD SLOAD AND PUSH2 0xCB6 PUSH1 0x3 DUP4 ADD SLOAD SWAP3 PUSH2 0xCAF PUSH1 0x40 MLOAD DUP1 SWAP9 DUP2 SWAP4 ADD PUSH2 0xE5E JUMP JUMPDEST SUB DUP7 PUSH2 0xEF4 JUMP JUMPDEST PUSH1 0x40 MLOAD SWAP5 DUP6 SWAP5 DUP6 PUSH2 0xDC2 JUMP JUMPDEST CALLVALUE PUSH2 0x166 JUMPI PUSH1 0x60 CALLDATASIZE PUSH1 0x3 NOT ADD SLT PUSH2 0x166 JUMPI PUSH1 0x1 PUSH1 0x1 PUSH1 0x40 SHL SUB PUSH1 0x4 CALLDATALOAD DUP2 DUP2 GT PUSH2 0x166 JUMPI PUSH2 0xCF3 SWAP1 CALLDATASIZE SWAP1 PUSH1 0x4 ADD PUSH2 0xD4D JUMP JUMPDEST PUSH1 0x24 SWAP3 SWAP2 SWAP3 CALLDATALOAD DUP3 DUP2 GT PUSH2 0x166 JUMPI PUSH2 0xD0E SWAP1 CALLDATASIZE SWAP1 PUSH1 0x4 ADD PUSH2 0xD4D JUMP JUMPDEST PUSH1 0x44 SWAP5 SWAP2 SWAP5 CALLDATALOAD SWAP4 DUP5 GT PUSH2 0x166 JUMPI PUSH1 0x20 SWAP5 PUSH2 0xD2F PUSH2 0xD3F SWAP6 CALLDATASIZE SWAP1 PUSH1 0x4 ADD PUSH2 0xD4D JUMP JUMPDEST SWAP5 SWAP1 SWAP4 PUSH2 0xD3A PUSH2 0x126F JUMP JUMPDEST PUSH2 0xFD1 JUMP JUMPDEST PUSH1 0x1 DUP1 SSTORE PUSH1 0x40 MLOAD SWAP1 ISZERO ISZERO DUP2 MSTORE RETURN JUMPDEST SWAP2 DUP2 PUSH1 0x1F DUP5 ADD SLT ISZERO PUSH2 0x166 JUMPI DUP3 CALLDATALOAD SWAP2 PUSH1 0x1 PUSH1 0x1 PUSH1 0x40 SHL SUB DUP4 GT PUSH2 0x166 JUMPI PUSH1 0x20 DUP4 DUP2 DUP7 ADD SWAP6 ADD ADD GT PUSH2 0x166 JUMPI JUMP JUMPDEST PUSH1 0x0 JUMPDEST DUP4 DUP2 LT PUSH2 0xD8D JUMPI POP POP PUSH1 0x0 SWAP2 ADD MSTORE JUMP JUMPDEST DUP2 DUP2 ADD MLOAD DUP4 DUP3 ADD MSTORE PUSH1 0x20 ADD PUSH2 0xD7D JUMP JUMPDEST SWAP1 PUSH1 0x20 SWAP2 PUSH2 0xDB6 DUP2 MLOAD DUP1 SWAP3 DUP2 DUP6 MSTORE DUP6 DUP1 DUP7 ADD SWAP2 ADD PUSH2 0xD7A JUMP JUMPDEST PUSH1 0x1F ADD PUSH1 0x1F NOT AND ADD ADD SWAP1 JUMP JUMPDEST SWAP1 PUSH1 0x60 SWAP3 PUSH2 0xDE1 SWAP2 SWAP7 SWAP6 SWAP5 SWAP7 DUP4 MSTORE PUSH1 0x80 PUSH1 0x20 DUP5 ADD MSTORE PUSH1 0x80 DUP4 ADD SWAP1 PUSH2 0xD9D JUMP JUMPDEST SWAP5 ISZERO ISZERO PUSH1 0x40 DUP3 ADD MSTORE ADD MSTORE JUMP JUMPDEST PUSH1 0x4 SLOAD DUP2 LT ISZERO PUSH2 0x75A JUMPI PUSH1 0x4 PUSH1 0x0 MSTORE PUSH32 0x8A35ACFBC15FF81A39AE7D344FD709F28E8600B4AA8C65C6B64BFE7FE36BD19B ADD SWAP1 PUSH1 0x0 SWAP1 JUMP JUMPDEST SWAP1 PUSH1 0x1 DUP3 DUP2 SHR SWAP3 AND DUP1 ISZERO PUSH2 0xE54 JUMPI JUMPDEST PUSH1 0x20 DUP4 LT EQ PUSH2 0xE3E JUMPI JUMP JUMPDEST PUSH4 0x4E487B71 PUSH1 0xE0 SHL PUSH1 0x0 MSTORE PUSH1 0x22 PUSH1 0x4 MSTORE PUSH1 0x24 PUSH1 0x0 REVERT JUMPDEST SWAP2 PUSH1 0x7F AND SWAP2 PUSH2 0xE33 JUMP JUMPDEST DUP1 SLOAD PUSH1 0x0 SWAP4 SWAP3 PUSH2 0xE6D DUP3 PUSH2 0xE24 JUMP JUMPDEST SWAP2 DUP3 DUP3 MSTORE PUSH1 0x20 SWAP4 PUSH1 0x1 SWAP2 PUSH1 0x1 DUP2 AND SWAP1 DUP2 PUSH1 0x0 EQ PUSH2 0xED5 JUMPI POP PUSH1 0x1 EQ PUSH2 0xE94 JUMPI JUMPDEST POP POP POP POP POP JUMP JUMPDEST SWAP1 SWAP4 SWAP5 SWAP6 POP PUSH1 0x0 SWAP3 SWAP2 SWAP3 MSTORE DUP4 PUSH1 0x0 KECCAK256 SWAP3 DUP5 PUSH1 0x0 SWAP5 JUMPDEST DUP4 DUP7 LT PUSH2 0xEC1 JUMPI POP POP POP POP ADD ADD SWAP1 CODESIZE DUP1 DUP1 DUP1 DUP1 PUSH2 0xE8D JUMP JUMPDEST DUP1 SLOAD DUP6 DUP8 ADD DUP4 ADD MSTORE SWAP5 ADD SWAP4 DUP6 SWAP1 DUP3 ADD PUSH2 0xEA9 JUMP JUMPDEST PUSH1 0xFF NOT AND DUP7 DUP6 ADD MSTORE POP POP POP SWAP1 ISZERO ISZERO PUSH1 0x5 SHL ADD ADD SWAP2 POP CODESIZE DUP1 DUP1 DUP1 DUP1 PUSH2 0xE8D JUMP JUMPDEST SWAP1 PUSH1 0x1F DUP1 NOT SWAP2 ADD AND DUP2 ADD SWAP1 DUP2 LT PUSH1 0x1 PUSH1 0x1 PUSH1 0x40 SHL SUB DUP3 GT OR PUSH2 0xF15 JUMPI PUSH1 0x40 MSTORE JUMP JUMPDEST PUSH4 0x4E487B71 PUSH1 0xE0 SHL PUSH1 0x0 MSTORE PUSH1 0x41 PUSH1 0x4 MSTORE PUSH1 0x24 PUSH1 0x0 REVERT JUMPDEST SWAP2 DUP2 PUSH1 0x1F DUP5 ADD SLT ISZERO PUSH2 0x166 JUMPI DUP3 CALLDATALOAD SWAP2 PUSH1 0x1 PUSH1 0x1 PUSH1 0x40 SHL SUB DUP4 GT PUSH2 0x166 JUMPI PUSH1 0x20 DUP1 DUP6 ADD SWAP5 DUP5 PUSH1 0x5 SHL ADD ADD GT PUSH2 0x166 JUMPI JUMP JUMPDEST SWAP3 SWAP2 SWAP3 PUSH1 0x1 PUSH1 0x1 PUSH1 0x40 SHL SUB DUP3 GT PUSH2 0xF15 JUMPI PUSH1 0x40 MLOAD SWAP2 PUSH2 0xF84 PUSH1 0x1F DUP3 ADD PUSH1 0x1F NOT AND PUSH1 0x20 ADD DUP5 PUSH2 0xEF4 JUMP JUMPDEST DUP3 SWAP5 DUP2 DUP5 MSTORE DUP2 DUP4 ADD GT PUSH2 0x166 JUMPI DUP3 DUP2 PUSH1 0x20 SWAP4 DUP5 PUSH1 0x0 SWAP7 ADD CALLDATACOPY ADD ADD MSTORE JUMP JUMPDEST PUSH1 0x0 NOT DUP2 EQ PUSH2 0x1D1 JUMPI PUSH1 0x1 ADD SWAP1 JUMP JUMPDEST SWAP1 DUP1 PUSH1 0x20 SWAP4 SWAP3 DUP2 DUP5 MSTORE DUP5 DUP5 ADD CALLDATACOPY PUSH1 0x0 DUP3 DUP3 ADD DUP5 ADD MSTORE PUSH1 0x1F ADD PUSH1 0x1F NOT AND ADD ADD SWAP1 JUMP JUMPDEST SWAP2 SWAP1 SWAP2 PUSH1 0x40 SWAP3 DUP4 MLOAD SWAP6 DUP2 DUP4 DUP9 CALLDATACOPY PUSH1 0x3 DUP8 DUP4 DUP2 ADD PUSH1 0x2 DUP2 MSTORE PUSH1 0x20 SWAP10 DUP11 SWAP2 SUB ADD SWAP1 KECCAK256 ADD SLOAD ISZERO DUP1 ISZERO PUSH2 0x11A1 JUMPI JUMPDEST PUSH2 0x1190 JUMPI DUP5 MLOAD SWAP4 DUP7 DUP9 DUP7 ADD SWAP2 DUP3 CALLDATACOPY DUP7 DUP6 ADD SWAP5 PUSH2 0x1031 DUP10 DUP3 DUP13 DUP3 DUP11 ADD SWAP10 DUP2 DUP9 PUSH1 0x0 SWAP13 DUP14 DUP2 MSTORE CALLDATACOPY ADD DUP10 DUP4 DUP3 ADD MSTORE SUB DUP1 DUP5 MSTORE ADD DUP3 PUSH2 0xEF4 JUMP JUMPDEST MLOAD SWAP1 KECCAK256 SWAP6 DUP7 DUP6 MSTORE PUSH1 0x3 DUP9 MSTORE DUP6 DUP6 KECCAK256 PUSH1 0x3 DUP2 ADD SLOAD PUSH2 0x117F JUMPI POP SWAP1 PUSH2 0x1059 DUP10 PUSH2 0x1061 SWAP4 DUP6 DUP8 PUSH2 0x1292 JUMP JUMPDEST SWAP9 CALLDATASIZE SWAP2 PUSH2 0xF5B JUMP JUMPDEST DUP7 DUP2 MLOAD SWAP2 ADD KECCAK256 DUP5 MLOAD SWAP1 PUSH1 0xA0 DUP3 ADD DUP3 DUP2 LT PUSH1 0x1 PUSH1 0x1 PUSH1 0x40 SHL SUB DUP3 GT OR PUSH2 0x116B JUMPI PUSH1 0x4 DUP8 SWAP7 SWAP6 SWAP4 DUP11 PUSH2 0x114B SWAP7 SWAP5 DUP12 SWAP5 PUSH32 0xE863C4B0BB96B27C64E2F78877ED08B1FC220F2AFDB7D52D3AD4BD887D7F360B SWAP12 MSTORE DUP14 ISZERO ISZERO SWAP9 DUP10 DUP5 MSTORE PUSH2 0x10F5 DUP12 DUP5 DUP7 ADD SWAP3 DUP9 DUP5 MSTORE DUP2 DUP8 ADD SWAP5 DUP6 MSTORE PUSH1 0x3 PUSH1 0x60 DUP9 ADD SWAP7 TIMESTAMP DUP9 MSTORE PUSH1 0x80 DUP10 ADD SWAP11 CALLER DUP13 MSTORE DUP4 MSTORE MSTORE KECCAK256 SWAP5 MLOAD ISZERO ISZERO DUP6 SWAP1 PUSH1 0xFF DUP1 NOT DUP4 SLOAD AND SWAP2 ISZERO ISZERO AND OR SWAP1 SSTORE JUMP JUMPDEST MLOAD PUSH1 0x1 DUP5 ADD SSTORE MLOAD PUSH1 0x2 DUP4 ADD SSTORE MLOAD PUSH1 0x3 DUP3 ADD SSTORE ADD SWAP1 PUSH1 0x1 DUP1 PUSH1 0xA0 SHL SUB SWAP1 MLOAD AND PUSH12 0xFFFFFFFFFFFFFFFFFFFFFFFF PUSH1 0xA0 SHL DUP3 SLOAD AND OR SWAP1 SSTORE DUP9 PUSH2 0x1135 PUSH1 0x5 SLOAD PUSH2 0xFA1 JUMP JUMPDEST PUSH1 0x5 SSTORE PUSH2 0x1158 JUMPI JUMPDEST DUP5 MLOAD SWAP5 DUP1 DUP7 MSTORE DUP6 ADD SWAP2 PUSH2 0xFB0 JUMP JUMPDEST SWAP5 DUP3 ADD MSTORE DUP1 CALLER SWAP5 SUB SWAP1 LOG3 SWAP1 JUMP JUMPDEST PUSH2 0x1163 PUSH1 0x6 SLOAD PUSH2 0xFA1 JUMP JUMPDEST PUSH1 0x6 SSTORE PUSH2 0x113D JUMP JUMPDEST PUSH4 0x4E487B71 PUSH1 0xE0 SHL DUP7 MSTORE PUSH1 0x41 PUSH1 0x4 MSTORE PUSH1 0x24 DUP7 REVERT JUMPDEST SLOAD PUSH1 0xFF AND SWAP10 SWAP9 POP POP POP POP POP POP POP POP POP JUMP JUMPDEST DUP5 MLOAD PUSH4 0x69ED70AB PUSH1 0xE0 SHL DUP2 MSTORE PUSH1 0x4 SWAP1 REVERT JUMPDEST POP PUSH1 0xFF PUSH1 0x2 DUP7 MLOAD DUP5 DUP7 DUP3 CALLDATACOPY DUP10 DUP2 DUP7 DUP2 ADD DUP5 DUP2 MSTORE SUB ADD SWAP1 KECCAK256 ADD SLOAD AND ISZERO PUSH2 0xFFB JUMP JUMPDEST SWAP1 PUSH1 0x1F DUP2 GT PUSH2 0x11CF JUMPI POP POP POP JUMP JUMPDEST PUSH1 0x0 SWAP2 PUSH1 0x0 MSTORE PUSH1 0x20 PUSH1 0x0 KECCAK256 SWAP1 PUSH1 0x20 PUSH1 0x1F DUP6 ADD PUSH1 0x5 SHR DUP4 ADD SWAP5 LT PUSH2 0x120D JUMPI JUMPDEST PUSH1 0x1F ADD PUSH1 0x5 SHR ADD SWAP2 JUMPDEST DUP3 DUP2 LT PUSH2 0x1202 JUMPI POP POP POP JUMP JUMPDEST DUP2 DUP2 SSTORE PUSH1 0x1 ADD PUSH2 0x11F6 JUMP JUMPDEST SWAP1 SWAP3 POP DUP3 SWAP1 PUSH2 0x11ED JUMP JUMPDEST PUSH1 0x1 PUSH1 0x1 PUSH1 0x40 SHL SUB DUP2 GT PUSH2 0xF15 JUMPI PUSH1 0x5 SHL PUSH1 0x20 ADD SWAP1 JUMP JUMPDEST SWAP2 SWAP1 DUP2 LT ISZERO PUSH2 0x75A JUMPI PUSH1 0x5 SHL DUP2 ADD CALLDATALOAD SWAP1 PUSH1 0x1E NOT DUP2 CALLDATASIZE SUB ADD DUP3 SLT ISZERO PUSH2 0x166 JUMPI ADD SWAP1 DUP2 CALLDATALOAD SWAP2 PUSH1 0x1 PUSH1 0x1 PUSH1 0x40 SHL SUB DUP4 GT PUSH2 0x166 JUMPI PUSH1 0x20 ADD DUP3 CALLDATASIZE SUB DUP2 SGT PUSH2 0x166 JUMPI SWAP2 SWAP1 JUMP JUMPDEST PUSH1 0x2 PUSH1 0x1 SLOAD EQ PUSH2 0x1280 JUMPI PUSH1 0x2 PUSH1 0x1 SSTORE JUMP JUMPDEST PUSH1 0x40 MLOAD PUSH4 0x3EE5AEB5 PUSH1 0xE0 SHL DUP2 MSTORE PUSH1 0x4 SWAP1 REVERT JUMPDEST PUSH2 0x129D SWAP2 CALLDATASIZE SWAP2 PUSH2 0xF5B JUMP JUMPDEST PUSH1 0x20 DUP2 MLOAD SWAP2 ADD KECCAK256 PUSH1 0x40 MLOAD SWAP1 PUSH1 0x40 DUP3 ADD SWAP2 DUP1 DUP4 LT PUSH1 0x1 PUSH1 0x1 PUSH1 0x40 SHL SUB DUP5 GT OR PUSH2 0xF15 JUMPI PUSH1 0x20 PUSH32 0x65636473615F7369676E61747572655F766572696669636174696F6E00000000 SWAP2 PUSH32 0x36D477060E2F5E503BAAD5323A99C1E35063633F7F8802A528B29B0456FF315E SWAP5 PUSH1 0x40 MSTORE PUSH1 0x1C DUP2 MSTORE ADD MSTORE EQ PUSH2 0x1326 JUMPI ISZERO ISZERO SWAP1 DUP2 PUSH2 0x131F JUMPI POP SWAP1 JUMP JUMPDEST SWAP1 POP ISZERO ISZERO SWAP1 JUMP JUMPDEST SWAP1 PUSH2 0x1330 SWAP2 PUSH2 0x135F JUMP JUMPDEST SWAP1 JUMP JUMPDEST PUSH1 0x0 SLOAD PUSH1 0x1 PUSH1 0x1 PUSH1 0xA0 SHL SUB AND CALLER SUB PUSH2 0x1347 JUMPI JUMP JUMPDEST PUSH1 0x40 MLOAD PUSH4 0x118CDAA7 PUSH1 0xE0 SHL DUP2 MSTORE CALLER PUSH1 0x4 DUP3 ADD MSTORE PUSH1 0x24 SWAP1 REVERT JUMPDEST SWAP1 DUP2 ISZERO DUP1 ISZERO PUSH2 0x1392 JUMPI JUMPDEST PUSH2 0x138B JUMPI PUSH1 0x60 GT PUSH2 0x1385 JUMPI PUSH1 0x40 GT PUSH2 0x1380 JUMPI PUSH1 0x1 SWAP1 JUMP JUMPDEST PUSH1 0x0 SWAP1 JUMP JUMPDEST POP PUSH1 0x0 SWAP1 JUMP JUMPDEST POP POP PUSH1 0x0 SWAP1 JUMP JUMPDEST POP DUP1 ISZERO PUSH2 0x1369 JUMP INVALID LOG2 PUSH5 0x6970667358 0x22 SLT KECCAK256 PC CODECOPY 0x2B BYTE PUSH23 0xC11B5D3355A3306D20DE6CECC195960B4A9A5BA73C58DB POP PUSH8 0x7A7764736F6C6343 STOP ADDMOD AND STOP CALLER "},"methodIdentifiers":{"batchVerifyProofs(string[],bytes[],bytes[])":"6131f7a1","disableVerificationKey(string)":"61a9d75c","enableVerificationKey(string)":"6271a849","getSupportedProofTypes()":"74235369","getVerificationKey(string)":"02cf8299","getVerificationResult(bytes32)":"36beb697","getVerificationStats()":"efcf6a8d","owner()":"8da5cb5b","renounceOwnership()":"715018a6","setVerificationKey(string,bytes)":"21bf291b","successfulVerifications()":"ae864daa","supportedProofTypes(uint256)":"41c7ce2e","totalVerifications()":"ac90c140","transferOwnership(address)":"f2fde38b","verificationKeys(string)":"ba191715","verificationResults(bytes32)":"7e5d70a0","verifyProof(string,bytes,bytes)":"003c7915"}},"storageLayout":{"storage":[{"astId":1281,"contract":"contracts/ZKProofVerifier.sol:ZKProofVerifier","label":"_owner","offset":0,"slot":"0","type":"t_address"},{"astId":2078,"contract":"contracts/ZKProofVerifier.sol:ZKProofVerifier","label":"_status","offset":0,"slot":"1","type":"t_uint256"},{"astId":4230,"contract":"contracts/ZKProofVerifier.sol:ZKProofVerifier","label":"verificationKeys","offset":0,"slot":"2","type":"t_mapping(t_string_memory_ptr,t_struct(VerificationKey)4214_storage)"},{"astId":4235,"contract":"contracts/ZKProofVerifier.sol:ZKProofVerifier","label":"verificationResults","offset":0,"slot":"3","type":"t_mapping(t_bytes32,t_struct(VerificationResult)4225_storage)"},{"astId":4238,"contract":"contracts/ZKProofVerifier.sol:ZKProofVerifier","label":"supportedProofTypes","offset":0,"slot":"4","type":"t_array(t_string_storage)dyn_storage"},{"astId":4240,"contract":"contracts/ZKProofVerifier.sol:ZKProofVerifier","label":"totalVerifications","offset":0,"slot":"5","type":"t_uint256"},{"astId":4242,"contract":"contracts/ZKProofVerifier.sol:ZKProofVerifier","label":"successfulVerifications","offset":0,"slot":"6","type":"t_uint256"}],"types":{"t_address":{"encoding":"inplace","label":"address","numberOfBytes":"20"},"t_array(t_string_storage)dyn_storage":{"base":"t_string_storage","encoding":"dynamic_array","label":"string[]","numberOfBytes":"32"},"t_bool":{"encoding":"inplace","label":"bool","numberOfBytes":"1"},"t_bytes32":{"encoding":"inplace","label":"bytes32","numberOfBytes":"32"},"t_bytes_storage":{"encoding":"bytes","label":"bytes","numberOfBytes":"32"},"t_mapping(t_bytes32,t_struct(VerificationResult)4225_storage)":{"encoding":"mapping","key":"t_bytes32","label":"mapping(bytes32 => struct ZKProofVerifier.VerificationResult)","numberOfBytes":"32","value":"t_struct(VerificationResult)4225_storage"},"t_mapping(t_string_memory_ptr,t_struct(VerificationKey)4214_storage)":{"encoding":"mapping","key":"t_string_memory_ptr","label":"mapping(string => struct ZKProofVerifier.VerificationKey)","numberOfBytes":"32","value":"t_struct(VerificationKey)4214_storage"},"t_string_memory_ptr":{"encoding":"bytes","label":"string","numberOfBytes":"32"},"t_string_storage":{"encoding":"bytes","label":"string","numberOfBytes":"32"},"t_struct(VerificationKey)4214_storage":{"encoding":"inplace","label":"struct ZKProofVerifier.VerificationKey","members":[{"astId":4207,"contract":"contracts/ZKProofVerifier.sol:ZKProofVerifier","label":"keyHash","offset":0,"slot":"0","type":"t_bytes32"},{"astId":4209,"contract":"contracts/ZKProofVerifier.sol:ZKProofVerifier","label":"vkData","offset":0,"slot":"1","type":"t_bytes_storage"},{"astId":4211,"contract":"contracts/ZKProofVerifier.sol:ZKProofVerifier","label":"isActive","offset":0,"slot":"2","type":"t_bool"},{"astId":4213,"contract":"contracts/ZKProofVerifier.sol:ZKProofVerifier","label":"createdAt","offset":0,"slot":"3","type":"t_uint256"}],"numberOfBytes":"128"},"t_struct(VerificationResult)4225_storage":{"encoding":"inplace","label":"struct ZKProofVerifier.VerificationResult","members":[{"astId":4216,"contract":"contracts/ZKProofVerifier.sol:ZKProofVerifier","label":"isValid","offset":0,"slot":"0","type":"t_bool"},{"astId":4218,"contract":"contracts/ZKProofVerifier.sol:ZKProofVerifier","label":"proofHash","offset":0,"slot":"1","type":"t_bytes32"},{"astId":4220,"contract":"contracts/ZKProofVerifier.sol:ZKProofVerifier","label":"publicInputsHash","offset":0,"slot":"2","type":"t_bytes32"},{"astId":4222,"contract":"contracts/ZKProofVerifier.sol:ZKProofVerifier","label":"verifiedAt","offset":0,"slot":"3","type":"t_uint256"},{"astId":4224,"contract":"contracts/ZKProofVerifier.sol:ZKProofVerifier","label":"verifier","offset":0,"slot":"4","type":"t_address"}],"numberOfBytes":"160"},"t_uint256":{"encoding":"inplace","label":"uint256","numberOfBytes":"32"}}}}}}